:020000040800F2
:10000000C805012085020008670800085F0800088D
:100010006308000857080008290A000800000000CB
:10002000000000000000000000000000C501000802
:100030005B08000800000000210200086D080008AD
:100040009F0200089F0200089F0200089F0200080C
:100050009F0200089F0200089F0200089F020008FC
:100060009F0200089F0200089F0200089F020008EC
:100070009F0200089F0200089F0200089F020008DC
:100080009F0200089F0200089F0200089F020008CC
:100090009F0200089F0200089F0200089F020008BC
:1000A0009F0200089F0200089F0200089F020008AC
:1000B0009F0200089F0200089F0200089F0200089C
:1000C0009F0200089F0200089F0200089F0200088C
:1000D0009F0200089F0200089F0200089F0200087C
:1000E0009F0200089F0200089F0200089F0200086C
:1000F0009F0200089F0200089F0200089F0200085C
:100100009F0200089F0200089F0200089F0200084B
:100110009F0200089F0200089F0200089F0200083B
:100120009F0200089F0200089F0200089F0200082B
:100130009F0200089F0200089F0200089F0200081B
:100140009F0200089F0200089F0200089F0200080B
:100150009F0200089F0200089F0200089F020008FB
:100160009F0200089F0200089F0200089F020008EB
:100170009F0200089F0200089F0200080000000084
:100180009F0200089F0200089F0200089F020008CB
:100190009F0200089F0200089F0200080000000064
:1001A0009F0200089F0200089F020008DFF810D09D
:1001B00000F0D0FA00480047FD260008AFF30080A9
:1001C000C80501202C4B19680868B0E8F04F80F38F
:1001D0000988BFF36F8F4FF0000080F311887047DC
:1001E0000000000008480068006880F308884FF0AD
:1001F000000080F3148862B661B6BFF34F8FBFF37F
:100200006F8F00DF00BF00BF08ED00E0DFF80C00DB
:10021000016841F470010160704700BF88ED00E0A3
:10022000EFF30980BFF36F8F134B1A681EF0100FA6
:1002300008BF20ED108A20E9F04F106009B44FF09C
:10024000500080F31188BFF34F8FBFF36F8F03F01F
:10025000BDFD4FF0000080F3118809BC19680868E3
:10026000B0E8F04F1EF0100F08BFB0EC108A80F31A
:100270000988BFF36F8F704718000020EFF30580E7
:10028000704700000648804706480047FEE7FEE743
:10029000FEE7FEE7FEE7FEE7FEE7FEE7FEE7FEE736
:1002A000A1080008AD0100082DE9F05F0546002017
:1002B00092469B4688460646814640241BE02846D7
:1002C00041464746224600F07CF853465A46C01A3B
:1002D000914110D311461846224600F063F82D1ABA
:1002E00067EB01084F4622460120002100F05AF832
:1002F00017EB00094E41201EA4F10104DFDC484643
:1003000031462A464346BDE8F09F40EA01039B0779
:1003100003D009E008C9121F08C0042AFAD203E07A
:1003200011F8013B00F8013B521EF9D27047D2B2DE
:1003300001E000F8012B491EFBD270470022F6E7CE
:1003400010B513460A4604461946FFF7F0FF20464B
:1003500010BD00F0004230F000400AD0C10D01F5A0
:100360006071C0F3160042EA0151C2084007114310
:10037000704700200146704730B50B46014600200B
:100380002022012409E021FA02F59D4205D303FA57
:1003900002F5491B04FA02F52844151EA2F10102D8
:1003A000F1DC30BD202A04DB203A00FA02F1002003
:1003B00070479140C2F1200320FA03F319439040A3
:1003C0007047202A04DB203A21FA02F0002170470E
:1003D00021FA02F3D040C2F12002914008431946AD
:1003E00070472DE9FE4F804681EA0300C00F0C469E
:1003F000009021F0004123F00045B8EB0200A94134
:1004000005D24046214690461C460B46024623F044
:100410000040104347D0270DC7F30A00C3F30A5129
:100420000290401A019040286BDAC3F3130040F4A5
:10043000801B0098924620B10023D2EB030A63EBA5
:100440000B0B01985946C0F140025046FFF7AAFF36
:1004500006460D4650465946019A00F08DF910EBBC
:1004600008006141002487EA115284EAE7731A43C5
:1004700040D0009A62B3019A012A4FEA075215DC74
:10048000001B61EB02014FF0004202EA0752CDE986
:100490000042001C41F5801132462B4600F08DF9D8
:1004A00003B0BDE8F08F40462146F9E7001B61EB41
:1004B0000201001C41F5801300185B412018A2F5D1
:1004C000001747EB030140EAD570B6196D4111E002
:1004D0006D084FEA360645EAC0754FEA0752001B21
:1004E00061EB0201001C41F5801149084FEA300020
:1004F0000019514132462B4603B0BDE8F04F00F0E1
:100500004DB90098012240000023D0EB020263EBBA
:10051000E073009821464FEAE074B8EB000061EB0D
:100520000401E9E783F000435BE781F0004158E70D
:100530002DE9FE4F81EA030404F0004421F000415C
:1005400000944FF0000B23F0004350EA01045ED00A
:1005500052EA03045BD0C3F30A54C1F30A552C4496
:10056000A4F2F3340194A0FB0254C1F3130141F44B
:100570008011C3F3130343F4801301FB024400FB17
:10058000034E840A970A44EA815447EA8357A4FB3E
:10059000076802958D0A05FB07854FEA932C04FB3B
:1005A0000C542705029D4FEA065847EA1637B5EB6B
:1005B00008056EEB070C870E920E47EA811742EA98
:1005C0008312A7FB0201B6EB0B0164EB00042B0DB9
:1005D00043EA0C335E1844EB1C50DA465146E7FB05
:1005E0000201C5F313044FEA0B3343EA14534FEAF5
:1005F0000432019C43EA0603A4F10C040294009C1B
:10060000CDE900B400F0D9F803B0BDE8F08F0020C8
:100610000146F9E72DE9F04D81EA030404F0004BAF
:1006200021F0004514464FF0000A23F0004150EA43
:10063000050220D054EA01021DD0C5F30A57024634
:10064000C5F31303C1F31300C1F30A5640F4801538
:1006500043F48013A7EB0608101BD64608F2FD38BA
:1006600073EB050002D308F1010801E092185B4129
:10067000B8F1000F03DA00200146BDE8F08D00203C
:100680004FF48011064684460EE0171B73EB0507F6
:1006900005D3121B63EB050306434CEA010C490822
:1006A0004FEA300092185B4150EA0107EDD152EA5F
:1006B000030012D082EA040083EA0501084305D052
:1006C000101BAB4106D20122002306E000224FF0AE
:1006D000004302E06FF0010253101AEB06004CEBEE
:1006E000085110EB0A0041EB0B01BDE8F04D00F0A2
:1006F00055B8C1F30A52C1F3130140F2FF3341F47C
:1007000080119A4202DA00200146704740F23343DA
:100710009A42A2F2334202DC5242FFF752BEFFF786
:1007200041BE000030B5041E71F1000404DB4FF03F
:100730000044404264EB0101141E73F1000405DB28
:100740001C464FF00043524263EB0403994208BF3A
:10075000904230BD064C074D06E0E06840F00103D2
:1007600094E8070098471034AC42F6D3FFF722FD17
:100770005448000874480008202A06DBCB17203AAA
:1007800041FA02F043EAE07306E041FA02F3D04096
:10079000C2F12002914008431946704710B5141E5B
:1007A00073F1000408DA401C41F1000192185B412A
:1007B0001A4301D120F0010010BD2DE9F04D924601
:1007C0009B4611B1B1FA81F202E0B0FA80F2203218
:1007D0009046FFF7E7FD04460F4640EA0A0041EA6B
:1007E0000B0153465A46084313D0114653EA010001
:1007F00019D0C8F140025046FFF7E3FD05460E460A
:10080000504659464246FFF7CDFD084305D001202A
:1008100004E020463946BDE8F08D0020054346EA55
:10082000E0762C4337430A986305E40AA0EB0800FE
:100830000022FD0A44EA47540A3002D5002001464E
:10084000E9E7010510196941DDE908450019694129
:10085000BDE8F04DA2E700BFFEE700BFFEE700BF26
:10086000FEE700BFFEE700BFFEE7000010B500BFD7
:10087000502080F31188BFF34F8FBFF36F8F00BFFD
:1008800003F072FD18B14FF080500449086000BFBA
:10089000002080F3118800BF10BD000004ED00E0CF
:1008A0001CB55D48006840F470005B4908605B4817
:1008B000006840F001005949086000BF57480068CF
:1008C00000F002000028F9D054480830006800F019
:1008D0000C0008286ED100BF0020019002E00198B2
:1008E000401C019001985028F9D34C48083000680A
:1008F0000090009820F0F0000090009840F08000F8
:10090000009046490831009808600020019002E0FC
:100910000198401C019001985028F9D33F480830B5
:1009200000680090009820F0F0000090009840F0DF
:10093000900000903949083100980860002001902B
:1009400002E00198401C019001985028F9D33348E7
:10095000083000680090009820F0F00000900098A7
:1009600040F0A00000902D49083100980860002058
:10097000019002E00198401C019001985028F9D3A1
:100980002648083000680090009820F0F0000090A1
:10099000009840F0B00000902049083100980860AD
:1009A0000020019002E00198401C0190019850281D
:1009B000F9D300BF19480830006820F00300174938
:1009C00008310860C82000F096FC144800681449FB
:1009D0000840124908600846006820F4802008603A
:1009E00000200E490831086000BF0C48083000683C
:1009F00000200028F9D10B480849091D0860002093
:100A000006490C31086002F03FFE00214FF0006003
:100A100001F0AAFE1CBD000088ED00E00038024095
:100A2000FFFFF6FE1030002400BFFEE70FB4054BB9
:100A300010B503A9044A029800F0DAF810BC5DF87A
:100A400014FB0000DD1A00089400002002E008C832
:100A5000121F08C1002AFAD170477047002001E038
:100A600001C1121F002AFBD1704700002DE9FF5F72
:100A700082B00021DDE90430020DDDF840B003430F
:100A800018D044F61050A2F2FF32424315141198C8
:100A900001281FD0A5EB0B00401C5FEA000A4FF0B5
:100AA00000064E4FDFF83891B046504615D5CAF1D2
:100AB000000413E0119801244AA3012801D16FEA30
:100AC0000B010298119AC0E90031C0E9024206B058
:100AD000BDE8F09FCBF10000DFE704460021404A6B
:100AE000491842EB0450CDE9001012E0E00707D0AE
:100AF00032463B4640464946FFF71AFD8046894646
:100B000032463B4610461946FFF712FD06460F4691
:100B10006410002CEAD1DDE90401DDE90023BAF11B
:100B2000000F06DAFFF704FD42464B46FFF700FDD3
:100B300005E0FFF76FFD42464B46FFF76BFD0446AD
:100B40000E460022284BFFF7EDFD03D84FF0FF3093
:100B5000014607E00022254B20463146FFF741FCC5
:100B6000FFF7C7FD102409E0002C0ADB0A2200234E
:100B7000FFF79AFB039B30321A55641E50EA0102BC
:100B8000F2D1641C039AC4F111031444119A012A8E
:100B900003D0012208430DD10AE0084304D000200D
:100BA0004FF0110B119072E7A3EB0B056D1E0DE0DA
:100BB0005B4504DD4FF0000205F1010504E003DAB6
:100BC0004FF00002A5F10105002AECD0029811991E
:100BD000C0E90231C0E9004579E700000000144097
:100BE0000000F03F300000000000F0430000E03F54
:100BF0002DE9FF4F95B09A46884606460025EEE15E
:100C0000252877D100242746F94A0121039400E0E2
:100C1000044316F8013F203B01FA03F01042F7D1DC
:100C200030782A2811D06FF02F033078A0F13002ED
:100C3000092A16D8039A44F0020402EB820203EB5D
:100C400042021044761C0390EFE758F8042B0392FD
:100C5000002A03DA504244F40054039044F00204A2
:100C6000761C30782E2816D116F8010F44F00404B3
:100C70002A280DD06FF02F023078A0F13003092B15
:100C800009D807EB870302EB4303C718761CF3E789
:100C900058F8047B761C30786C280FD006DC4C2882
:100CA00017D068280DD06A2814D104E0742810D019
:100CB0007A280FD10DE044F400140AE044F48014C3
:100CC00001E044F440147278824202D104F58014A9
:100CD000761C761C307866280BD013DC582877D029
:100CE00009DC002875D04528F6D04628F4D04728DE
:100CF0001AD193E118E0632835D0642879D06528AB
:100D000012D18BE1702873D008DC6728F1D06928F4
:100D10006FD06E280DD06F2806D1ACE073282CD090
:100D2000752874D0782853D05246179990476D1C77
:100D300054E1C4F30250022809D003280DD0D8F89A
:100D4000001004280DD00D6008F1040846E1D8F821
:100D50000010EA17C1E90052F6E7D8F800100D803C
:100D6000F2E70D70F0E718F8041B8DF80010002072
:100D70008DF80100EB46012003E058F804BB4FF06A
:100D8000FF3061074FF0000102D40DE009F10101CD
:100D90008946B9420FDA8145F8DB1BF809100029B2
:100DA000F4D108E009F1010189468142FADB1BF820
:100DB00009100029F6D103985346A0EB09072146F4
:100DC0003846179A00F080FA284400EB090507E03E
:100DD00044E008E10DE01BF8010B524617999047DB
:100DE000B9F10109F7D2534621463846179AF2E085
:100DF00039E00A21C4F302524FF0000B0091022A9D
:100E000006D058F8040BC117032A09D00AE023E0E2
:100E100008F1070020F00702F2E80201904605E021
:100E200000B2C117042A01D140B2C117002906DA65
:100E30000A460021404261EB02012D2202E0220518
:100E400004D52B228DF80420012203E0E20701D013
:100E50002022F7E7914657E00A2100E010214FF0E9
:100E6000000B00910BE010214FF0000B44F0040444
:100E70000827009103E008204FF0000B0090C4F316
:100E80000252022A05D058F8040B0021032A08D088
:100E900008E008F1070020F00702F2E8020190469E
:100EA00003E080B2042A00D1C0B24FF0000922074B
:100EB0002AD53278702A07D0DDF800C08CF0100CEB
:100EC0005CEA0B0C05D00EE040228DF804200122D4
:100ED00008E050EA010306D030238DF804308DF885
:100EE000052002229146009B83F0080353EA0B037E
:100EF0000AD150EA010201D1620705D530228DF8EE
:100F000004204FF001097F1E3278582A04D039A2FC
:100F10000C920CAA02920BE03BA2F9E75B46009A06
:100F2000FFF7C2F90C9B9B5C029A521E029213704F
:100F300050EA0102F2D1029804A9081A00F1200B2C
:100F4000600702D524F4803400E001275F4502DD0C
:100F5000A7EB0B0000E0002000EB0B0100900398D2
:100F60004944401A0390E00306D453462146179A99
:100F7000039800F0A9F90544002706E001A85246AD
:100F8000C05D179990476D1C7F1C4F45F6DBE00351
:100F90000CD553462146179A039800F095F905445D
:100FA00004E030205246179990476D1C0099481E66
:100FB00000900029F5DC08E002980299524600787A
:100FC000491C0291179990476D1CBBF10001ABF1D0
:100FD000010BF1DC5BE100F065F90544761C30782B
:100FE00000287FF40DAE19B02846BDE8F08F000050
:100FF00009280100303132333435363738396162EF
:1010000063646566000000003031323334353637B2
:10101000383941424344454600000000600700D48F
:10102000062708F1070020F00700F0E802238046B9
:1010300003F0004C5FEA0C0001D097A009E0200506
:1010400001D596A005E0E00701D095A001E0AFF240
:101050004C001390307823F0004365280CD006DC58
:10106000452809D046281DD047287FD13BE0662877
:1010700018D067287AD136E00021112F01DB11202A
:1010800000E0781CCDE9000104A90CA8FFF7EEFCF4
:10109000DDE90D010C9A4FF0000B07F101091092E8
:1010A00000914EE04FF000400097CDE9011004A9F7
:1010B0000CA8FFF7DBFCDDE90D020C9B0F994FF04C
:1010C000000B91461093009211B9791C00EB0109B5
:1010D000B7EB090003D4C0F1FF3B07F10109A9EB0D
:1010E0000700019042E0012F00DA01270021112FB3
:1010F00001DD112000E03846CDE9000104A90CA86B
:10110000FFF7B4FCDDE90D010C9A00914FF0000BE4
:10111000B946109221070FD4009A4A4503DA914646
:1011200001E0A9F10109B9F1010F05DD109AA9F15A
:101130000101515C3029F4D0B84202DA10F1040FF9
:1011400003DA0121CDE9011010E0002803DC83441B
:10115000A9EB000102E0411C494500DD8946A0EBF6
:101160000B00401C01904FF000400290200705D476
:101170000198484502DB4FF0FF30019000208DF8C8
:101180004B0002980DF14B07B0F1004F25D0022023
:101190000C902B200D90029800280CDA404202900F
:1011A0002D200D9007E00A210298FFF7E5F8303175
:1011B000029007F8011D0C99481E0C900029F2DCE2
:1011C00002980028EFD1791E0D980870307800F051
:1011D000200040F0450007F8020D11A8C01BC01DFB
:1011E00002901398007800B1012000EB09010198EA
:1011F00001EBE071029801440398401A401E0390ED
:10120000E00306D453462146179A039800F05CF891
:1012100005441398007818B15246179990476D1CF1
:10122000E00323D553462146179A039800F04CF863
:1012300005441BE0BBF1000F07DB0098584504DDB7
:101240001098179910F80B0001E0179930205246BA
:10125000904701980BF1010B401E05F1010501902B
:1012600004D12E205246179990476D1CB9F1000108
:10127000A9F10109DEDC05E017F8010B52461799C8
:1012800090476D1C0299481E02900029F4DC5346D9
:101290002146179A03989EE62D0000002B000000BF
:1012A000200000002DE9F041044600251E461746A7
:1012B000880404D405E039462020B0476D1C641E24
:1012C000F9D52846BDE8F0812DE9F0410446002516
:1012D0001E469046C80301D5302700E02027880429
:1012E00004D505E041463846B0476D1C641EF9D56B
:1012F0002846BDE8F08108B50021009102E0009980
:10130000491C009100EB8001009AB2EB410FF6D32B
:1013100008BD00001CB50020022103460A02CDE9E9
:10132000001002A1044802F0EDFF1CBD63733132CE
:1013300033375F7461736B00651600081CB50020BD
:10134000022103460A02CDE9001002A1054802F07D
:10135000D9FF1CBD686C77383131325F7461736BB3
:1013600000000000F52200082DE9F04105460E4678
:1013700017469846002408F0010044EA801406F05D
:10138000030044EA001405F0030044EA800407F077
:1013900003000443204600F0BFFABDE8F08108B521
:1013A000C0EB0011C900009100E000BF00994A1E87
:1013B00000920029F9D108BD10B5042301220021B3
:1013C000014800F0F5FB10BD0008024010B50423F1
:1013D00001221146044800F0EBFB04230222002105
:1013E000014800F00CFC10BD0008024010B540F6AA
:1013F000024002F08BF840F6024002F087F8022328
:10140000002201210F4800F0D3FB02231A460021DD
:101410000C4800F0F4FB02210A4800F0BCFBFFF787
:10142000CBFF0221074800F0B8FBC820FFF7B7FF49
:101430000221044800F0AFFB4FF4FA60FFF7AFFF62
:1014400010BD0000000802402DE9F04104460026CE
:10145000214F0CB10120207007E07F1E2FB90CB185
:10146000002020700020BDE8F08104211B4800F01E
:1014700096FB0128F1D0002517E00221174800F063
:101480008CFB0120FFF78BFF76000421134800F04E
:1014900086FB012801D146F0010602210F4800F029
:1014A0007AFB0120FFF77BFF6D1C182DE5DB002583
:1014B0000EE00221094800F070FB0120FFF76FFFEA
:1014C0000221064800F067FB0120FFF768FF6D1C52
:1014D000032DEEDB3046C6E7002D31010008024047
:1014E00070B505462846FFF7AFFF044604F4000038
:1014F00008B144F07F44204670BD00002DE9F04162
:101500000025564E562704E0761E16B90020BDE889
:10151000F0810421524800F042FB0128F4D000245D
:101520000EE002214E4800F038FB0120FFF737FFA4
:1015300002214B4800F02FFB0120FFF730FF641C15
:10154000182CEEDB00240EE00221454800F025FBBC
:101550000120FFF724FF0221414800F01CFB01207D
:10156000FFF71DFF641C032CEEDBFFF72FFF0421A8
:101570003B4800F010FB00240EE00221384800F048
:101580000CFB0120FFF70BFF0221354800F003FBA5
:101590000120FFF704FF641C022CEEDB00241EE098
:1015A00002212F4800F0F9FAC4F1060047FA00F0D2
:1015B00000F0010020B10421294800F0EEFA03E018
:1015C0000421274800F0E7FA0120FFF7E8FE022196
:1015D000234800F0E0FA0120FFF7E1FE641C072C2D
:1015E000DEDB02211E4800F0D8FA0120FFF7D7FE0B
:1015F00002211B4800F0CFFAFFF7DEFE0120FFF7C3
:10160000CEFE002418E00221154800F0C6FA0120A1
:10161000FFF7C5FE6806050E0421114800F0BFFA69
:10162000012801D145F0010502210D4800F0B3FA6F
:101630000120FFF7B4FE641C082CE4DB02210848FB
:1016400000F0ABFA0120FFF7AAFE0221044800F0E7
:10165000A2FA0120FFF7A3FE284658E7002D31012A
:10166000000802402DED088B8AB000270020099069
:10167000002500260024B7EE000AF0EE408A8046DE
:101680009FED6B0AB0EE408A9FED690AB0EE409A7A
:10169000DFED681A9FED681AF7EE000A9FED640A05
:1016A00005A800F0F5FF65A0FFF7C0F9FFF79EFE63
:1016B000C82000F0EBF900BFB7EE000AF0EE408A58
:1016C00000231A4619462046FFF74EFEC82000F0B8
:1016D000DDF9FFF713FF074639465FA0FFF7A6F9CC
:1016E000A5E00020099009A8FFF7FAFE05469DF83D
:1016F000240000287ED0002D01DA6E4200E02E4644
:101700004FF000085D48864210DD032C03D102240F
:101710004FF0010823E0022C02D10124A0461EE074
:10172000012C1CD100244FF0010818E034B95448B2
:10173000864203DA01244FF0010810E0012C06D1A3
:101740005048864203DA02244FF0010807E0022CD9
:1017500005D14B48864202DA03244FF00108B8F164
:10176000000F15D0204600F0CBF9F0EE408ABDEE18
:10177000E80A10EE101A44A0FFF758F900231A46A1
:1017800019462046FFF7F0FDC82000F07FF94EE033
:1017900000EE105AB8EEC00A9FED471AC0EE010ADB
:1017A000B0EE040A80EE281A9FED210A10EE810A9D
:1017B000B0EE408A38EE490ADFED400AB4EEE00AA6
:1017C000F1EE10FA08DC38EE490ADFED3D0AB4EE1E
:1017D000E00AF1EE10FA01D28DED058AB0EE480A6A
:1017E00005A800F05EFFB0EE409A19EE100AFEF771
:1017F000B0FD00E014E041EC1A0B18EE100AFEF701
:10180000A8FD41EC1B0B8DED02AB8DED00BB2A4614
:10181000BDEEE80A10EE101A2AA0FFF707F902E061
:1018200037A0FFF703F9142000F030F900BF58E7A4
:1018300000000000CDCCCC3D17B7D138496E69749B
:1018400069616C697A696E67204353313233372E90
:101850002E2E0D0A0000000043533132333720434F
:101860006F6E66696720726561646261636B3A20BE
:101870003078253032580D0A0000000080C2670021
:10188000C0C62D00A08601005B4155544F2D52412A
:101890004E47455D204765617220537769746368E0
:1018A000202D3E204E6577204761696E3A202564E1
:1018B00020780D0A00000000FEFFFF4A0AD7A33B74
:1018C0000AD7A3BB4761696E3A2025336478207C30
:1018D000205261773A20253864207C204D65617361
:1018E0003A2025392E36662056207C2046696C74B5
:1018F000657265643A2025392E366620560D0A0039
:1019000043533132333720526561642054696D6529
:101910006F7574210D0A00002DE9F0410546594EFE
:10192000652703E0761E0EB9BDE8F0810421564814
:1019300000F035F90128F5D000240EE002215248CC
:1019400000F02BF90120FFF72AFD02214E4800F09C
:1019500022F90120FFF723FD641C182CEEDB002484
:101960000EE00221484800F018F90120FFF717FDAA
:101970000221454800F00FF90120FFF710FD641C1B
:10198000032CEEDBFFF722FD04213F4800F003F9B2
:1019900000240EE002213C4800F0FFF80120FFF790
:1019A000FEFC0221384800F0F6F80120FFF7F7FCB2
:1019B000641C022CEEDB00241EE00221324800F001
:1019C000ECF8C4F1060047FA00F000F0010020B185
:1019D00004212D4800F0E1F803E004212A4800F03A
:1019E000DAF80120FFF7DBFC0221274800F0D3F8EA
:1019F0000120FFF7D4FC641C072CDEDB0221224807
:101A000000F0CBF80120FFF7CAFC02211E4800F0CD
:101A1000C2F80120FFF7C3FC00241EE002211A488F
:101A200000F0BBF8C4F1070045FA00F000F0010037
:101A300020B10421144800F0B0F803E0042112485A
:101A400000F0A9F80120FFF7AAFC02210E4800F0DF
:101A5000A2F80120FFF7A3FC641C082CDEDB0221A6
:101A6000094800F09AF80120FFF799FC0221064886
:101A700000F091F80120FFF792FCFFF79DFC00BFFA
:101A800052E70000002D310100080240F8B504467D
:101A900002F054FC01280ED04FF47A70A4FB0060D1
:101AA00001464FF47A7200233046FEF7FDFB0546EF
:101AB00002F0B6F811E00BE00020009003E000BF58
:101AC0000098401C009047F2305100988842F6D3AD
:101AD000201EA4F10104EFD100BFF8BD70B504468B
:101AE0000D46E1B2054801F049FE00BF0721034859
:101AF00001F001FF0028F9D0204670BD0010014020
:101B000030B1012807D0022808D003280CD108E002
:101B1000B7EE000A7047B0EE000AFBE79FED040A3B
:101B2000F8E79FED040AF5E7B7EE000AF2E70000D8
:101B30000000804200000043F0B503461C6A5D6A65
:101B400000200DE00126864016403EB187000F269A
:101B5000BE40B443860001FA06F63443461CB0B2D8
:101B60000828EFD3082011E00126864016405EB118
:101B7000A0F10806B7000F26BE40B543A0F1080645
:101B8000B60001FA06F63543461CB0B21028EBD376
:101B90001C625D62F0BD81627047816170470246E0
:101BA000002013690B400BB1012000E000207047BA
:101BB000F0B504460D4616462168E268002019E09B
:101BC000012787401F409FB14FEA400C032707FAC7
:101BD0000CF7B943470005FA07F739434FEA400CC1
:101BE000032707FA0CF7BA43470006FA07F73A4308
:101BF000471CB8B21028E3D32160E260F0BDF0B515
:101C00000C461546012C03D146681E43466002E08F
:101C100046689E434660826800210DE001268E40A2
:101C20001E403EB14F000326BE40B2434E0005FAAF
:101C300006F632434E1CB1B21029EFD38260F0BDDC
:101C40000448008804490988884201D1012070476E
:101C50000020FCE7160000201400002008B5C0EBAF
:101C60000011C900009100E000BF00994A1E0092D7
:101C70000029F9D108BD000038B540F6014001F057
:101C800045FC4FF43843002201217048FFF790FFD4
:101C90004FF43843022200216C48FFF7B0FF4FF4A5
:101CA0008043012200216948FFF782FF4FF4006161
:101CB0006648FFF772FF4FF480516448FFF76DFFED
:101CC0004FF400516148FFF766FF4FF400415F4851
:101CD000FFF761FF5E48009000E000BF0098411EE2
:101CE00000910028F9D100F0B9FC00F097FA4FF408
:101CF00080515648FFF74FFF802000F0D1FA0F20A7
:101D000000F0CEFA042000F0CBFA4FF480514F4897
:101D1000FFF743FF0220FFF7A1FF4FF480514B482C
:101D2000FFF739FF812000F0BBFA102000F0B8FA6D
:101D3000032000F0B5FA4FF480514448FFF72DFF1F
:101D40000220FFF78BFF4FF480514048FFF723FF3D
:101D5000932000F0A5FA0F2000F0A2FAFF2000F077
:101D60009FFA4FF480513948FFF717FF0220FFF721
:101D700075FF4FF480513548FFF70DFFC02000F08C
:101D80008FFA002000F08CFA002000F089FA4FF45E
:101D900080512E48FFF701FF0220FFF75FFF00F0A0
:101DA00043FC0221702000F00FFA2A49088002212A
:101DB000712000F009FA284908800221722000F001
:101DC00003FA264908800221732000F0FDF9244916
:101DD00008800221742000F0F7F9224908800221CE
:101DE000752000F0F1F9204908800221762000F0EA
:101DF000EBF91E4908800221772000F0E5F91C4923
:101E0000088002216F2000F0DFF91A49088011488C
:101E100000884FF6FF7108440F49098808440F49AC
:101E2000098808440E49098808440E49098808446D
:101E30000D49098808440D49098808440C49098856
:101E40004418E0430C49088038BD000000040240FB
:101E500080841E00040000200600002008000020EE
:101E60000A0000200C0000200E00002010000020BE
:101E70001200002014000020160000202DE9F04F71
:101E80002DED028B83B0044624B903B0BDEC028B68
:101E9000BDE8F08F0221232000F096F98146B9F1C8
:101EA000000F0ED000EE109AB8EE400AF2EE000AD3
:101EB00020EE200ADFEDB00A80EE801A84ED081AC9
:101EC00003E09FEDAE0A84ED080A0321262000F00E
:101ED0007BF982460AF40000B0F5000F04D19FEDB3
:101EE000A70A84ED000A15E000EE10AAF8EE400AF9
:101EF000A348008800EE100AB8EE400A60EE800A9F
:101F00009FEDA01A80EE810ADFED9F0A80EE201A75
:101F100084ED001A0321242000F056F983460BF4C7
:101F20000000B0F5000F04D19FED940A84ED010A82
:101F300015E000EE10BAF8EE400A9448008800EE72
:101F4000100AB8EE400A60EE800A9FED911A80EE0A
:101F5000810ADFED900A80EE201A84ED011A032138
:101F6000252000F031F90290029800F40000B0F54D
:101F7000000F04D19FED810A84ED020A15E09DED6A
:101F8000020AF8EE400A8448008800EE100AB8EE13
:101F9000400A60EE800A9FED7E1A80EE810ADFED36
:101FA0007D0A80EE201A84ED021A04212C2000F014
:101FB0000BF90546B5F1004F13D9E84300EE100ABE
:101FC000B8EE401A7548008800EE900AF8EE600AF4
:101FD00061EE200A9FED721AC0EE811AC4ED031A59
:101FE00011E000EE105AF8EE400A6C48008800EE4E
:101FF000100AB8EE400A20EE800ADFED690A80EE92
:10200000201A84ED031A04212D2000F0DDF8064685
:10201000B6F1004F13D9F04300EE100AB8EE401AA3
:102020006048008800EE900AF8EE600A61EE200A2F
:102030009FED5B1AC0EE811AC4ED041A11E000EEA8
:10204000106AF8EE400A5748008800EE100AB8EE11
:10205000400A20EE800ADFED520A80EE201A84ED5D
:10206000041A0321282000F0AFF801909DED010A29
:10207000F8EE400A4C48008800EE100AB8EE400A1C
:1020800020EE800ADFED490A80EE201A84ED051A61
:102090000321292000F098F800909DED000AF8EE49
:1020A000400A4348008800EE100AB8EE400A20EECD
:1020B000800ADFED3E0A80EE201A84ED061A032125
:1020C000272000F081F80746B7F5000F0CD96FF014
:1020D0007F40C01B401C00EE100AB8EE400ADFED46
:1020E000350A80EE208A07E000EE107AB8EE400A4A
:1020F000DFED300A80EE208A94ED030ADFED2E0A30
:10210000B4EEE00AF1EE10FA03D29FED1C0AB0EE35
:10211000408A84ED078A0221222000F055F880468B
:1021200094ED080ADFED250AB4EEE00AF1EE10FAAC
:1021300008D200EE108AB8EE400ADFED210A60EE08
:10214000208A07E000EE108AB8EE400ADFED1D0A93
:1021500060EE208A94ED030AF6EE000AB4EEE00A7F
:10216000F1EE10FA03D29FED050AF0EE408AC4EDBD
:10217000098A00BF89E60000647A5A4A000000001C
:10218000080000200000804A0000C842040000202F
:102190000000004B00007A44060000200A000020E6
:1021A0000000004F0C000020100000200000004E36
:1021B00012000020FEFFFF4A9A99993E00005C42FF
:1021C0002FDDA43DCBA1C53D2DE9F04104460D46D0
:1021D00000274FF480511048FFF7DDFC0220FFF785
:1021E0003DFD04F07F0000F05BF8002606E000F003
:1021F0002FF8804648EA0727701CC6B2AE42F6DBCD
:102200004FF480510448FFF7C8FC0220FFF726FD79
:102210003846BDE8F08100000004024010B54FF4DC
:1022200080510A48FFF7B7FC0220FFF717FDEA20AC
:1022300000F036F85A2000F033F84FF4805103488C
:10224000FFF7ABFC0220FFF709FD10BD00040240C0
:1022500070B5002400251CE06006040E4FF4005108
:102260000E48FFF79AFC0A20FFF7F8FC4FF40051E4
:102270000A48FFF790FC0A20FFF7F0FC4FF480417A
:102280000648FFF78CFC012801D144F00104681CCA
:10229000C5B2082DE0DB204670BD000000040240FE
:1022A00070B50546002420E080202041284028B158
:1022B0004FF400410E48FFF770FC04E04FF400417A
:1022C0000B48FFF768FC4FF400510948FFF765FC25
:1022D0000A20FFF7C3FC4FF400510548FFF75BFCF1
:1022E0000A20FFF7BBFC601CC4B2082CDCDB70BD0D
:1022F000000402402DED028B8AB0002455A0FEF7A9
:1023000095FBFFF7B9FCFFF79BFC04461CB158A0F6
:10231000FEF78CFB02E064A0FEF788FB98E06846BD
:10232000FFF7ACFD6DA0FEF781FB9DED000A10EEFE
:10233000101A0846FEF70DF841EC180B53EC182B59
:1023400070A0FEF773FB9DED010A10EE101A08460F
:10235000FDF7FFFF41EC180B53EC182B6FA0FEF7B5
:1023600065FB9DED020A10EE101A0846FDF7F1FF1D
:1023700041EC180B53EC182B6EA0FEF757FB9DEDAC
:10238000030A10EE101A0846FDF7E3FF41EC180BA4
:1023900053EC182B6DA0FEF749FB9DED040A10EEDF
:1023A000101A0846FDF7D5FF41EC180B53EC182B1B
:1023B0006CA0FEF73BFB9DED050A10EE101A0846D7
:1023C000FDF7C7FF41EC180B53EC182B6BA0FEF781
:1023D0002DFB9DED060A10EE101A0846FDF7B9FF19
:1023E00041EC180B53EC182B6BA0FEF71FFB9DED77
:1023F000070A10EE101A0846FDF7ABFF41EC180B68
:1024000053EC182B6BA0FEF711FB9DED080A10EEA4
:10241000101A0846FDF79DFF41EC180B53EC182BE2
:102420006AA0FEF703FB9DED090A10EE101A08469C
:10243000FDF78FFF41EC180B53EC182B6AA0FEF749
:10244000F5FA70A0FEF7F2FA4FF47A7001F0E8FBAB
:1024500065E70000496E697469616C697A696E6745
:1024600020484C57383131322E2E2E0D0A000000F4
:10247000484C57383131322043616C696272617463
:10248000696F6E20436865636B73756D2056657266
:10249000696669636174696F6E2053756363657300
:1024A00073210D0A00000000484C573831313220AA
:1024B00043616C6962726174696F6E204368656321
:1024C0006B73756D20566572696669636174696FB7
:1024D0006E204641494C4544210D0A000D0A2D2D20
:1024E0002D20484C5738313132204D65617375725B
:1024F000656D656E742044617461202D2D2D0D0A6B
:1025000000000000566F6C746167653A202020203F
:10251000202025372E326620560D0A004375727230
:10252000656E7420413A2020202025372E33662006
:10253000410D0A0043757272656E7420423A202084
:10254000202025372E336620410D0A00506F776515
:102550007220413A20202020202025372E3266206C
:10256000570D0A00506F77657220423A20202020D4
:10257000202025372E326620570D0A00456E6572E1
:10258000677920413A202020202025372E336620ED
:102590006B57680D0A000000456E6572677920422E
:1025A0003A202020202025372E3366206B57680DD7
:1025B0000A00000050463A20202020202020202021
:1025C000202025372E33660D0A0000004672657103
:1025D00075656E63793A2020202025372E326620DB
:1025E000487A0D0A00000000506861736520416E52
:1025F000676C653A202025372E3266204465670DCA
:102600000A0000002D2D2D2D2D2D2D2D2D2D2D2DA4
:102610002D2D2D2D2D2D2D2D2D2D2D2D2D2D2D2DEA
:102620002D2D2D2D0D0A000010B54FF480510A48B4
:10263000FFF7B1FA0220FFF711FBEA20FFF730FEA7
:10264000DC20FFF72DFE4FF480510348FFF7A5FA79
:102650000220FFF703FB10BD0004024010B54FF449
:1026600080510A48FFF797FA0220FFF7F7FAEA20AD
:10267000FFF716FEE520FFF713FE4FF480510348E5
:10268000FFF78BFA0220FFF7E9FA10BD00040240C1
:1026900080ED000AC0ED010A80ED021AC0ED031AB8
:1026A0007047F0EE400A90ED010AD0ED021A30EECC
:1026B000210A80ED010A90ED010AD0ED031A30EEF7
:1026C000210AD0ED011A81EE802AB0EE421A90ED77
:1026D000000AD0ED001A70EEE11A01EE210A80ED39
:1026E000000AB7EE000A30EE410AD0ED011A20EEE2
:1026F000210A80ED010A90ED000A704700F0C8FF42
:102700004FF4E13001F03EF840F6034000F0FEFEE9
:102710008023002201210A48FFF74AFA802302227F
:1027200000210748FFF76BFAFEF7F4FDFEF706FEFF
:1027300004A0FEF77BF901F003FB00BFFEE70000F9
:10274000000C02405374617274696E6720467265B2
:102750006552544F53205363686564756C65722EDF
:102760002E2E0D0A00000000034A0A400243034BCC
:102770001A60BFF34F8F704780FFFF1F08ED00E026
:102780002DE9F04705460E46294807682948D0F844
:1027900000802948D0F8009028480068001D01F00A
:1027A000EEF850B92548006890F82C1001208840B8
:1027B00023490968814322480160681CE0B9DEB101
:1027C00000BF204948681D49096888601B49826824
:1027D0000968CA6019490968091D8268516017496A
:1027E0000968091D8160174A144909684A61114640
:1027F0000968491C116018E07C19104800684460A1
:10280000BC4206D20D480168091D484601F0DBF8BC
:102810000BE00A480168091D404601F0D4F80A4857
:102820000068844201D208480460BDE8F0870000D7
:102830002C0000201C000020200000201800002098
:10284000300000204C0100204800002010B5044654
:1028500001F0D4F832480068401C31490860314822
:10286000006840B92F4804600846006801280DD16F
:1028700000F028FA0AE02C48006838B929480068B6
:10288000C06AE16A884201D8264804602748006887
:10289000401C2649086000BF94F82C100120884095
:1028A0002349096808432249086000BFE16A01EB37
:1028B0008101204A02EB81014868A0608268E260E1
:1028C000211D826851608160E16A01EB8101194A32
:1028D00002EB81026261E16A01EB8101154A52F863
:1028E0002110491CE26A02EB8202124B43F82210CB
:1028F00000BF00BF01F0ACF80B48006878B100BF22
:1029000008480068C06AE16A884207D24FF08050E8
:1029100009490860BFF34F8FBFF36F8F00BF10BD31
:10292000280000201800002034000020440000206F
:10293000300000209800002004ED00E010B501F008
:102940005DF810480068D0B90F4801F02CF80F4826
:1029500001F029F80C480E4908600C480D49086040
:1029600000220C210A2001F02FFB064908600846CE
:10297000006820B108A10348006801F0FBF801F0ED
:1029800067F810BD60000020A0010020B401002005
:10299000580000205C000020546D725100000000BF
:1029A00010B516E001F02AF80C48C068C468201D74
:1029B00000F0E5FF0A480068401E09490860094820
:1029C0000068401E0749086001F042F8204600F008
:1029D0008AF8044800680028E4D110BD38010020BE
:1029E000280000202400002070B504460D46206C0D
:1029F00070B1216CE0680144E160D4E902108842C2
:102A000001D32168E1602846226CE168FDF77DFC76
:102A100070BD0000F0B587B001260020039004903F
:102A2000059006900027002408E014A0005D03A98B
:102A3000085503A8005D00B902E0641C0F2CF4D314
:102A400000BF002003A90855002511E00D4F0E48D6
:102A500000EB850000210B468022CDE9001003A980
:102A6000384601F04FFC0646012E00D002E06D1CF6
:102A7000012DEBDB00BF304607B0F0BD49444C45AB
:102A8000000000008D2B00084C0000202DE9FF5FA6
:102A90000746884616469946DDE90EABB00000F0C1
:102AA0008FFB054675B1542000F08AFB04462CB11B
:102AB00054212046FDF742FC256304E0284600F03F
:102AC000E5FF00E0002454B100204B463246414669
:102AD000CDE900ABCDE90240384600F07EF8204653
:102AE00004B0BDE8F09F10B50446206B00F0CEFFA7
:102AF000204600F0CBFF10BD0146084A126812685C
:102B00000AB9012200E000220A600A6822B9034AD9
:102B10001268D268106800E000207047580000205A
:102B200030B54FF48033144800F007042CB1C01DB9
:102B300020F00700104C041B1B1B104C20600024CD
:102B40000E4D6C60C218083A22F007020C4C22604D
:102B500000240B4D2D686C60094D2D682C600146DA
:102B6000541A4C60064C24680C60064D4C682C606E
:102B7000054D4C682C6030BDC80100207800002055
:102B800080000020880000208400002000BFFFF7A4
:102B900007FF064800680128F9D94FF08050044922
:102BA0000860BFF34F8FBFF36F8FF0E798000020EE
:102BB00004ED00E02DE9F04106460D461746984623
:102BC000069C0DB9246000E02760E66325640121BE
:102BD000204601F02DFABDE8F0812DE9F05F824634
:102BE0000F4691469B460A9E0C9CA9F10100216B61
:102BF00001EB800828F0070808F0070008B9012059
:102C000000E0002050B900BF502080F31188BFF3CE
:102C10004F8FBFF36F8F00BF00BFFEE77FB100256E
:102C200007E0795D04F134004155785D00B902E0B8
:102C30006D1C102DF5D300BF002143200155052E3A
:102C400001D2012000E0002050B900BF502080F3E5
:102C50001188BFF34F8FBFF36F8F00BF00BFFEE738
:102C6000052E00D30426E6626664201D00F0A8FE4F
:102C700004F1180000F0A4FE2461C6F10500A06173
:102C800064625A465146404600F098FB2060206836
:102C9000A8EB0000B9EBA00F01D9012000E0002053
:102CA00050B900BF502080F31188BFF34F8FBFF39E
:102CB0006F8F00BF00BFFEE70B9808B10B98046050
:102CC000BDE8F09F10B5002407E004EB84010F4A33
:102CD00002EB810000F067FE641C052CF5D30C4864
:102CE00000F061FE0B4800F05EFE0B4800F05BFE5A
:102CF0000A4800F058FE0A4800F055FE0448094909
:102D0000086004480849086010BD000098000020D1
:102D1000FC000020100100202401002038010020C8
:102D20004C0100201C0000202000002010B50146AE
:102D3000224800E0006803688B42FBD31F4B984297
:102D400014D01F4B984204D31E4B984201D8012344
:102D500000E0002353B900BF502383F31188BFF371
:102D60004F8FBFF36F8F00BF00BFFEE7024643687F
:102D700013448B4204D143684C68234443600146AA
:102D80000A464B6813440468A34211D10E4C0368F1
:102D90002468A34208D04B680468646823444B60ED
:102DA00003681B680B6005E0074B1B680B6001E0C4
:102DB00003680B60884200D0016010BD78000020DD
:102DC000C8010020C7010120800000202DE9F0414A
:102DD00004460D4616461F464FF000086560246104
:102DE000B5420CD8F01BA169884202D34FF001080C
:102DF00011E0211D0948006800F0E5FD0BE0BE422E
:102E000004D2BD4202D34FF0010804E0211D044862
:102E1000006800F0D8FD4046BDE8F0815C0000206D
:102E20005800002070B5054600F0E8FDA86B08B911
:102E3000012400E0002400F00BFE204670BD0000DD
:102E400070B505460E460E480068C068C468201D6F
:102E500000F095FD94F8240000F0040028B13246FB
:102E60002946204600F0DCF805E094F8240000F044
:102E7000FE0084F824002046216A884770BD0000C7
:102E8000580000207FB5002001900290039081E05F
:102E9000019800287EDB039C002C7BD0606908B978
:102EA000012000E0002010B9201D00F068FD6846F8
:102EB00000F0E2F8054601980A2869D2DFE800F040
:102EC0006805072E365806082F3700BF00BF00BF21
:102ED00094F8240040F0010084F824000298A269CC
:102EE000811803462A462046FFF770FFA8B194F8E0
:102EF000240000F0040038B10298A26981182A4623
:102F0000204600F08DF805E094F8240000F0FE0063
:102F100084F824002046216A88473AE000BF94F8EC
:102F2000240000F0FE0084F8240032E000BF94F892
:102F3000240040F0010084F824000298A061A069F8
:102F400008B1012000E0002050B900BF502080F3FC
:102F50001188BFF34F8FBFF36F8F00BF00BFFEE735
:102F6000A06941192B462A462046FFF72FFF10E0A3
:102F700094F8240000F0020018B9204600F086FD05
:102F800005E094F8240000F0FE0084F8240000E03E
:102F900000BF00BF002201A90348006801F0B6F895
:102FA00000287FF475AF7FBD60000020F8B50546AE
:102FB0000C4600F003FF684600F05EF806460098F5
:102FC00020BB44B9B54206D801F04CFB3146284637
:102FD000FFF736FF1CE03CB10E480068006808B9F6
:102FE000012000E000200446A91B22460A48006890
:102FF00000F0F0FD01F036FB50B94FF0805007496A
:103000000860BFF34F8FBFF36F8F01E001F02AFB21
:10301000F8BD00005C0000206000002004ED00E02E
:1030200070B504460D46164604E0A06905442046E6
:10303000216A8847A06941192B4632462046FFF78E
:10304000C5FE0028F1D170BD09480068006808B9C4
:10305000012000E0002020B14FF0FF30054908605A
:1030600005E003480068C0680068024908607047CE
:103070001C0000204800002070B5044601F06EF9E5
:10308000054607480068854204D200F00BF801208D
:10309000206001E00020206001480560284670BDE6
:1030A0006800002070B508E00D480068C06804683A
:1030B0004FF0FF312046FFF7C3FE09480068006863
:1030C00008B9012000E000200028EDD00448056880
:1030D00004480068024908600248056070BD0000AD
:1030E000580000205C0000200E480068401C08B911
:1030F000012000E0002050B900BF502080F311886B
:10310000BFF34F8FBFF36F8F00BF00BFFEE700BF5D
:10311000502080F31188BFF34F8FBFF36F8F00BF34
:1031200000BFFEE76C00002008B500BF6846FFF74F
:10313000E3FC044620460099FFF738FFFFF7A2FEA4
:10314000F4E770B5044600F059FC94F9455010E0DE
:10315000606A08B9012000E0002038B904F12400B9
:1031600001F0E8F918B100F095FD00E003E0681EF9
:1031700045B2002DECDC00BFFF2084F8450000F0D4
:1031800067FC00F03BFC94F9445010E0206908B95A
:10319000012000E0002048B904F1100001F0CAF954
:1031A00008B100F077FD681E45B200E001E0002D97
:1031B000ECDC00BFFF2084F8440000F049FC70BD47
:1031C0002DE9F04705464FF00008C246DDB115F184
:1031D000090F01D9012000E0002098B9083505F059
:1031E000070080B105F00700C0F10809C9F1FF3000
:1031F000A84201D2012000E0002008B94D4402E0BD
:10320000002500E0002500F0D9FD6548006808B9F8
:10321000FFF786FC012000EBE570002877D0002D39
:10322000FCD060480068854271D85F4E3046046823
:103230005E48844204D35E48844201D8012000E005
:10324000002050B900BF502080F31188BFF34F8F8A
:10325000BFF36F8F00BF00BFFEE716E0264624686D
:103260005248844204D35248844201D8012000E0ED
:10327000002050B900BF502080F31188BFF34F8F5A
:10328000BFF36F8F00BF00BFFEE76068A84202D2A5
:1032900020680028E2D142480068844269D0306842
:1032A00000F108084148804504D34148804501D8D1
:1032B000012000E0002050B900BF502080F31188A9
:1032C000BFF34F8FBFF36F8F00BF00BFFEE72068D3
:1032D00030606068A84201D2012000E0002080F048
:1032E000010050B900BF502080F31188BFF34F8F09
:1032F000BFF36F8F00BF00BFFEE76068401B102860
:103300001AD9671907F0070010B9012001E030E071
:10331000002050B900BF502080F31188BFF34F8FB9
:10332000BFF36F8F00BF00BFFEE76068401B78608F
:1033300065603068386037601A4960680968081A43
:1033400018490860084600681A490968884203D28B
:103350001448006817490860D4F804A0606840F079
:10336000004060600020206013480068401C124943
:10337000086001F077F908F0070008B9012000E0C3
:10338000002050B900BF502080F31188BFF34F8F49
:10339000BFF36F8F00BF00BFFEE74046BDE8F08778
:1033A000800000208400002078000020C801002058
:1033B000C7010120880000208C000020001F4FF072
:1033C00080730360001F21F001030360001F054BA1
:1033D000036014380260001F6FF00203036020389E
:1033E00070470000E93000082DE9F04F8CB0064628
:1033F00000200A903EA090E8004CC068CDE905BED0
:10340000CDF810A007900FF2EC0ADAE9000ACDE936
:10341000020A0FF2E00ADAE9000ACDE9000A3848A8
:103420000068C0F381000B900B9820B1012804D0F4
:10343000022828D103E0334927E0334925E030480A
:10344000001F006800F03F072D48001F0068C0F310
:10345000881C2B48001F0068C0F30140401C4FEA45
:1034600040092748001F006800F48008B8F5800F65
:1034700001D1254B00E0234BB3FBF7F000FB0CF030
:10348000B0FBF9F101E01F4900BF00BF1C48006814
:10349000C0F3031404A8055D21FA05F2184800687A
:1034A000C0F3822402A8055D22FA05F009901448B1
:1034B0000068C0F342341DF8045022FA05F0089069
:1034C00036B1012E06D0022E06D0032E0AD106E018
:1034D0000A9108E00A9206E009980A9003E0089829
:1034E0000A9000E000BF00BF0A980CB0BDE8F08F62
:1034F00000000000000000000102030406070809A4
:10350000083802400024F40040787D01074A02EBAD
:103510009011D1F8001800F01F0301229A401143C6
:10352000024B03EB9012C2F80018704700300240C3
:10353000074A02EB9011D1F8001800F01F03012296
:103540009A409143024B03EB9012C2F80018704767
:1035500000300240074A02EB9011D1F8001800F049
:103560001F0301229A401143024B03EB9012C2F851
:10357000001870470030024008B5002000213F4A83
:10358000126842F480323D4B1A6000BF401C3B4A37
:10359000126802F4003119B94FF6FF729042F5D16A
:1035A000364A126802F4003232B900BF334A126858
:1035B00002F40032002AF9D0304A4032126842F058
:1035C00080522E4B40331A602D4A126842F440421A
:1035D0002B4B1A60294A08321268284B08331A60AC
:1035E0001A46126842F400421A601A46126842F4FF
:1035F000A0521A60234A1B1F1A601A1F126842F059
:1036000080721B1F1A6000BF1C4A126802F0007211
:10361000002AF9D01A4A126842F48032184B1A6014
:1036200000BF174A526802F48032002AF9D0144AC7
:10363000126842F40032124B1A6000BF104A5268FE
:1036400002F40032002AF9D00C4A083212680092C3
:10365000009A22F003020092009A42F002020092C5
:10366000064B0833009A1A6000BF044A08321268F9
:1036700002F00802002AF8D008BD0000003802401D
:10368000007000401964400910B5FFF775FF10BDC8
:10369000704700002DE9F04704460D460027B84664
:1036A000B94600263349601A8C4235D00CDC3248CA
:1036B0002044E8B1B0F5806F1FD0B0F5006F21D085
:1036C000B0F5406F32D122E0B0F5806F29D0B0F56F
:1036D000184F03D0B0F51C4F28D104E00320FFF7AA
:1036E00083FE074623E00320FFF77EFE07461EE029
:1036F0000220FFF779FE074619E00220FFF774FE6B
:10370000074614E00220FFF76FFE07460FE0022095
:10371000FFF76AFE07460AE00220FFF765FE07464C
:1037200005E00220FFF760FE074600E000BF00BF93
:10373000E06800F4004070B1780000EB5500B0FB89
:10374000F5F64FF6F07006EA0008C6F3420948EABB
:103750000900A0600CE007EB5500B0FBF5F64FF652
:10376000F07006EA000806F00F0948EA0900A060B8
:10377000BDE8F0870078004000BCFFBFC1F308023D
:103780004260704710B504464FF44060FFF7BEFE3C
:1037900041F20410FFF7BAFE4FF4C06207211A4845
:1037A000FEF7CAF94FF4C063012202211648FEF762
:1037B000FFF94FF4C063022200211348FEF71FFAFD
:1037C000124800F025F821461048FFF763FF00215A
:1037D0000E4800F0CCF800210C4800F0B8F80021A9
:1037E0000A4800F0A4F80021084800F094F80821E5
:1037F000064800F0B4F80421044800F0A0F803489B
:1038000000F074F810BD00000000024000100140FC
:1038100010B504463349601A8C424DD00CDC324856
:103820002044E0B1B0F5806F22D0B0F5006F31D008
:10383000B0F5406F52D136E0B0F5806F45D0B0F5AD
:10384000184F03D0B0F51C4F48D11AE040F60410D1
:10385000FFF780FE40F60410FFF76AFE3FE040F6F7
:103860001100FFF777FE40F61100FFF761FE36E02A
:1038700040F61200FFF76EFE40F61200FFF758FE0A
:103880002DE040F60510FFF765FE40F60510FFF746
:103890004FFE24E040F61300FFF75CFE40F61300F5
:1038A000FFF746FE1BE040F61400FFF753FE40F61C
:1038B0001400FFF73DFE12E040F61E00FFF74AFE3F
:1038C00040F61E00FFF734FE09E040F61F00FFF748
:1038D00041FE40F61F00FFF72BFE00E000BF00BFD7
:1038E00010BD00000078004000BCFFBFC16841F47B
:1038F0000051C160704730B50246002002EB9113C1
:103900001B6801F01F050124AC4023400BB10120CE
:1039100000E0002030BD50F8C02F22F0010202600C
:10392000026801F001031A4340F8C0297047C268D9
:1039300022F4C062C260C2680A43C26070470A468D
:103940000021C16821F004011143C1607047026980
:1039500022F44052026102690A43026170470A463A
:103960000021C16821F008011143C1607047C2689D
:1039700022F48052C260C2680A43C26070470146A6
:103980000A69D1E901309860D1E9010358605068B3
:10399000884201D188685060002008611068401E8C
:1039A00010601068704700F1080141604FF0FF316E
:1039B000816000F10801C160016100210160704770
:1039C00000210161704710B502460B685C1C0CB900
:1039D000106907E002F1080000E0406844682468CC
:1039E0009C42FAD944684C604C68A1608860416090
:1039F0000A611468641C146010BD000000BF5020F0
:103A000080F31188BFF34F8FBFF36F8F00BF0E4855
:103A10000068401C0C49086008460068012812D163
:103A20000A480068C0B208B9012000E0002050B97F
:103A300000BF502080F31188BFF34F8FBFF36F8F0B
:103A400000BF00BFFEE770476C00002004ED00E0FF
:103A50000D48006850B900BF502080F31188BFF3B3
:103A60004F8FBFF36F8F00BF00BFFEE706480068AF
:103A7000401E054908600846006820B9002080F310
:103A8000118800BF00BF70476C00002070B506466B
:103A90003546002E50D0083D2C462848844204D399
:103AA0002748844201D8012000E0002050B900BF1F
:103AB000502080F31188BFF34F8FBFF36F8F00BF8B
:103AC00000BFFEE76068C00F50B900BF502080F310
:103AD0001188BFF34F8FBFF36F8F00BF00BFFEE7AA
:103AE000206808B9012000E0002050B900BF502034
:103AF00080F31188BFF34F8FBFF36F8F00BF00BFFC
:103B0000FEE76068C00FB8B12068A8B9606820F00F
:103B10000040606000F052F90A4960680968084492
:103B2000084908602046FFF701F907480068401C73
:103B30000549086000F096FD70BD0000C801002036
:103B4000C7010120840000209000002000204FF0D9
:103B5000E02108618861064800684FF47A71B0FB83
:103B6000F1F0401E4FF0E0214861072008617047E6
:103B70000000002030B502460B46002152B900BFBC
:103B8000502484F31188BFF34F8FBFF36F8F00BFB2
:103B900000BFFEE7BBB1002012E00D4C04EBC004F7
:103BA0006468944203D10A4C04EBC0010AE031B9C5
:103BB000074C54F8304014B9054C04EBC001401CCC
:103BC0000828EAD300BF09B10B604A6030BD00008D
:103BD000600100202DE9F04105460E4617462C46AF
:103BE000FFF70CFF94F94400401C10B9002084F842
:103BF000440094F94500401C10B9002084F84500A9
:103C0000FFF726FFA06B28B93A46314604F124009D
:103C100000F062F82046FFF794FABDE8F08100005A
:103C200070B504460025D4B100F0C8F8114800680A
:103C3000012800D100E0002050B900BF502080F3DF
:103C40001188BFF34F8FBFF36F8F00BF00BFFEE738
:103C500000212046FEF794FD00F004FD05463DB925
:103C60004FF0805004490860BFF34F8FBFF36F8F50
:103C700070BD00005400002004ED00E00349096815
:103C8000016003490968416070470000400000205E
:103C90002C00002001200149086070473C000020F2
:103CA00070B504460D4654B900BF502080F311880A
:103CB000BFF34F8FBFF36F8F00BF00BFFEE7054814
:103CC000016818312046FFF77EFE01212846FEF7E5
:103CD00057FD70BD1800002070B504460E4615460D
:103CE00054B900BF502080F31188BFF34F8FBFF34A
:103CF0006F8F00BF00BFFEE700BF60680F49096813
:103D0000C8610E49826809680A620C49096818315D
:103D1000826851600949096818318160074909685A
:103D20008C622168491C216000BF0DB14FF0FF3645
:103D300029463046FEF724FD70BD00001800002023
:103D400010B5FEF767FE0446012C02D100F058FDC5
:103D50000446012C15D100BF502080F31188BFF319
:103D60004F8FBFF36F8F00BF4FF0FF300F490860D8
:103D700001200F49086000200E49086000F070F82B
:103D800010E0601C08B1012000E0002050B900BF25
:103D9000502080F31188BFF34F8FBFF36F8F00BFA8
:103DA00000BFFEE70448006810BD00004800002086
:103DB000340000202C000020500000200248006841
:103DC000401C014908607047540000201F480068EB
:103DD00018B101201E49086036E000201C49086027
:103DE00000BF1C480068B0FA80F0C0F11F0101EB71
:103DF0008100194A52F8200008B1012000E000209B
:103E000050B900BF502080F31188BFF34F8FBFF32C
:103E10006F8F00BF00BFFEE700BF01EB81020E4BBA
:103E200003EB820042685268426000F10802436876
:103E3000934201D1C26842604268D268074B1A605F
:103E400000BF00BF18460068704700005400002003
:103E50003C000020300000209800002018000020C6
:103E60000EB5524800685249884201D0012000E056
:103E7000002050B900BF502080F31188BFF34F8F4E
:103E8000BFF36F8F00BF00BFFEE748480068484996
:103E9000491E884201D0012000E0002050B900BF37
:103EA000502080F31188BFF34F8FBFF36F8F00BF97
:103EB00000BFFEE7002001903E49084600780290CE
:103EC000FF200A4610700846007800909DF8000018
:103ED00000F05000384A10701046007850B900BF0A
:103EE000502080F31188BFF34F8FBFF36F8F00BF57
:103EF00000BFFEE79DF800205020904308B9012044
:103F000000E0002050B900BF502080F31188BFF3BB
:103F10004F8FBFF36F8F00BF00BFFEE707E0019830
:103F2000401C01909DF800004006000E00909DF896
:103F3000000000F080008028F1D00198082803D10B
:103F400000201E4A106004E00198C0F107001B4ADF
:103F500010601A4800680002184A10601046008875
:103F600000F4E06010609DF80800124A10700F48DD
:103F70002030006840F47F000C492031086008467A
:103F8000006840F07F400860FFF7E0FD00200C492A
:103F90000860FCF73BF90B48006840F040400949D5
:103FA0000860FCF71FF900200EBD000000ED00E0E6
:103FB00071C20F4100E400E0700000207400002096
:103FC0006C00002034EF00E02DE9F84305460E4672
:103FD00017460024E5B1601EB0FBF5F0B04217D3E0
:103FE00005FB06F010F1490F12D805FB06F808F1A1
:103FF0004800FFF7E5F80446B4B1A14609F14809C5
:104000003B464A46314628460094FEF7D3FD0BE076
:1040100054B900BF502080F31188BFF34F8FBFF316
:104020006F8F00BF00BFFEE72046BDE8F8830000A9
:104030002DE9F04105460E4601272C4654B900BF34
:10404000502080F31188BFF34F8FBFF36F8F00BFF5
:1040500000BFFEE7002C42D0E06B00283FD04FF0BD
:10406000FF31E06BB1FBF0F0216C884237D3FFF7F2
:10407000C5FCD4E90F12206801FB0200A0600020FB
:10408000A06320686060E06B401E226C216800FB2A
:104090000211E160FF2084F8440084F845009EB9D5
:1040A000206908B9012000E00020A8B904F110003F
:1040B00000F040FA80B14FF0805013490860BFF320
:1040C0004F8FBFF36F8F07E004F11000FFF76BFC19
:1040D00004F12400FFF767FCFFF7BAFC00E00027BB
:1040E0000FB1012000E0002050B900BF502080F344
:1040F0001188BFF34F8FBFF36F8F00BF00BFFEE784
:104100003846BDE8F081000004ED00E02DE9F741FC
:1041100083B005460E464FF000082C4654B900BF48
:10412000502080F31188BFF34F8FBFF36F8F00BF14
:1041300000BFFEE70EB9206C08B9012000E00020A6
:1041400050B900BF502080F31188BFF34F8FBFF3E9
:104150006F8F00BF00BFFEE700F0F0F808B90598C8
:1041600008B9012000E0002050B900BF502080F3C2
:104170001188BFF34F8FBFF36F8F00BF00BFFEE703
:1041800000BFFFF73BFCA76BF7B131462046FEF7B7
:104190002BFC781EA063206908B9012000E00020F4
:1041A00060B904F1100000F0C5F938B14FF080504B
:1041B0002F490860BFF34F8FBFF36F8FFFF748FCA5
:1041C000012006B0BDE8F081059818B9FFF740FC62
:1041D0000020F6E7B8F1000F04D101A8FFF74EFD6B
:1041E0004FF00108FFF734FCFFF7E8FDFFF706FC8E
:1041F00094F94400401C10B9002084F8440094F95C
:104200004500401C10B9002084F84500FFF720FC51
:1042100005A901A800F02EF8F0B92046FEF702FE2D
:10422000A0B104F124000599FFF73AFD2046FEF7FE
:1042300088FF00F017FA0028A3D14FF080500C49F6
:104240000860BFF34F8FBFF36F8F9AE72046FEF7EA
:1042500078FF00F007FA94E72046FEF772FF00F0BF
:1042600001FA2046FEF7DEFD00288AD00020A8E7EC
:1042700004ED00E070B505460C4655B900BF50206E
:1042800080F31188BFF34F8FBFF36F8F00BF00BF64
:10429000FEE754B900BF502080F31188BFF34F8F61
:1042A000BFF36F8F00BF00BFFEE7FFF7A7FB134808
:1042B00002686868131A2068401C08B9002619E0D3
:1042C0000F4928680968884206D06868904203D878
:1042D0000126002020600DE02068984207D9206860
:1042E000C01A20602846FFF7C9FC002602E0002023
:1042F00020600126FFF7ACFB304670BD2C0000208B
:10430000400000202DE9FC5F06460F469046994686
:10431000DDE90CAB4B46424639463046CDE900ABB1
:10432000FEF7B4FB054625B12846FEF78FFA0124B7
:1043300001E04FF0FF342046BDE8FC9F05490968C5
:1043400009B9012005E00449096809B9022000E023
:104350000020704734000020540000200149086804
:10436000704700002C0000202DE9F0414FF00008BC
:104370006548006800287DD164480068451C634892
:1043800005601DBB00BF62480068006808B90120D5
:1043900000E0002050B900BF502080F31188BFF327
:1043A0004F8FBFF36F8F00BF00BFFEE7584807680D
:1043B00058480068564908605648076056480068E3
:1043C000401C55490860FEF73FFE00BF5348006897
:1043D00085427ED300BF4E480068006808B90120BE
:1043E00000E0002020B14FF0FF304C4908606FE042
:1043F00047480068C068C4686668B54202D247484A
:10440000066065E000BF6069D4E902128A60D4E901
:1044100002214A60211D42688A4201D1E16841605F
:10442000002262610168491E016000BFA06AA0B15C
:1044300000BFA06AD4E907128A60D4E907214A6064
:1044400004F1180142688A4201D1216A41600022C8
:10445000A2620168491E016000BF00BF94F82C10E1
:10446000012088402E49096808432D49086000BF93
:10447000E16A00E03FE001EB81012A4A02EB8101A1
:104480004868A0608268E260211D82685160816096
:10449000E16A01EB8101234A02EB81026261E16A78
:1044A00001EB81011F4A52F82110491CE26A02EB1C
:1044B00082021C4B43F8221000BF00BF1A49E06A79
:1044C0000968C96A884286D94FF0010883E700E08D
:1044D00000BF15480068C06A00EB8000114951F820
:1044E0002000012801D94FF001081048006808B1E8
:1044F0004FF0010804E00E480068401C0C490860B9
:104500004046BDE8F0810000540000202C0000204F
:104510001C00002020000020400000204800002057
:104520003000002098000020180000203C000020EF
:104530003800002070B50346D868C16851B900BF83
:10454000502080F31188BFF34F8FBFF36F8F00BFF0
:1045500000BFFEE700BF886AD1E90745A560D1E941
:104560000754656001F118044568A54201D10C6A41
:10457000446000258D620468641E046000BF3348F7
:104580000068002842D100BF4869D1E90245A56012
:10459000D1E9025465600C1D4568A54201D1CC6883
:1045A000446000254D610468641E046000BF00BFC4
:1045B00091F82C400120A040254C24682043244C35
:1045C000206000BFCC6A04EB8404224D05EB840418
:1045D000606888608568CD600C1D85686C6084604B
:1045E000CC6A04EB84041B4D05EB84054D61CC6A59
:1045F00004EB8404174D55F82440641CCD6A05EB88
:104600008505144E46F8254000BF11E000BF124C4E
:104610006068C86185680D6201F1180485686C6086
:1046200084600D4D8D622C462468641C2C6000BF94
:104630000A4CC86A2468E46AA04204D90122012015
:10464000074C206000E00022104670BD540000209E
:1046500030000020980000202401002018000020D5
:104660003C0000202DE9F04100240026FFF7C6F9A8
:1046700000275A48006808B1012000E0002050B926
:1046800000BF502080F31188BFF34F8FBFF36F8FAF
:1046900000BF00BFFEE751480068401E4F49086058
:1046A0000846006800287DD14D480068002879D070
:1046B00063E04C48C068C46800BFA06AD4E9071230
:1046C0008A60D4E907214A6004F1180142688A42ED
:1046D00001D1216A41600022A2620168491E016085
:1046E00000BF00BF6069D4E902128A60D4E90221E8
:1046F0004A60211D42688A4201D1E168416000227E
:1047000062610168491E016000BF00BF94F82C106F
:10471000012088403449096808433349086000BFD4
:10472000E16A01EB8101314A02EB81014868A06036
:104730008268E260211D826851608160E16A01EB5C
:1047400081012A4A02EB81026261E16A01EB810187
:10475000264A52F82110491CE26A02EB8202234BDE
:1047600043F8221000BF00BF2149E06A0968C96A06
:10477000884202D901201F4908601A48006808B918
:10478000012000E00020002893D00CB1FEF75CFC73
:104790001948056875B100BFFFF7E6FD20B101209B
:1047A000144900E015E008606D1E002DF4D10020D2
:1047B000114908600F48006858B1012600BF0C4835
:1047C000006830070D490860BFF34F8FBFF36F8F4C
:1047D00000BFFFF73DF93046BDE8F08154000020EE
:1047E0002800002024010020300000209800002034
:1047F000180000203C0000203800002004ED00E0FC
:104800001CB50024FEF79AF80D48006850B10D4819
:10481000042100238A01CDE900100BA10C48FFF709
:1048200071FD044654B900BF502080F31188BFF3D6
:104830004F8FBFF36F8F00BF00BFFEE720461CBD48
:104840006000002064000020546D722053766300E5
:10485000293100087448000800000020980000007A
:104860004C0A00080C49000898000020300501009F
:104870005C0A000800C2EB0B000000000000000012
:104880000000000000000000000000000000000028
:104890000000000000000000000000000000000018
:1048A0000000000000000000000000000000000008
:1048B00000000000000000000000000000000000F8
:1048C00000000000040000000000000000000000E4
:1048D00000000000000000000000000000000000D8
:1048E000AAAAAAAA00000000000000000000000020
:1048F00000000000000000000000000000000000B8
:0C490000000000000000000000000000AB
:040000050800028568
:00000001FF
