:020000040800F2
:1000000010040020C50100085D070008550700081E
:10001000590700084D0700082109000800000000EA
:100020000000000000000000000000008D07000834
:100030005107000800000000890700089107000828
:10004000DF010008DF010008DF010008DF01000810
:10005000DF010008DF010008DF010008DF01000800
:10006000DF010008DF010008DF010008DF010008F0
:10007000DF010008DF010008DF010008DF010008E0
:10008000DF010008DF010008DF010008DF010008D0
:10009000DF010008DF010008DF010008DF010008C0
:1000A000DF010008DF010008DF010008DF010008B0
:1000B000DF010008DF010008DF010008DF010008A0
:1000C000DF010008DF010008DF010008DF01000890
:1000D000DF010008DF010008DF010008DF01000880
:1000E000DF010008DF010008DF010008DF01000870
:1000F000DF010008DF010008DF010008DF01000860
:10010000DF010008DF010008DF010008DF0100084F
:10011000DF010008DF010008DF010008DF0100083F
:10012000DF010008DF010008DF010008DF0100082F
:10013000DF010008DF010008DF010008DF0100081F
:10014000DF010008DF010008DF010008DF0100080F
:10015000DF010008DF010008DF010008DF010008FF
:10016000DF010008DF010008DF010008DF010008EF
:10017000DF010008DF010008DF01000800000000C7
:10018000DF010008DF010008DF010008DF010008CF
:10019000DF010008DF010008DF01000800000000A7
:1001A000DF010008DF010008DF010008DFF810D0E0
:1001B00000F02CFA0048004779180008AFF30080DF
:1001C000100400200648804706480047FEE7FEE787
:1001D000FEE7FEE7FEE7FEE7FEE7FEE7FEE7FEE7F7
:1001E00099070008AD01000800F0004230F000401F
:1001F0000AD0C10D01F56071C0F3160042EA015149
:10020000C20840071143704700200146704730B5CF
:100210000B46014600202022012409E021FA02F5C4
:100220009D4205D303FA02F5491B04FA02F528445E
:10023000151EA2F10102F1DC30BD2DE9F05F05468B
:10024000002092469B4688460646814640241BE095
:10025000284641464746224600F0F9F953465A4699
:10026000C01A914110D311461846224600F0E0F919
:100270002D1A67EB01084F4622460120002100F0AD
:10028000D7F917EB00094E41201EA4F10104DFDC71
:10029000484631462A464346BDE8F09F2DE9FE4FC9
:1002A000804681EA0300C00F0C46009021F0004117
:1002B00023F00045B8EB0200A94105D24046214693
:1002C00090461C460B46024623F00040104347D0A0
:1002D000270DC7F30A00C3F30A510290401A019098
:1002E00040286BDAC3F3130040F4801B0098924659
:1002F00020B10023D2EB030A63EB0B0B01985946A4
:10030000C0F14002504600F093F906460D465046B3
:100310005946019A00F0ABF910EB08006141002446
:1003200087EA115284EAE7731A4340D0009A62B315
:10033000019A012A4FEA075215DC001B61EB02010A
:100340004FF0004202EA0752CDE90042001C41F59D
:10035000801132462B4600F0ABF903B0BDE8F08FB8
:1003600040462146F9E7001B61EB0201001C41F504
:10037000801300185B412018A2F5001747EB03011A
:1003800040EAD570B6196D4111E06D084FEA3606A6
:1003900045EAC0754FEA0752001B61EB0201001CE1
:1003A00041F5801149084FEA3000001951413246A9
:1003B0002B4603B0BDE8F04F00F06BB90098012266
:1003C00040000023D0EB020263EBE073009821466B
:1003D0004FEAE074B8EB000061EB0401E9E783F059
:1003E00000435BE781F0004158E72DE9FE4F81EAC9
:1003F000030404F0004421F0004100944FF0000B8E
:1004000023F0004350EA01045ED052EA03045BD0BB
:10041000C3F30A54C1F30A552C44A4F2F3340194F3
:10042000A0FB0254C1F3130141F48011C3F3130381
:1004300043F4801301FB024400FB034E840A970A35
:1004400044EA815447EA8357A4FB076802958D0A62
:1004500005FB07854FEA932C04FB0C542705029DEE
:100460004FEA065847EA1637B5EB08056EEB070C5E
:10047000870E920E47EA811742EA8312A7FB020118
:10048000B6EB0B0164EB00042B0D43EA0C335E1852
:1004900044EB1C50DA465146E7FB0201C5F3130456
:1004A0004FEA0B3343EA14534FEA0432019C43EA08
:1004B0000603A4F10C040294009CCDE900B400F002
:1004C000F7F803B0BDE8F08F00200146F9E72DE909
:1004D000F04D81EA030404F0004B21F0004514467E
:1004E0004FF0000A23F0004150EA050220D054EA00
:1004F00001021DD0C5F30A570246C5F31303C1F329
:100500001300C1F30A5640F4801543F48013A7EB9F
:100510000608101BD64608F2FD3873EB050002D31F
:1005200008F1010801E092185B41B8F1000F03DA0D
:1005300000200146BDE8F08D00204FF480110646F2
:1005400084460EE0171B73EB050705D3121B63EB04
:10055000050306434CEA010C49084FEA30009218A3
:100560005B4150EA0107EDD152EA030012D082EA62
:10057000040083EA0501084305D0101BAB4106D2F5
:100580000122002306E000224FF0004302E06FF05A
:10059000010253101AEB06004CEB085110EB0A0055
:1005A00041EB0B01BDE8F04D00F073B8C1F30A5206
:1005B000C1F3130140F2FF3341F480119A4202DA91
:1005C00000200146704740F233439A42A2F2334280
:1005D00002DC524200F03BB800F02AB830B5041EED
:1005E00071F1000404DB4FF00044404264EB010170
:1005F000141E73F1000405DB1C464FF00043524209
:1006000063EB0403994208BF904230BD064C074D8E
:1006100006E0E06840F0010394E8070098471034D2
:10062000AC42F6D3FFF7C6FD542100087421000840
:10063000202A04DB203A00FA02F1002070479140A2
:10064000C2F1200320FA03F3194390407047202A97
:1006500004DB203A21FA02F00021704721FA02F36C
:10066000D040C2F120029140084319467047202A29
:1006700006DBCB17203A41FA02F043EAE07306E0CA
:1006800041FA02F3D040C2F12002914008431946DA
:10069000704710B5141E73F1000408DA401C41F1D4
:1006A000000192185B411A4301D120F0010010BDF6
:1006B0002DE9F04D92469B4611B1B1FA81F202E06C
:1006C000B0FA80F220329046FFF7B2FF04460F46A0
:1006D00040EA0A0041EA0B0153465A46084313D048
:1006E000114653EA010019D0C8F140025046FFF705
:1006F000AEFF05460E46504659464246FFF798FF64
:10070000084305D0012004E020463946BDE8F08DBD
:100710000020054346EAE0762C4337430A986305F8
:10072000E40AA0EB08000022FD0A44EA47540A301C
:1007300002D500200146E9E7010510196941DDE90C
:10074000084500196941BDE8F04DA2E700BFFEE78A
:1007500000BFFEE700BFFEE700BFFEE700BFFEE709
:1007600010B5002807DA0A07140E054A00F00F0337
:100770001B1FD45403E00A07130E024A135410BD82
:1007800018ED00E000E400E000BFFEE700BFFEE778
:1007900010B500F07DFF10BD1CB55D48006840F449
:1007A00070005B4908605B48006840F001005949EF
:1007B000086000BF5748006800F002000028F9D028
:1007C00054480830006800F00C0008286ED100BFC3
:1007D0000020019002E00198401C019001985028EF
:1007E000F9D34C48083000680090009820F0F000E1
:1007F0000090009840F08000009046490831009831
:1008000008600020019002E00198401C01900198CE
:100810005028F9D33F48083000680090009820F035
:10082000F0000090009840F09000009039490831A5
:10083000009808600020019002E00198401C01909F
:1008400001985028F9D33348083000680090009888
:1008500020F0F0000090009840F0A00000902D499A
:100860000831009808600020019002E00198401CC7
:10087000019001985028F9D326480830006800906C
:10088000009820F0F0000090009840F0B000009038
:1008900020490831009808600020019002E001988A
:1008A000401C019001985028F9D300BF1948083026
:1008B000006820F00300174908310860C82000F0E4
:1008C00096FC14480068144908401249086008461C
:1008D000006820F48020086000200E49083108607C
:1008E00000BF0C480830006800200028F9D10B48F0
:1008F0000849091D0860002006490C31086001F014
:1009000087FA00214FF0006001F026F91CBD0000BD
:1009100088ED00E000380240FFFFF6FE10300024B2
:1009200000BFFEE70FB4054B10B503A9044A0298B7
:1009300000F0DAF810BC5DF814FB0000A9160008FE
:100940000800002002E008C8121F08C1002AFAD1DE
:1009500070477047002001E001C1121F002AFBD13F
:10096000704700002DE9FF5F82B00021DDE904300F
:10097000020DDDF840B0034318D044F61050A2F247
:10098000FF3242431514119801281FD0A5EB0B002C
:10099000401C5FEA000A4FF000064E4FDFF8389126
:1009A000B046504615D5CAF1000413E01198012451
:1009B0004AA3012801D16FEA0B010298119AC0E9FC
:1009C0000031C0E9024206B0BDE8F09FCBF1000063
:1009D000DFE704460021404A491842EB0450CDE9C4
:1009E000001012E0E00707D032463B464046494639
:1009F000FFF7FBFC8046894632463B4610461946C7
:100A0000FFF7F3FC06460F466410002CEAD1DDE93F
:100A10000401DDE90023BAF1000F06DAFFF7E5FC77
:100A200042464B46FFF7E1FC05E0FFF750FD42462A
:100A30004B46FFF74CFD04460E460022284BFFF7BD
:100A4000CDFD03D84FF0FF30014607E00022254BD3
:100A500020463146FFF722FCFFF7A8FD102409E0ED
:100A6000002C0ADB0A220023FFF7E7FB039B30324E
:100A70001A55641E50EA0102F2D1641C039AC4F1B3
:100A800011031444119A012A03D0012208430DD105
:100A90000AE0084304D000204FF0110B119072E7D8
:100AA000A3EB0B056D1E0DE05B4504DD4FF000026E
:100AB00005F1010504E003DA4FF00002A5F101059C
:100AC000002AECD002981199C0E90231C0E9004532
:100AD00079E70000000014400000F03F3000000003
:100AE0000000F0430000E03F2DE9FF4F95B09A462B
:100AF000884606460025EEE1252877D100242746C2
:100B0000F94A0121039400E0044316F8013F203B19
:100B100001FA03F01042F7D130782A2811D06FF093
:100B20002F033078A0F13002092A16D8039A44F036
:100B3000020402EB820203EB42021044761C039093
:100B4000EFE758F8042B0392002A03DA504244F4EA
:100B50000054039044F00204761C30782E2816D1FD
:100B600016F8010F44F004042A280DD06FF02F026C
:100B70003078A0F13003092B09D807EB870302EB8B
:100B80004303C718761CF3E758F8047B761C3078CB
:100B90006C280FD006DC4C2817D068280DD06A28A6
:100BA00014D104E0742810D07A280FD10DE044F459
:100BB00000140AE044F4801401E044F44014727814
:100BC000824202D104F58014761C761C30786628A7
:100BD0000BD013DC582877D009DC002875D04528C5
:100BE000F6D04628F4D047281AD193E118E06328BC
:100BF00035D0642879D0652812D18BE1702873D064
:100C000008DC6728F1D069286FD06E280DD06F28D6
:100C100006D1ACE073282CD0752874D0782853D036
:100C20005246179990476D1C54E1C4F302500228B4
:100C300009D003280DD0D8F8001004280DD00D607D
:100C400008F1040846E1D8F80010EA17C1E900529B
:100C5000F6E7D8F800100D80F2E70D70F0E718F80D
:100C6000041B8DF8001000208DF80100EB460120D8
:100C700003E058F804BB4FF0FF3061074FF000016C
:100C800002D40DE009F101018946B9420FDA81452C
:100C9000F8DB1BF809100029F4D108E009F1010183
:100CA00089468142FADB1BF809100029F6D1039826
:100CB0005346A0EB090721463846179A00F080FA00
:100CC000284400EB090507E044E008E10DE01BF8CB
:100CD000010B524617999047B9F10109F7D25346D3
:100CE00021463846179AF2E039E00A21C4F302524D
:100CF0004FF0000B0091022A06D058F8040BC117E0
:100D0000032A09D00AE023E008F1070020F00702D7
:100D1000F2E80201904605E000B2C117042A01D1B1
:100D200040B2C117002906DA0A460021404261EBB1
:100D300002012D2202E0220504D52B228DF8042089
:100D4000012203E0E20701D02022F7E7914657E0B5
:100D50000A2100E010214FF0000B00910BE0102160
:100D60004FF0000B44F004040827009103E0082032
:100D70004FF0000B0090C4F30252022A05D058F83D
:100D8000040B0021032A08D008E008F1070020F036
:100D90000702F2E80201904603E080B2042A00D183
:100DA000C0B24FF0000922072AD53278702A07D046
:100DB000DDF800C08CF0100C5CEA0B0C05D00EE0E6
:100DC00040228DF80420012208E050EA010306D0F9
:100DD00030238DF804308DF8052002229146009BC7
:100DE00083F0080353EA0B030AD150EA010201D150
:100DF000620705D530228DF804204FF001097F1ECF
:100E00003278582A04D039A20C920CAA02920BE034
:100E10003BA2F9E75B46009AFFF70FFA0C9B9B5C3D
:100E2000029A521E0292137050EA0102F2D1029805
:100E300004A9081A00F1200B600702D524F48034BD
:100E400000E001275F4502DDA7EB0B0000E000207A
:100E500000EB0B01009003984944401A0390E00313
:100E600006D453462146179A039800F0A9F9054481
:100E7000002706E001A85246C05D179990476D1CF7
:100E80007F1C4F45F6DBE0030CD553462146179AED
:100E9000039800F095F9054404E030205246179974
:100EA00090476D1C0099481E00900029F5DC08E071
:100EB0000298029952460078491C0291179990476E
:100EC0006D1CBBF10001ABF1010BF1DC5BE100F04B
:100ED00065F90544761C307800287FF40DAE19B012
:100EE0002846BDE8F08F0000092801003031323378
:100EF0003435363738396162636465660000000056
:100F0000303132333435363738394142434445463F
:100F100000000000600700D4062708F1070020F059
:100F20000700F0E80223804603F0004C5FEA0C0063
:100F300001D097A009E0200501D596A005E0E007C3
:100F400001D095A001E0AFF24C001390307823F06F
:100F5000004365280CD006DC452809D046281DD062
:100F600047287FD13BE0662818D067287AD136E041
:100F70000021112F01DB112000E0781CCDE90001D8
:100F800004A90CA8FFF7EEFCDDE90D010C9A4FF067
:100F9000000B07F10109109200914EE04FF0004064
:100FA0000097CDE9011004A90CA8FFF7DBFCDDE9EF
:100FB0000D020C9B0F994FF0000B9146109300927D
:100FC00011B9791C00EB0109B7EB090003D4C0F19A
:100FD000FF3B07F10109A9EB0700019042E0012F57
:100FE00000DA01270021112F01DD112000E0384631
:100FF000CDE9000104A90CA8FFF7B4FCDDE90D015F
:101000000C9A00914FF0000BB946109221070FD4B3
:10101000009A4A4503DA914601E0A9F10109B9F1C4
:10102000010F05DD109AA9F10101515C3029F4D0BE
:10103000B84202DA10F1040F03DA0121CDE9011000
:1010400010E0002803DC8344A9EB000102E0411C0E
:10105000494500DD8946A0EB0B00401C01904FF094
:1010600000400290200705D40198484502DB4FF06C
:10107000FF30019000208DF84B0002980DF14B07D6
:10108000B0F1004F25D002200C902B200D9002983B
:1010900000280CDA404202902D200D9007E00A2132
:1010A0000298FFF7B4F83031029007F8011D0C994F
:1010B000481E0C900029F2DC02980028EFD1791E1E
:1010C0000D980870307800F0200040F0450007F8D7
:1010D000020D11A8C01BC01D02901398007800B12A
:1010E000012000EB0901019801EBE0710298014435
:1010F0000398401A401E0390E00306D4534621464D
:10110000179A039800F05CF805441398007818B11A
:101110005246179990476D1CE00323D5534621464C
:10112000179A039800F04CF805441BE0BBF1000F40
:1011300007DB0098584504DD1098179910F80B004C
:1011400001E0179930205246904701980BF1010BAE
:10115000401E05F10105019004D12E205246179939
:1011600090476D1CB9F10001A9F10109DEDC05E031
:1011700017F8010B5246179990476D1C0299481EAB
:1011800002900029F4DC53462146179A03989EE604
:101190002D0000002B000000200000002DE9F04190
:1011A000044600251E461746880404D405E0394647
:1011B0002020B0476D1C641EF9D52846BDE8F0819B
:1011C0002DE9F041044600251E469046C80301D58E
:1011D000302700E02027880404D505E04146384642
:1011E000B0476D1C641EF9D52846BDE8F08108B5EE
:1011F0000021009102E00099491C009100EB800160
:10120000009AB2EB410FF6D308BD2DE9F041054637
:101210000E4617469846002408F0010044EA801460
:1012200006F0030044EA001405F0030044EA8004D9
:1012300007F003000443204600F066F9BDE8F081A2
:1012400008B5C0EB0011C900009100E000BF009993
:101250004A1E00920029F9D108BD000010B50423F0
:1012600001220021014800F089FA10BD0008024067
:1012700010B5042301221146044800F07FFA04232C
:1012800002220021014800F0A0FA10BD000802402F
:1012900010B540F6024000F0FDFC40F6024000F0C0
:1012A000F9FC0223002201210F4800F067FA022313
:1012B0001A4600210C4800F088FA02210A4800F082
:1012C00050FAFFF7CBFF0221074800F04CFAC82084
:1012D000FFF7B6FF0221044800F043FA4FF4FA602A
:1012E000FFF7AEFF10BD0000000802402DE9F041FD
:1012F00004460026214F0CB10120207007E07F1E1C
:101300002FB90CB1002020700020BDE8F08104212D
:101310001B4800F02AFA0128F1D0002517E002212D
:10132000174800F020FA0120FFF78AFF7600042119
:10133000134800F01AFA012801D146F001060221F3
:101340000F4800F00EFA0120FFF77AFF6D1C182DF0
:10135000E5DB00250EE00221094800F004FA012037
:10136000FFF76EFF0221064800F0FBF90120FFF7AE
:1013700067FF6D1C032DEEDB3046C6E7002D310103
:101380000008024070B505462846FFF7AFFF044647
:1013900004F4000008B144F07F44204670BD000012
:1013A0002DE9F0410025564E562704E0761E16B969
:1013B0000020BDE8F0810421524800F0D6F9012850
:1013C000F4D000240EE002214E4800F0CCF90120B8
:1013D000FFF736FF02214B4800F0C3F90120FFF769
:1013E0002FFF641C182CEEDB00240EE00221454880
:1013F00000F0B9F90120FFF723FF0221414800F076
:10140000B0F90120FFF71CFF641C032CEEDBFFF793
:101410002FFF04213B4800F0A4F900240EE0022134
:10142000384800F0A0F90120FFF70AFF02213548F3
:1014300000F097F90120FFF703FF641C022CEEDB9C
:1014400000241EE002212F4800F08DF9C4F10600AF
:1014500047FA00F000F0010020B10421294800F013
:1014600082F903E00421274800F07BF90120FFF70F
:10147000E7FE0221234800F074F90120FFF7E0FEA7
:10148000641C072CDEDB02211E4800F06CF90120F1
:10149000FFF7D6FE02211B4800F063F9FFF7DEFEDE
:1014A0000120FFF7CDFE002418E00221154800F0CE
:1014B0005AF90120FFF7C4FE6806050E0421114801
:1014C00000F053F9012801D145F0010502210D4832
:1014D00000F047F90120FFF7B3FE641C082CE4DBA1
:1014E0000221084800F03FF90120FFF7A9FE022180
:1014F000044800F036F90120FFF7A2FE284658E71D
:10150000002D3101000802402DE9F0410546594EF9
:10151000652703E0761E0EB9BDE8F0810421564828
:1015200000F023F90128F5D000240EE002215248F2
:1015300000F019F90120FFF783FE02214E4800F068
:1015400010F90120FFF77CFE641C182CEEDB002450
:101550000EE00221484800F006F90120FFF770FE76
:101560000221454800F0FDF80120FFF769FE641CE8
:10157000032CEEDBFFF77CFE04213F4800F0F1F87E
:1015800000240EE002213C4800F0EDF80120FFF7B6
:1015900057FE0221384800F0E4F80120FFF750FE22
:1015A000641C022CEEDB00241EE00221324800F015
:1015B000DAF8C4F1060047FA00F000F0010020B1AB
:1015C00004212D4800F0CFF803E004212A4800F060
:1015D000C8F80120FFF734FE0221274800F0C1F8C7
:1015E0000120FFF72DFE641C072CDEDB02212248C0
:1015F00000F0B9F80120FFF723FE02211E4800F099
:10160000B0F80120FFF71CFE00241EE002211A485A
:1016100000F0A9F8C4F1070045FA00F000F001005D
:1016200020B10421144800F09EF803E00421124880
:1016300000F097F80120FFF703FE02210E4800F0AA
:1016400090F80120FFF7FCFD641C082CDEDB022172
:10165000094800F088F80120FFF7F2FD0221064852
:1016600000F07FF80120FFF7EBFDFFF7F7FD00BF6B
:1016700052E70000002D31010008024003490860D4
:1016800000BF024909680029FBD170470000002013
:101690000448006820B103480068401E0149086002
:1016A000704700000000002070B504460D46E1B20E
:1016B000054800F04DFC00BF0721034800F005FD80
:1016C0000028F9D0204670BD0010014030B101283B
:1016D00007D0022808D003280CD108E0B7EE000A92
:1016E0007047B0EE000AFBE79FED040AF8E79FEDB4
:1016F000040AF5E7B7EE000AF2E7000000008042B6
:1017000000000043F0B503461C6A5D6A00200DE04E
:101710000126864016403EB187000F26BE40B443E6
:10172000860001FA06F63443461CB0B20828EFD30F
:10173000082011E00126864016405EB1A0F108069F
:10174000B7000F26BE40B543A0F10806B60001FA67
:1017500006F63543461CB0B21028EBD31C625D621E
:10176000F0BD8162704781617047024600201369B5
:101770000B400BB1012000E000207047F0B504469B
:101780000D4616462168E268002019E001278740CF
:101790001F409FB14FEA400C032707FA0CF7B943EB
:1017A000470005FA07F739434FEA400C032707FAC9
:1017B0000CF7BA43470006FA07F73A43471CB8B29A
:1017C0001028E3D32160E260F0BDF0B50C46154669
:1017D000012C03D146681E43466002E046689E43E2
:1017E0004660826800210DE001268E401E403EB119
:1017F0004F000326BE40B2434E0005FA06F63243C0
:101800004E1CB1B21029EFD38260F0BD80ED000A0A
:10181000C0ED010A80ED021AC0ED031A7047F0EE28
:10182000400A90ED010AD0ED021A30EE210A80ED57
:10183000010A90ED010AD0ED031A30EE210AD0ED35
:10184000011A81EE802AB0EE421A90ED000AD0ED26
:10185000001A70EEE11A01EE210A80ED000AB7EEDF
:10186000000A30EE410AD0ED011A20EE210A80ED87
:10187000010A90ED000A70472DED088B8AB0002711
:1018800000200990002500260024B7EE000AF0EEA3
:10189000408A80469FED750AB0EE408A9FED730A3C
:1018A000B0EE409A00F0B8FA4FF4E13000F054FB8B
:1018B00040F6034000F0EEF98023002201216C483D
:1018C000FFF75CFF8023022200216948FFF77DFFBC
:1018D000DFED681A9FED681AF7EE000A9FED630AC4
:1018E00005A8FFF793FF65A0FFF71CF8FFF7D0FCF2
:1018F000C820FFF7C3FE00BFB7EE000AF0EE408A33
:1019000000231A4619462046FFF77FFCC820FFF740
:10191000B5FEFFF745FD074639465FA0FFF702F821
:10192000A2E00020099009A8FFF72CFD05469DF8CC
:10193000240000287ED0002D01DA6E4200E02E4601
:101940004FF000085D48864210DD032C03D10224CD
:101950004FF0010823E0022C02D10124A0461EE032
:10196000012C1CD100244FF0010818E034B9544870
:10197000864203DA01244FF0010810E0012C06D161
:101980005048864203DA02244FF0010807E0022C97
:1019900005D14B48864202DA03244FF00108B8F122
:1019A000000F15D02046FFF791FEF0EE408ABDEE05
:1019B000E80A10EE101A44A0FEF7B4FF00231A46FE
:1019C00019462046FFF721FCC820FFF757FE4BE0E1
:1019D00000EE105AB8EEC00A9FED471AC0EE010A99
:1019E000B0EE040A80EE281A9FED200A10EE810A5C
:1019F000B0EE408A38EE490ADFED400AB4EEE00A64
:101A0000F1EE10FA08DC38EE490ADFED3D0AB4EEDB
:101A1000E00AF1EE10FA01D28DED058AB0EE480A27
:101A200005A8FFF7FCFEB0EE409A19EE100AFEF78B
:101A3000DBFB00E014E041EC1A0B18EE100AFEF795
:101A4000D3FB41EC1B0B8DED02AB8DED00BB2A46A9
:101A5000BDEEE80A10EE101A2AA0FEF763FF02E0BE
:101A600037A0FEF75FFF00BF5BE70000000000004B
:101A7000000C0240CDCCCC3D17B7D138496E69740B
:101A800069616C697A696E67204353313233372E4E
:101A90002E2E0D0A0000000043533132333720430D
:101AA0006F6E66696720726561646261636B3A207C
:101AB0003078253032580D0A0000000080C26700DF
:101AC000C0C62D00A08601005B4155544F2D5241E8
:101AD0004E47455D2047656172205377697463689E
:101AE000202D3E204E6577204761696E3A2025649F
:101AF00020780D0A00000000FEFFFF4A0AD7A33B32
:101B00000AD7A3BB4761696E3A2025336478207CED
:101B1000205261773A20253864207C204D6561731E
:101B20003A2025392E36662056207C2046696C7472
:101B3000657265643A2025392E366620560D0A00F6
:101B400043533132333720526561642054696D65E7
:101B50006F7574210D0A0000034A0A400243034BCB
:101B60001A60BFF34F8F704780FFFF1F08ED00E042
:101B70002DE9F04F8CB0064600200A903EA090E878
:101B8000004CC068CDE905BECDF810A007900FF25B
:101B9000EC0ADAE9000ACDE9020A0FF2E00ADAE912
:101BA000000ACDE9000A38480068C0F381000B90B4
:101BB0000B9820B1012804D0022828D103E0334932
:101BC00027E0334925E03048001F006800F03F0758
:101BD0002D48001F0068C0F3881C2B48001F0068B8
:101BE000C0F30140401C4FEA40092748001F00682D
:101BF00000F48008B8F5800F01D1254B00E0234B9D
:101C0000B3FBF7F000FB0CF0B0FBF9F101E01F496A
:101C100000BF00BF1C480068C0F3031404A8055DA2
:101C200021FA05F218480068C0F3822402A8055D75
:101C300022FA05F0099014480068C0F342341DF8F8
:101C4000045022FA05F0089036B1012E06D0022E7B
:101C500006D0032E0AD106E00A9108E00A9206E0B7
:101C600009980A9003E008980A9000E000BF00BFBE
:101C70000A980CB0BDE8F08F0000000000000000E2
:101C80000102030406070809083802400024F40092
:101C900040787D01074A02EB9011D1F8001800F05E
:101CA0001F0301229A401143024B03EB9012C2F82A
:101CB0000018704700300240074A02EB9011D1F83B
:101CC000001800F01F0301229A409143024B03EBDE
:101CD0009012C2F80018704700300240074A02EB29
:101CE0009011D1F8001800F01F0301229A4011430F
:101CF000024B03EB9012C2F800187047003002400C
:101D000008B5002000213F4A126842F480323D4B62
:101D10001A6000BF401C3B4A126802F4003119B936
:101D20004FF6FF729042F5D1364A126802F4003243
:101D300032B900BF334A126802F40032002AF9D0E7
:101D4000304A4032126842F080522E4B40331A60C3
:101D50002D4A126842F440422B4B1A60294A08323D
:101D60001268284B08331A601A46126842F400427F
:101D70001A601A46126842F4A0521A60234A1B1FC6
:101D80001A601A1F126842F080721B1F1A6000BF8F
:101D90001C4A126802F00072002AF9D01A4A12682E
:101DA00042F48032184B1A6000BF174A526802F49E
:101DB0008032002AF9D0144A126842F40032124BE1
:101DC0001A6000BF104A526802F40032002AF9D0AB
:101DD0000C4A083212680092009A22F00302009224
:101DE000009A42F002020092064B0833009A1A60F1
:101DF00000BF044A0832126802F00802002AF8D034
:101E000008BD00000038024000700040196440091D
:101E100010B5FFF775FF10BD10B5124800684FF4FC
:101E20007A71B0FBF1F4601EB0F1807F01D3012024
:101E30000FE0601E4FF0E02148610F214FF0FF30AE
:101E4000FEF78EFC00204FF0E0218861072008613A
:101E5000002008B100BFFEE70021481EFEF780FC0D
:101E600010BD0000040000202DE9F04704460D4697
:101E70000027B846B94600263349601A8C4235D04F
:101E80000CDC32482044E8B1B0F5806F1FD0B0F5CB
:101E9000006F21D0B0F5406F32D122E0B0F5806FF5
:101EA00029D0B0F5184F03D0B0F51C4F28D104E06D
:101EB0000320FFF75DFE074623E00320FFF758FEEF
:101EC00007461EE00220FFF753FE074619E00220F6
:101ED000FFF74EFE074614E00220FFF749FE0746D3
:101EE0000FE00220FFF744FE07460AE00220FFF75A
:101EF0003FFE074605E00220FFF73AFE074600E0F6
:101F000000BF00BFE06800F4004070B1780000EB53
:101F10005500B0FBF5F64FF6F07006EA0008C6F380
:101F2000420948EA0900A0600CE007EB5500B0FB4D
:101F3000F5F64FF6F07006EA000806F00F0948EAD9
:101F40000900A060BDE8F0870078004000BCFFBF3A
:101F5000C1F308024260704710B504464FF4406078
:101F6000FFF798FE41F20410FFF794FE4FF4C062B1
:101F700007211A48FFF7C6FB4FF4C0630122022174
:101F80001648FFF7FBFB4FF4C06302220021134801
:101F9000FFF71BFC124800F025F821461048FFF718
:101FA00063FF00210E4800F0CCF800210C4800F03F
:101FB000B8F800210A4800F0A4F80021084800F011
:101FC00094F80821064800F0B4F80421044800F011
:101FD000A0F8034800F074F810BD000000000240B3
:101FE0000010014010B504463349601A8C424DD0B0
:101FF0000CDC32482044E0B1B0F5806F22D0B0F55F
:10200000006F31D0B0F5406F52D136E0B0F5806F3F
:1020100045D0B0F5184F03D0B0F51C4F48D11AE0A9
:1020200040F60410FFF75AFE40F60410FFF744FE96
:102030003FE040F61100FFF751FE40F61100FFF7B8
:102040003BFE36E040F61200FFF748FE40F6120075
:10205000FFF732FE2DE040F60510FFF73FFE40F699
:102060000510FFF729FE24E040F61300FFF736FEC7
:1020700040F61300FFF720FE1BE040F61400FFF7C8
:102080002DFE40F61400FFF717FE12E040F61E008A
:10209000FFF724FE40F61E00FFF70EFE09E040F6B3
:1020A0001F00FFF71BFE40F61F00FFF705FE00E0D4
:1020B00000BF00BF10BD00000078004000BCFFBFA3
:1020C000C16841F40051C160704730B5024600203C
:1020D00002EB91131B6801F01F050124AC40234063
:1020E0000BB1012000E0002030BD50F8C02F22F0DD
:1020F00001020260026801F001031A4340F8C0299E
:102100007047C26822F4C062C260C2680A43C260FB
:1021100070470A460021C16821F004011143C160E3
:102120007047026922F44052026102690A43026167
:1021300070470A460021C16821F008011143C160BF
:102140007047C26822F48052C260C2680A43C2600B
:102150007047000074210008000000200C000000FF
:1021600044090008802100080C000020040400003D
:10217000540900080000000000C2EB0B0000000042
:04000005080001C529
:00000001FF
