:020000040800F2
:1000000090CD012085020008F9080008F5080008D5
:10001000F7080008A1080008250A000800000000F1
:10002000000000000000000000000000C501000802
:10003000A30800080000000021020008FD080008D5
:100040009F0200089F0200089F0200089F0200080C
:100050009F0200089F0200089F0200089F020008FC
:100060009F0200089F0200089F0200089F020008EC
:100070009F0200089F0200089F0200089F020008DC
:100080009F0200089F0200089F0200089F020008CC
:100090009F0200089F0200089F0200089F020008BC
:1000A0009F0200089F0200089F0200089F020008AC
:1000B0009F0200089F0200089F0200089F0200089C
:1000C0009F0200089F0200089F0200089F0200088C
:1000D0009F0200089F0200089F0200089F0200087C
:1000E0009F0200089F0200089F0200089F0200086C
:1000F0009F0200089F0200089F0200089F0200085C
:100100009F0200089F0200089F0200089F0200084B
:100110009F0200089F0200089F0200089F0200083B
:100120009F0200089F0200089F0200089F0200082B
:100130009F020008A50800089F0200089F0200080F
:100140009F0200089F0200089F0200089F0200080B
:100150009F0200089F0200089F0200089F020008FB
:100160009F0200089F0200089F0200089F020008EB
:100170009F0200089F0200089F0200080000000084
:100180009F0200089F0200089F0200089F020008CB
:100190009F0200089F0200089F0200080000000064
:1001A0009F0200089F0200089F020008DFF810D09D
:1001B00000F0D8FA004800478D4A0008AFF30080ED
:1001C00090CD01202C4B19680868B0E8F04F80F3FF
:1001D0000988BFF36F8F4FF0000080F311887047DC
:1001E0000000000008480068006880F308884FF0AD
:1001F000000080F3148862B661B6BFF34F8FBFF37F
:100200006F8F00DF00BF00BF08ED00E0DFF80C00DB
:10021000016841F470010160704700BF88ED00E0A3
:10022000EFF30980BFF36F8F134B1A681EF0100FA6
:1002300008BF20ED108A20E9F04F106009B44FF09C
:10024000500080F31188BFF34F8FBFF36F8F08F01A
:100250009BFE4FF0000080F3118809BC1968086804
:10026000B0E8F04F1EF0100F08BFB0EC108A80F31A
:100270000988BFF36F8F704718000020EFF30580E7
:10028000704700000648804706480047FEE7FEE743
:10029000FEE7FEE7FEE7FEE7FEE7FEE7FEE7FEE736
:1002A00029090008AD0100082DE9F05F054600208E
:1002B00092469B4688460646814640241BE02846D7
:1002C00041464746224600F084F853465A46C01A33
:1002D000914110D311461846224600F06BF82D1AB2
:1002E00067EB01084F4622460120002100F062F82A
:1002F00017EB00094E41201EA4F10104DFDC484643
:1003000031462A464346BDE8F09F10B5431A934252
:1003100009D28318881803E010F8011D03F8011DA5
:10032000521EF9D210BD40EA01039B0703D009E039
:1003300008C9121F08C0042AFAD203E011F8013BD1
:1003400000F8013B521EF9D210BDD2B201E000F814
:10035000012B491EFBD270470022F6E710B5134669
:100360000A4604461946FFF7F0FF204610BD30B597
:1003700004460020034600E05B1C934203D2E05C8D
:10038000CD5C401BF8D030BD30B50B460146002097
:100390002022012409E021FA02F59D4205D303FA47
:1003A00002F5491B04FA02F52844151EA2F10102C8
:1003B000F1DC30BD202A04DB203A00FA02F10020F3
:1003C00070479140C2F1200320FA03F31943904093
:1003D0007047202A04DB203A21FA02F000217047FE
:1003E00021FA02F3D040C2F120029140084319469D
:1003F00070472DE9FE4F804681EA0300C00F0C468E
:10040000009021F0004123F00045B8EB0200A94123
:1004100005D24046214690461C460B46024623F034
:100420000040104347D0270DC7F30A00C3F30A5119
:100430000290401A019040286BDAC3F3130040F495
:10044000801B0098924620B10023D2EB030A63EB95
:100450000B0B01985946C0F140025046FFF7AAFF26
:1004600006460D4650465946019A00F08DF910EBAC
:1004700008006141002487EA115284EAE7731A43B5
:1004800040D0009A62B3019A012A4FEA075215DC64
:10049000001B61EB02014FF0004202EA0752CDE976
:1004A0000042001C41F5801132462B4600F08DF9C8
:1004B00003B0BDE8F08F40462146F9E7001B61EB31
:1004C0000201001C41F5801300185B412018A2F5C1
:1004D000001747EB030140EAD570B6196D4111E0F2
:1004E0006D084FEA360645EAC0754FEA0752001B11
:1004F00061EB0201001C41F5801149084FEA300010
:100500000019514132462B4603B0BDE8F04F00F0D0
:100510004DB90098012240000023D0EB020263EBAA
:10052000E073009821464FEAE074B8EB000061EBFD
:100530000401E9E783F000435BE781F0004158E7FD
:100540002DE9FE4F81EA030404F0004421F000414C
:1005500000944FF0000B23F0004350EA01045ED0FA
:1005600052EA03045BD0C3F30A54C1F30A552C4486
:10057000A4F2F3340194A0FB0254C1F3130141F43B
:100580008011C3F3130343F4801301FB024400FB07
:10059000034E840A970A44EA815447EA8357A4FB2E
:1005A000076802958D0A05FB07854FEA932C04FB2B
:1005B0000C542705029D4FEA065847EA1637B5EB5B
:1005C00008056EEB070C870E920E47EA811742EA88
:1005D0008312A7FB0201B6EB0B0164EB00042B0DA9
:1005E00043EA0C335E1844EB1C50DA465146E7FBF5
:1005F0000201C5F313044FEA0B3343EA14534FEAE5
:100600000432019C43EA0603A4F10C040294009C0A
:10061000CDE900B400F0D9F803B0BDE8F08F0020B8
:100620000146F9E72DE9F04D81EA030404F0004B9F
:1006300021F0004514464FF0000A23F0004150EA33
:10064000050220D054EA01021DD0C5F30A57024624
:10065000C5F31303C1F31300C1F30A5640F4801528
:1006600043F48013A7EB0608101BD64608F2FD38AA
:1006700073EB050002D308F1010801E092185B4119
:10068000B8F1000F03DA00200146BDE8F08D00202C
:100690004FF48011064684460EE0171B73EB0507E6
:1006A00005D3121B63EB050306434CEA010C490812
:1006B0004FEA300092185B4150EA0107EDD152EA4F
:1006C000030012D082EA040083EA0501084305D042
:1006D000101BAB4106D20122002306E000224FF09E
:1006E000004302E06FF0010253101AEB06004CEBDE
:1006F000085110EB0A0041EB0B01BDE8F04D00F092
:1007000055B8C1F30A52C1F3130140F2FF3341F46B
:1007100080119A4202DA00200146704740F23343CA
:100720009A42A2F2334202DC5242FFF752BEFFF776
:1007300041BE000030B5041E71F1000404DB4FF02F
:100740000044404264EB0101141E73F1000405DB18
:100750001C464FF00043524263EB0403994208BF2A
:10076000904230BD064C074D06E0E06840F00103C2
:1007700094E8070098471034AC42F6D3FFF71AFD0F
:10078000A49F0008C49F0008202A06DBCB17203A4C
:1007900041FA02F043EAE07306E041FA02F3D04086
:1007A000C2F12002914008431946704710B5141E4B
:1007B00073F1000408DA401C41F1000192185B411A
:1007C0001A4301D120F0010010BD2DE9F04D9246F1
:1007D0009B4611B1B1FA81F202E0B0FA80F2203208
:1007E0009046FFF7E7FD04460F4640EA0A0041EA5B
:1007F0000B0153465A46084313D0114653EA0100F1
:1008000019D0C8F140025046FFF7E3FD05460E46F9
:10081000504659464246FFF7CDFD084305D001201A
:1008200004E020463946BDE8F08D0020054346EA45
:10083000E0762C4337430A986305E40AA0EB0800EE
:100840000022FD0A44EA47540A3002D5002001463E
:10085000E9E7010510196941DDE908450019694119
:10086000BDE8F04DA2E730B58C1810F8012B12F05E
:100870000F0301D110F8013B120906D110F8012B2A
:1008800003E010F8015B01F8015B5B1EF9D101E0A8
:1008900001F8013B521EFBD1A142E6D3002030BD3E
:1008A000FEE7FEE738B500200F4C0090204602F02E
:1008B000FDFB012804D10D486946006808F05AFD87
:1008C000204602F0E7FB08480A3002F0E3FB0098FC
:1008D000002807D006494FF080500860BFF34F8FC3
:1008E000BFF36F8F38BD00000605040070010020C3
:1008F00004ED00E0FEE7FEE7FEE7000010B5502043
:1009000080F31188BFF34F8FBFF36F8F08F0B4FFF0
:1009100018B104494FF080500860002080F311881E
:1009200010BD000004ED00E038B53A48016841F41C
:1009300070010160384A106840F0010010601068D2
:100940008007FCD53449083108680023C0F38100D2
:10095000022835D100930098401C00905028FAD30B
:10096000086820F0F00040F08000086000930098D4
:10097000401C00905028FAD3086820F0F00040F0A6
:100980009000086000930098401C00905028FAD313
:10099000086820F0F00040F0A00008600093009884
:1009A000401C00905028FAD3086820F0F00040F076
:1009B000B000086000930098401C00905028FAD3C3
:1009C000086820F003000860C82000EB80001C4687
:1009D000009301E0641C0094B4EB400FFAD310685C
:1009E0000E4C20401060106820F4802010600B60D6
:1009F000086809490A48091D086007480C30036067
:100A000005F0EEFBBDE8384000214FF0006004F037
:100A10006DBB000088ED00E000380240FFFFF6FEED
:100A200010300024FEE700000FB4054B10B503A9F9
:100A3000044A029800F0DAF810BC5DF814FB0000DC
:100A4000313A00087801002002E008C8121F08C1EE
:100A5000002AFAD170477047002001E001C1121F3F
:100A6000002AFBD1704700002DE9FF5F82B0002112
:100A7000DDE90430020DDDF840B0034318D044F640
:100A80001050A2F2FF3242431514119801281FD0D2
:100A9000A5EB0B00401C5FEA000A4FF000064E4F2A
:100AA000DFF83891B046504615D5CAF1000413E07E
:100AB000119801244AA3012801D16FEA0B01029881
:100AC000119AC0E90031C0E9024206B0BDE8F09FCA
:100AD000CBF10000DFE704460021404A491842EB11
:100AE0000450CDE9001012E0E00707D032463B4643
:100AF00040464946FFF724FD8046894632463B463C
:100B000010461946FFF71CFD06460F466410002CE0
:100B1000EAD1DDE90401DDE90023BAF1000F06DACC
:100B2000FFF70EFD42464B46FFF70AFD05E0FFF7D3
:100B300079FD42464B46FFF775FD04460E460022FE
:100B4000284BFFF7F7FD03D84FF0FF30014607E0D1
:100B50000022254B20463146FFF74BFCFFF7D1FD25
:100B6000102409E0002C0ADB0A220023FFF79CFB7B
:100B7000039B30321A55641E50EA0102F2D1641C04
:100B8000039AC4F111031444119A012A03D00122DB
:100B900008430DD10AE0084304D000204FF0110BA8
:100BA000119072E7A3EB0B056D1E0DE05B4504DDB4
:100BB0004FF0000205F1010504E003DA4FF00002F6
:100BC000A5F10105002AECD002981199C0E9023183
:100BD000C0E9004579E70000000014400000F03F44
:100BE000300000000000F0430000E03F2DE9FF4F1F
:100BF00095B09A46884606460025EEE1252877D12D
:100C000000242746F94A0121039400E0044316F822
:100C1000013F203B01FA03F01042F7D130782A2837
:100C200011D06FF02F033078A0F13002092A16D8C6
:100C3000039A44F0020402EB820203EB42021044E6
:100C4000761C0390EFE758F8042B0392002A03DA8E
:100C5000504244F40054039044F00204761C30786F
:100C60002E2816D116F8010F44F004042A280DD0BE
:100C70006FF02F023078A0F13003092B09D807EB71
:100C8000870302EB4303C718761CF3E758F8047B8D
:100C9000761C30786C280FD006DC4C2817D06828DA
:100CA0000DD06A2814D104E0742810D07A280FD10E
:100CB0000DE044F400140AE044F4801401E044F42C
:100CC00040147278824202D104F58014761C761C9E
:100CD000307866280BD013DC582877D009DC002840
:100CE00075D04528F6D04628F4D047281AD193E18C
:100CF00018E0632835D0642879D0652812D18BE1BB
:100D0000702873D008DC6728F1D069286FD06E286E
:100D10000DD06F2806D1ACE073282CD0752874D084
:100D2000782853D05246179990476D1C54E1C4F36C
:100D30000250022809D003280DD0D8F8001004284A
:100D40000DD00D6008F1040846E1D8F80010EA174C
:100D5000C1E90052F6E7D8F800100D80F2E70D70F7
:100D6000F0E718F8041B8DF8001000208DF8010042
:100D7000EB46012003E058F804BB4FF0FF30610759
:100D80004FF0000102D40DE009F101018946B9429A
:100D90000FDA8145F8DB1BF809100029F4D108E0CF
:100DA00009F1010189468142FADB1BF8091000298B
:100DB000F6D103985346A0EB090721463846179A07
:100DC00000F080FA284400EB090507E044E008E160
:100DD0000DE01BF8010B524617999047B9F1010934
:100DE000F7D2534621463846179AF2E039E00A21F5
:100DF000C4F302524FF0000B0091022A06D058F8BB
:100E0000040BC117032A09D00AE023E008F1070008
:100E100020F00702F2E80201904605E000B2C11797
:100E2000042A01D140B2C117002906DA0A4600217E
:100E3000404261EB02012D2202E0220504D52B2263
:100E40008DF80420012203E0E20701D02022F7E719
:100E5000914657E00A2100E010214FF0000B00916D
:100E60000BE010214FF0000B44F004040827009120
:100E700003E008204FF0000B0090C4F30252022A56
:100E800005D058F8040B0021032A08D008E008F127
:100E9000070020F00702F2E80201904603E080B26A
:100EA000042A00D1C0B24FF0000922072AD53278B7
:100EB000702A07D0DDF800C08CF0100C5CEA0B0C37
:100EC00005D00EE040228DF80420012208E050EA0F
:100ED000010306D030238DF804308DF8052002225E
:100EE0009146009B83F0080353EA0B030AD150EAB2
:100EF000010201D1620705D530228DF804204FF0A0
:100F000001097F1E3278582A04D039A20C920CAA0B
:100F100002920BE03BA2F9E75B46009AFFF7C4F9A7
:100F20000C9B9B5C029A521E0292137050EA0102C3
:100F3000F2D1029804A9081A00F1200B600702D52B
:100F400024F4803400E001275F4502DDA7EB0B00AD
:100F500000E0002000EB0B01009003984944401A88
:100F60000390E00306D453462146179A039800F0F5
:100F7000A9F90544002706E001A85246C05D17996B
:100F800090476D1C7F1C4F45F6DBE0030CD55346A4
:100F90002146179A039800F095F9054404E03020A3
:100FA0005246179990476D1C0099481E00900029E1
:100FB000F5DC08E00298029952460078491C02913B
:100FC000179990476D1CBBF10001ABF1010BF1DCEF
:100FD0005BE100F065F90544761C307800287FF469
:100FE0000DAE19B02846BDE8F08F000009280100B9
:100FF000303132333435363738396162636465668F
:101000000000000030313233343536373839414250
:101010004344454600000000600700D4062708F15D
:10102000070020F00700F0E80223804603F0004CA0
:101030005FEA0C0001D097A009E0200501D596A039
:1010400005E0E00701D095A001E0AFF24C0013905D
:10105000307823F0004365280CD006DC452809D001
:1010600046281DD047287FD13BE0662818D0672846
:101070007AD136E00021112F01DB112000E0781C2D
:10108000CDE9000104A90CA8FFF7EEFCDDE90D0194
:101090000C9A4FF0000B07F10109109200914EE0FD
:1010A0004FF000400097CDE9011004A90CA8FFF70C
:1010B000DBFCDDE90D020C9B0F994FF0000B914614
:1010C0001093009211B9791C00EB0109B7EB0900EC
:1010D00003D4C0F1FF3B07F10109A9EB0700019020
:1010E00042E0012F00DA01270021112F01DD11203C
:1010F00000E03846CDE9000104A90CA8FFF7B4FCD4
:10110000DDE90D010C9A00914FF0000BB9461092E9
:1011100021070FD4009A4A4503DA914601E0A9F16C
:101120000109B9F1010F05DD109AA9F10101515C26
:101130003029F4D0B84202DA10F1040F03DA0121A9
:10114000CDE9011010E0002803DC8344A9EB000185
:1011500002E0411C494500DD8946A0EB0B00401C24
:1011600001904FF000400290200705D401984845B7
:1011700002DB4FF0FF30019000208DF84B00029809
:101180000DF14B07B0F1004F25D002200C902B2021
:101190000D90029800280CDA404202902D200D900C
:1011A00007E00A210298FFF7EFF83031029007F8C4
:1011B000011D0C99481E0C900029F2DC02980028B1
:1011C000EFD1791E0D980870307800F0200040F0C3
:1011D000450007F8020D11A8C01BC01D029013980E
:1011E000007800B1012000EB0901019801EBE071EA
:1011F000029801440398401A401E0390E00306D46D
:1012000053462146179A039800F05CF8054413985A
:10121000007818B15246179990476D1CE00323D50A
:1012200053462146179A039800F04CF805441BE0FA
:10123000BBF1000F07DB0098584504DD10981799A3
:1012400010F80B0001E017993020524690470198A2
:101250000BF1010B401E05F10105019004D12E2078
:101260005246179990476D1CB9F10001A9F1010987
:10127000DEDC05E017F8010B5246179990476D1C0C
:101280000299481E02900029F4DC53462146179A21
:1012900003989EE62D0000002B00000020000000B7
:1012A0002DE9F041044600251E461746880404D463
:1012B00005E039462020B0476D1C641EF9D528464C
:1012C000BDE8F0812DE9F041044600251E46904618
:1012D000C80301D5302700E02027880404D505E0A5
:1012E00041463846B0476D1C641EF9D52846BDE816
:1012F000F0810A61C26B134604E08A4201D10020EA
:1013000070471268002AF8D10B60C163F7E72DE936
:10131000FC410646D0F82E000090708EADF8040017
:10132000D1F80E508F6901F10808F46B37E0207A8C
:10133000072833D2DFE800F0320404041111110051
:101340006068854217D015BB874227D106224146E7
:101350006846FFF70CF870B920E0606885421DD13F
:10136000062241466846FFF702F880B1207A062837
:1013700006D0207B60B12146304600F05CF80DE0DD
:10138000204600F091F8226902213046904705E09E
:10139000211D304601F0A8FF642121732468002C30
:1013A000C5D1BDE8FC812DE9F04715460E00074682
:1013B0002ED0306800282BD0002D29D02868002896
:1013C00026D04FF6A9684FF00609FC6B1EE0616855
:1013D0003068814219D181B2414516D1298889B23C
:1013E000414512D0207A08280FD2DFE800F00E0421
:1013F00004040C0C0E04204600F056F82269022169
:101400003846904701E084F808902468002CDED12B
:10141000BDE8F0870023C26B0AE08A4206D113B10F
:101420000868186070470968C163704713461268FE
:10143000002AF2D1704770B50546487B0C46401C27
:1014400048730A69022128469047607B0A2805D321
:10145000072020724FF41670608170BD204600F0A6
:1014600023F828462269BDE870400121104710B5D5
:1014700000234B720B734A6001220A7290F83220EB
:1014800090F8334042EA046290F8314090F830001E
:10149000240444EA002002430A20B2FBF0F400FBDB
:1014A00014204881184610BD08B1002101720020A7
:1014B000704700002DE9F0413548142700260568E3
:1014C00062E0EC6B5DE0207B08B1401E2073608918
:1014D00008B1401E6081207A082851D2DFE800F070
:1014E0005004042E2E505047608930BB02202072D9
:1014F000211D284601F00CFF607A401CC0B26072CA
:10150000032804D3032020726672678138E095F8BF
:10151000321095F8332095F8303041EA026195F8A1
:101520003120120442EA0322114308440A21B0FB8D
:10153000F1F201FB12000A30608121E06089F8B904
:10154000607A10B9042020726673211D284601F0CC
:10155000CBFE6781607A401CC0B2607202280FD354
:1015600005202072667266810021226906E060898A
:1015700030B92046FFF798FF22690121284690479D
:101580002468002C9FD12D68002D9AD1BDE8F081F0
:10159000DC0000201CB500210320CDE900010B4632
:1015A0004FF4007202A1054808F01AF91CBD0000B2
:1015B0004E45545F5448524541440000C11500084F
:1015C0000EB500244FF4FA762546304607F0AEFB00
:1015D00031A0FFF729FA00213A4806F09BFEB146F8
:1015E000A8071CD100F006FB8246022000F01AFB7F
:1015F0000646032000F016FB0746112000F012FB00
:10160000804600F003FB8DE8C0010246400701D58B
:101610002DA100E02DA153462E48FFF705FA2E48D4
:101620006D1C01F053FA00282CD0002C30D101247D
:101630002AA0FFF7F9F935A0FFF7F6F9264E7068F2
:10164000010E0091C0F30743C0F30722C1B23AA0D4
:10165000FFF7EAF9B068010E0091C0F30743C0F349
:101660000722C1B23CA0FFF7DFF9F068010E00913C
:10167000C0F30743C0F30722C1B23FA0FFF7D4F97C
:1016800045A003E0012C03D100244FA0FFF7CCF9C3
:10169000484607F04BFBA3E75B4E45545D20496E7F
:1016A000697469616C697A696E67205443502F4987
:1016B0005020537461636B20286C774950292E2E7B
:1016C0002E0D0A009D49000855500000444F574E0A
:1016D00000000000DC9E00087C0100200D0A3D3D5A
:1016E0003D3D3D3D3D3D3D3D3D3D3D3D3D3D3D3D2A
:1016F0003D3D3D3D3D3D3D3D3D3D3D3D3D3D3D3D1A
:101700003D3D3D3D3D3D0D0A000000005B4448432A
:10171000505D204E6574776F726B20436F6E666903
:101720006775726174696F6E205375636365737357
:1017300066756C210D0A0000202D3E204950204185
:101740006464726573733A202025642E25642E2507
:10175000642E25640D0A0000202D3E204E65746D18
:1017600061736B3A202020202025642E25642E25CD
:10177000642E25640D0A0000202D3E20476174650B
:101780007761793A202020202025642E25642E259B
:10179000642E25640D0A00003D3D3D3D3D3D3D3D2F
:1017A0003D3D3D3D3D3D3D3D3D3D3D3D3D3D3D3D69
:1017B0003D3D3D3D3D3D3D3D3D3D3D3D3D3D3D3D59
:1017C0000D0A0D0A000000005B444843505D2049AB
:1017D000502041646472657373206C6F7374206F62
:1017E000722072656C65617365642E0D0A000000DD
:1017F00070B586B000244FF4406004F0D9FB40F689
:10180000014004F0D5FB40F6024004F0D1FB40F665
:10181000034004F0CDFB41F20E1004F0C9FB40F68A
:10182000194004F0C5FB40F61A4004F0C1FB40F635
:101830001B4004F0BDFB4FF4000004F0C7FC7C4DDE
:1018400086220B21284602F005F986230022022178
:10185000284602F02EF9862303220021284602F0B2
:101860004CF9744E4FF460552A460B21304602F075
:10187000F1F82B4600220221304602F01AF92B46DD
:1018800003220021304602F038F96B4D32220B2141
:10189000284602F0DFF8322300220221284602F017
:1018A00008F9322303220021284602F026F9634D6D
:1018B000012202231146284602F0FBF802231A46B1
:1018C0000021284602F019F90221284602F0EDF81D
:1018D000322000F0B3F90221284602F0E8F8642033
:1018E00000F0ACF9012004F0F5FA554B1969564D9A
:1018F00021F01C0253490144A94202D242F00802DD
:101900001EE05249524D0144A94202D242F00C025B
:1019100016E05049504D0144A94211D34F49504D52
:101920000144A94202D242F0040209E04D494E4D61
:101930000144A94202D34D49884201D142F010022C
:101940001A614BA0FFF770F800254FF6FF76ADF84F
:101950000050A1B26B460122002001F053FC012887
:1019600008D1BDF80020B24204D01AB1214649A0E6
:10197000FFF75AF8641C202CE9DB51A0FFF754F85C
:1019800001F00CF959A0FFF74FF801F0B1FB012865
:101990000ED05EA0FFF748F800221146012001F0AA
:1019A0000DFA012806D061A0FFF73EF806B070BD21
:1019B0006EA0EFE776A0FFF737F87F4800687E4912
:1019C000091D09687C490831096802218DF80C104D
:1019D0001A218DF80D10010E8DF80E10010C8DF8E6
:1019E0000F10010A8DF810108DF8110003A90020C6
:1019F00001F06CFB9DF80F009DF811209DF8101070
:101A00008DE807009DF80E309DF80D209DF80C1014
:101A10006AA0FFF709F800220A213D2003F00CFB21
:101A2000734801F021FB72480A3801F01DFBBDE745
:101A3000000002400004024000080240000C024086
:101A40000080024000D3CEFEC0E1E40040F1E9FD99
:101A500040787D0100796CFC005A6202001F0AFA8E
:101A600080F0FA02802E0FF7804A5D05001C4E0EB2
:101A70005363616E6E696E672050485920616464DB
:101A8000726573732028302D3331292E2E2E0D0AC6
:101A900000000000202D3E20466F756E64205048E7
:101AA0005920617420616464726573733A202564FF
:101AB0002C204253523A203078253034580D0A00F9
:101AC000496E697469616C697A696E6720457468EA
:101AD00065726E6574204D41432028595438353164
:101AE0003243292E2E2E0D0A000000005465737417
:101AF000696E6720656E65745F7068795F636F6E8D
:101B000066696728292E2E2E0D0A0000202D3E2002
:101B1000656E65745F7068795F636F6E666967286C
:101B200029204641494C4544210D0A004574686509
:101B3000726E6574204D414320696E697469616CF1
:101B4000697A6174696F6E204641494C4544212091
:101B500050485920636F6D6D756E69636174696F6C
:101B60006E206572726F722E0D0A0000202D3E20CD
:101B7000656E65745F7068795F636F6E666967280C
:101B8000292053554343455353210D0A00000000BB
:101B900045746865726E6574204D414320696E69B5
:101BA0007469616C697A6174696F6E20535543433F
:101BB000455353210D0A0000107AFF1F202D3E20AF
:101BC0004D414320416464726573733A202530327D
:101BD000583A253032583A253032583A2530325862
:101BE0003A253032583A253032580D0A00000000AC
:101BF0001007040008B50020ADF800006B4602464F
:101C0000014601F0FFFABDF8000008BD08B500204C
:101C1000ADF800006B460122014601F0F3FABDF871
:101C2000000008BD08B500210246ADF800106B4663
:101C3000084601F0E7FABDF8000008BD38B50446D3
:101C400007F006FE012812D04FF47A72A4FB0201BD
:101C50000023FEF729FBBDE8384007F067B8009382
:101C600000BF009A521C00928A42F9D302E000237E
:101C700047F23051641EF2D238BD2DE9FC41050017
:101C800057D06C6A002C54D000236382A06A4FF0B6
:101C90003C07411C4FF480364FF6FF7209D01E30CE
:101CA000B0FBF7F1B14201D3114601E001B90121C6
:101CB000A182E06A411C0AD01E30B0FBF7F0B042AE
:101CC00001D3104601E000B901206081E081206B62
:101CD000411C0AD01E30B0FBF7F0B04201D31046D1
:101CE00001E000B90120A08120826189A0898142A0
:101CF00001D300B16381E079C00701D0206A08E018
:101D0000207F7F2801D8FF2003E0C02803D36FF095
:101D10007F40009000E00092606A01900A21204616
:101D200000F088FE01AB6A4604F11C01284603F06E
:101D300037F9BDE8FC81000070B5294804684CE023
:101D4000616AA1B3487990B3888A68B1488A401C17
:101D500080B248828A8A904206D1204600F0F2FC86
:101D6000204600F06FFE37E0088A18B1421E0A8252
:101D7000012806D0C889D0B1421ECA81012817D0D7
:101D80002AE0656A20466979012905D00A2903D02D
:101D9000052901D004291FD100F04EFBA88A698AC9
:101DA000401A022818DB00EBD0704008288213E0AC
:101DB000656A20466979012903D00A2901D00529DD
:101DC0000AD100F027FDA889698A401A022803DB9E
:101DD00000EBD0704008E8812468002CB0D170BDC1
:101DE000DC00002070B5456A044669B101290FD0B6
:101DF000022918D10C4B1A46114603F0D1F820469F
:101E0000BDE8704000F08AB8BDE87040FFF735BF0C
:101E10000C21284600F00EFE42F603104FF4FA7132
:101E2000B0FBF1F0288170BDC89E00082DE9F04795
:101E3000994615460F4606000ED06FB14FF49A7AB8
:101E40004FF420725146362003F084F9B0F10008B7
:101E500003D0032D06D102E00020BDE8F087787999
:101E6000032807D1B979234811B94168491C416059
:101E700040683860D8F8044051462046FEF76CFAB6
:101E800001202070607096F83400A070386802F06D
:101E90006FFD6060082D0AD0042D08D0072D06D0F4
:101EA000032D06D17879052801D0042801D1706866
:101EB000E0600023F018E1185B1C90F82E009BB244
:101EC0000877062BF6D30C48C4F8EC0004F1F001B7
:101ED000012335220C46002000F070F92A462146E5
:101EE00000F073F9B9F1000F01D0A9F800004046E5
:101EF000B3E700003C0100206382536310B5064C39
:101F00002078401E10F0FF00207004D1A06806F079
:101F10001FFC0020A06010BD3C010020FEB5476AF8
:101F200005460C21384600F085FD02AB04223946F7
:101F30002846FFF77BFF040028D061680423F031B6
:101F400032220E46BDF8080000F038F9ADF808005E
:101F5000F86902F00DFD02463146BDF8080000F0B8
:101F600038F9ADF808002246314600F04AF9094830
:101F70004323CDE900500948074A2146806806F00E
:101F80001FFC0546204603F047FA01E04FF0FF35FD
:101F90002846FEBDC89E0008CC9E00083C010020DB
:101FA0002DE9FE4F456A07464FF0000906212846F5
:101FB000C5F81C9000F03EFD02AB012229463846D0
:101FC000FFF734FF06003BD071680223F0318A46E8
:101FD00039225446BDF8080000F0F0F8ADF80800CA
:101FE000BA8D214600F005F9ADF808000323372229
:101FF000214600F0E3F8DFF88480ADF80800002403
:10200000514618F80420BDF8080000F0DEF8641C02
:10201000E4B2ADF80800032CF2D33246514680B248
:1020200000F0EFF816484323CDE900701348154A35
:10203000401E3146806806F0C3FB304603F0ECF9E1
:10204000A879FF2801D2401CA871C1B2062902D28A
:102050000120884000E03C2000EB4001C1EBC010B3
:102060004FF6FF7101EAC0004FF4FA7100F2F3106D
:10207000B0FBF1F028814846BDE8FE8F3D0100200D
:10208000C89E0008CC9E00081B4810B504682FE0CD
:10209000606AF8B10189012903D9A1F10101018127
:1020A00025E024D14FF000010181606A41790C29BB
:1020B00006D0062904D0012906D0032911D016E044
:1020C0002046FFF76DFF12E080790528204602D8F0
:1020D00000F00CFC0BE000F035FB204600F0B2FCF9
:1020E00005E080790228EBD2204600F011FA24683E
:1020F000002CCDD110BD0000DC00002070B5446A7A
:102100000020184E20626062F078174D08B1E86830
:10211000A062307908B1286901E0A06A4008E06255
:10212000707908B1686903E0A06AC0EBC000C0081C
:1021300020630869E061B07938B1A86902F018FC41
:102140002062E07940F0010002E0E07920F0010037
:10215000E071F079002803D0E86902F009FC6062C0
:1021600070BD0000480100207CC8012010B5104C53
:102170002078A8B906F0DAFAA060B0B1417A44221A
:1021800041F0200141720B4906F084F943220949CC
:10219000A06806F0DBF900220749A06806F0D3FA30
:1021A0002078401C2070002010BD4FF0FF3010BD83
:1021B0003C010020C89E0008112600080A54401C5B
:1021C00080B20B54401C80B270470A54401C80B24D
:1021D0007047130E0B54401C80B2130C0B54401C60
:1021E00080B2130A0B54401C80B20A54401C80B2C7
:1021F0007047130A0B54401C80B20A54401C80B232
:10220000704730B4FF230B54401C83B2002402E01B
:10221000CC545B1C9BB2442BFAD3F03330BC99B244
:10222000104603F043B900002DE9F34F85B00020BC
:102230007F4902908346C8600861059840892C2830
:102240006CD30598F0260089059F039604E0721A66
:10225000401A3F6896B280B2002F5FD07989B142B0
:10226000F5D98146ABE0B01C1FFA80F84FF0FF347F
:10227000B04553D37B89721C934203D90AEB060005
:10228000407803E0386808B1406800783429054692
:1022900030D007DCF1B101291FD0032921D0332927
:1022A00008D123E035292CD036292ED03A2930D038
:1022B0003B2935D0002581B33044801CB0F5803FE8
:1022C0002CD286B25DB30020009059480C30005DDE
:1022D00060B367E000200546EDE7042873D10624CB
:1022E000E9E7042504286ED30724E4E704286AD12B
:1022F0000324E0E7012866D1039BF02B63D100247F
:10230000D9E701285FD10124D5E704285BD1022455
:10231000D1E7042857D10424CDE705E058E041E097
:10232000042850D10524C6E796B23BE0042D01D223
:10233000284600E00420024601904346694638469C
:1023400002F0E4FF01460198814241D1042D15D9E4
:10235000A80738D1364801210C300155009802F009
:1023600007FB34492D1FEDB241F8240008F10400A9
:1023700080B240452CD38046641CA6E7042D02D0D1
:10238000012D20D103E0009802F0F2FA01E09DF85F
:1023900000000090264901200C310855254800997D
:1023A00040F824107889B04215D8311AA9EB000002
:1023B0008EB21FFA80F94E450AD23F6817B1D7F89E
:1023C00004A009E0FFE76FF0050007B0BDE8F08F5B
:1023D0006FF00100F9E737B14E4504D21AF8061044
:1023E000FF297FF440AF12490C31087860B11148E1
:1023F000002200680A70012808D0022802D00328B1
:1024000009D001E04FF0010B029838B100206C2692
:102410000290EC2018E74FF0010BF7E7BBF1000F3B
:102420004FF00000D1D083462C266C200CE7000032
:102430003C0100207CC801202DE9FC47456A074685
:102440000421284600F0F6FA01AB0322294638465B
:10245000FFF7ECFC06003BD071680223F03189469F
:1024600039224C46BDF80400FFF7A8FEADF8040081
:10247000BA8D2146FFF7BDFEADF8040003233722D5
:102480002146FFF79BFEDFF88080ADF804000024B2
:10249000494618F80420BDF80400FFF796FE641CB6
:1024A000E4B2ADF80400032CF2D33246494680B2C0
:1024B000FFF7A7FE14480097401E4323134A3146F6
:1024C000806806F05FF90446304602F0A5FF01E09F
:1024D0004FF0FF34A879FF2801D2401CA871C0B288
:1024E0000A2804D24FF47A7110FB01F001E042F2A5
:1024F000107080B24FF4FA7100F2F310B0FBF1F0FB
:1025000028812046BDE8FC873D010020CC9E0008C4
:102510002DE9FC47456A07460321284600F08AFA60
:1025200001AB032229463846FFF780FC06004ED057
:1025300071680223F031894639224C46BDF8040007
:10254000FFF73CFEADF804004FF410722146FFF790
:1025500050FEADF80400042332222146FFF72EFE80
:10256000ADF80400E86902F003FA02462146BDF81E
:102570000400FFF72EFEADF80400032337222146A6
:10258000FFF71CFEDFF88080ADF804000024494608
:1025900018F80420BDF80400FFF717FE641CE4B22D
:1025A000ADF80400032CF2D33246494680B2FFF75F
:1025B00028FE15480097401E4323144A3146806880
:1025C00006F0E0F80446304602F026FF01E04FF046
:1025D000FF34A879FF2801D2401CA871C0B20A2894
:1025E00004D24FF47A7110FB01F001E042F2107056
:1025F00080B24FF4FA7100F2F310B0FBF1F02881D1
:102600002046BDE8FC8700003D010020CC9E00086C
:102610002DE9F0414748516816464468656A002D27
:1026200050D0287900284DD070892C287DD3087887
:1026300002287AD1002094F8342008E023180F18DB
:1026400093F82E303F7FBB426FD1401CC0B2824214
:1026500001D90628F2D3486802F08AF9296888422D
:1026600063D129463046FFF7DFFD00285DD13249AE
:10267000487838B3314A77681079052804D006289D
:102680002AD002283FD050E06879012806D00328DC
:1026900004D004281BD0052819D046E0394620462E
:1026A000FFF72CFD94F8350000070CD52546646A29
:1026B0000821204600F0BEF904F134012846E26901
:1026C000FEF7D5FE31E02046FFF7D7FA2DE0394678
:1026D0002046FFF713FDF6E76879032805D00128A7
:1026E00003D0042801D005281FD10C21606A00F016
:1026F000A1F9134B20461A46114602F051FC204620
:10270000FFF74EFC11E0687906280ED12546646A71
:10271000887850B100202081906802F029F9A061EA
:102720003869E061284600F0E1F83046BDE8F04144
:1027300002F072BE503F0120480100207CC80120F9
:10274000C89E00082DE9FE43446A0746002C5AD073
:102750006079002857D0A06902900025A561E56145
:10276000256265622563E562A562A5826582258290
:10277000E581384600F0AAF900282946204635D0E0
:1027800000F058F901AB072221463846FFF74EFB0F
:10279000060024D071680423F03136228846BDF843
:1027A0000400FFF70BFDADF80400029802F0E0F81A
:1027B00002464146BDF80400FFF70BFDADF80400EA
:1027C00032464146FFF71DFD10480097432302AAF9
:1027D0003146806805F0D6FF304602F01DFE0C4BF6
:1027E00038461A46114602F0DBFB01E000F022F900
:1027F00004F134013846FEF70DFE2079002802D09E
:10280000FFF77CFB2571BDE8FE8300003C01002042
:10281000C89E00082DE9FC47456A07460521284661
:1028200000F008F901AB032229463846FFF7FEFA0B
:1028300006003CD071680223F031894639224C46AB
:10284000BDF80400FFF7BAFCADF80400BA8D2146CC
:10285000FFF7CFFCADF80400032337222146FFF732
:10286000ADFCDFF88480ADF804000024494618F878
:102870000420BDF80400FFF7A8FC641CE4B2ADF826
:102880000400032CF2D33246494680B2FFF7B9FC6C
:1028900015480097401E432305F118023146806811
:1028A00005F070FF0446304602F0B6FD01E04FF03F
:1028B000FF34A879FF2801D2401CA871C0B20A28B1
:1028C00004D24FF4FA6110FB01F001E044F62060FD
:1028D00080B24FF4FA7100F2F310B0FBF1F02881EE
:1028E0002046BDE8FC8700003D0100202DE9FE43A5
:1028F000060072D0756A002D73D00121284600F0C1
:1029000099F802AB032229463046FFF78FFA0700F9
:102910006AD079680223F031894639224C46BDF8E5
:102920000800FFF74BFCADF80800B28D2146FFF719
:1029300060FCADF80800042332222146FFF73EFC7C
:10294000ADF80800E86902F013F802462146BDF828
:102950000800FFF73EFCADF80800042336222146AC
:10296000FFF72CFCADF80800A86902F001F8024658
:102970002146BDF80800FFF72CFCADF80800032342
:1029800037222146FFF71AFCDFF89C80ADF80800DB
:102990000024494618F80420BDF80800FFF715FC8C
:1029A000641CE4B2ADF80800032CF2D33A46494661
:1029B00080B2FFF726FC1D484323CDE900601A488A
:1029C0001B4A401E3946806805F0FAFE0446384628
:1029D00002F022FD0AE000E003E06FF00F00BDE826
:1029E000FE836FF00500FAE74FF0FF34A879FF2867
:1029F00001D2401CA871C1B2062902D20120884030
:102A000000E03C2000EB4001C1EBC0104FF6FF712D
:102A100001EAC0004FF4FA7100F2F310B0FBF1F0DC
:102A200028812046DBE700003D010020C89E000809
:102A3000CC9E000842798A4203D041710021817105
:102A40000181704770B505006FF00F011DD095F83A
:102A50003500C00719D0A88D0E116C6AB0F5107F33
:102A600011D3A4B1207908B1FFF748FA48212046D4
:102A7000FDF772FC144A04F134012846FEF739FCD4
:102A8000FFF774FB50B1304670BD084670BD48205A
:102A900002F0A6F80400F6D06C62E7E7012020718E
:102AA00095F83500400705D402212046FFF7C2FF04
:102AB000002070BD2846FFF773FA0028F9D0284699
:102AC000FFF740FEDFE70000E51D000840B1406A67
:102AD00030B140790A2805D0052803D0042801D058
:102AE000002070470120704770B50C46054603F082
:102AF000A6FAA96809682160A9680C60BDE8704061
:102B000003F0A2BA10B5044603F099FAA1680C6864
:102B10002CB122680A6003F097FA204610BD03F03A
:102B200093FA002010BD000016480168164A1140B3
:102B300041F480310160002141608160C16082699F
:102B40004FF641731A4042F080028261C161C16B4D
:102B500041F40271C163D0F80C110C4A1143C0F862
:102B60000C11D0F8101141F40311C0F810110848ED
:102B70008169084A114041F0087181610168064984
:102B800001607047008002400F8130FD600002004C
:102B900000900240233FDEF80060C10210B540F211
:102BA0001944204603F024FA204603F011FABDE848
:102BB000104000F045BA08B50028009001D0401E32
:102BC000FAE708BD02464FF0FF30062907D2DFE8DA
:102BD00001F01D1B0B03071B9088C0F30C0070470E
:102BE0005068C0F30C4070471168C1F30D400428D1
:102BF00008D9084A1268001F9201F4D58906F2D557
:102C0000001D704700207047906870471078C0F32F
:102C1000C300704700800240F0B50021DFF870E08B
:102C2000DFF870C00F4640F2F454B0F5E00F1ED04C
:102C3000194A052302F1A006DD0744F2F457CEF845
:102C40000C20CCF810200020CCF80400CCF80000B8
:102C5000A3F1010C02EB011001FB046E80E8A0401F
:102C600061450FD200F1100EC0F80CE00BE00A4AEB
:102C70000A4E503205234FF48015CEF81020CCF8C0
:102C80000C20E0E7C260491C9942E3D3F0BD00008C
:102C90000090024000000020F80100205C2000208D
:102CA00000B500F0F7FA5DF804EB00F0E3BA0000BD
:102CB00070B5204D00222B691C68002C2BDBC8B19D
:102CC000230428D4E30526D5A30524D51A4EC4F33E
:102CD0000D4336681B1FB60102D5A40600D51B1D87
:102CE0008B4218D804E029698968895C8154521C98
:102CF0009A42F8D32869114A4FF0004101605169A6
:102D0000090603D5802151610021916041684B047F
:102D100003D5C0680AE0002070BD090401D5D06861
:102D200004E01168C1F384010844103028610120D7
:102D300070BD0000000000200080024000900240B2
:102D400030B51C4B0022DC682468002C03DB40F209
:102D5000F454A14201D9002030BD28B906E0DD6855
:102D6000845CAD68AC54521C8A42F8D3D868124ACD
:102D70004160016841F0304101605169546901F0DE
:102D8000040104F02004214302D05161002151606C
:102D90000168CC0201D5C06808E0890201D510693C
:102DA00004E01168C1F3840108441030D8600120A8
:102DB00030BD000000000020009002402DE9F843E3
:102DC000002591460E460446ADF80050A84600F096
:102DD0008FF930B98F48FFF7EEFE00F089F900282F
:102DE0007DD0FFF7A1FE012C7AD04FF480704FF414
:102DF000005100EAD40001EA54010143ADF800108B
:102E000000226B461146022000F0FCF90028E7D0B2
:102E10006FF07F40FFF7CFFE7F49086820F4B04095
:102E2000204308607D4A70050AD5086840F4806038
:102E30000860906920F0806306F08060184390611C
:102E4000486840EA09004860754C2068C3070FD005
:102E500063680E68734D2E40ED431D402E430E6097
:102E6000966903F4407326F0C00646EA9303936123
:102E7000830705D5A56813686B4E33402B43136059
:102E8000430705D5E5681368684E33402B4313604C
:102E9000030706D5256913684CF20206B3432B439A
:102EA0001360C30605D565699369614E33402B43B2
:102EB000936183060ED5A36995695E4E3540F6434E
:102EC0001E4035439561156803F0800325F08005A9
:102ED0001D431560430608D5E369CD6901E097E01D
:102EE00043E06FF310051D43CD61030611D5236A3E
:102EF0008E694FF641773E4023EA07052E438E61E7
:102F000052F8805F03F4EE4325F0770646EA132378
:102F10001360C20501D5626A8A60820501D5A26A82
:102F2000CA60420506D5E36A4A6840F2DE75AA43E4
:102F30001A434A60020505D5236B0A683E4D2A40B4
:102F40001A430A60C20405D5636B0A6822F4400282
:102F50001A430A60800405D5A26B086820F460203B
:102F6000104308600120BDE8F883344C00216B4613
:102F70000122084600F046F9BDF8000005F1010500
:102F800010F00400ADF8000001D1A542EED34FF4DB
:102F900080504FF49047A54208D1ADF800000022C0
:102FA0006B461146022000F02DF91CE00025ADF81B
:102FB00000006B462A462946022000F023F938B368
:102FC00000216B460122084600F01CF9BDF8000004
:102FD00005F1010510F02000ADF8000001D1A54277
:102FE000EED3A54201D13C4616E700216B461122E3
:102FF000084600F007F9BDF80000810402D54FF43F
:10300000006400E000244004EED544F4804403E76B
:103010004046A8E7FFFF8F0000800240009002407A
:10302000BC0100207FFFFFFDFFFFFEF8FFC001FF96
:10303000E73FDEFDFBFFFFFE8FDDFEFFFFFF04002D
:1030400008480021016041608160C1600161416107
:103050008161C161016241628162C1620163416358
:1030600081637047BC01002010B5094C00F01F01BE
:1030700001228A4041F21C0304EB9011B3EB901F34
:10308000086801D1104300E09043086010BD0000C3
:103090000080024000F01F0201219140024A02EB31
:1030A000901001607047000000800240064A02EB69
:1030B0009011096800F01F0201209040014201D0E8
:1030C000012070470020704700800240074A8B882B
:1030D000104403640A78CB7842EA03628B7849781B
:1030E0001B0443EA01210A43426470470080024006
:1030F000FEB5374E0025306920F01C04012002F097
:10310000E9FE3449344A0144914202D244F00804B1
:103110001EE03249324A0144914202D244F00C048A
:1031200016E03049304A0144914211D32F49304AC8
:103130000144914202D244F0040409E02D492E4A90
:103140000144914202D32D4988423ED144F01004FB
:1031500034614FF40040ADF80400002201AB114689
:10316000022000F04FF880B32548FFF724FD00222D
:1031700001AB1146104600F045F830B3BDF804002D
:10318000000422D45020ADF808000020ADF8000063
:10319000014602AB1E22022000F034F8012813D1B0
:1031A00000216B461F22084600F02CF801280BD1A5
:1031B000BDF800006B4640F04000ADF800001F2253
:1031C0000021022000F01EF801252846FEBD000067
:1031D0000080024000D3CEFEC0E1E40040F1E9FDF2
:1031E00040787D0100796CFC005A6202001F0AFAE7
:1031F00080F0FA02802E0FF7804A5D05001C4E0E0B
:10320000FFFF0400F0B5164E0024254637694FF63F
:10321000C37C27EA0C074FF4F86C0CEA82124FF6D5
:10322000FF7C02430CEAC1210A433A4342F0010108
:10323000022801D11A88726131610A4A316904F1A8
:10324000010411F0010F01D09442F7D13169C9078F
:1032500000D1012508B9706918802846F0BD00002A
:1032600000800240FFFF0400416821F000414160FE
:10327000704700000548016841F0040101600448FE
:10328000816941F0020181617047000000800240C5
:1032900000900240064800B5016841F00801016055
:1032A00000F00AF80348816941F40051816100BDD2
:1032B000008002400090024010B5094C00210846F1
:1032C000A26942F48012A261064BA26901F10101D8
:1032D00012F4801F02D09942F7D310BD012010BD17
:1032E00000900240FFFF04001FB5074B0122CDE90B
:1032F0000013CDE9021200F12E031946034A00F033
:103300001FFA04B010BD0000D69E0008D09E000831
:103310001FB50122074C0392054B0094CDE9013102
:1033200000F12E031946044A00F00AFA04B010BD59
:10333000D69E0008C89E0008D09E00082DE9F74FD1
:103340000A27054600203E463C463B4683468246C9
:103350008146344A00EB400E02EBCE010A2C0A7D76
:1033600029D0C2B175B1D5F800C0D1F80480C445E8
:1033700008D1DDF808C0BCF1000F4FD0D1F80880AB
:10338000E0454BD0012A1AD0022A04D3498A494584
:1033900001D306468946401C00B20A28D9DB0198B1
:1033A0004FF0FF3180073BD40A2C17D024DB0A2EC4
:1033B00018DA34461DE0002AD4D10446EBE7194A56
:1033C000498A52F83E2022B15945E4D303468B4640
:1033D000E1E75145DFD307468A46DCE70198C0079D
:1033E0001ED0E4E70A2F01DA3C4602E00A2B17DA86
:1033F0001C46204600F018F835B10A4804EB440298
:1034000000EBC20029684160064804EB440200EB6F
:10341000C20000214182029981602046BDE8FE8FF2
:103420000846FBE79CC8012070B5074D00EB40043F
:10343000002655F8340018B101F0EEFF45F834606D
:1034400005EBC400067570BD9CC801202DE9F0474E
:1034500086B00D00804646D0D8F804404FF48079FD
:10346000208848453CD12079062839D16079042844
:1034700036D16088082833D121462846FDF747FF1A
:10348000D4F80E100491A269686818B1824203D181
:10349000012602E0002604E00026814201D1012736
:1034A00000E000270EB1012300E0022304F108022E
:1034B000924604A9284600F0CDF9E08848450FD18E
:1034C00076B16FB9022204ABCDE90232291DCDE9F4
:1034D000001A05F12E0319465246284600F030F92D
:1034E000404601F099FF06B0BDE8F087FEB50446FE
:1034F0000E4615462146106800F076FC08B1354BA3
:103500003FE02868C0F303110E2925D0A168636845
:1035100000EA01020B409A4208D080B2A0F57E4139
:10352000A93903D0E068B0B304F10C052A4B2B494C
:103530001A7802EB420001EBC000077D022F2ED368
:103540008768A7422BD12F684068874227D1314630
:10355000204600F045F8FEBD01208DF80400002053
:103560008DF805005E208DF80600687801AB00F04C
:103570007F008DF80700A8788DF80800E8788DF8AE
:1035800009004FF40060009004F12E0231462046FD
:1035900000F0F4F9FEBDFFE76FF00300FAE7002248
:1035A00002EB420001EBC000077D022F08D38768C1
:1035B000A74205D12F684068874201D11A70C6E73B
:1035C000521CD2B20A2AEBD332462946204600F0DA
:1035D00037F8DFE7D09E0008500100209CC801208A
:1035E0002DE9F84306468846144802EB420100EBF9
:1035F000C10404F10C05207D022813D1608A032741
:10360000B0F58E7F04D9211D304600F0DFF807E0C9
:10361000B0F5877F06D32A46211D304600F0DCF83E
:1036200000B927754FF4006000902B4606F12E027A
:103630004146304600F0A2F9BDE8F8839CC801205D
:103640002DE9FC5F83462E3001900F460868164630
:103650004FF0FF344FF0000A594600F0C5FB80B927
:103660003868C0F303110E290BD057B148B15A4640
:1036700001213846FFF762FE002805DA40B2BDE8B6
:10368000FC9F6FF00F00FAE700F0FF092A4909EBF1
:10369000490801EBC805287D08B136B114E04FF0A8
:1036A000010A85F814A0C5F808B03946584600F05C
:1036B0008DF8040007D1287D012804D1BAF1000F4C
:1036C00001D1002068828EB3287D1B4F02280ED3C3
:1036D0001A494FF4006005F10C0381F80090009046
:1036E00031465846019A00F049F9044621E0012884
:1036F0001FD100213446207B400603D42468002CCF
:10370000F9D139B132464FF420710E2001F0E7FDB6
:10371000064602E0304601F0F4FE46B157F83800A4
:1037200008B101F079FE47F83860002401E04FF05D
:10373000FF342046A3E700009CC801205001002070
:103740002DE9FF4F81B09346DDE90F981F46002613
:103750004FF420721C210E20DDF838A001F0FAFC95
:1037600005002FD06C68119801F004F9E0803868EA
:10377000A060B888A081D9F80010C4F81210B9F878
:103780000400E082DAF80000C4F80E00D8F8000067
:10379000A0614FF480702080082060800620207196
:1037A0000420607140F606000090DDE901025B46EE
:1037B000294600F0E3F8284601F02EFE304605B019
:1037C000BDE8F08F4FF0FF30F9E70000014A00F04C
:1037D00003B80000D09E00087FB5064D031D0124EC
:1037E000CDE90035CDE902142A331946FFF7A8FFC9
:1037F00004B070BDD69E000870B5154D002404EBD2
:10380000440005EBC002117DF1B1508A401C80B22A
:103810005082B0F5967F0AD2012906D003290AD03A
:1038200004290AD001290BD00EE0052808D3204630
:10383000FFF7FAFD08E0042000E00220107503E025
:10384000111D9068FFF7C2FF641C0A2CD7DB70BD06
:103850009CC80120F8B51F4615460E00044613D03B
:10386000306888B1214600F0BFFA68B93078C0F3FB
:1038700003100E2808D0224639463046FFF75EFD79
:10388000002804DA40B2F8BD6FF00F00F8BD114A0D
:1038900000EB400102EBC1000223037584602B683A
:1038A000C360AB8803820023438252F8316076B153
:1038B00042F831304FF4006000902B4604F12E02A4
:1038C0003146204600F05AF8304601F0A5FD0020B0
:1038D000F8BD00009CC801202DE9F0410446408954
:1038E0000E270D460E283CD96068E17B868919B900
:1038F00095F83810491CE1730178CA0714D00129E2
:1039000005D006221C49FCF732FD48B10CE0417895
:1039100051B980785E2807D1607B40F0100002E04A
:10392000607B40F008006073082E03D0B6F5C16FCD
:1039300017D10DE095F83500000712D5394620461D
:1039400001F0ECFD68B92946204600F027FB10E0A5
:1039500095F83500000704D53946204601F0DEFD14
:1039600018B1204601F058FD03E029462046FFF734
:103970006DFD0020BDE8F081D09E00082DE9F041EA
:1039800080461E4617460D46069800F0F3FF044693
:103990000E21284601F0B6FB18B16FF00100BDE81A
:1039A000F0816868848131680160B18881803968FC
:1039B000C0F80610B988418140462946D8F8182039
:1039C000BDE8F0411047000010B5472180F83610DF
:1039D000442180F83710044941610449816100F0B5
:1039E00099FE002010BD0000ED3400086D4800086D
:1039F0000E4C6421606805F0CFFD0128F9D102F07A
:103A00001EFB0646206800F0EFFE0546304602F039
:103A10001BFB002DEDD0216828460A69904700283D
:103A2000EDD0284601F0F8FCE3E700006C0100202F
:103A300070B5074D0446C1B2284604F071FF072156
:103A4000284604F0FCFF0028F9D0204670BD000095
:103A500000100140F0B5046A456A00234FF0010CE4
:103A60004FF00F0E0CFA03F6164206D09E000EFA27
:103A700006F7BC4301FA06F73C435B1C9BB2082BDC
:103A8000F0D308230CFA03F6164207D09E00203E1E
:103A90000EFA06F7BD4301FA06F73D435B1C9BB2E5
:103AA000102BEFD304624562F0BD816270478161E3
:103AB00070472DE9F0470568C66800244FF0010AF9
:103AC0004FF003090AFA04F71F420ED0670009FA03
:103AD00007FC25EA0C0526EA0C0601FA07F802FAAB
:103AE00007FC48EA05054CEA0606641CA4B2102C43
:103AF000E8D30560C660BDE8F087F0B501294168EC
:103B000018D099434160846800210126032706FAF2
:103B100001F51D4208D04D0007FA05FC24EA0C040B
:103B200002FA05FC4CEA0404491C89B21029EED3C0
:103B30008460F0BD1943E5E70A46032100F096B81A
:103B40002DE9FE4F8A46484904468D6828780007CB
:103B5000860E142E47D3608904287FD360680078CE
:103B600000287BD0082879D1486901F11409C0F3F5
:103B700003120E2A72D08846096800F035F9002831
:103B80006CD12089082869D3204600F0BDF80028B0
:103B900064D106F10E010F46204601F0B3FA40B39E
:103BA0002089811989B2884258D84FF420720E209A
:103BB00001F0D0FA070051D0798906F1080081425E
:103BC0000ED3324629467868FCF79FFB31463846CB
:103BD00001F0A4FC20B92146384601F08FFB18B152
:103BE000384601F019FC39E0204601F015FC3C464E
:103BF00004E03946204601F091FC78BB314620466E
:103C0000676801F07FFA48BB6568D9F800004FF695
:103C1000F771E860D8F8100028614FF0000887F8C5
:103C2000008084F80F807888884201D9093000E04C
:103C300008307880FF202872A5F80A80314628468F
:103C400000F05CF868810121CDE90081FF230022AA
:103C5000CDF808A04946204600F08AFA2046BDE883
:103C6000FE4F01F0D9BB0000503F01202DE9FF4776
:103C7000074600891C26924689461C2800D2064623
:103C800006F1080081B24FF42072222001F062FA9E
:103C900005002DD06C68D7F80480082384F80090C4
:103CA00084F801A04FF00009C4F804903246394668
:103CB000284601F05EFBD8F80C00039003A800F042
:103CC000C7FB060011D0A4F802904F466989204630
:103CD00000F014F8608001200097CDE90106FF2371
:103CE00003AA0021284600F043FA284601F094FB7D
:103CF000BDE8FF870A460B21FFF7B8BF00B500F00B
:103D000099FEC04380B200BD70B50026054634461A
:103D100012E06989686800F08DFE2044010C11FAF8
:103D200080F4A87AC00706D08EB10026E0B2C4F3B2
:103D3000072141EA00242D68002DEAD126B1E0B226
:103D4000C4F3072141EA0024E04380B270BD01269C
:103D5000ECE730B41B68029D9CB204EB13442B6863
:103D600014FA83F404EB13431C0C14FA83F31C0CB5
:103D700014FA83F330BCAFF300802DE9F0411C4608
:103D800090460F460546002612E06989686800F0F3
:103D900051FE2044010C11FA80F4A87AC00706D025
:103DA00006B30026E0B2C4F3072141EA00242D68DF
:103DB000002DEAD126B1E0B2C4F3072141EA002484
:103DC000384600F0D7FD0444404600F0D3FD2044BF
:103DD000010C11FA80F0010C11FA80F0C04380B29E
:103DE000BDE8F0810126DDE7421C12D088B191F8D0
:103DF000352092070BD54A68824208D0896800EACC
:103E000001030A40934202D10143491C01D0002022
:103E100070470120704700002DE9F74F88B0044635
:103E2000099800271426808DBA1F1438C11700EB9B
:103E30005170C0F3CF00049060680690017801F0E3
:103E40000F01052902D16189142903D210460BB054
:103E5000BDE8F08FC08800F08DFDC0F30C0100F4C8
:103E6000005003910790208914381FFA80F98DE0E3
:103E700004984FF6FF7101EAC0004946484500D951
:103E8000084605904FF4207214210E2001F062F9CB
:103E90000290A0B3406814220699FCF736FA029803
:103EA000059DD0F804B02DE06089801B87B2BD422B
:103EB00000D22F4627B3052000F0B0FF5FEA0008CC
:103EC0002BD0606843463044CDE900074122394693
:103ED000002001F0C2F95FEA000A24D0204601F078
:103EE00010FB2D49C8E904145146029801F0D1F99C
:103EF000E81B05042D0C07D000262468D4E70FE04A
:103F000024680026002DCFD1F01986B20998808D43
:103F1000143848450BDB01210AE0029801F07CFAD5
:103F20004FF0FF3093E7404600F0C8FAF5E7002174
:103F30000398C0F30C0009B1079909B140F400508F
:103F400000F018FDABF806000598143080B200F0C0
:103F500011FDABF802000021ABF80A1014215846FD
:103F6000FFF7CCFEABF80A0009980A9A0299436958
:103F70009847029801F050FA0599A9EB01001FFA41
:103F800080F9DDE90301084480B20390B9F1000F24
:103F90007FF46EAF00205AE7FD4600082DE9F04798
:103FA000456807460E46287804214FF0010AB1EB18
:103FB000101F03D0384601F02FFA8FE000074FEAB8
:103FC0009068688800F0D6FC04463889A04203D97E
:103FD0002146384601F06AFA79894145EAD33889A1
:103FE000A042E7D34046B8F1140FE3D30146284678
:103FF000FFF784FE0028DDD1DFF840912869C9F879
:104000001400EA68C0F30310C9F810200E2805D088
:10401000304600F097F850B1344616E096F8350077
:10402000C00702D070680028F6D1002412E099F889
:10403000140000247F280DD04148046808E0B442F1
:1040400005D0204600F07EF808B11CB10BE02468D2
:10405000002CF4D1687A112805D105EB08004088BE
:10406000B0F5884F38D0BAF1000F0DD0D9F8100054
:1040700050B13146FFF7B8FE00289BD199F81000E7
:10408000C0F303100E2895D0002C93D0E88830F0B0
:10409000C00005D0384600F0EFF807001ED07D685C
:1040A000C9F80850C9E90046297838460907890E39
:1040B000A9F80C10414601F031FA687A01281AD0AB
:1040C000062813D011280CD04D462146D9F81400EB
:1040D000FFF78AFEA0B120E03446D5E70020BDE816
:1040E000F0873146384604F05BFA19E0314638462D
:1040F00002F0A2FB14E031463846FFF721FD0FE045
:10410000287DC0F303100E2807D04146384601F041
:10411000B5F902213846FFF70FFD384601F07CF96A
:104120000021C9F80010C9F80410C9F80810A9F84E
:104130000C10C9F81010C9F81410CFE7503F012037
:10414000DC00002010B590F83510C9070CD041688C
:1041500051B1064A52698A4204D001461046FFF71F
:1041600043FE08B1012010BD002010BD503F0120CA
:10417000FEB5DDE90954089E1AB109B10F6807B907
:10418000211D0096CDE9015400F002F8FEBD0000AB
:104190002DE9F84F9A46DDE90A87DDF830901600E0
:1041A0008B4605466FF0010445D0142100F0AAFFAC
:1041B000E8BB6C68390247EA0A2084F808A06772F5
:1041C00041EA10213068206111FA80F101EB1040C2
:1041D000452121704FEA082248F48A4142EA112120
:1041E00084F801800F18288900F0C4FB00EB070851
:1041F00060801F4F0020E080388800F0BBFBA0806B
:1042000000EB08013888401C3880BBF1000F0FD04C
:10421000DBF80000E06011FA80F101EB1040010CC6
:1042200011FA80F000EB1040C04360810DE005E022
:1042300010480068EEE76889142802D22046BDE8DD
:10424000F88F68686E4600690090B9F82C0040B19C
:104250002989814205D9324649462846FFF7DCFDC7
:10426000EDE7D9F814304846324629469847E6E744
:1042700052010020C89E00082DE9F05F4468834683
:10428000207800F00F0005287ED1E08800F072FB56
:10429000C004070C608800F06DFB21780907890EC7
:1042A000814271D8401A1FFA80F8584601F00EF882
:1042B000664D0646288830440A2809D931462046EA
:1042C00000F0C4F900285FD0288830440A28E8D8D4
:1042D000A9466D684FF0000A0CE06869E168884201
:1042E00007D1A8692169884203D1A889A188884299
:1042F00003D02D68002DF0D106E02DB1E08800F04C
:1043000039FBC00425D02FE0042000F087FD050014
:104310000AD13146204600F099F9B04217DB04205B
:1043200000F07CFD050012D02021FCF715F80F20CD
:10433000E877D9F8041029601422214605F1080015
:10434000C9F80450FBF7E1FF002D7BD00CE0554687
:10435000FAE7E88900F00EFBC00405D014222146DC
:1043600005F10800FBF7D1FFA07940F34014641C6D
:1043700008D007EB080080B2B8425DD34FF6EB716E
:10438000884259D8224600E05CE05946284600F0B1
:1043900099F8411C50D0B9F800203244A9F8002007
:1043A00034B107EB0801A983A97F41F00101A97786
:1043B00001283FD1A88B1422143087B2686805F118
:1043C0000801466830463468FBF79FFF384600F026
:1043D000D1FA7080A6F806A0A6F80AA014213046EB
:1043E000FFF78CFC70816E6809E014212046676835
:1043F00001F094F82146304600F04BFF3C68002C59
:10440000F3D1D9F804104C468D4205D1002105E0C6
:104410000868A84202D001460029F9D1284600F0D8
:10442000CBF8304600F052FF2188081A2080304631
:10443000BDE8F09F0020FBE7686818B90021284616
:1044400000F0BAF8584600F0E7FFF3E75401002007
:1044500070B50546144813E090F83510CA070FD020
:104460004A070DD543685BB184682A68234002EA95
:1044700004069E4216D0890702D4C1688A4211D030
:1044800000680028E8D10948006850B190F835105C
:10449000CA0706D0490704D5416811B129787F2998
:1044A00000D1002070BD0000DC000020E0000020F2
:1044B00038B5049C0094FFF74CFC38BD014605203C
:1044C00000F07CBC2DE9F05FD1F8048007469346EC
:1044D0000E4600240125B8F8020000F04BFA98F8C7
:1044E00000104FF0FF3A0907890E814233D8A0EB44
:1044F0000109B8F8060000F03DFAC0047168030C29
:104500000020086003EB09001FFA80F88B80A1F8F7
:10451000068098451FD37A6827E05068B0F804C039
:10452000634514D20A6064B1B4F806C0634512D37F
:10453000808880450FD826608888844505D000256E
:1045400003E08088804506D87E6082B118E002D002
:10455000C288934202D25046BDE8F09F1CB1E28867
:10456000624500D0002502680446002AD5D134B146
:104570002660E0888A88904202D0002500E07E60B4
:10458000BBF1000F02D1B87FC007E5D08DB17868CC
:1045900078B14068808860B90A682AB15068C988D3
:1045A0008288914203D000251DB10120D4E7014645
:1045B000F2E70020D0E70000074A30B40B46546809
:1045C0000168844201D1516000E01960014630BCAD
:1045D000042000F0F3BB0000540100202DE9F0415D
:1045E00044680646884660680025818891B900685D
:1045F0007060142206F108016068FBF786FE012155
:104600002046FFF777FB204600F060FE0546204677
:1046100000F002FF74680AE06068274604683846C4
:1046200000F054FE284485B2384600F0F5FE002C18
:10463000F2D141463046FFF7BFFF03480188491BCE
:1046400001802846BDE8F081540100202DE9F047A3
:10465000DFF878900F4605460026002211461346E3
:104660001446D9F8040022E0D0F814C0D5F80C8024
:10467000C4450BD1D0F818C0D5F81080C44505D179
:10468000B0F80CC0B5F80480C44509D0641C2AB148
:1046900090F81FC092F81F80C44501D802460B460F
:1046A000D0F800C0BCF1000F00D0014660460028E1
:1046B000DAD122B119461046FFF790FF0644BE42F8
:1046C00001DA012CC9DC3046BDE8F0875401002036
:1046D00070B50948002544680BE0E07F20B1401E1A
:1046E000E0772546246804E0204624682946FFF741
:1046F00075FF002CF1D170BD5401002010B50446A7
:10470000406908B100F088FE2046BDE81040FFF780
:10471000D5BE00007CB50446062084F83400294844
:104720000068022184F82E101A2184F82F10010E3F
:1047300084F83010010C84F83110010A84F832102A
:1047400084F8330040F2DC50A0851F4D0E2084F821
:1047500035002C60686878B903220021012004F03C
:10476000D5FC686020B100231A46194604F050FDBC
:104770000021686804F010FF04F12E010020FEF70C
:10478000A5FC4FF4E000FEF747FA4FF46020FEF777
:1047900043FA0E4D002405EB0410FEF765FD641C82
:1047A000052CF8D300210420CDE900010B464FF47D
:1047B000AF7207A10B4805F013F8BDE87C40FEF787
:1047C0006FBA0000107AFF1F6C010020F801002072
:1047D00045544845524E455449465F494E505554FC
:1047E00000000000F13900082DE9F041154F0026C6
:1047F000354602213868FEF7E5F984B205213868AC
:10480000FEF7E0F90746B4B14FF4C172214600202B
:1048100000F0A0FC06000ED021460BA0FCF704F926
:104820003446791962896068FBF76FFD60892468F6
:104830000544002CF5D100210846FEF739FA304630
:10484000BDE8F081100000205B52585D2052656386
:104850006569766564207061636B6574206F66209E
:1048600025642062797465730D0A00002DE9F0411A
:10487000234F0C460025B86858B9032200210120B7
:1048800004F044FCB86020B100231A46194604F035
:10489000BFFCFA21B86804F07FFE60B301F0CFFBE3
:1048A00080461848006801680029FDDB0121FEF7F9
:1048B00089F9064608E0628970196168FBF725FDF1
:1048C00060892468284485B2002CF4D12946002050
:1048D000FEF736FA0446404601F0B6FB224629466A
:1048E00009A0FCF7A1F800231A461946B86804F09D
:1048F0008FFC012C00D0FEE70020BDE8F081000015
:104900006C0100200C0000205B54585D2053656E44
:1049100074207061636B6574206F6620256420626B
:10492000797465732C207374617475733D25640DFF
:104930000A00000010B504464068804701F0D8FB2B
:10494000094A216852688B181A1AB2F1004F03D332
:1049500008442246054902E0044922461846BDE8BB
:10496000104001F0E5BB0000E400002035490008DC
:1049700000BA704740BA704710B501F087FB00F0ED
:104980000FF900F027FA00F005FB03F007FE01F035
:1049900051FFBDE8104001F0F3BB000010B586B038
:1049A0000024039404940EA00594FCF73DF81548E8
:1049B00015490094CDE9011005AB04AA03A91348D9
:1049C00000F038FA114800F01BFB104800F01EFB05
:1049D0000FA0FCF729F80D48FEF734F806B010BD1B
:1049E0005B4E45545D20416464696E67206E65745A
:1049F000776F726B20696E746572666163652E2EC7
:104A00002E0D0A009D830008C93900087C01002092
:104A10005B444843505D205374617274696E672033
:104A20004448435020636C69656E742E2E2E0D0A27
:104A30000000000018B50022ADF8002010F00103BE
:104A40000BD0002909DD10F8014B8DF80140491EFB
:104A500003E030F8024B891E22440129F9DC0029C9
:104A600002DD00788DF80000BDF800001044010C54
:104A700011FA80F0010C11FA80F023B1C1B2C0F339
:104A8000072040EA012080B218BD000001F0FCFBC5
:104A90004FF4E13003F048FFFCF7AAFE40F6034074
:104AA00001F086FA0A4C8023002201212046FFF7FC
:104AB00000F88023022200212046FFF71EF8FCF7B1
:104AC00069FD04A0FBF7B0FF04F006FAFEE7000062
:104AD000000C02405374617274696E6720467265FF
:104AE0006552544F53205363686564756C65722E2C
:104AF0002E2E0D0A000000002DE9F04100284AD0BA
:104B0000810709D1254FA0F1080439688C4203D3ED
:104B100079680C30884205D901F091FABDE8F0417E
:104B200001F092BA1D48083001F0CEFA2079F8B1B0
:104B3000204600F0C3F80546208801F005F9064636
:104B4000608801F001F9014620884FF4804300227B
:104B500098420DD8608898420AD8A84202D00888A6
:104B6000A84205D17868864207D07088A84204D050
:104B70000A48083001F0B9FACEE72271F868844299
:104B800000D2FC60204600F0E1FCBDE8F0410348A3
:104B9000083001F0AABABDE8F081000094000020BE
:104BA00070B50D480D4C20F003004FF48045206097
:104BB0000580002141800171284601F0C5F80121DE
:104BC00060600171058045802068E06004F10800A4
:104BD000BDE8704001F07DBA6B3F012094000020D9
:104BE0002DE9F04700280ED0C51C4FF6FC710D4092
:104BF0004FF480490C2D01D20C2501E04D4501D820
:104C0000854202D20020BDE8F0872B4801F05CFA13
:104C1000DFF8A480A8F10808D8F80C0000F04EF8DE
:104C20000646C5F5804741E0304601F08DF8044660
:104C30000079B0BB2088801B0838A84232D3208876
:104C40000127811B05F114000839814213D3701923
:104C5000083085B2284601F077F8002101712188DB
:104C600001804680258027710088484504D001F0E6
:104C70006BF8458000E02771D8F80C004546844267
:104C800003D008E0008801F05FF8017911B169688C
:104C90008842F7D1E860084801F027FA04F10800DB
:104CA000B1E7FFE7304601F04FF80688B742BBD8BE
:104CB000014801F01AFAA5E79C0000200249098882
:104CC000401A80B270470000940000202DE9F05F88
:104CD0000746CC1C4FF6FC7004404FF4804A0C2C65
:104CE00001D20C2401E054451BD88C4219D3324820
:104CF00001688F4203D381464068874204D301F0A4
:104D00009EF901F0A1F911E0A7F108052846FFF787
:104D1000D5FF06462888801B08381FFA80F84445CE
:104D200003D94FF00000BDE8F09F01D13846FAE703
:104D3000214800F1080001F0C7F9288801F004F8C3
:104D400001794FF0000B01B304F11400404517D86E
:104D50003019083084B2204600F0F6FFD9F80C2054
:104D6000904201D2C9F80C0080F804B02988018073
:104D700046802C800088504502D000F0E5FF44803A
:104D80000D48083001F0B1F9D0E7311908318CB283
:104D9000D9F80C10B0F80080814204D1204600F010
:104DA000D3FFC9F80C00204600F0CEFF80F804B015
:104DB000A0F80080DCE70000940000200D2806D257
:104DC000002904D0024A52F82000FDF78DBE70473A
:104DD000109E000830B5054D002455F8240000F061
:104DE00007F8641CA4B20D2CF7D330BD109E000848
:104DF0008268002111604168C91C21F00301002272
:104E000007E08368521C1B680B6083681960038885
:104E1000194443889342F4DC704700000D2801D305
:104E200000207047024951F82000FDF76BBE0000DA
:104E3000109E00082DE9F0410400DDE90770069D91
:104E400022D00FB301B9234902B9224A03B9214B39
:104E500000266660A660DFF880C0C4F814C0E66073
:104E6000A68584F835606662A662C4E907651B4DB5
:104E700095F800C084F838C0E6632061204600F051
:104E80008FF82046B84710B10020BDE8F0816A686D
:104E900094F83800FF2801D184F83860104694F85F
:104EA00038100AE090F838308B4205D1491C84F85C
:104EB00038100028ECD102E000680028F2D1C8B216
:104EC000FE2805D0401C2870226020466C60DCE77C
:104ED0002E70F9E7C89E0008994F0008D8000020FE
:104EE00070B50C46054601F059FF21462846BDE83D
:104EF000704003F001BC0A68C3689A4204D001B94B
:104F00000022C2600120704700207047F8B50446B7
:104F10000D4608686168164688421BD028680090D4
:104F20006068306069461046FFF7DAFF6A4631462E
:104F30002046FCF738FA5DB1286860600121204600
:104F400000F029F8E16909B1204688470120F8BD41
:104F50000020F2E70020F8BD0A6883689A4204D076
:104F600001B90022826001207047002070470000D4
:104F700001000BD00648406806E090F83820521C2B
:104F8000D2B28A4203D000680028F6D100207047D0
:104F9000D8000020704770476FF00B00704700008A
:104FA0002DE9F84F4FF000091E4617460C008246C7
:104FB000C84600D1114C07B9104F06B90F4EDCB1ED
:104FC0002068C8B1002525B16A4621465046FFF742
:104FD0009DFF4A4639465046FFF7BEFF42463146DE
:104FE0005046FFF788FF002D04D16A4621465046FF
:104FF000FFF78CFFBDE8F88F0125E4E7C89E0008A5
:105000000149886070470000D800002010B50400F6
:1050100011D094F83500C1070DD140F0010084F89B
:105020003500E16909B1204688472046BDE81040B7
:105030000321FFF7B0BF10BDF0B5264D04460E4664
:10504000286800F4E0634FF4A06083420FD006DCD0
:10505000B3F5407F0BD0B3F5806F06D107E0B3F511
:10506000C06F04D0B3F5E06F01D000F035F82868C8
:10507000C0F30223C3F10700042800D90420191D3E
:10508000072901D2002300E0DB1E012101FA00F50F
:105090006D1E35409D4001FA03F77F1E17403D43CA
:1050A000002C07DA04F00F0202F1E022280182F856
:1050B000140D04E004F1E0202A0180F8002404F03B
:1050C0001F0081406009800000F1E020C0F800115D
:1050D000F0BD00000CED00E0024908430249086001
:1050E000704700000000FA050CED00E0034A114093
:1050F000014303480160BFF34F8F704780FFFF1FDC
:1051000008ED00E00022AFF3008030B500B3B1F548
:10511000803F1DD281B104898BB214FA81F5ADB202
:105120009D4215D3057B2D0608D54268511A00F122
:10513000100291420CD304E0002030BD42B142681D
:10514000511A4160418919444181E1180181F3E715
:10515000012030BD2DE9FC5F064691460D46104604
:10516000012A0AD0412808D04FF0000BB0F5C17FCA
:1051700009D0B2F5207F57D135E00246002000F07B
:1051800055F807464DE00027B8460C20FFF746FECD
:10519000040021D0F01C20F00300A0F2DC504042BB
:1051A00080B2A84200D928468246A0191330CDE922
:1051B000009B20F0030153462A46204600F068F980
:1051C0007FB1C8F80040A5EB0A000504A0462D0CED
:1051D0004FF00006D9D124E037B3384600F01CF96F
:1051E00022E02746EFE7F01C20F00301E81C20F046
:1051F0000302881881B201F1100080B28A4213D8EC
:10520000824211D8FFF7ECFC071E0BD0B8191330FF
:10521000CDE9009B20F003012B461A46384600F0EA
:1052200037F93846BDE8FC9F0020FBE72DE9FC413B
:10523000074615460E460B20FFF7F0FD04004FF021
:10524000000008D0CDE9005033461A4639462046C2
:1052500000F01EF92046BDE8FC817CB51D461646CF
:10526000DDE90634C01C20F003025018A04201D929
:1052700000207CBD0BB1D41800E000240220CDE951
:1052800000600B461A462146284600F001F92846E0
:105290007CBD10B500280FD000290DD004E0038993
:1052A0000C892344038110460268002AF7D1028941
:1052B0000B891A440281016010BD10B50C46FFF73E
:1052C000E8FF2046BDE8104000F01BB9002102E0D5
:1052D000491C006889B20028FAD10846704770B5A9
:1052E00015460A462989FFF735FF040004D02946F0
:1052F00000F004F8204670BD002070BD19B10A8985
:10530000002300F036B86FF00F0070472DE9F0472A
:10531000002716468946B846002805D0B9F1000F87
:1053200001D0044620E00020BDE8F0872BB1608961
:10533000984202D8181A83B215E06089C01A85B263
:10534000B54200D9354660682A46C11809EB070006
:10535000FAF7DBFF08EB05001FFA80F8781987B22F
:10536000701B86B2002324680EB1002CDED14046AB
:10537000DAE72DE9F05F16460C0005461F464FF0B0
:1053800000086FF00F0A30D02089B0422DD365B3EA
:105390002889B919884228D36FF0050B688962897A
:1053A000C01BA2EB0801884200D30846864200D207
:1053B0003046814661686868414438444A46FAF795
:1053C000A4FF6189C844A6EB09004F4486B2414559
:1053D00004D824684FF0000804B936B96889B84287
:1053E00006D12D6800271DB916B15046BDE8F09FC3
:1053F0002CB160892189884201D1206830B93DB142
:1054000068892989884203D1286808B15846EDE7A0
:10541000002EC3D10020E9E770B504000AD00026B1
:1054200000F00DFEA17B491ECDB2A57300F00CFE6D
:1054300015B121E0002070BD207B617B256800F064
:105440000F00890703D521692046884710E002280C
:1054500003D0012804D040B10AE021460C2001E02D
:1054600021460B20FFF7AAFC02E02046FFF744FB91
:10547000761CF6B22C00D3D1304670BD0122AFF3BA
:105480000080002902DA494200F048B8FFF73DBE2B
:1054900070B50024DDE90456C0E900410281438172
:1054A0000573467301218173C47370BD70B50289A1
:1054B0008A4225D9521A92B20D46044605E0281AAE
:1054C00085B22089801A208124686089A842F6D399
:1054D000207B00070CD16089A84209D0607B80073F
:1054E00006D4A088001B284481B22046FFF7EEFBBB
:1054F00065812581206808B1FFF78EFF00202060BC
:1055000070BD10B5040008D000F099FDA17B491CC6
:10551000A173BDE8104000F097BD10BD10B538B1C3
:10552000B1F5803F04D229B143898AB2934203D2B4
:10553000012010BD002010BD446821444160991A2B
:1055400041810189891A0181F4E700002DE9F041C8
:105550000446008800F0F8FB05461A4E4FF48048D8
:10556000AC4215D0287998B97068854210D0F0689F
:10557000A84200D1F460288820802888404507D0C0
:105580002046FFF79BFB0746288800F0DDFB47809D
:10559000608800F0D9FBA04212D0017900290FD118
:1055A000F168A14200D1F060218801802188414545
:1055B00006D0FFF783FB0546208800F0C5FB458039
:1055C000BDE8F081940000202DE9F047204D0F4602
:1055D0000446EE68D5F83490D5F838802868001D68
:1055E00003F069FA38B9286890F82C100120884037
:1055F000296981432961601C15D1A7B115492A6821
:10560000486890602B688268DA602A688368121D97
:105610005A602A68121D8260286841610868401C2F
:105620000860BDE8F08728683444B44244602968C3
:1056300005D24046BDE8F047091D03F063BA48466D
:10564000091D03F05FFAA86A8442EAD2AC62E8E777
:1056500018000020D43E00202DE9F041044603F05C
:1056600069FA364EB068401CB0603068344F10B1F3
:10567000706940B32DE03460B068012829D100255D
:1056800005EB850007EB800003F02EFA6D1C052D5D
:10569000F6D32B48643003F027FA2948783003F01A
:1056A00023FA27488C3003F01FFA2548A03003F076
:1056B0001BFA2348B43003F017FA214864307063B2
:1056C0001430B06305E03068E16AC06A884200D8EF
:1056D0003460706A0121401C7062E06A3269814066
:1056E0001143316100EB800007EB80004068A0604F
:1056F0008168E1608268211D51608160E06A00EB91
:10570000800007EB8001616157F82010491C47F8C1
:10571000201003F02FFA706900280CD03068E16A7D
:10572000C06A884207D207494FF080500860BFF333
:105730004F8FBFF36F8FBDE8F0810000180000208D
:10574000203E002004ED00E010B503F0F3F90E4C0C
:105750002068A0B90D4803F0C7F90C48143003F0D5
:10576000C3F90A48E0601430206100220C210A20AD
:1057700003F0CCFC206010B105A103F08FFABDE866
:10578000104003F0F7B9000058000020283F002027
:10579000546D72510000000070B50C4D0C4E11E0BC
:1057A00003F0C8F9F068C468201D03F084F9A86804
:1057B000401EA8606868401E686003F0DBF9204660
:1057C00000F051F868680028EAD170BD1800002088
:1057D000C03E002030B4026C0B46002A0BD0C168DA
:1057E0001144C1608468A14201D30168C16030BC2A
:1057F0001846FAF78ABD30BC70472DE9F041856B39
:10580000174604460026026C82B1C7B1E068FAF779
:105810007CFDE168206C091AE1602268914202D2A5
:10582000A168081AE060022F16D017E02068A8B916
:10583000A06804F0B7F806460020A0600EE060689B
:10584000FAF763FD216C606808446060A1688842D3
:1058500004D32068606001E005B16D1E6D1CA56376
:105860003046BDE8F08110B50446006B03F096F9B0
:105870002046BDE8104003F091B900000E484FF4F7
:105880008031420706D0C01D0B4920F00700411AA5
:10589000C1F58031094B00220144C3E900020839F7
:1058A000143B21F0070119604A600A600A1AC0E936
:1058B00000129A605A607047503F00208C00002010
:1058C000074E4FF08054074DFFF766FF3068012800
:1058D000FAD92C60BFF34F8FBFF36F8FF4E700004E
:1058E000203E002004ED00E02DE9F0471746DDE9F9
:1058F000098481466FF00302206B02EB870210449B
:10590000089D20F007069A46700707D0502080F3C4
:105910001188BFF34F8FBFF36F8FFEE761B1002097
:1059200023180A5C83F834200A5C12B1401C10284A
:10593000F6D3002084F84300052D07D3502080F3D0
:105940001188BFF34F8FBFF36F8FFEE7E562201D15
:10595000656403F0D4F804F1180003F0D0F8246172
:10596000C5F105006462A06152464946304600F028
:105970009BFA2060301AB7EBA00F07D8502080F3B5
:105980001188BFF34F8FBFF36F8FFEE7B8F1000FA1
:1059900001D0C8F80040BDE8F087000030B51A49D2
:1059A00000E011460A688242FBD3174B99420DD0A2
:1059B000164B994202D3164B994207D9502080F3D7
:1059C0001188BFF34F8FBFF36F8FFEE74B685C18F2
:1059D000844203D1406818444860084643681C1854
:1059E000944209D1084C143C2468A24209D0526860
:1059F0001A4442600A6812680260814200D008605E
:105A000030BD0460F9E700008C000020503F00200A
:105A10004F3F012070B5002441600B4D0061914261
:105A200006D8D11A8269914206D2011D286907E081
:105A30009A4203D2994201D3012403E0011DE86890
:105A400003F060F8204670BD5800002010B50446F1
:105A500003F070F8A06B20B1002403F08BF820460F
:105A600010BD0124F9E7000070B506460D480D464B
:105A7000C068C068C468201D03F01DF894F82400B5
:105A8000410705D52A463146204600F0B9F803E023
:105A900000F0FE0084F824002046216ABDE8704032
:105AA00008470000580000207FB5002000900190BA
:105AB000374E029064E00098002861DB029CA4B39A
:105AC000606910B1201D02F0F6FF03A800F0BAF8DB
:105AD000054600980A2853D2DFE800F05205052851
