:020000040800F2
:1000000010040020C5010008490200084102000850
:1000100045020008390200080D0400080000000035
:10002000000000000000000000000000790200084D
:100030003D02000800000000750200087D02000873
:10004000DF010008DF010008DF010008DF01000810
:10005000DF010008DF010008DF010008DF01000800
:10006000DF010008DF010008DF010008DF010008F0
:10007000DF010008DF010008DF010008DF010008E0
:10008000DF010008DF010008DF010008DF010008D0
:10009000DF010008DF010008DF010008DF010008C0
:1000A000DF010008DF010008DF010008DF010008B0
:1000B000DF010008DF010008DF010008DF010008A0
:1000C000DF010008DF010008DF010008DF01000890
:1000D000DF010008DF010008DF010008DF01000880
:1000E000DF010008DF010008DF010008DF01000870
:1000F000DF010008DF010008DF010008DF01000860
:10010000DF010008DF010008DF010008DF0100084F
:10011000DF010008DF010008DF010008DF0100083F
:10012000DF010008DF010008DF010008DF0100082F
:10013000DF010008DF010008DF010008DF0100081F
:10014000DF010008DF010008DF010008DF0100080F
:10015000DF010008DF010008DF010008DF010008FF
:10016000DF010008DF010008DF010008DF010008EF
:10017000DF010008DF010008DF01000800000000C7
:10018000DF010008DF010008DF010008DF010008CF
:10019000DF010008DF010008DF01000800000000A7
:1001A000DF010008DF010008DF010008DFF810D0E0
:1001B00000F030F80048004741090008AFF3008024
:1001C000100400200648804706480047FEE7FEE787
:1001D000FEE7FEE7FEE7FEE7FEE7FEE7FEE7FEE7F7
:1001E00085020008AD01000830B50B46014600202D
:1001F0002022012409E021FA02F59D4205D303FAE9
:1002000002F5491B04FA02F52844151EA2F1010269
:10021000F1DC30BD064C074D06E0E06840F001031C
:1002200094E8070098471034AC42F6D3FFF7C2FFBA
:10023000E40F00080410000800BFFEE700BFFEE75F
:1002400000BFFEE700BFFEE700BFFEE710B50028D5
:1002500007DA0A07140E054A00F00F031B1FD454D7
:1002600003E00A07130E024A135410BD18ED00E014
:1002700000E400E000BFFEE700BFFEE710B500F0BD
:10028000C5FA10BD1CB55D48006840F470005B49BC
:1002900008605B48006840F001005949086000BFF1
:1002A0005748006800F002000028F9D05448083090
:1002B000006800F00C0008286ED100BF00200190FB
:1002C00002E00198401C019001985028F9D34C4855
:1002D000083000680090009820F0F000009000982E
:1002E00040F08000009046490831009808600020E6
:1002F000019002E00198401C019001985028F9D328
:100300003F48083000680090009820F0F00000900E
:10031000009840F09000009039490831009808603A
:100320000020019002E00198401C019001985028A3
:10033000F9D33348083000680090009820F0F000AE
:100340000090009840F0A00000902D4908310098DE
:1003500008600020019002E00198401C0190019883
:100360005028F9D32648083000680090009820F003
:10037000F0000090009840F0B00000902049083153
:10038000009808600020019002E00198401C019054
:1003900001985028F9D300BF19480830006820F0B0
:1003A0000300174908310860C82000F0FBF8144822
:1003B000006814490840124908600846006820F4A3
:1003C0008020086000200E490831086000BF0C48FA
:1003D0000830006800200028F9D10B480849091DA1
:1003E0000860002006490C31086000F059FC00212B
:1003F0004FF0006000F0F8FA1CBD000088ED00E04E
:1004000000380240FFFFF6FE1030002400BFFEE778
:100410000FB4054B10B503A9044A029800F018F870
:1004200010BC5DF814FB000025080008080000203F
:1004300002E008C8121F08C1002AFAD170477047AD
:10044000002001E001C1121F002AFBD1704700000B
:100450002DE9FF4F89B09B460446002506E025287C
:100460000BD05A460B999047641C6D1C20780028CD
:10047000F5D10DB02846BDE8F08F0027B84601221F
:10048000474900E0074314F8013F203B02FA03F01C
:100490000842F7D120782E2819D114F8010F47F01F
:1004A00004072A280ED06FF02F022078A0F1300127
:1004B00009290CD808EB880102EB410100EB010887
:1004C000641CF2E70A98641C50F8048B0A902078A8
:1004D0000028CED0642808D0692806D075281ED000
:1004E0005A460B9990476D1C58E00A994FF00A093B
:1004F00001C90A91002802DA40422D2102E03905A3
:1005000004D52B218DF82010012103E0F90704D038
:100510002021F7E78A4608AE0DE00021FAE70A99A4
:100520004FF00A0901C90A91F7E74946FFF75CFE57
:10053000303106F8011D0028F7D1ADEB060000F1BF
:100540002009780701D44FF00108C84502DDA8EB67
:10055000090000E000208046002706E008A85A466F
:10056000C05D0B9990476D1C7F1C5745F6DB04E07E
:1005700030205A460B9990476D1CB8F10001A8F144
:100580000108F5DC05E016F8010B5A460B99904777
:100590006D1CB9F10001A9F10109F4DC641C65E7E7
:1005A0000928010008B50021009102E00099491CCA
:1005B000009100EB8001009AB2EB410FF6D308BD29
:1005C00010B54FF4406000F0ADFA41F21D0000F0AC
:1005D000A9FA302300220321144800F068F91448D6
:1005E00000F0BAF80021124800F0E4F800221146A9
:1005F0000F4800F0ECF800210D4800F0CEF8002183
:100600000B4800F0BDF80121094800F0D3F80022A2
:100610000121074800F0DBF80121054800F0BDF892
:100620000121034800F0ACF810BD000000000240BA
:100630000074004070B52DED028B0446B0EE408A88
:100640009FED230AF0EE408A0025B5EEC08AF1EE58
:1006500010FA04D29FED1F0AB0EE408A0AE09FED27
:100660001C0AB4EEC08AF1EE10FA03DD9FED180A01
:10067000B0EE408ADFED160A88EE200ADFED160A9A
:1006800020EE200ABCEEC00A10EE100A85B29FEDE3
:10069000130A28EE000ABDEEC00A10EE102A2B46FF
:1006A00021460FA0FFF7B4FE34B92B4600221146B5
:1006B000184800F031F807E0012C05D12B46002244
:1006C0000121144800F028F8BDEC028B70BD000039
:1006D000333353400000000000F07F4500007A44AF
:1006E000444143204368616E6E656C2025643A2066
:1006F00053657420746F202564206D562C2052653C
:100700006769737465722056616C7565203D20259C
:10071000640D0A000074004069B922B1012A04D0B6
:10072000022A06D103E0836004E0C36002E00361B3
:1007300000E000BF0FE001290DD122B1012A04D051
:10074000022A06D103E0436104E0836102E0C36151
:1007500000E000BF00BF704710B5044607482044C2
:1007600040B940F61D0000F001FA40F61D0000F00F
:10077000EBF900E000BF00BF10BD0000008CFFBF20
:1007800021B9026842F00102026005E0012903D1AB
:10079000026842F480320260704721B9026822F098
:1007A0000202026005E0012903D1026822F400324E
:1007B0000260704721B9026822F00402026005E07D
:1007C000012903D1026822F480220260704739B9FE
:1007D000036823F0C003036003681343036009E068
:1007E000012907D1036823F440030360036843EA47
:1007F00002430360704700000349086000BF0249DC
:1008000009680029FBD170470000002004480068F7
:1008100020B103480068401E01490860704700008D
:100820000000002070B504460D46E1B2054800F016
:10083000D7FA00BF0721034800F08FFB0028F9D04A
:10084000204670BD00100140F0B503461C6A5D6A89
:1008500000200DE00126864016403EB187000F269D
:10086000BE40B443860001FA06F63443461CB0B2DB
:100870000828EFD3082011E00126864016405EB11B
:10088000A0F10806B7000F26BE40B543A0F1080648
:10089000B60001FA06F63543461CB0B21028EBD379
:1008A0001C625D62F0BD8162704781617047F0B586
:1008B00004460D4616462168E268002019E001272B
:1008C00087401F409FB14FEA400C032707FA0CF7FF
:1008D000B943470005FA07F739434FEA400C0327AD
:1008E00007FA0CF7BA43470006FA07F73A43471CE2
:1008F000B8B21028E3D32160E260F0BDF0B50C4639
:100900001546012C03D146681E43466002E0466846
:100910009E434660826800210DE001268E401E4005
:100920003EB14F000326BE40B2434E0005FA06F624
:1009300032434E1CB1B21029EFD38260F0BD0000EB
:1009400000F0B2F94FF4E13000F04EFAFFF738FE54
:100950009FED170A0020FFF76DFEB0EE040A01209C
:10096000FFF768FE40F6034000F0DCF88023002229
:1009700001211048FFF79BFF8023022200210D4830
:10098000FFF7BCFF12E080210A48FFF78EFF4FF40B
:10099000FA70FFF731FF80210648FFF784FF4FF41C
:1009A000FA70FFF729FF04A0FFF732FDEBE7000024
:1009B0003333D33F000C02404C69616E677368614A
:1009C0006E20506920474433324634373020555327
:1009D000415254205072696E74696E672054657379
:1009E000742E2E2E0D0A0000034A0A400243034BC8
:1009F0001A60BFF34F8F704780FFFF1F08ED00E0C4
:100A00002DE9F04F8CB0064600200A903EA090E8F9
:100A1000004CC068CDE905BECDF810A007900FF2DC
:100A2000EC0ADAE9000ACDE9020A0FF2E00ADAE993
:100A3000000ACDE9000A38480068C0F381000B9035
:100A40000B9820B1012804D0022828D103E03349B3
:100A500027E0334925E03048001F006800F03F07D9
:100A60002D48001F0068C0F3881C2B48001F006839
:100A7000C0F30140401C4FEA40092748001F0068AE
:100A800000F48008B8F5800F01D1254B00E0234B1E
:100A9000B3FBF7F000FB0CF0B0FBF9F101E01F49EC
:100AA00000BF00BF1C480068C0F3031404A8055D24
:100AB00021FA05F218480068C0F3822402A8055DF7
:100AC00022FA05F0099014480068C0F342341DF87A
:100AD000045022FA05F0089036B1012E06D0022EFD
:100AE00006D0032E0AD106E00A9108E00A9206E039
:100AF00009980A9003E008980A9000E000BF00BF40
:100B00000A980CB0BDE8F08F000000000000000063
:100B10000102030406070809083802400024F40013
:100B200040787D01074A02EB9011D1F8001800F0DF
:100B30001F0301229A401143024B03EB9012C2F8AB
:100B40000018704700300240074A02EB9011D1F8BC
:100B5000001800F01F0301229A409143024B03EB5F
:100B60009012C2F80018704700300240074A02EBAA
:100B70009011D1F8001800F01F0301229A40114390
:100B8000024B03EB9012C2F800187047003002408D
:100B900008B5002000213F4A126842F480323D4BE4
:100BA0001A6000BF401C3B4A126802F4003119B9B8
:100BB0004FF6FF729042F5D1364A126802F40032C5
:100BC00032B900BF334A126802F40032002AF9D069
:100BD000304A4032126842F080522E4B40331A6045
:100BE0002D4A126842F440422B4B1A60294A0832BF
:100BF0001268284B08331A601A46126842F4004201
:100C00001A601A46126842F4A0521A60234A1B1F47
:100C10001A601A1F126842F080721B1F1A6000BF10
:100C20001C4A126802F00072002AF9D01A4A1268AF
:100C300042F48032184B1A6000BF174A526802F41F
:100C40008032002AF9D0144A126842F40032124B62
:100C50001A6000BF104A526802F40032002AF9D02C
:100C60000C4A083212680092009A22F003020092A5
:100C7000009A42F002020092064B0833009A1A6072
:100C800000BF044A0832126802F00802002AF8D0B5
:100C900008BD00000038024000700040196440099F
:100CA00010B5FFF775FF10BD10B5124800684FF47E
:100CB0007A71B0FBF1F4601EB0F1807F01D30120A6
:100CC0000FE0601E4FF0E02148610F214FF0FF3030
:100CD000FFF7BCFA00204FF0E0218861072008618F
:100CE000002008B100BFFEE70021481EFFF7AEFA62
:100CF00010BD0000040000202DE9F04704460D4619
:100D00000027B846B94600263349601A8C4235D0D0
:100D10000CDC32482044E8B1B0F5806F1FD0B0F54C
:100D2000006F21D0B0F5406F32D122E0B0F5806F76
:100D300029D0B0F5184F03D0B0F51C4F28D104E0EE
:100D40000320FFF75DFE074623E00320FFF758FE70
:100D500007461EE00220FFF753FE074619E0022077
:100D6000FFF74EFE074614E00220FFF749FE074654
:100D70000FE00220FFF744FE07460AE00220FFF7DB
:100D80003FFE074605E00220FFF73AFE074600E077
:100D900000BF00BFE06800F4004070B1780000EBD5
:100DA0005500B0FBF5F64FF6F07006EA0008C6F302
:100DB000420948EA0900A0600CE007EB5500B0FBCF
:100DC000F5F64FF6F07006EA000806F00F0948EA5B
:100DD0000900A060BDE8F0870078004000BCFFBFBC
:100DE000C1F308024260704710B504464FF44060FA
:100DF000FFF798FE41F20410FFF794FE4FF4C06233
:100E000007211A48FFF720FD4FF4C0630122022199
:100E10001648FFF74CFD4FF4C0630222002113482F
:100E2000FFF76CFD124800F025F821461048FFF747
:100E300063FF00210E4800F0CCF800210C4800F0C0
:100E4000B8F800210A4800F0A4F80021084800F092
:100E500094F80821064800F0B4F80421044800F092
:100E6000A0F8034800F074F810BD00000000024034
:100E70000010014010B504463349601A8C424DD031
:100E80000CDC32482044E0B1B0F5806F22D0B0F5E0
:100E9000006F31D0B0F5406F52D136E0B0F5806FC1
:100EA00045D0B0F5184F03D0B0F51C4F48D11AE02B
:100EB00040F60410FFF75AFE40F60410FFF744FE18
:100EC0003FE040F61100FFF751FE40F61100FFF73A
:100ED0003BFE36E040F61200FFF748FE40F61200F7
:100EE000FFF732FE2DE040F60510FFF73FFE40F61B
:100EF0000510FFF729FE24E040F61300FFF736FE49
:100F000040F61300FFF720FE1BE040F61400FFF749
:100F10002DFE40F61400FFF717FE12E040F61E000B
:100F2000FFF724FE40F61E00FFF70EFE09E040F634
:100F30001F00FFF71BFE40F61F00FFF705FE00E055
:100F400000BF00BF10BD00000078004000BCFFBF24
:100F5000C16841F40051C160704730B502460020BD
:100F600002EB91131B6801F01F050124AC402340E4
:100F70000BB1012000E0002030BD50F8C02F22F05E
:100F800001020260026801F001031A4340F8C0291F
:100F90007047C26822F4C062C260C2680A43C2607D
:100FA00070470A460021C16821F004011143C16065
:100FB0007047026922F44052026102690A430261E9
:100FC00070470A460021C16821F008011143C16041
:100FD0007047C26822F48052C260C2680A43C2608D
:100FE0007047000004100008000000200C00000002
:100FF00030040008101000080C0000200404000059
:10100000400400080000000000C2EB0B00000000DC
:04000005080001C529
:00000001FF
