:020000040800F2
:10000000D8DA0020C501000807030008FF02000835
:1000100003030008F7020008CD04000800000000F8
:10002000000000000000000000000000390300088C
:10003000FB02000800000000350300083D03000833
:10004000DF010008DF010008DF010008DF01000810
:10005000DF010008DF010008DF010008DF01000800
:10006000DF010008DF010008DF010008DF010008F0
:10007000DF010008DF010008DF010008DF010008E0
:10008000DF010008DF010008DF010008DF010008D0
:10009000DF010008DF010008DF010008DF010008C0
:1000A000DF010008DF010008DF010008DF010008B0
:1000B000DF010008DF010008DF010008DF010008A0
:1000C000DF010008DF010008DF010008DF01000890
:1000D000DF010008DF010008DF010008DF01000880
:1000E000DF010008DF010008DF010008DF01000870
:1000F000DF010008DF010008DF010008DF01000860
:10010000DF010008DF010008DF010008DF0100084F
:10011000DF010008DF010008DF010008DF0100083F
:10012000DF010008DF010008DF010008DF0100082F
:10013000DF010008DF010008DF010008DF0100081F
:10014000DF010008DF010008DF010008DF0100080F
:10015000DF010008DF010008DF010008DF010008FF
:10016000DF010008DF010008DF010008DF010008EF
:10017000DF010008DF010008DF01000800000000C7
:10018000DF010008DF010008DF010008DF010008CF
:10019000DF010008DF010008DF01000800000000A7
:1001A000DF010008DF010008DF010008DFF810D0E0
:1001B00000F070F800480047B1450008AFF3008038
:1001C000D8DA00200648804706480047FEE7FEE7E9
:1001D000FEE7FEE7FEE7FEE7FEE7FEE7FEE7FEE7F7
:1001E00045030008AD01000840EA01039B0703D066
:1001F00009E008C9121F08C0042AFAD203E011F866
:10020000013B00F8013B521EF9D27047D2B201E027
:1002100000F8012B491EFBD270470022F6E710B50B
:1002200013460A4604461946FFF7F0FF204610BD64
:100230002DE9F05F0546002092469B46884606461B
:10024000814640241BE0284641464746224600F0AE
:1002500042F853465A46C01A914110D311461846E7
:10026000224600F029F82D1A67EB01084F46224676
:100270000120002100F020F817EB00094E41201E5C
:10028000A4F10104DFDC484631462A464346BDE876
:10029000F09F0000064C074D06E0E06840F00103C7
:1002A00094E8070098471034AC42F6D3FFF782FF7A
:1002B000608D0008808D0008202A04DB203A00FAB7
:1002C00002F1002070479140C2F1200320FA03F3AD
:1002D000194390407047202A04DB203A21FA02F0AB
:1002E0000021704721FA02F3D040C2F12002914070
:1002F00008431946704700BFFEE700BFFEE700BF96
:10030000FEE700BFFEE700BFFEE7000010B50028D3
:1003100007DA0A07140E054A00F00F031B1FD45416
:1003200003E00A07130E024A135410BD18ED00E053
:1003300000E400E000BFFEE700BFFEE710B500F0FC
:1003400069FD10BD1CB55D48006840F470005B4954
:1003500008605B48006840F001005949086000BF30
:100360005748006800F002000028F9D054480830CF
:10037000006800F00C0008286ED100BF002001903A
:1003800002E00198401C019001985028F9D34C4894
:10039000083000680090009820F0F000009000986D
:1003A00040F0800000904649083100980860002025
:1003B000019002E00198401C019001985028F9D367
:1003C0003F48083000680090009820F0F00000904E
:1003D000009840F09000009039490831009808607A
:1003E0000020019002E00198401C019001985028E3
:1003F000F9D33348083000680090009820F0F000EE
:100400000090009840F0A00000902D49083100981D
:1004100008600020019002E00198401C01900198C2
:100420005028F9D32648083000680090009820F042
:10043000F0000090009840F0B00000902049083192
:10044000009808600020019002E00198401C019093
:1004500001985028F9D300BF19480830006820F0EF
:100460000300174908310860C82000F07CFA1448DE
:10047000006814490840124908600846006820F4E2
:100480008020086000200E490831086000BF0C4839
:100490000830006800200028F9D10B480849091DE0
:1004A0000860002006490C31086005F011F90021B0
:1004B0004FF0006004F01AFC1CBD000088ED00E065
:1004C00000380240FFFFF6FE1030002400BFFEE7B8
:1004D0000FB4054B10B503A9044A029800F018F8B0
:1004E00010BC5DF814FB0000DD300008B8000020EF
:1004F00002E008C8121F08C1002AFAD170477047ED
:10050000002001E001C1121F002AFBD1704700004A
:100510002DE9FF4F8DB00F460546002606E0252841
:100520000BD0DDE90F1290476D1C761C287800284F
:10053000F5D111B03046BDE8F08F0024A246A146A7
:100540000122E94900E0044315F8013F203B02FA8B
:1005500003F00842F7D128782A2810D06FF02F0234
:100560002878A0F13001092914D80AEB8A0102EB9E
:10057000410144F0020400EB010A6D1CF0E701CFD9
:100580005FEA000A03D544F40054CAF1000A44F0BB
:1005900002046D1C28782E2817D115F8010F44F09D
:1005A00004042A280ED06FF02F022878A0F1300121
:1005B00009290AD809EB890102EB410100EB010985
:1005C0006D1CF2E757F8049B6D1C28786C280FD03F
:1005D00006DC4C2817D068280DD06A2814D104E016
:1005E000742810D07A280FD10DE044F400140AE0EA
:1005F00044F4801401E044F440146978814202D14B
:1006000004F580146D1C6D1C28786E281ED00CDC3F
:10061000632830D004DC00288BD0582811D19FE00B
:10062000642867D069280CD164E073282DD004DCDD
:100630006F2872D0702804D194E075286ED0782885
:100640006DD0DDE90F129047761C4BE1C4F30250E8
:10065000022806D0032809D0042801CF09D006605B
:1006600040E101CFF117C0E900613BE101CF068015
:1006700038E1067036E117F8040B8DF80000002011
:100680008DF80100EB46012003E057F804BB4FF062
:10069000FF3061074FF0000102D40DE008F10101C5
:1006A000884649450FDA8045F8DB1BF80810002919
:1006B000F4D108E008F1010188468142FADB1BF819
:1006C00008100029F6D1DDE90F23AAEB08008146C6
:1006D000214600F031F9304400EB080604E0DDE982
:1006E0000F121BF8010B9047B8F10108F7D2214611
:1006F0004846F2E00A21C4F302524FF0000B089181
:10070000022A04D001CFC117032A09D00AE0FF1D35
:1007100027F00707F7E8020108E02CE01EE01FE0E1
:1007200000B2C117042A01D140B2C117021E71F1F3
:10073000000206DA0023D0EB030063EB01012D2257
:1007400002E0220504D52B228DF82420012203E0AB
:10075000E20701D02022F7E7904653E00A210BE0A0
:10076000102109E010214FF0000B44F004044FF079
:100770000809089103E008214FF0000B0891C4F329
:100780000252022A04D001CF0021032A06D006E03B
:10079000FF1D27F00707F7E8020103E080B2042AF3
:1007A00000D1C0B24FF0000822072BD52A78702A5A
:1007B00007D0DDF820C08CF0100C5CEA0B0C05D0E3
:1007C0000EE040228DF82420012208E050EA0103C7
:1007D00006D030238DF824308DF825200222904653
:1007E000089B83F0080353EA0B030BD150EA010284
:1007F00001D1620706D530228DF824204FF0010880
:10080000A9F101092A78582A04D038A20B9208AA23
:100810000A920BE03AA2F9E75B46089AFFF708FD57
:100820000B9B9B5C0A9A521E0A92137050EA0102BB
:10083000F2D10A98ADEB000000F1200B600702D561
:1008400024F4803401E04FF00109D94502DDA9EB21
:100850000B0000E0002000EB0B0141440890AAEBE4
:10086000010AE00306D4DDE90F232146504600F0DB
:1008700063F806444FF0000908E009A911F80900DF
:10088000DDE90F12904709F10109761CC145F4DB3F
:10089000E0030CD5DDE90F232146504600F04CF86B
:1008A000064404E0DDE90F1230209047761C0899D9
:1008B000481E08900029F5DC08E00A980A9900789B
:1008C000491C0A91DDE90F129047761CBBF100012B
:1008D000ABF1010BF1DC21465046DDE90F2300F0BE
:1008E00019F806446D1C21E6092801003031323325
:1008F000343536373839616263646566000000005C
:100900003031323334353637383941424344454645
:10091000000000002DE9F041044600251E46174660
:10092000880404D405E039462020B0476D1C641EBD
:10093000F9D52846BDE8F0812DE9F04104460025AF
:100940001E469046C80301D5302700E020278804C2
:1009500004D505E041463846B0476D1C641EF9D504
:100960002846BDE8F08108B50021009102E0009919
:10097000491C009100EB8001009AB2EB410FF6D3C5
:1009800008BD000010B5002401210948008800F0CE
:10099000EFF9044601210648008800F0E9F9044611
:1009A00004F0040008B1012010BD0020FCE70000A5
:1009B0000800002020B103490A680260898881800C
:1009C000704700000A000020FEB500240025012623
:1009D0006448FFF77DFD40F6194004F0A9FD40F69C
:1009E0001A4004F0A5FD40F61B4004F0A1FD01F003
:1009F00025FA03F0E7FA01F0D1FE20B95AA0FFF77B
:100A000067FD601EFEBD01F05BFD28B964A0FFF725
:100A10005FFD4FF0FF30F5E703F092FB6F49088070
:100A20004FF4004200216D48008800F0DCF90A20F4
:100A300000F0E6F9002400BF00216848008800F0BB
:100A400097F905460A2000F0DBF9641C05F4004024
:100A500008B1642CF0D3642C05D361A0FFF738FDF6
:100A60004FF0FF30CEE74FF490552A4600215B4807
:100A7000008800F0B8F969A0FFF72AFD002400BF44
:100A800001215648008800F073F90546142000F053
:100A9000B7F9641C05F0200008B9962CF0D31F218B
:100AA0004E48008800F064F9054605F01C00042853
:100AB00017D0082809D014280DD0182816D14FF4C3
:100AC000904664A0FFF704FD15E04FF480466FA048
:100AD000FFF7FEFC0FE04FF400667AA0FFF7F8FC8A
:100AE00009E0002685A0FFF7F3FC04E00126914809
:100AF000FFF7EEFC00BF00BF00221146012001F00D
:100B000001FB28B98CA0FFF7E3FC4FF0FF3079E739
:100B10004FF4805200213148008800F064F9914977
:100B2000002001F0B5FC8F4840798E4909798D4A43
:100B3000D278CDE9002102908A4883784278017802
:100B40008948FFF7C5FC4FF4E00001F08FF94FF43E
:100B5000602001F08BF901F0EDF98448FFF7B8FC53
:100B600000204FE7E08B00085B4C414E38373230B5
:100B7000204472697665725D204572726F723A2008
:100B8000454E455420736F667477617265207265B7
:100B9000736574206661696C6564210D0A0000004C
:100BA0005B4C414E38373230204472697665725D55
:100BB000204572726F723A20454E45542050485974
:100BC00020534D4920636C6F636B20636F6E6669C1
:100BD00067206661696C6564210D0A0008000020C9
:100BE0005B4C414E38373230204472697665725D15
:100BF000204572726F723A204C414E3837323020A5
:100C000050485920536F6674205265736574207480
:100C1000696D656F7574210D0A0000005B4C414ED3
:100C200038373230204472697665725D20576169C9
:100C300074696E6720666F72205048592041757440
:100C40006F2D4E65676F74696174696F6E2E2E2EFD
:100C50000D0A00005B4C414E383732302044726937
:100C60007665725D204E6574776F726B2053706588
:100C700065643A203130304D6270732C20447570B9
:100C80006C65783A2046756C6C0D0A005B4C414EE1
:100C900038373230204472697665725D204E657453
:100CA000776F726B2053706565643A203130304D38
:100CB0006270732C204475706C65783A2048616CC2
:100CC000660D0A005B4C414E383732302044726961
:100CD0007665725D204E6574776F726B2053706518
:100CE00065643A2031304D6270732C204475706C0D
:100CF00065783A2046756C6C0D0A00005B4C414EDD
:100D000038373230204472697665725D204E6574E2
:100D1000776F726B2053706565643A2031304D6295
:100D200070732C204475706C65783A2048616C664D
:100D30000D0A0000D88C00085B4C414E3837323029
:100D4000204472697665725D204572726F723A2036
:100D5000656E65745F696E6974206661696C65644F
:100D6000210D0A000A000020948C00083C8B00082A
:100D700038B504460D46002000906B462A462146B1
:100D800001F00AFCBDF8000038BD70B506460D46FE
:100D9000002401F0B7FC0446012C01D8002070BDEE
:100DA000AC4203D901F058FC0020F8E72146304658
:100DB00001F0C6F8012801D1A0B2F0E70020EEE76B
:100DC00070B504460D4604B115B94FF0FF3070BD43
:100DD0002946204601F030F9012801D10020F6E72C
:100DE0004FF0FF30F3E7F8B504460D46164600967F
:100DF0006B462A462146022001F0CEFBF8BD0000DA
:100E00000349086000BF024909680029FBD1704707
:100E10000000002006480068401C0549086005489D
:100E2000006820B103480068401E0249086070470E
:100E3000040000200000002070B504460D4600BFED
:100E400014B900BF00BF70BD00BF206A58B1206A4E
:100E50000078082807D12868216A096B884202D1E6
:100E6000204600F06BF900BFEDE700002DE9FC41E2
:100E7000064600BF1EB900BF00BFBDE8FC8100BF31
:100E8000346A00BF14B900BF00BFF6E700BF206D91
:100E9000401C70B1206D1E303C21B0FBF1F5B5F562
:100EA000803F01D34FF6FF752585208D08B90120BD
:100EB0002085606D401C70B1606D1E303C21B0FB20
:100EC000F1F5B5F5803F01D34FF6FF756585608D6F
:100ED00008B90120608504F1340008B9002000E061
:100EE000606B01900198C0B9019803F0F3FE070E02
:100EF0007F2F05DC4FF07F4002F09BF901900BE063
:100F0000C02F05DB6FF0FF0002F093F9019003E0C2
:100F1000164802F08EF9019000BF04F1380008B9BC
:100F2000002000E0A06B0090009848B9206B019968
:100F300008400090012002F07CF9009908430090DD
:100F400004F13001304603F06DFE01A9304603F094
:100F5000A5FE6946304603F05FFE304603F0A4FE6E
:100F60000A21204600F0D0FD00BF86E70000FFFF09
:100F70002DE9F04105462C6A0821204600F0C4FD09
:100F8000002204F13001284601F070FD0746607828
:100F9000401C60704FF4FA7606F2F310314690FB75
:100FA000F1F0E084BDE8F08110B50F48046817E067
:100FB000206AA0B1206A418D481E226A508501290D
:100FC00003D1204600F046FE09E0206A018D481E4C
:100FD000226A1085012902D1204600F02BFE2468E8
:100FE000002CE5D110BD00003C00002070B5064685
:100FF00000BF26B900BF00BF6FF0090070BD00BF81
:10100000346A00BF24B900BF00BF6FF00800F5E7E5
:1010100000BF00BFE06908B100BF00BF00BF00BF54
:10102000206A08B100BF00BF00BF00224FF49A71D0
:10103000104603F067FEE061E06910B94FF0FF3041
:10104000DCE700BFE0694089B0F59A7F01D200BFBC
:1010500000BF00BF607820B936480068401C3549A1
:101060000860344800686060E069406820620120E0
:10107000216A0870216A48700620216A8870002061
:10108000216AC870606802F0D4F8216A48600020C4
:10109000216A0881216A4881216AC86020780A286B
:1010A00005D02078052802D02078042802D1706865
:1010B000216AC8600020216A0861216A4861216AAA
:1010C000886100250DE096F82400A84203DD06F1B2
:1010D0002500405D00E00020216A1C314855681C55
:1010E00085B2102DEFD3002505E00021206A2C30B9
:1010F0004155681C85B2402DF7D3002505E000213D
:10110000206A6C304155681C85B2802DF7D30A489F
:1011100002F08FF8216AC1F8EC000020A0840025BD
:1011200004E0206AF0304555681C85B2442DF8D3A0
:10113000002063E728000020635382632DE9F84311
:1011400005462C6A00260C21204600F0DDFC2846CE
:10115000FFF74CFF06466EBB01223521204600F00A
:101160002DFA0421204600F040FA042232212046C4
:1011700000F024FA206B03F0ADFD80464146204686
:1011800000F041FA204600F07CFAA28CF03291B2D5
:10119000E06904F04FF843220E49A06807F0B4F864
:1011A000009543230C4AE169A06807F00FFA28462E
:1011B00000F014F86078401C607042F2107707F27B
:1011C000F3104FF4FA7190FBF1F0E0843046BDE883
:1011D000F8830000DE8A0008E28A000870B5054640
:1011E00000BF15B900BF00BF70BD00BF2C6A00BFB3
:1011F00014B900BF00BFF7E700BF00BFE06908B93E
:1012000000BF00BF00BF00BF206A08B900BF00BF19
:1012100000BFE06910B1E06903F07AFF0020E061EF
:10122000206200BFE0E70000F8B505462C6A002602
:10123000354808B9002001E03348006820630621E2
:10124000204600F061FC2846FFF7D0FE0646002E3F
:101250003ED101223521204600F0B0F9012120467F
:1012600000F0C3F902223921204600F0A7F9A98D28
:10127000204600F0EFF904223721204600F09EF9C5
:101280000121204600F0B1F90321204600F0ADF91C
:101290001C21204600F0A9F90621204600F0A5F9FE
:1012A000204600F0EEF9A28CF03291B2E06903F032
:1012B000C1FF43221449A06807F026F80095432394
:1012C000124AE169A06807F081F92846FFF786FF16
:1012D0006078401C60706078062803DA617801202D
:1012E000884000E03C2000EB4001C1EBC0104FF60D
:1012F000FF7101EAC00707F2F3104FF4FA7190FB97
:10130000F1F0E0843046F8BDDE8A0008E28A000889
:1013100010B50F48046818E0206AA8B1206AC08C94
:10132000012805DD206AC08C401E216AC8840BE0BC
:10133000206AC08C012807D1206AC08C401E216A17
:10134000C884204600F096FC2468002CE4D110BD2F
:101350003C00002010B50446206920B1206903F04C
:10136000E9F900202061606928B1606903F0E2F9C1
:1013700000206061208310BD014608787047014657
:1013800011F8013B180611F8013B40EA034011F83F
:10139000013B40EA032011F8012B1043704770B560
:1013A00003460D4600265869002847D0188B0028B0
:1013B00044DD5A69002114E0505C342806D1881CB1
:1013C00081B208464C1CA1B2165C0AE0505CA842EF
:1013D00001D1501870BD481C81B2505C401C0844BB
:1013E00081B2188B884202DD505CFF28E4D126B31D
:1013F000012E04D1186900F16C0280240AE0022E4B
:1014000004D1186900F12C02402403E0186900F1AE
:101410002C02C02400210AE0505CA84201D15018DF
:10142000D8E7481C81B2505C401C084481B2A142FC
:1014300002DA505CFF28EFD100BF00BF0020C9E7EF
:101440002DE9F04107463C6A00206063A063E06339
:1014500033212046FFF7A3FF05461DB1A81CFFF767
:101460008EFFE0643A212046FFF799FF054625B13B
:10147000A81CFFF784FF206502E0E06C40082065AF
:101480003B212046FFF78BFF054625B1A81CFFF73F
:1014900076FF606501E0E06C60652069103008B996
:1014A000002001E020690069206301212046FFF748
:1014B00076FF054635B1A81CFFF761FF064601F02F
:1014C000B8FE606303212046FFF769FF054635B18A
:1014D000A81CFFF754FF064601F0ABFEA0631C21D9
:1014E0002046FFF75CFF054635B1A81CFFF747FF14
:1014F000064601F09EFEE06306212046FFF74FFFFF
:101500000546F5B1681CFFF737FF80082064206CA2
:10151000022801D90220206400260EE0022101EBFE
:1015200086014819FFF72BFF804601F082FE04F187
:10153000440141F82600701CC6B2206CB042EDD8C0
:1015400000BFBDE8F081000070B50446256A204662
:1015500003F056FB0949204603F064FB0749204687
:1015600003F05AFB0549204603F098FB0C2128465E
:1015700000F0CAFA2046FFF757FE70BDDE8A000869
:101580002DE9F04105462C6A36212046FFF707FF7A
:1015900006468EB1B01CFFF7F2FE074601F049FE89
:1015A000E0622069103008B9002001E0206900697C
:1015B0002063284600F020FABDE8F08110B500BF96
:1015C000838C9B1C1344442B01D900BF00BF00BF78
:1015D000848C631C8384036AF0331955848C631CE8
:1015E0008384036AF0331A5510BD00BF828C442AED
:1015F00001D300BF00BF00BF838C5A1C8284026AE3
:10160000F032D154704710B500BF828C121D442AAD
:1016100001D900BF00BF00BF0B0E848C621C828406
:10162000026AF0321355C1F30743848C621C828432
:10163000026AF0321355C1F30723848C621C828442
:10164000026AF0321355848C621C8284026AF03282
:10165000115510BD10B500BF828C921C442A01D9CF
:1016600000BF00BF00BF0B0A848C621C8284026A28
:10167000F0321355848C621C8284026AF032115558
:1016800010BD00BF10B900BF00BF704700BF00BF52
:10169000016A09B900BF00BF00BF00BF818C4429A7
:1016A00001D300BF00BF00BFFF22838C591C81847F
:1016B000016AF031CA540DE000BF818C442901D386
:1016C00000BF00BF00BF0022838C591C8184016AC7
:1016D000F031CA54818C4429EED390F8241001F0E3
:1016E00003010029E8D100BFCFE70000F8B50546A7
:1016F0002C6A0421204600F007FA2846FFF776FC02
:1017000006464EBB012235212046FFF757FF032135
:101710002046FFF76AFF022239212046FFF74EFFDD
:10172000A98D2046FFF796FF2046FFF7AAFFA28C5F
:10173000F03291B2E06903F07DFD43221249A068C6
:1017400006F0E2FD00954323104AE169A06806F027
:101750003DFF2846FFF742FD6078401C60706078CE
:101760000A2805DA60784FF47A7110FB01F001E085
:1017700042F2107087B207F2F3104FF4FA7190FB47
:10178000F1F0E0843046F8BDDE8A0008E28A000805
:101790002DE9F05F82461746D046D8F82040D7F8AA
:1017A00004B0E7609BF80000022800D067E0002644
:1017B0000AE008F12500815D0BF11C00805D81428B
:1017C00000D05CE0701CC6B298F82400B042F0DC97
:1017D000DBF8040003F07EFA6168884200D04EE036
:1017E000204600F08BFA00B149E035212046FFF792
:1017F000D6FD8146B9F1000F00D140E009F10200A9
:10180000FFF7BAFD0546052D1AD12078012808D129
:101810004046FFF715FE0020E0844046FFF7A8FB96
:101820002CE02078032805D02078042802D02078E6
:10183000052823D10020E0844046FFF717FB1DE078
:10184000062D11D12078032808D02078012805D052
:101850002078042802D02078052805D10020E084D3
:101860004046FFF771FE09E0022D07D120780628D7
:1018700004D10020E0844046FFF782FE00BF2046EE
:10188000FFF768FD384603F043FC0020E060BDE848
:10189000F09F0000F8B505462C6A0D21204600F0A7
:1018A00033F90020E06260632063E063A063606559
:1018B0002065E06420642846FFF798FB064616BBC7
:1018C000012235212046FFF779FE07212046FFF748
:1018D0008CFE2046FFF7D5FEA28CF03291B2E06973
:1018E00003F0A8FC432204F12C01A06806F00CFDD3
:1018F0000095432304F12C02E169A06806F066FE1E
:101900002846FFF76BFC6078401C607060780A28FE
:1019100005DA60784FF47A7110FB01F001E042F2D1
:10192000107087B207F2F3104FF4FA7190FBF1F0E8
:10193000E084284603F064F90649284603F072F96A
:101940000449284603F068F90249284603F0A6F93D
:101950003046F8BDDE8A0008F8B505462C6A052138
:10196000204600F0D1F82846FFF740FB06465EBB54
:10197000012235212046FFF721FE03212046FFF7F3
:1019800034FE022239212046FFF718FEA98D204699
:10199000FFF760FE2046FFF774FEA28CF03291B292
:1019A000E06903F047FC432204F12C01A06806F033
:1019B000ABFC0095432304F12C02E169A06806F01A
:1019C00005FE2846FFF70AFC6078401C60706078CE
:1019D0000A2805DA60784FF4FA6110FB01F001E0A3
:1019E00044F6206087B207F2F3104FF4FA7190FBCF
:1019F000F1F0E0843046F8BD2DE9F84305462C6A45
:101A00000121204600F080F82846FFF7EFFA06464D
:101A1000002E58D1012235212046FFF7CFFD0321AA
:101A20002046FFF7E2FD022239212046FFF7C6FDDE
:101A3000A98D2046FFF70EFE042232212046FFF733
:101A4000BDFD206B03F046F9804641462046FFF776
:101A5000DAFD042236212046FFF7B0FDE06A03F0EC
:101A600039F9804641462046FFF7CDFD0422372153
:101A70002046FFF7A3FD01212046FFF7B6FD032115
:101A80002046FFF7B2FD1C212046FFF7AEFD0621E0
:101A90002046FFF7AAFD2046FFF7F3FDA28CF032A7
:101AA00091B2E06903F0C6FB00954323144AE16953
:101AB000A06806F08BFD43221249A06806F024FCC2
:101AC0002846FFF78BFB6078401C60706078062822
:101AD00003DA61780120884000E03C2000EB4001FF
:101AE000C1EBC0104FF6FF7101EAC00707F2F31017
:101AF0004FF4FA7190FBF1F0E0843046BDE8F883D2
:101B0000E28A0008DE8A000802788A4202D0017068
:101B1000002242707047000070B50546002600BFE5
:101B200025B900BF00BF6FF0090070BD00BF2C6A6F
:101B300095F82E0020F0080085F82E00A88DB0F54D
:101B4000107F02DA4FF0FF30EFE74CB9582002F077
:101B50005FFE044614B94FF0FF30E6E72C6209E05F
:101B6000A06810B1A06806F011FDE06810B1E0684F
:101B700003F0CEFA58212046FEF74FFB06F0F4FCA6
:101B8000A060A06838B9204602F0D4FD00200446C9
:101B90002862401EC9E744221049A06806F07AFB7B
:101BA00043220E49A06806F0AFFB2A460C49A06804
:101BB00006F0E8FC2846FFF737FB06462EB128461C
:101BC00000F010F84FF0FF30AFE795F82E0040F02E
:101BD000080085F82E003046A7E70000DE8A0008DE
:101BE0009117000870B505462C6A00BF15B900BFF3
:101BF00000BF70BD00BF95F82E0020F0080085F8EA
:101C00002E00ACB1A06820B1A06806F0BFFC002097
:101C1000A060E06820B1E06803F07AFA0020E0609C
:101C20002046FFF797FB204602F084FD0020286243
:101C300000BFDEE770B505462C6A2078012805D084
:101C400020780A2802D02078052802D12846FFF7FC
:101C500083FE70BD70B505462C6A2078012805D03A
:101C600020780A2802D02078052802D12846FFF7DC
:101C70003DFD70BD70B505462C6A20780C2802D059
:101C80002078062803D12846FFF7CEFA35E02078E1
:101C900001280DD16078052803DC2846FFF7ACFE4B
:101CA0002BE02846FFF7F6FD2846FFF7BDFA24E0B3
:101CB000207808280AD16078012803DC2846FFF73D
:101CC00057F91AE02846FFF7D1F816E020780528E2
:101CD00003D12846FFF740FE0FE0207804280CD1FE
:101CE0006078082803DC2846FFF700FD05E0284659
:101CF000FFF7D0FD2846FFF797FA70BD70B5044690
:101D000000BF24B900BF00BF6FF0090070BD00BF65
:101D100000BFE06820B900BF00BF6FF00800F5E722
:101D200000BF2046FFF716FBE0680089F0280CD9B9
:101D3000E0680089F0382083208B02F069FD606143
:101D4000606910B94FF0FF30E0E7F02002F060FD6D
:101D50002061206930B9606902F0ECFC002060610C
:101D6000401ED3E70023F022D4E9030103F083F9F6
:101D7000054600BFF02D01D000BF00BF00BF606965
:101D800068B1228BF0236169E06803F074F90546BD
:101D900000BF208BA84201D000BF00BF00BF0020C1
:101DA000B4E7000000201D4908681D49084040F4C0
:101DB00080301A4908600021184A51609160D16052
:101DC000114688694FF64171084040F08000114685
:101DD00088610021D1611146C96B41F40271D16360
:101DE00010490968104A11430C4AC2F80C111146F7
:101DF000D1F8101141F40311C2F810110B49886990
:101E00000B49084040F00870084988610868094992
:101E100008400948054908607047000000800240FA
:101E20000F8130FD0C8102406000020000900240F2
:101E3000233FDEF87D0000F80060C10210B540F2DB
:101E4000194003F099FB40F2194003F083FB00F0C6
:101E50000BFB10BD08B500210091009002E0009935
:101E6000491E009100990029F9D108BD2DE9F043E0
:101E7000044600210025002600278C46B4F5E00F1B
:101E80000FD12348234B052540F2F4564FF4801719
:101E9000DFF88480C8F81000DFF88080C8F8000000
:101EA0000FE01F481F4B052540F2F456EF0744F2A0
:101EB000F45CDFF86480C8F80C00DFF86C80C8F8C8
:101EC00000004FF00008DFF86490C9F80080DFF8E8
:101ED0006090C9F80080002115E000EB0112176046
:101EE000C2F804C001FB0638C2F80880A5F1010859
:101EF000884506D900EB011808F11008C2F80C80DB
:101F000000E0D060491CA942E7D3BDE8F08300009F
:101F10000C010020201F0020009002401000002033
:101F2000BC0000205C010020140000201C000020E8
:101F30001800002000B500F04FFC00F07BFB00BD56
:101F400030B503460C46002100223848006800687E
:101F500000F0004008B1002030BD002B34D03348E1
:101F60000068008800F4004060BB304800680088CA
:101F700000F4807030B32D480068008800F40070D1
:101F800000B32A4800680068C0F30D42121F2848B9
:101F9000006800F0007030B124480068007800F05C
:101FA000200000B1121DA24201D90020D4E7002177
:101FB00005E01E4800688068405C5854491C914206
:101FC000F7D301E00020C7E74FF00040174D2D6820
:101FD00028601848406900F0800020B18020154D2D
:101FE00068610020A86011480068808800F4804083
:101FF00028B10E480068C0680C4D286014E00B48FA
:102000000068808800F4004020B10A48C068074D8D
:10201000286009E007480068C0F3840503480068A9
:1020200010302844014D2860012095E7140000205D
:10203000008002400090024070B5034600222F4805
:102040000068006800F0004008B1002070BD40F258
:10205000F450814201D90020F8E74BB1002205E09D
:10206000985C264E3668B668B054521C8A42F7D344
:1020700022480068416021480068006840F04050F4
:102080001E4E366830601D480068006840F0004011
:102090001A4E366830601A48406900F00405184846
:1020A000406900F0200405B92CB145EA0400144E43
:1020B00070610020706011480068006800F48010B2
:1020C00028B10E480068C0680C4E306014E00B4820
:1020D0000068006800F4001020B109480069074E4C
:1020E000306009E006480068C0F3840603480068D1
:1020F00010303044014E30600120A7E7100000206E
:10210000009002402DE9F74F82B081468A460024B4
:10211000002500260027A04600200190834600905D
:1021200000F0CEF948B9C548FFF794FE00F0C8F9B1
:1021300018B9009805B0BDE8F08FFFF733FE4F46A1
:10214000012F5CD100BF01AB01221146002000F03D
:1021500023FABDF8040000F00400019008F1010822
:10216000BDF8040010B9B6488045ECD3B4488045AA
:1021700001D10098DEE74FF000084FF48050019045
:1021800001AB00220121022000F006FA8346BBF1D8
:10219000000F01D10098CDE700BF01AB012211462D
:1021A000002000F0F9F9BDF8040000F020000190D3
:1021B00008F10108BDF8040010B9A1488045ECD32E
:1021C0009F48804501D10098B4E74FF0000801AB6B
:1021D00010220121002000F0DFF9BDF8040000F01A
:1021E000040010B14FF4006700E00027BDF80400C0
:1021F00000F0020000B11DE047F480471AE007F448
:102200000060C008019007F48040BDF8041041EA66
:102210005000019001AB00220121022000F0BCF926
:102220008346BBF1000F01D1009883E76FF07F4038
:10223000FFF710FE8348046824F4B0443C43046074
:102240000AF4806070B17F48006840F480607D4986
:1022500008607D48846924F080640AF0806004434B
:102260007948846177484068049908437549486013
:102270007648007800F00100A8B174484568084627
:1022800004682E4672480440C04306403443084662
:1022900004606D4884692E4624F0C00406F440763C
:1022A00044EA960484616948007800F0020040B175
:1022B0006648866864480468664804403443624857
:1022C00004606248007800F0040040B15F48C668CE
:1022D0005D4804686048044034435B4804605B48E0
:1022E000007800F0080048B158480669564804686C
:1022F0004CF202008443344353480460534800784E
:1023000000F0100040B1514846694F488469534875
:10231000044034434C4884614C48007800F020006D
:1023200098B14A488569484884692E464C4804401B
:10233000C043064034434448846104682E4624F078
:10234000800406F08006344304604048007800F0C2
:10235000400038B13D48C5693A48C4696FF310047C
:102360002C43C4613948007800F08000C0B1374880
:10237000056A344884692E464FF64170044086430E
:102380003443304884613048803004682E4624F05D
:10239000770406F4EE4644EA16242B48C0F8804041
:1023A0002A48008800F4807018B12848406A2549FE
:1023B00088602648008800F4007018B12348806ABD
:1023C0002049C8602148008800F4806048B11F4857
:1023D000C56A1C48446840F2DE7084432C431948A7
:1023E00044601A48008800F4006040B11748056B4B
:1023F000144804681B4804402C43124804601348E6
:10240000008800F4805038B11048456B0D480468CE
:1024100024F440042C4304600C48008800F400506D
:1024200038B10A48856B0748046824F460242C43BB
:1024300004600120009000987CE60000FFFF8F0000
:10244000FFFF04000080024000900240E43C0020B6
:102450007FFFFFFDFFFFFEF8FFC001FFE73FDEFD4E
:10246000FBFFFFFE8FDDFEFF00200849086048608B
:102470008860C860086148618861C8610862486214
:102480008862C8620863486388637047E43C002040
:102490000A794B7942EA0322084B03441A64CA784A
:1024A00012068B7842EA03424B7842EA03220B7809
:1024B0001A43024B03445A647047000000800240F4
:1024C000F8B500262C48056925F01C05012002F00E
:1024D0009DFF04462948844205D32948844202D2FC
:1024E00045F0080526E02648844205D32548844265
:1024F00002D245F00C051DE02248844203D3224855
:10250000844200D216E02048844205D31F4884420A
:1025100002D245F004050DE01C48844202D31C4859
:10252000844202D31A48844202D145F0100501E0EA
:102530003046F8BD104805614FF4004000906B46EE
:1025400000220121022000F027F808B93046F0E708
:102550001048FFF77FFC6B4600220121104600F077
:102560001BF808B93046E4E7BDF8000000F400406D
:1025700000B901263046DCE700800240002D310121
:10258000C00E16020087930300E1F50580D1F00824
:10259000001C4E0EFFFF04002DE9F04104460D46DD
:1025A00000270020DFF884C0DCF810104FF6C37C51
:1025B00021EA0C014FF4F86C0CEA821C4CEA040C82
:1025C0004FF4784808EAC5284CEA080C4CF0010C96
:1025D0004CEA0101022C05D1B3F800C0DFF84C80B1
:1025E000C8F814C0DFF844C0CCF8101000BFDFF802
:1025F0003CC0DCF810C00CF001067F1C1EB1DFF8F7
:1026000030C06745F3D1DFF824C0DCF810C00CF00F
:10261000010CBCF1000F00D101202CB9DFF80CC077
:10262000DCF814C0A3F800C0BDE8F08100800240CF
:10263000FFFF04000648006840F0040004490860F9
:102640000448806940F00200024988617047000038
:1026500000800240009002404FF000402649096887
:10266000086025480068808800F48040E8B123486D
:102670000068A0B121480068C0681F4908601F4871
:102680000068006828B11D48006800681B490860A0
:1026900030E01A4800681030184908602AE01648EF
:1026A0000068C0681449086024E013480068808806
:1026B00000F4004060B11248C0680F4908600F483C
:1026C0000068B8B10D48006800680C49086011E066
:1026D0000B480068C0F384010748006810300844C4
:1026E000054908600548006820B1044800681030BA
:1026F0000249086070470000140000201C00002000
:102700000090024000B5002321480068026802F0F2
:10271000004008B1002000BD02F4004028B902F4D6
:10272000807010B102F4007018B9FFF795FF012016
:10273000F1E702F0200030B102F0010018B1FFF71C
:102740008BFF0120E7E702F00040A8B902F4004047
:1027500090B902F4807078B102F4007060B1C2F3F5
:102760000D431B1F0B48006800F0007068B102F0B9
:10277000200050B11B1D08E007480068401C0649B6
:102780000860FFF769FF0120C5E71846C3E70000AE
:1027900014000020008002402000002010B500211D
:1027A00000200B4B1B6843F00103094C236000BF62
:1027B000074B1B6803F00102491C12B1054B9942FB
:1027C000F6D1034B1B6803F0010303B9012010BDD0
:1027D00000900240FFFF040000B50748006840F089
:1027E00008000549086000F00BF80448806940F4CF
:1027F00000500249886100BD008002400090024004
:1028000010B500220020094B9B6943F48013074C4C
:10281000A36100BF054B9B6903F48011521C11B1E9
:10282000034B9A42F6D301B9012010BD009002403B
:10283000FFFF04002DE9FC4706468846174600BF07
:102840001EB900BF00BFBDE8FC8700BF78892A28F9
:1028500003D2384602F05CFCF5E77C68012000F00A
:10286000F5FCE189884214D140F2046000F0EEFCEE
:10287000618A88420DD14FF4006000F0E7FC218AA4
:10288000884206D140F6060000F0E0FCA1898842AB
:1028900003D0384602F03CFCD5E7E0690190D4F85B
:1028A00026000090706810B94FF0000907E000980A
:1028B0007168884201D1012000E000208146B9F111
:1028C000000F07D0012304F1160201A9304605F0DC
:1028D000F9FE06E0002304F1160201A9304605F0D6
:1028E000F1FEA08A00F0B2FC012802D0022837D104
:1028F00031E0B9F1000F2CD0022000F0A7FCA0823B
:10290000E069C4F826007068E06100BF96F8240012
:10291000062801D000BF00BF00BF062512E0681ED8
:10292000C5B204F11600415D0A3041550A38405DD8
:10293000605518F8051004F11600415518F80510F7
:10294000A01D4155002DEADC39463046B26990475A
:1029500000E000BF05E001A93046FEF76DFA00E097
:1029600000BF00BF384602F0D3FB00BF6BE770B575
:1029700004460E4600BF14B900BF00BF70BD00BFC3
:102980007568D5F81A00A1680840D4E90112114011
:10299000884200D0F2E70023AA1D05F11A01204663
:1029A00005F090FE00BFE9E72DE9FC4104460E4624
:1029B00015460E21304602F0F7FB18B16FF001000A
:1029C000BDE8FC8100272146284600F0FDFD08B146
:1029D000254F40E04FF0704002F07CF9296800EA92
:1029E00001084FF0604002F075F980451DD10120CB
:1029F0008DF8000000208DF801005E208DF80200A7
:102A0000286802F067F9C0F306408DF803002868D3
:102A100002F060F9000A8DF80400286802F05AF903
:102A2000C0B28DF805006F4615E02868A16808401F
:102A3000D4E901121140884207D0E06810B104F1D6
:102A40000C0502E06FF00300BAE732462946204643
:102A500000F00CF8B4E73B4604F12502314620466D
:102A600000F05CF9ACE70000E68A00082DE9F84FB9
:102A700081460F46164609F1250A4FF0FF300090B7
:102A80004946384600F0A0FD78B94FF0704002F09A
:102A900021F9396800EA01054FF0604002F01AF9A7
:102AA000854202D00FB1386818B96FF00900BDE84F
:102AB000F88F0121384600F00FFA0446002C01DAA5
:102AC0002046F4E704EB8400554901EB8000807B4D
:102AD00030B9012004EB8401514A02EB8101887373
:102AE00000BF04EB84004E4901EB8000807B01288D
:102AF00008D004EB840001EB8000807B022801D029
:102B000000BF00BF00BF04EB8400454901EB80001B
:102B1000807B012800D02EB93946484600F0E8F8FD
:102B2000009000BF002E79D004EB84003C4901EBFB
:102B30008000807B02280CD104EB840001EB800034
:102B400000F1080352463146484600F0E7F800908D
:102B500064E004EB8400324901EB8000807B0128B3
:102B60005CD14FF0000B354610E000BF6889298921
:102B7000884203D1286808B100BF00BF00BF287B8E
:102B8000012802D04FF0010B02E02D68002DECD19E
:102B900000BFBBF1000F10D029890022032002F0F2
:102BA000B1F805466DB13146284602F0F6F940B15C
:102BB000284602F0ADFA002503E03546284602F02B
:102BC00091FB55B3062001F0A7FF8046B8F1000F36
:102BD0001FD00020C8F80000C8F8045004EB84009F
:102BE0000F4951F8200060B104EB84010C4A52F8FF
:102BF000210000E0006801680029FBD1C0F80080D6
:102C000004E004EB8400064941F820800020009095
:102C100002E0284602F07CFA00BF00BF009846E7B9
:102C2000D8C900202DE9F84F0746884691469A46B4
:102C3000DDF828B00020009000222A21032002F0B5
:102C400061F806461EB94FF0FF30BDE8F88F00BFAF
:102C500070892A2801D200BF00BF00BF74680D9898
:102C600000F0F4FAA08200BF97F82400062801D0F3
:102C700000BF00BF00BF062512E0681EC5B21AF8EB
:102C8000051004F1160041550B98415D04F1200038
:102C9000415519F80500605518F80510A01D41555B
:102CA000002DEADCDBF80000E0610C980068C4F855
:102CB0002600012000F0CAFAE0814FF4006000F025
:102CC000C5FA208240F2046000F0C0FA608240F64B
:102CD000060000F0BBFAA08131463846BA69904739
:102CE0000090304602F014FA00260098ADE700008C
:102CF0007FB504460D460121064A201D04F1250337
:102D00008DE825000391044A19462046FFF78AFF03
:102D100004B070BDEC8A0008E68A00082DE9F0478F
:102D200005460F46904699467E6800BF95F82400F8
:102D3000062801D000BF00BF00BF062408E0601EC7
:102D4000C4B219F80400305518F80410B01D01552C
:102D5000002CF4DC4FF4006000F078FAB0813946C2
:102D60002846AA699047BDE8F087000010B5002406
:102D700046E004EB8400244901EB8000C07B401C4A
:102D800004EB8401204A02EB8101C87304EB840048
:102D9000114601EB8000807B022806D104EB840001
:102DA00001EB8000C07BF0280EDA04EB84001649AA
:102DB00001EB8000807B012820D104EB840001EB33
:102DC0008000C07B022819DB04EB84000E4951F817
:102DD000200060B104EB84010B4A52F8210000F09E
:102DE0008FF9002004EB8401074A42F821000020FB
:102DF00004EB8401044A02EB81018873601CC4B2B5
:102E00000A2CB6DB10BD0000D8C9002070B50446FE
:102E10000D466668B08900F019FAB0F5006F03D06E
:102E2000A0F60600F8B917E021462846FFF79FFDF7
:102E30006FF00D01204602F0B7F940B100BF00BFAE
:102E400000BF00BF204602F063F9002403E02946DA
:102E5000204600F087FC0BE0224605F125012846BC
:102E6000FFF7E8FC04E0204602F052F9002400BF1E
:102E700000BF002070BD000010B5044600BF0CB9B3
:102E800000BF00BF00BF652084F82F003021095526
:102E9000044860610448A061204601F077F90020F1
:102EA00010BD0000A92900080142000870B50446C1
:102EB000204601F07BF9064616B94FF0FF3070BD91
:102EC000214630462269904705461DB1304602F042
:102ED0001FF900262846F2E72DE9FC5F05460F465C
:102EE0004FF00A08C1460A260024A346002001909C
:102EF000B2460090CDB17748007800EB800076496B
:102F000001EB8000807B02280FD128687149097885
:102F100001EB8101704A02EB81014968884204D1CA
:102F20006C48007840B2BDE8FC9F002473E00A2E94
:102F300008D104EB8400684901EB8000807B08B96C
:102F400066B266E004EB8400634901EB8000807B9D
:102F5000012836D165B1286804EB84015E4A02EB92
:102F600081014968884203D15A48047060B2DAE7A7
:102F700004EB8400584951F8200088B104EB840028
:102F800001EB8000C17B0098814242DB4FFA84FA5A
:102F900004EB8400504901EB8000C07B009038E0D6
:102FA00004EB84004C4901EB8000C07B584530DBCA
:102FB0004FFA84F804EB840001EB800090F80FB026
:102FC00027E004EB8400444901EB8000807B022869
:102FD0001FD165B1286804EB84013F4A02EB8101EF
:102FE0004968884203D13B48047060B29BE704EB18
:102FF0008400394901EB8000C17B0198814208DBE4
:103000004FFA84F904EB8400334901EB8000C07B64
:103010000190601CC4B20A2C89DB0A2E02D107F091
:10302000010010B107F0020010B14FF0FF307AE755
:103030000A2E01DAF4B22AE0B9F10A0F0BDA09F02C
:10304000FF0400BF04EB8400234951F8200008B1BD
:1030500000BF00BF1BE0B8F10A0F02DA08F0FF045E
:1030600015E0BAF10A0F0FDA0AF0FF0404EB84014D
:10307000194A52F8210000F043F8002004EB8401C3
:10308000154A42F8210002E04FF0FF304BE700BF45
:103090000A2C01DB00BF00BF00BF002004EB84014D
:1030A0000D4A02EB8101887345B105B900E028683B
:1030B00004EB8401084A02EB81014860002004EB24
:1030C0008401054A02EB8101C8730248047060B2B2
:1030D00029E70000A2000020D8C9002070B50446EE
:1030E0000D46E1B2054805F0DDFB00BF07210348AE
:1030F00005F095FC0028F9D0204670BD0010014075
:1031000070B5044600BF0CB900BF00BF00BF00BFD0
:10311000606808B900BF00BF00BF0EE02546246804
:1031200000BF686808B900BF00BF00BF686801F051
:10313000EFFF2946062001F0A7FC002CEED170BD60
:10314000F0B503461C6A5D6A00200DE0012686404A
:1031500016403EB187000F26BE40B443860001FAF8
:1031600006F63443461CB0B20828EFD3082011E01D
:103170000126864016405EB1A0F10806B7000F2672
:10318000BE40B543A0F10806B60001FA06F6354385
:10319000461CB0B21028EBD31C625D62F0BDC16268
:1031A0007047F0B504460D4616462168E2680020D7
:1031B00019E0012787401F409FB14FEA400C0327C9
:1031C00007FA0CF7B943470005FA07F739434FEA06
:1031D000400C032707FA0CF7BA43470006FA07F733
:1031E0003A43471CB8B21028E3D32160E260F0BD37
:1031F000F0B50C461546012C03D146681E434660C7
:1032000002E046689E434660826800210DE0012688
:103210008E401E403EB14F000326BE40B2434E00DA
:1032200005FA06F632434E1CB1B21029EFD3826084
:10323000F0BD0146080601F47F4240EA022001F495
:103240007F0240EA122040EA1160704701460806FA
:10325000000C40EA1120704770B505460C46224626
:103260000321284600F0E6F870BD2DE9FF5F054612
:1032700089466C68208801F033FDC0F303204FEAD3
:103280008008C8F10001284601F08EFF10B9288996
:10329000042800D2C5E0686890F800A0BAF1080FD1
:1032A0006FD101274FF0704001F014FD216900EA51
:1032B000010B4FF0604001F00DFD834500D1002768
:1032C000494604F1100000F07FF900B1002727B94A
:1032D000284601F01DFFBDE8FF9F2889082800D27D
:1032E0009FE0284600F0F4F818B1284601F010FFDE
:1032F000F1E72221284601F057FF88B341462846CE
:1033000001F052FF20B100BF00BF00BF00BF8CE042
:1033100029890022022001F0F5FC074607B984E064
:1033200000BF798908F10800814201D200BF00BFC7
:1033300000BF2946384601F030FE20B100BF00BF73
:1033400000BF00BF71E07C68C8F1000001B23846E0
:1033500001F02AFF28B100BF00BF00BF00BF64E03A
:1033600004E0284601F0D4FE3D460BE06FF0210159
:10337000284601F019FF28B100BF00BF00BF00BF01
:1033800053E048E06E68E06803902069E0600398CD
:103390002061002030704FF2FF70FFF757FF7188F7
:1033A000884208DC4FF40060FFF750FF401C718832
:1033B0000844708006E04FF40060FFF747FF718813
:1033C00008447080208901F08BFCC0B240F47F4734
:1033D0003846FFF73BFF2081002060811421204602
:1033E00000F06CF860814146284601F0DDFE18B11E
:1033F00000BF00BF00BF0DE001200021FF230A46EF
:10340000CDE90109009104F10C01284600F0B2FA5F
:10341000074600BF00E000BF00BF284601F078FE6D
:1034200059E7284601F074FE55E7284601F070FE82
:1034300000BF50E72DE9FC4706460F4690460022A4
:103440002421012001F05EFC05460DB9BDE8FC8792
:1034500000BF6889242801D200BF00BF00BFD6F892
:1034600004906C68277084F801800020A080E080C0
:1034700071686A6802F108001C22FCF7B5FE0020A2
:1034800060806989204600F019F8608001200021E1
:10349000FF2309F10C02CDE90010284600F050FA94
:1034A000284601F035FE00BFD0E770B505460C4652
:1034B00022460B212846FFF7BDFF70BD70B50446BC
:1034C0000D462946204601F04DF8C04380B270BD3C
:1034D0002DE9F041064600240027354617E06989AA
:1034E000686801F03FF80444A0B200EB1444688916
:1034F00000EBD0714910A0EB410139B1C7F10100D7
:10350000C7B2E0B2C4F3072141EA00242D68002DC0
:10351000E5D127B1E0B2C4F3072141EA0024E0433A
:1035200080B2BDE8F0812DE9F05F80460E46174677
:103530009946DDF828B00024A246454618E069897E
:10354000686801F00FF80444A0B200EB14446889E5
:1035500000EBD0714910A0EB410141B1CAF101006B
:1035600000F0FF0AE0B2C4F3072141EA00242D680D
:10357000002DE4D1BAF1000F04D0E0B2C4F307216A
:1035800041EA0024308880B2044430684FF6FF716D
:1035900001EA10400444388880B20444386801EAE3
:1035A000104004444846FFF751FE04445846FFF7D4
:1035B0004DFE0444A0B200EB1444A0B200EB14444E
:1035C000E04380B2BDE8F09F30B503461A68D043AF
:1035D00000B10AB9012030BD91F82E0000F00200C0
:1035E00008B90020F7E74868904201D10020F2E7CF
:1035F00018688C682040D1E901452C40A04208D1D0
:10360000886822EA00008D68EC43A04201D10120C5
:10361000E1E70020DFE700002DE9F74F86B088469C
:10362000B8F82C00059014200190022200211046C9
:1036300001F068FB054625B94FF0FF3009B0BDE841
:10364000F08F059868812881454820F00300686064
:103650006C680698142241682046FCF7C5FDE08896
:1036600001F03EFB0746C7F30C00049007F400503E
:10367000039006980089143886B20599A1F11400C8
:10368000C11700EB5171C1F3CF0B61E005981438FD
:10369000B04201DB012000E0002002900498C0F35A
:1036A0000C00039940EA0107029808B947F4005753
:1036B000029808B1304601E04FEACB001FFA80FAC9
:1036C000524604F11401019B069801F0D4FC0199C3
:1036D000084480B201903846FFF7B8FDE0800AF157
:1036E000140188B2FFF7B2FD6080002060811421D0
:1036F0002046FFF7E3FE6081029828B106F114002E
:1037000081B2284601F096FD00221146022001F008
:10371000F9FA8146B9F1000F0DD02946484601F06B
:1037200028FCD8F8143049464046089A984748463D
:1037300001F0EEFC05E0284601F0EAFC4FF0FF3016
:103740007CE7A6EB0A0086B20498584480B2049045
:10375000002E9BD1284601F0DBFC00206EE7000024
:10376000FBC300202DE9F05F06460F464FF0010A2B
:103770007468208801F0B4FA0421B1EB203F05D031
:10378000304601F0C5FC0020BDE8F09F208801F024
:10379000A7FAC0F303284FF6FF7000EA8808608894
:1037A00001F09EFA81467089404502DB3089484528
:1037B00004DA304601F0ACFC0020E5E74146204643
:1037C000FFF77CFE20B1304601F0A2FC0020DBE7D1
:1037D0004946304601F02EFD4FF0010B3D4600BF3B
:1037E000284601F0EDF970B1281D60B1686850B14C
:1037F00020696968884205D0294604F11000FFF766
:10380000E3FE00B10DE0BBF1000F04D04FF0000B60
:103810004848056800E02D68BD4200D12D68002DA4
:10382000DED100BF7DB9208901F05AFAC0B211285B
:1038300009D104EB0801488801F052FA442802D16A
:103840003D464FF0000ABAF1000F17D0394604F197
:103850000C00FFF7B9FE60B94FF0704001F03AFA82
:10386000E16800EA010B4FF0604001F033FA834554
:1038700004D1304601F04CFC002085E725B93046E4
:1038800001F046FC00207FE743F6FF70FFF7DEFC07
:10389000E188084038B1304600F0F4F806460EB929
:1038A000002071E7746824480760244804603946A2
:1038B000304601F077FDA8BB208901F011FAC0B2B3
:1038C00001280DD0062806D011280ED139463046E1
:1038D00004F04CFD25E03946304602F039FB20E08B
:1038E00039463046FFF7C1FC1BE0394604F11000B1
:1038F000FFF76AFE88B94FF0704001F0EBF92169DB
:1039000000EA010B4FF0604001F0E4F9834504D078
:10391000746002213046FFF79FFC304601F0F8FB4F
:1039200000BF00BF0020044908600449086000BFD0
:103930002AE700003C0000209000002094000020B6
:103940002DE9FE4F05460E4614461F46DDE90C895B
:10395000204600F00FFBB0F1000A02D1001FBDE8C5
:10396000FE8F3B462246314628468DE8000700F090
:1039700001F8F4E72DE9F05F05460F4690469A46B8
:103980000C9EB8F1000F65D04FF0140914212846A1
:1039900001F00AFC18B16FF00100BDE8F09F6C68FF
:1039A00000BF6889142801D200BF00BF00BF208972
:1039B00001F096F96AF31F208346FFF747FC208148
:1039C000208901F08DF901120B9840EA012B58462D
:1039D000FFF73CFC2081B8F1000F01D1002001E08D
:1039E000D8F800002061CB464FEAE97109EB9171EC
:1039F00089104FF4804242EA01210A9A114388B2A9
:103A0000FFF724FC20802889FFF720FC608000203D
:103A1000E0801B480088FFF719FCA0801848008848
:103A2000401C174908800FB1386830B9301D08B9FB
:103A3000002000E07068E06004E00FB9002000E0C2
:103A40003868E0600020608149462046FFF736FD77
:103A5000608102E06C6804F11008B08D48B12889DB
:103A6000B18D884205DD424631462846FFF7D4FD38
:103A700093E7424629463046736998478DE7000030
:103A8000980000202DE9FC5F804600200090D8F8C7
:103A90000450288801F024F9C0F303201421B1EB6D
:103AA000800F00D0B1E0E88801F01AF9C0F30C00F3
:103AB0004FF6FF7101EAC00A688801F011F98346E8
:103AC000288801F00DF9C0F30320ABEB800080B231
:103AD0000190404601F058FA06464E480188881980
:103AE0000A280ADD3146284600F006FA20B1494886
:103AF000008830440A2800DD87E04748046812E067
:103B00006069E968884209D1A0692969884205D1BC
:103B1000A089A988884201D1012000E0002000B1DD
:103B200003E000942468002CEAD100BF34B9314688
:103B3000284600F061F9044694B966E0E88801F08F
:103B4000CFF8C0F30C0058B9E08901F0C9F8C0F310
:103B50000C0028B11422294604F10800FCF744FBAC
:103B60002C48008830442B490880E88801F0B8F8D8
:103B700000F4005030B9A07F40F00100A077019818
:103B80005044A0834146204600F048F8D0B3A08BB3
:103B90001430A08360684068076860684568142234
:103BA00004F108012846FCF71FFBA08BFFF74EFB32
:103BB00068800020E880688114212846FFF77EFC99
:103BC0006881D4F804800CE0D7F804906FF01301FA
:103BD000384601F0E9FA3946404601F0A2F9D9F831
:103BE0000070002FF0D12046009900F0EBF840461D
:103BF00001F0CAF907490988081A064908804046B1
:103C0000BDE8FC9FFFE70020FAE7404601F080FA9C
:103C10000020F5E7A00000209C0000202DE9FE4FC9
:103C200006460F46002501200090D7F804A0BAF8F8
:103C3000020001F055F88346BAF8000001F050F890
:103C4000C0F30320ABEB800080B20190BAF806000D
:103C500001F046F8C0F30C004FF6FF7101EAC00016
:103C6000029000BF00BF7C68002020600298A08006
:103C7000DDE901100844E080D6F804902EE0D9F880
:103C80000480A088B8F80410884210DAC4F80090C4
:103C90005DB1A088E988884204DBE088B8F80410A8
:103CA000884200DD7EE02F6000E0776019E0A088A8
:103CB000B8F80410884200D174E0A088B8F8061063
:103CC000884200DA6EE035B1E888B8F8041088421E
:103CD00001D000200090D8F800904546B9F1000FBF
:103CE000CDD100BFB9F1000F17D17DB100BFE88879
:103CF000A188884201DD00BF00BF00BF2F60E888B7
:103D0000A188884209D00020009006E000BF7068BA
:103D100008B100BF00BF00BF7760B07F00F00100B6
:103D2000E8B30098C0B370684068808810B1002084
:103D3000009031E02546D4F800900BE0D9F804401B
:103D4000E888A188884202D00020009005E025463E
:103D5000D4F80090B9F1000FF0D100BF0098D8B1AD
:103D600000BF706808B900BF00BF00BF00BF706827
:103D70004068A04201D100BF00BF00BF00BF206863
:103D800008B100BF00BF00BF00BFE088B18B884210
:103D900001D000BF00BF00BF0098BDE8FE8FFFE765
:103DA0000020FAE7384601F0EFF805490988081ABB
:103DB00003490880384601F0ABF90020EDE7000028
:103DC000A000002070B504460D460A480068A042D5
:103DD00003D108492068086006E000BF0DB900BFA4
:103DE00000BF00BF206828602146052000F04CFE7F
:103DF00070BD00009C00002070B505460E460520F1
:103E000000F08AFE044664B93146284600F074F892
:103E1000B04203DB052000F07FFE04460CB9002011
:103E200070BD20212046FCF7F8F90320E077064812
:103E300000682060044804601422294604F1080048
:103E4000FCF7D2F92046EBE79C0000202DE9F04773
:103E500004460F46002600BFA74201D100BF00BFA5
:103E600000BF37B100BF3868A04201D000BF00BF1B
:103E700000BF6068D0F80480B8F80400A0B9656895
:103E8000D8F800006060142204F108016868FCF7AB
:103E9000ABF901212846FFF708FB284601F074F82A
:103EA0000644284601F034F965680CE0D5F8048032
:103EB000A946D8F80050484601F066F8064448463E
:103EC00001F026F900BF002DF0D139462046FFF75A
:103ED00079FF00BF07480088B04201DA00BF00BF89
:103EE00000BF04480088801B024908803046BDE8B6
:103EF000F0870000A00000202DE9F05F054689460C
:103F0000002700BF0026B346B246194804681DE0EA
:103F10006069E968884207D1A0692969884203D1AC
:103F2000A089A988884201D0012000E0002048B182
:103F30000AF1010A0EB9264604E0E07FF17F8842CB
:103F400000DC2646206800B1A3462468002CDFD19F
:103F50002EB159463046FFF779FF804647444F451A
:103F600002DABAF1010FCDDC3846BDE8F09F00005F
:103F70009C00002070B50546104804680EE02046FD
:103F800000F01EFE48B12868A1680840D4E901127B
:103F90001140884201D1204670BD2468002CEED12A
:103FA0000748006820B10648006800F009FE08B91B
:103FB0000020F1E702480068EEE700003C00002026
:103FC0004000002010B54FF4406001F0B1FA40F617
:103FD000014001F0ADFA40F6024001F0A9FA41F2C9
:103FE0000E1001F0A5FA4FF4000001F0DDFA0223F3
:103FF000002219464F48FFF7D4F80223032200217C
:104000004C48FFF7F5F802220B214A48FFF798F8D1
:104010000423002202214748FFF7C3F804230322A8
:1040200000214448FFF7E4F804220B214148FFF740
:1040300087F88023002202213E48FFF7B2F8802350
:10404000032200213B48FFF7D3F880220B21394897
:10405000FFF776F80223002219463748FFF7A1F848
:104060000223032200213448FFF7C2F802220B2169
:104070003148FFF765F81023002202212E48FFF790
:1040800090F81023032200212B48FFF7B1F81022EB
:104090000B212948FFF754F820230022022126484B
:1040A000FFF77FF82023032200212348FFF7A0F821
:1040B00020220B212048FFF743F84FF40063002231
:1040C00002211E48FFF76DF84FF400630322002120
:1040D0001A48FFF78DF84FF400620B211748FFF7DD
:1040E0002FF84FF48053002202211448FFF759F8AB
:1040F0004FF48053032200211048FFF779F84FF462
:1041000080520B210D48FFF71BF84FF4005300229B
:1041100002210A48FFF745F84FF40053032200211B
:104120000648FFF765F84FF400520B210348FFF7EC
:1041300007F810BD000002400008024000040240E1
:1041400070B5002415E002212046FCF711FE06465A
:1041500003212046FCF70CFE0546072E07D12B460F
:10416000324621460748FCF7B3F9204670BD601C73
:1041700084B2202CE7DB00210348FCF7A9F90020DA
:10418000F4E700008C8B0008348C000810B504465E
:10419000062084F8240004F12500FCF70BFC40F213
:1041A000DC50A085322084F82E0010BD2DE9F041AE
:1041B00080460025002600274FF4C0610F48FCF719
:1041C000E4FD064616B90020BDE8F0810322314621
:1041D000104600F097FD05466DB12C4609E0628956
:1041E000064BD9196068FBF7FFFF6089384487B236
:1041F0002468002CF3D12846E6E70000A0CA00207E
:104200002DE9F04107460E460025344612E060894C
:104210002844B0F5C06F03DD4FF0FF30BDE8F081FA
:1042200062890A4B58196168FBF7DEFF60892844F0
:1042300085B22468002CEAD129460448FCF7C0FD69
:1042400008B90020EAE76FF00B00E7E7A0D00020F4
:1042500000B587B016A0FCF73BF900F07DF900200F
:10426000FEF7E7FF06900020FEF7E3FF0590002031
:10427000FEF7DFFF049018481849002204ABCDE98F
:104280000021029005AA06A9154800F063FC144815
:1042900000F0B0FC124800F007FD1148FDF73CFCAF
:1042A00010A0FCF715F903F0FFFC07B000BD0000FB
:1042B0000D0A3D3D3D204C7749502054435020533A
:1042C0007461636B20496E697469616C697A696EA7
:1042D00067203D3D3D0D0A000D2E0008792E000897
:1042E000A0D600205B444843505D2052657175653F
:1042F0007374696E672049502061646472657373DA
:104300002066726F6D204448435020736572766555
:10431000722E2E2E0D0A000038B501F03FF904462A
:1043200000BF4148FEF7C2FD0028FAD03F480068B0
:10433000201AFA2803D33D48046003F01DFF3C48CF
:104340000068201A41F28831884203D3384804605B
:10435000FEF70CFD37480068201AB0F5FA7F03D34A
:1043600034480460FCF7D4FF33480068201A4EF646
:104370006021884203D330480460FCF715FE2A48C8
:10438000006A002845D02848006A00780A2840D1F1
:104390002A480078002846D101202849087028A022
:1043A000FCF796F820484068000E00901E484068D0
:1043B000C0F307431C488088C0F307221A480179DC
:1043C0002CA0FCF785F818488068000E009016486D
:1043D0008068C0F3074314480089C0F307221248DD
:1043E000017A2FA0FCF774F80F48C068000E009007
:1043F0000D48C068C0F307430B488089C0F307220B
:104400000948017B31A0FCF763F83BA0FCF760F89A
:1044100009E00A480078012805D100200749087002
:1044200043A0FCF755F838BDA0D60020A40000201A
:10443000A8000020AC000020B0000020B400002044
:104440000D0A3D3D3D3D3D3D3D3D3D3D3D3D3D3DFF
:104450003D3D3D3D3D3D3D3D3D3D3D3D3D3D3D3D8C
:104460003D3D3D3D3D3D3D3D3D3D3D3D3D3D3D3D7C
:10447000000000000D0A5B444843502053756363FD
:104480006573735D204950204164647265737320C5
:104490003A2025642E25642E25642E256400000014
:1044A0000D0A5B4448435020537563636573735D25
:1044B000205375626E6574204D61736B203A202520
:1044C000642E25642E25642E256400000D0A5B44AD
:1044D00048435020537563636573735D204761746F
:1044E0006577617920202020203A2025642E2564DC
:1044F0002E25642E256400000D0A3D3D3D3D3D3DC9
:104500003D3D3D3D3D3D3D3D3D3D3D3D3D3D3D3DDB
:104510003D3D3D3D3D3D3D3D3D3D3D3D3D3D3D3DCB
:104520003D3D3D3D3D3D3D3D0D0A0D0A0000000075
:104530005B444843505D2049502061646472657358
:10454000732072656C6561736564206F72206C6F97
:104550007374210D0A00000010B500F027F900F077
:10456000A9FA10BD2DE9F04180460E4600244546CB
:1045700008E0287807026D1C287807436D1C3C442E
:10458000B01E86B2012EF4DC002E02DD2878070270
:104590003C44A0B200EB1444200C000410B1A0B2C3
:1045A00000EB1444A0B2FEF751FEBDE8F08100001C
:1045B0001CB500240025002601F08EF84FF4E130F0
:1045C00004F074F929A0FBF783FFFCF7FDF918B993
:1045D00031A0FBF77DFF02E039A0FBF779FFFFF781
:1045E00037FE40F6034000F0A3FF802300220121A4
:1045F0004148FEF7D6FD8023022200213E48FEF707
:10460000F7FD32E0FFF788FE00F0C8FF001BB0F5B1
:10461000FA7F06D300F0C2FF044680213648FEF739
:10462000BEFD00F0BBFF401B40F6B83188421CD3F2
:1046300000F0B4FF0546FCF7A5F906462F48406890
:10464000000E2E494968C1F30741CDE900102B48FF
:104650008088C0F30723294802790EB128A000E022
:104660002CA001463248FBF733FFCBE70D0A3D3D56
:104670003D204744333246343730205379737465D4
:104680006D20496E697469616C697A6174696F6ED5
:10469000203D3D3D0D0A00004C414E383730322060
:1046A00045746865726E6574204D6F64756C652025
:1046B000447269766572205265616479210D0A0041
:1046C0004C414E383730322045746865726E6574DF
:1046D000204D6F64756C652044726976657220495F
:1046E0006E697469616C697A6174696F6E20466184
:1046F000696C6564210D0A00000C0240A0D6002000
:104700004C494E4B205550205B436F6E6E65637471
:1047100065645D004C494E4B20444F574E205B442E
:104720006973636F6E6E65637465645D000000009D
:10473000F48A000870B5044604B970BD00BF04F0E7
:10474000030008B100BF00BF00BF00BF14480068ED
:10475000844203D313480068844201D300BF00BFE2
:1047600000BF0F480068844203D30E4800688442AB
:1047700000D3E2E7A4F1080500BF287908B900BF1B
:1047800000BF00BF0020287107480068854201D2A1
:1047900005480560284600F0ABFD00BFCDE70000EE
:1047A0002C000020300000203400002000BF00BF9B
:1047B000124921F00301124A1160114608684FF4B2
:1047C000804101800021418001711146096801F595
:1047D00080410C4A11600121126811718903094A54
:1047E00012681180074A126851800121064A11702F
:1047F00003490968054A116070470000233D002005
:104800002C00002030000020380000203400002060
:1048100070B502460AB9002070BDD01C20F003001C
:1048200082B20C2A00DA0C22B2F5804F01DD0020A2
:10483000F2E740480088404E3688801B83B272E021
:104840003D480068C1180879002869D10E8803F135
:104850000800301A904263D30E8803F10800361A1C
:1048600002F11400864218D303F10800104485B207
:104870003148006844190020207108882080638036
:104880000D80012008712088B0F5804F07D0208866
:10489000294E36683044458001E0012008712548E2
:1048A0000068814220D107E0224800680088224E3B
:1048B000366830441F4E30601E480068007928B1C9
:1048C0001C4800681D4E3668B042EDD100BF194843
:1048D00000681A4E3668B04205D016480068007964
:1048E00008B100BF00BF00BF00BF01F108001044C5
:1048F000124E3668B04201D900BF00BF00BF00BFF2
:1049000001F0030008B100BF00BF00BF00BF01F00D
:10491000030008B100BF00BF00BF01F108007BE742
:1049200005480068C35AC2F58040984288DC0020E0
:1049300072E70000340000202C000020300000202E
:104940002DE9F04105460A46D01C20F0030082B252
:104950000C2A00DA0C22B2F5804F02DD0020BDE8FF
:10496000F08100BF45480068854203D34448006891
:10497000854201D300BF00BF00BF404800688542A8
:1049800003D33F480068854201D32846E7E7A5F1F5
:1049900008043A480088201A86B22088801B08380C
:1049A00087B200BFBA4201DD00BF00BF00BFBA42FC
:1049B00001DD0020D3E7BA4201D12846CFE72088A5
:1049C000DFF8B8C0DCF800C000EB0C01087980BB50
:1049D000088806F1080C94441FFA8CF3DFF8A4C091
:1049E000DCF800C08C4508D1DFF890C0DCF800C0CE
:1049F0009C44DFF89080C8F800C0DFF880C0DCF885
:104A000000C00CEB03014FF0000C81F804C00880DB
:104A10004E802380B1F800C0BCF5804F08D0B1F8BB
:104A200000C0DFF85880D8F80080C444ACF80230E9
:104A300022E0FFE702F11400B8421DD806F1080099
:104A4000104483B20D480068C1180E4800688142C6
:104A500001D20C48016000200871208808804E8037
:104A600023800888B0F5804F06D00888DFF80CC096
:104A7000DCF800C060444380284670E72C0000202A
:104A8000300000203400002001B9704700BF01F061
:104A900003030BB100BF00BF00BF0A46044B53F82D
:104AA00020301360024B43F8202000BFEDE70000E8
:104AB000347D002010B5002001E0431C98B2092885
:104AC000FBDB114B23F00301002019E000230F4C06
:104AD00044F8203000220CE00C4B53F820300B60DF
:104AE0000A4B43F820100A4B33F810301944531C7A
:104AF0009AB2084B33F810309342EDDC431C98B265
:104B00000928E3DB10BD00005B7D0020347D002020
:104B1000A68A0008B88A0008024600BF092A03DBFB
:104B200000BF00BF0020704700BF094850F82210A6
:104B300059B1074B086843F8220000BF01F0030099
:104B400008B100BF00BF00BF00BF0846EBE7000090
:104B5000347D00202DE9F04704460D4616461F46D9
:104B6000DDE909A9DDF8208000206060A060E06038
:104B700084F82E002062C4F81C800F48007884F866
:104B800031000D480078401C0B490870C4F81090A3
:104B90003B4632462946204600F018F82046D047CA
:104BA00010B10020BDE8F087044800682060034889
:104BB00004602046F6E70000440000203C0000208E
:104BC000014691F82E0000F0010070472DE9F041F8
:104BD00006460F4614461D463946304600F022F878
:104BE0002146304600F05AF82946304600F014F8C5
:104BF000BDE8F081014908607047000040000020D6
:104C000090F82E1001F0010129B190F82E1021F03A
:104C1000010180F82E10704709B9002200E00A68EF
:104C2000C26070472DE9F04107460D462868796853
:104C3000884201D1012000E0002018BB1548066819
:104C40000CE030687968884207D1D6F80C800121E1
:104C5000304600F069FD464600E0F668002EF0D1CF
:104C60000D4804680CE054B1206840B120687968B0
:104C7000884204D10DB9002000E028682060E46873
:104C8000002CF0D10DB9002000E028687860BDE864
:104C9000F0810000580000205400002009B90022D3
:104CA00000E00A688260704710B5044694F82E0050
:104CB00000F0010068B914F82E0F40F001002070D8
:104CC00014F82E0900F0200018B1211D2046FEF72F
:104CD0000FF810BD00B503461846FEF7AAFA00BD4E
:104CE00000B502461046FEF7B1FA00BD034A0A407D
:104CF0000243034B1A60BFF34F8F704780FFFF1FC3
:104D000008ED00E02DE9F05F83460F46914600264E
:104D1000BBF1000F09D0BBF1010F0AD0BBF1020FAC
:104D20000BD0BBF1030F0DD10BE006F1140086B2DE
:104D300000BF06F1140086B200BF06F10E0086B275
:104D400007E006E000BF00BF00BF00BF0020BDE8D5
:104D5000F09F00BFB9F1000F7AD0B9F1010F78D000
:104D6000B9F1020F76D0B9F1030F74D100BF08205A
:104D7000FFF7D2FE044600BF0CB90020E7E784F835
:104D80000C900020206006F110002044C01C20F090
:104D90000300606000BF207900F0030008B100BF8D
:104DA00000BF00BF2781F01C20F0030040F2DC515F
:104DB000081AB84201DD384605E0F01C20F0030077
:104DC00040F2DC51081A608100BF618960680144CB
:104DD00004F2EC50814201D900BF00BF00BF00BF08
:104DE000F01C20F0030040F2DC51081A002801DC1E
:104DF00000BF00BF00BF0120E081A2466089A7EB91
:104E0000000848E000BF0820FFF786FE054600BF07
:104E100025B9204600F07CF9002098E785F80C9031
:104E2000002068732860CAF8005000BF4FF6FF707A
:104E3000804501DB00BF00BF00BFA5F808801FFA56
:104E400088F040F2DC51884206DA1FFA88F005E06B
:104E500025E049E049E057E040F2DC50688105F187
:104E60001000686000BF287900F0030008B100BF9F
:104E700000BF00BF00BF61896068014404F2EC50CC
:104E8000814201D900BF00BF00BF0120E8816889CD
:104E9000A8EB0008AA46B8F1000FB3DC3AE006F12F
:104EA000130121F00302F91C21F00301114488B21F
:104EB000FFF7AEFC04460CB9002048E704F11000EF
:104EC0003044C01C20F0030060602781678100200F
:104ED000206084F80C9000BF207900F0030008B136
:104EE00000BF00BF00BF15E000BF0720FFF714FEA2
:104EF00004460CB900202AE7002060602781678102
:104F0000206084F80C9005E000BF00BF00BF00BF28
:104F100000201CE700BF0120E081002060732046D4
:104F200015E710B5024600BF02B111B900BF00BFBE
:104F300010BD00BF104604E003890C89234403819F
:104F400000680368002BF7D100BF03894489A3429E
:104F500001D000BF00BF00BF00BF03680BB100BF9E
:104F600000BF00BF03890C8923440381016000BF97
:104F7000DEE730B505460C4621462846FFF7D1FF4F
:104F8000204600F0AFF930BD0146002002E0421C8F
:104F9000D0B209680029FAD170472DE9F0410446E2
:104FA0000D460026002700BF24B11DB120892989A4
:104FB000884205DA00BF00BF6FF00900BDE8F0814C
:104FC00000BF00BF00BF0CB900BF00BF00BF6089B9
:104FD000801B6989C91B884204DB6889C01B1FFAD2
:104FE00080F803E06089801B1FFA80F86A68D11995
:104FF000626890194246FBF7F7F806EB080086B2A4
:1050000007EB080087B200BF6089B04201DA00BF39
:1050100000BF00BF6089B04201D10026246800BFF4
:105020006889B84201DA00BF00BF00BF6889B84292
:1050300001DC00272D6865B168892989884208D17B
:1050400000BF286820B100BF00BF6FF00800B5E7BF
:1050500000BF64B160892189884208D100BF2068FF
:1050600020B100BF00BF6FF00800A7E700BF002D10
:10507000A8D10020A2E72DE9F05F804689461646B8
:105080001D464FF0000B00BFB8F1000F04D100BF68
:1050900000BF0020BDE8F09F00BF00BFB9F1000FC6
:1050A00003D100BF00BF0020F4E700BF4FF0000AAB
:1050B000B8F1000F02D0B9F1000F01D10020E9E7EB
:1050C000444620E035B16089A84203DC6089281A93
:1050D00085B217E06089401B87B2B74200DD3746D2
:1050E0006268511909EB0A003A46FBF77DF80BEBB1
:1050F00007001FFA80FB0AEB07001FFA80FAF01B7B
:1051000086B2002524680EB1002CDBD15846C1E7D9
:105110002DE9F04104463CB900BF0CB900BF00BF07
:1051200000BF0020BDE8F08100BF207B50B1207B94
:10513000012807D0207B022804D0207B032801D03F
:1051400000BF00BF00BF00262AE000BFE0890028A2
:1051500001DC00BF00BF00BFE089401E1FFA80F8DD
:10516000A4F80E80B8F1000F18D12768257B032D15
:1051700004D121460820FFF787FC0BE0012D01D068
:10518000022D04D121460720FFF77EFC02E02046D5
:10519000FFF7D0FA701CC6B23C4600E0002400BF06
:1051A000002CD2D13046BDE770B5024600BF0AB927
:1051B00000BF00BF00BF01B10AB9002070BD0029C7
:1051C0000ADA484284B200BF5089A04203DA00BF25
:1051D00000BF0120F2E700E08CB2137B55680BB1F1
:1051E000032B0AD15068401A506002F11000566833
:1051F000864217D255600120E0E7022B01D0012B37
:105200000AD1002906DA5089A04203DB5068401A0F
:10521000506007E00120D1E700BF00BF00BF00BF22
:105220000120CBE75089084450811089084410813F
:105230000020C3E72DE9F04105460F4600BF0DB938
:1052400000BF00BF00BF00BF287B032809D0287B18
:10525000012806D0287B20B1287B022801D000BF7E
:1052600000BF00BF2889B84201DCBDE8F081288971
:10527000A7EB00083E462C4613E06089301A86B240
:1052800000BF4FF6FF70804501DB00BF00BF00BFCD
:10529000208940442081246800BF0CB900BF00BFB2
:1052A00000BF6089B042E8DB207B78B96089B042FA
:1052B0000CD0A088001B304481B22046FFF740FB91
:1052C000044600BF0CB900BF00BF00BF6681608903
:1052D0002081206810B12068FFF71AFF00202060AD
:1052E00000BFC2E710B1C189491CC18170470000ED
:1052F00030B500BF284B1B68984201D200BF00BFE9
:1053000000BF00BF254B1B68984201D300BF00BF00
:1053100000BF00BF03790BB100BF00BF00BF00BFDB
:105320000388B3F5804F01DD00BF00BF00BF0388D5
:10533000194C24681919884215D00B799BB9174B61
:105340001B6899420FD0164B1B688B4201D1144B3E
:1053500018600B880380104B1B88C31A0C880E4DF5
:105360002D682C44638043880B4C24681A198242B0
:1053700011D013797BB90A4B1B68834201D1084BCA
:105380001A6003881380044B1B88D31A0488024DCB
:105390002D682C44638030BD2C000020300000209C
:1053A000340000202DE9F04705468A464FF00008FA
:1053B0006F683889FFF794FC00F0FF090026124857
:1053C000046819E0207C484514D1606990B107F168
:1053D0000C032A462146D4E905C0E04750B1002518
:1053E0004FF0010836B1E068F06007480068E060FF
:1053F000054804602646E468B8F1000F01D1002C8E
:10540000E0D14046BDE8F087480000202DE9F04F8C
:105410008CB0064600200A903EA090E8004CC06880
:10542000CDE905BECDF810A007900FF2EC0ADAE93D
:10543000000ACDE9020A0FF2E00ADAE9000ACDE932
:10544000000A38480068C0F381000B900B9820B127
:10545000012804D0022828D103E0334927E033494A
:1054600025E03048001F006800F03F072D48001F6E
:105470000068C0F3881C2B48001F0068C0F301407F
:10548000401C4FEA40092748001F006800F48008CC
:10549000B8F5800F01D1254B00E0234BB3FBF7F0AB
:1054A00000FB0CF0B0FBF9F101E01F4900BF00BFA9
:1054B0001C480068C0F3031404A8055D21FA05F236
:1054C00018480068C0F3822402A8055D22FA05F09E
:1054D000099014480068C0F342341DF8045022FAC1
:1054E00005F0089036B1012E06D0022E06D0032E0C
:1054F0000AD106E00A9108E00A9206E009980A90AB
:1055000003E008980A9000E000BF00BF0A980CB0C2
:10551000BDE8F08F0000000000000000010203045D
:1055200006070809083802400024F40040787D018D
:10553000074A02EB9011D1F8001800F01F03012276
:105540009A401143024B03EB9012C2F800187047C7
:1055500000300240074A02EB9011D1F8001800F029
:105560001F0301229A409143024B03EB9012C2F8B1
:105570000018704700300240074A02EB9011D1F842
:10558000001800F01F0301229A401143024B03EB65
:105590009012C2F8001870470030024001480068BD
:1055A0007047000004000020044A116821F4000143
:1055B00041EA0002014B1A607047000004380140C4
:1055C00008B5002000213F4A126842F480323D4B6A
:1055D0001A6000BF401C3B4A126802F4003119B93E
:1055E0004FF6FF729042F5D1364A126802F400324B
:1055F00032B900BF334A126802F40032002AF9D0EF
:10560000304A4032126842F080522E4B40331A60CA
:105610002D4A126842F440422B4B1A60294A083244
:105620001268284B08331A601A46126842F4004286
:105630001A601A46126842F4A0521A60234A1B1FCD
:105640001A601A1F126842F080721B1F1A6000BF96
:105650001C4A126802F00072002AF9D01A4A126835
:1056600042F48032184B1A6000BF174A526802F4A5
:105670008032002AF9D0144A126842F40032124BE8
:105680001A6000BF104A526802F40032002AF9D0B2
:105690000C4A083212680092009A22F0030200922B
:1056A000009A42F002020092064B0833009A1A60F8
:1056B00000BF044A0832126802F00802002AF8D03B
:1056C00008BD000000380240007000401964400925
:1056D00010B5FFF775FF10BD10B5124800684FF404
:1056E0007A71B0FBF1F4601EB0F1807F01D301202C
:1056F0000FE0601E4FF0E02148610F214FF0FF30B6
:10570000FAF704FE00204FF0E021886107200861CD
:10571000002008B100BFFEE70021481EFAF7F6FDA1
:1057200010BD0000240000202DE9FF5F04460E4656
:10573000207C0A2808D12146204801F0B5FA2146EC
:105740000220FFF7A1F937E0A76DD4F824800CB947
:10575000002000E020680290201D08B9002000E031
:1057600060680390B4F818A0B4F82090D4F8905072
:10577000D4F814B02146124801F096FAA06F10B187
:10578000A06F02F039FA606F10B1606F02F034FA66
:1057900021460220FFF778F900BF1DB16FF0040128
:1057A0005846A84700BF3EB103AB02AA414638465F
:1057B000CDE900A902F0B0F9BDE8FF9F5C00002030
:1057C00058000020C161704703466FF00400704725
:1057D00070B506460220FFF79FF904466CB900F049
:1057E0007FFE0220FFF798F9044634B9304600F0F6
:1057F0004BFE0220FFF790F90446002C39D0A0217F
:105800002046FAF70AFD4020183404F8070C40F649
:105810006830A4F856000020A4F8580040F668301C
:1058200020826082002004F80E0CFF2004F80D0C8A
:105830004FF406702084062020860020A0850620D4
:10584000E085C01FE0830120608700F0B1FF0546BE
:10585000E56425646563256507480068A06100204C
:1058600020770648E0660648E067002084F8850057
:10587000183C204670BD00004C0000200B7A000848
:1058800000DD6D002DE9F04107460D46164600BFCC
:10589000387C28B100BF00BF6FF00C00BDE8F0817C
:1058A00000BF16B900F048FF06463048046810E013
:1058B000208BB0420CD144B1206830B12DB12868A2
:1058C00018B120682968884202D16FF00A00E5E724
:1058D000E468002CECD12648046810E0208BB0422C
:1058E0000CD144B1206830B12DB1286818B12068BE
:1058F0002968884202D16FF00A00CFE7E468002CE3
:10590000ECD11C48046810E0208BB0420CD144B1AB
:10591000206830B12DB1286818B120682968884204
:1059200002D16FF00A00B9E7E468002CECD112480C
:1059300004680AE0208BB04206D1206829688842BA
:1059400002D16FF00A00A9E7E468002CF2D11DB182
:10595000286808B1286838603E8300BF05480068A1
:10596000F8600448076000BF002097E7540000205B
:1059700058000020500000205C00002070B5054653
:10598000287C082868D2DFE800F00436414C5567CF
:10599000675E002400BF36480068A84205D134483D
:1059A0000068C068324908601CE03148006831492D
:1059B000086012E02F480068C06848B12D480068B0
:1059C000C068A84204D12B49E8680968C86008E0AB
:1059D00028480068C06827490860264800680028F1
:1059E000E8D100BF0020E86000BF29460220FFF791
:1059F0004BF8002533E0002429461F4801F054F9F4
:105A000029460320FFF740F8002528E00024294616
:105A10001A4801F049F929460220FFF735F8002518
:105A20001DE00121284602F0F6F804460CB90520D5
:105A3000287414E00121284602F0EDF804460CB960
:105A4000052028740BE00121284602F0E4F8044602
:105A50000CB90920287402E00024002500BF00BF13
:105A60001DB114B9284600F0B1FE204670BD0000FB
:105A7000500000206000002054000020580000204A
:105A80002DE9F04105460E463046FEF773FA04460E
:105A900054B1A08D40B1A08D283887B2BD4201DA43
:105AA000284600E0384605462846BDE8F0812DE945
:105AB000FF4F87B00546934600BFBBF1000F0CD1E6
:105AC000159850B90A9800F0030030B900BF00BF24
:105AD0006FF009000BB0BDE8F08F00BF00BFBBF155
