:020000040800F2
:10000000E85D012071020008690800086108000825
:100010006508000859080008310A000800000000BF
:10002000000000000000000000000000F5010008D2
:100030005D0800080000000015020008950800088F
:100040008B0200088B0200088B0200088B0200085C
:100050008B0200088B0200088B0200088B0200084C
:100060008B0200088B0200088B0200088B0200083C
:100070008B0200088B0200088B0200088B0200082C
:100080008B0200088B0200088B0200088B0200081C
:100090008B0200088B0200088B0200088B0200080C
:1000A0008B0200088B0200088B0200088B020008FC
:1000B0008B0200088B0200088B0200088B020008EC
:1000C0008B0200088B0200088B0200088B020008DC
:1000D0008B0200088B0200088B0200088B020008CC
:1000E0008B0200088B0200088B0200088B020008BC
:1000F0008B0200088B0200088B0200088B020008AC
:100100008B0200088B0200088B0200088B0200089B
:100110008B0200088B0200088B0200088B0200088B
:100120008B0200088B0200088B0200088B0200087B
:100130008B0200088B0200088B0200088B0200086B
:100140008B0200088B0200088B0200088B0200085B
:100150008B0200088B0200088B0200088B0200084B
:100160008B0200088B0200088B0200088B0200083B
:100170008B0200088B0200088B02000800000000C0
:100180008B0200088B0200088B0200088B0200081B
:100190008B0200088B0200088B02000800000000A0
:1001A0008B0200088B0200088B020008DFF810D0D9
:1001B00000F0B2FA004800474D570008AFF3008046
:1001C000E85D01200248016841F470010160704758
:1001D00088ED00E006480068006880F3088862B691
:1001E00061B6BFF34F8FBFF36F8F00DF00BF00BF5B
:1001F00008ED00E01D4B19680868B0E8F04F80F387
:100200000988BFF36F8F4FF0000080F311887047AB
:1002100000000000EFF30980BFF36F8F134B1A68E3
:100220001EF0100F08BF20ED108A20E9F04F10607B
:1002300008B44FF0500080F31188BFF34F8FBFF325
:100240006F8F09F0D5FF4FF0000080F3118808BCD4
:1002500019680868B0E8F04F1EF0100F08BFB0EC46
:10026000108A80F30988BFF36F8F7047BC000020AD
:100270000648804706480047FEE7FEE7FEE7FEE740
:10028000FEE7FEE7FEE7FEE7FEE7FEE7A908000857
:10029000AD01000840EA01039B0703D009E008C94B
:1002A000121F08C0042AFAD203E011F8013B00F83B
:1002B000013B521EF9D27047D2B201E000F8012B87
:1002C000491EFBD270470022F6E710B513460A46D6
:1002D00004461946FFF7F0FF204610BD10B504464E
:1002E00004E00B7800F8013B03B1491C521EF8D220
:1002F000204610BD00F0004230F000400AD0C10D91
:1003000001F56071C0F3160042EA0151C2084007CE
:100310001143704700200146704730B50B46014637
:1003200000202022012409E021FA02F59D4205D394
:1003300003FA02F5491B04FA02F52844151EA2F13E
:100340000102F1DC30BD2DE9F05F05460020924648
:100350009B4688460646814640241BE02846414687
:100360004746224600F0F9F953465A46C01A9141D1
:1003700010D311461846224600F0E0F92D1A67EB1B
:1003800001084F4622460120002100F0D7F917EB63
:1003900000094E41201EA4F10104DFDC484631462D
:1003A0002A464346BDE8F09F2DE9FE4F804681EA8C
:1003B0000300C00F0C46009021F0004123F00045DF
:1003C000B8EB0200A94105D24046214690461C46A2
:1003D0000B46024623F00040104347D0270DC7F3D9
:1003E0000A00C3F30A510290401A019040286BDAC8
:1003F000C3F3130040F4801B0098924620B1002301
:10040000D2EB030A63EB0B0B01985946C0F1400293
:10041000504600F093F906460D4650465946019A5B
:1004200000F0ABF910EB08006141002487EA11529B
:1004300084EAE7731A4340D0009A62B3019A012A12
:100440004FEA075215DC001B61EB02014FF000423E
:1004500002EA0752CDE90042001C41F58011324604
:100460002B4600F0ABF903B0BDE8F08F40462146C3
:10047000F9E7001B61EB0201001C41F58013001835
:100480005B412018A2F5001747EB030140EAD57045
:10049000B6196D4111E06D084FEA360645EAC075A0
:1004A0004FEA0752001B61EB0201001C41F580116D
:1004B00049084FEA30000019514132462B4603B03B
:1004C000BDE8F04F00F06BB9009801224000002316
:1004D000D0EB020263EBE073009821464FEAE07430
:1004E000B8EB000061EB0401E9E783F000435BE750
:1004F00081F0004158E72DE9FE4F81EA030404F042
:10050000004421F0004100944FF0000B23F0004321
:1005100050EA01045ED052EA03045BD0C3F30A54EC
:10052000C1F30A552C44A4F2F3340194A0FB025405
:10053000C1F3130141F48011C3F3130343F4801397
:1005400001FB024400FB034E840A970A44EA8154EB
:1005500047EA8357A4FB076802958D0A05FB0785C8
:100560004FEA932C04FB0C542705029D4FEA0658D2
:1005700047EA1637B5EB08056EEB070C870E920EAF
:1005800047EA811742EA8312A7FB0201B6EB0B018F
:1005900064EB00042B0D43EA0C335E1844EB1C5053
:1005A000DA465146E7FB0201C5F313044FEA0B3369
:1005B00043EA14534FEA0432019C43EA0603A4F1D0
:1005C0000C040294009CCDE900B400F0F7F803B0ED
:1005D000BDE8F08F00200146F9E72DE9F04D81EAF2
:1005E000030404F0004B21F0004514464FF0000ACC
:1005F00023F0004150EA050220D054EA01021DD048
:10060000C5F30A570246C5F31303C1F31300C1F340
:100610000A5640F4801543F48013A7EB0608101B1C
:10062000D64608F2FD3873EB050002D308F1010845
:1006300001E092185B41B8F1000F03DA0020014697
:10064000BDE8F08D00204FF48011064684460EE090
:10065000171B73EB050705D3121B63EB050306435A
:100660004CEA010C49084FEA300092185B4150EA0D
:100670000107EDD152EA030012D082EA040083EAB6
:100680000501084305D0101BAB4106D2012200230F
:1006900006E000224FF0004302E06FF00102531029
:1006A0001AEB06004CEB085110EB0A0041EB0B0172
:1006B000BDE8F04D00F073B8C1F30A52C1F3130165
:1006C00040F2FF3341F480119A4202DA00200146E1
:1006D000704740F233439A42A2F2334202DC524264
:1006E00000F03BB800F02AB830B5041E71F10004E8
:1006F00004DB4FF00044404264EB0101141E73F12F
:10070000000405DB1C464FF00043524263EB040338
:10071000994208BF904230BD064C074D06E0E068A4
:1007200040F0010394E8070098471034AC42F6D338
:10073000FFF740FD08A7000828A70008202A04DBCF
:10074000203A00FA02F1002070479140C2F12003E4
:1007500020FA03F3194390407047202A04DB203A23
:1007600021FA02F00021704721FA02F3D040C2F1D1
:1007700020029140084319467047202A06DBCB1718
:10078000203A41FA02F043EAE07306E041FA02F34C
:10079000D040C2F12002914008431946704710B57D
:1007A000141E73F1000408DA401C41F10001921894
:1007B0005B411A4301D120F0010010BD2DE9F04D3D
:1007C00092469B4611B1B1FA81F202E0B0FA80F292
:1007D00020329046FFF7B2FF04460F4640EA0A0077
:1007E00041EA0B0153465A46084313D0114653EAD7
:1007F000010019D0C8F140025046FFF7AEFF054690
:100800000E46504659464246FFF798FF084305D02A
:10081000012004E020463946BDE8F08D0020054364
:1008200046EAE0762C4337430A986305E40AA0EBD6
:1008300008000022FD0A44EA47540A3002D500208D
:100840000146E9E7010510196941DDE9084500198C
:100850006941BDE8F04DA2E700BFFEE700BFFEE73B
:1008600000BFFEE700BFFEE700BFFEE710B50028AF
:1008700007DA0A07140E054A00F00F031B1FD454B1
:1008800003E00A07130E024A135410BD18ED00E0EE
:1008900000E400E010B501F07FFB09F055FD0128F0
:1008A00001D009F021FC10BD1CB55D48006840F482
:1008B00070005B4908605B48006840F001005949DE
:1008C000086000BF5748006800F002000028F9D017
:1008D00054480830006800F00C0008286ED100BFB2
:1008E0000020019002E00198401C019001985028DE
:1008F000F9D34C48083000680090009820F0F000D0
:100900000090009840F0800000904649083100981F
:1009100008600020019002E00198401C01900198BD
:100920005028F9D33F48083000680090009820F024
:10093000F0000090009840F0900000903949083194
:10094000009808600020019002E00198401C01908E
:1009500001985028F9D33348083000680090009877
:1009600020F0F0000090009840F0A00000902D4989
:100970000831009808600020019002E00198401CB6
:10098000019001985028F9D326480830006800905B
:10099000009820F0F0000090009840F0B000009027
:1009A00020490831009808600020019002E0019879
:1009B000401C019001985028F9D300BF1948083015
:1009C000006820F00300174908310860C82000F0D3
:1009D00096FC14480068144908401249086008460B
:1009E000006820F48020086000200E49083108606B
:1009F00000BF0C480830006800200028F9D10B48DF
:100A00000849091D0860002006490C31086006F0FD
:100A100099F800214FF0006005F02CFA1CBD000091
:100A200088ED00E000380240FFFFF6FE10300024A1
:100A300000BFFEE70FB4054B10B503A9044A0298A6
:100A400000F0DAF810BC5DF814FB00006142000809
:100A50000C01002002E008C8121F08C1002AFAD1C8
:100A600070477047002001E001C1121F002AFBD12E
:100A7000704700002DE9FF5F82B00021DDE90430FE
:100A8000020DDDF840B0034318D044F61050A2F236
:100A9000FF3242431514119801281FD0A5EB0B001B
:100AA000401C5FEA000A4FF000064E4FDFF8389115
:100AB000B046504615D5CAF1000413E01198012440
:100AC0004AA3012801D16FEA0B010298119AC0E9EB
:100AD0000031C0E9024206B0BDE8F09FCBF1000052
:100AE000DFE704460021404A491842EB0450CDE9B3
:100AF000001012E0E00707D032463B464046494628
:100B0000FFF7F9FC8046894632463B4610461946B7
:100B1000FFF7F1FC06460F466410002CEAD1DDE930
:100B20000401DDE90023BAF1000F06DAFFF7E3FC68
:100B300042464B46FFF7DFFC05E0FFF74EFD42461D
:100B40004B46FFF74AFD04460E460022284BFFF7AE
:100B5000CBFD03D84FF0FF30014607E00022254BC4
:100B600020463146FFF720FCFFF7A6FD102409E0E0
:100B7000002C0ADB0A220023FFF7E5FB039B30323F
:100B80001A55641E50EA0102F2D1641C039AC4F1A2
:100B900011031444119A012A03D0012208430DD1F4
:100BA0000AE0084304D000204FF0110B119072E7C7
:100BB000A3EB0B056D1E0DE05B4504DD4FF000025D
:100BC00005F1010504E003DA4FF00002A5F101058B
:100BD000002AECD002981199C0E90231C0E9004521
:100BE00079E70000000014400000F03F30000000F2
:100BF0000000F0430000E03F2DE9FF4F95B09A461A
:100C0000884606460025EEE1252877D100242746B0
:100C1000F94A0121039400E0044316F8013F203B08
:100C200001FA03F01042F7D130782A2811D06FF082
:100C30002F033078A0F13002092A16D8039A44F025
:100C4000020402EB820203EB42021044761C039082
:100C5000EFE758F8042B0392002A03DA504244F4D9
:100C60000054039044F00204761C30782E2816D1EC
:100C700016F8010F44F004042A280DD06FF02F025B
:100C80003078A0F13003092B09D807EB870302EB7A
:100C90004303C718761CF3E758F8047B761C3078BA
:100CA0006C280FD006DC4C2817D068280DD06A2895
:100CB00014D104E0742810D07A280FD10DE044F448
:100CC00000140AE044F4801401E044F44014727803
:100CD000824202D104F58014761C761C3078662896
:100CE0000BD013DC582877D009DC002875D04528B4
:100CF000F6D04628F4D047281AD193E118E06328AB
:100D000035D0642879D0652812D18BE1702873D052
:100D100008DC6728F1D069286FD06E280DD06F28C5
:100D200006D1ACE073282CD0752874D0782853D025
:100D30005246179990476D1C54E1C4F302500228A3
:100D400009D003280DD0D8F8001004280DD00D606C
:100D500008F1040846E1D8F80010EA17C1E900528A
:100D6000F6E7D8F800100D80F2E70D70F0E718F8FC
:100D7000041B8DF8001000208DF80100EB460120C7
:100D800003E058F804BB4FF0FF3061074FF000015B
:100D900002D40DE009F101018946B9420FDA81451B
:100DA000F8DB1BF809100029F4D108E009F1010172
:100DB00089468142FADB1BF809100029F6D1039815
:100DC0005346A0EB090721463846179A00F080FAEF
:100DD000284400EB090507E044E008E10DE01BF8BA
:100DE000010B524617999047B9F10109F7D25346C2
:100DF00021463846179AF2E039E00A21C4F302523C
:100E00004FF0000B0091022A06D058F8040BC117CE
:100E1000032A09D00AE023E008F1070020F00702C6
:100E2000F2E80201904605E000B2C117042A01D1A0
:100E300040B2C117002906DA0A460021404261EBA0
:100E400002012D2202E0220504D52B228DF8042078
:100E5000012203E0E20701D02022F7E7914657E0A4
:100E60000A2100E010214FF0000B00910BE010214F
:100E70004FF0000B44F004040827009103E0082021
:100E80004FF0000B0090C4F30252022A05D058F82C
:100E9000040B0021032A08D008E008F1070020F025
:100EA0000702F2E80201904603E080B2042A00D172
:100EB000C0B24FF0000922072AD53278702A07D035
:100EC000DDF800C08CF0100C5CEA0B0C05D00EE0D5
:100ED00040228DF80420012208E050EA010306D0E8
:100EE00030238DF804308DF8052002229146009BB6
:100EF00083F0080353EA0B030AD150EA010201D13F
:100F0000620705D530228DF804204FF001097F1EBD
:100F10003278582A04D039A20C920CAA02920BE023
:100F20003BA2F9E75B46009AFFF70DFA0C9B9B5C2E
:100F3000029A521E0292137050EA0102F2D10298F4
:100F400004A9081A00F1200B600702D524F48034AC
:100F500000E001275F4502DDA7EB0B0000E0002069
:100F600000EB0B01009003984944401A0390E00302
:100F700006D453462146179A039800F0A9F9054470
:100F8000002706E001A85246C05D179990476D1CE6
:100F90007F1C4F45F6DBE0030CD553462146179ADC
:100FA000039800F095F9054404E030205246179963
:100FB00090476D1C0099481E00900029F5DC08E060
:100FC0000298029952460078491C0291179990475D
:100FD0006D1CBBF10001ABF1010BF1DC5BE100F03A
:100FE00065F90544761C307800287FF40DAE19B001
:100FF0002846BDE8F08F0000092801003031323367
:101000003435363738396162636465660000000044
:10101000303132333435363738394142434445462E
:1010200000000000600700D4062708F1070020F048
:101030000700F0E80223804603F0004C5FEA0C0052
:1010400001D097A009E0200501D596A005E0E007B2
:1010500001D095A001E0AFF24C001390307823F05E
:10106000004365280CD006DC452809D046281DD051
:1010700047287FD13BE0662818D067287AD136E030
:101080000021112F01DB112000E0781CCDE90001C7
:1010900004A90CA8FFF7EEFCDDE90D010C9A4FF056
:1010A000000B07F10109109200914EE04FF0004053
:1010B0000097CDE9011004A90CA8FFF7DBFCDDE9DE
:1010C0000D020C9B0F994FF0000B9146109300926C
:1010D00011B9791C00EB0109B7EB090003D4C0F189
:1010E000FF3B07F10109A9EB0700019042E0012F46
:1010F00000DA01270021112F01DD112000E0384620
:10110000CDE9000104A90CA8FFF7B4FCDDE90D014D
:101110000C9A00914FF0000BB946109221070FD4A2
:10112000009A4A4503DA914601E0A9F10109B9F1B3
:10113000010F05DD109AA9F10101515C3029F4D0AD
:10114000B84202DA10F1040F03DA0121CDE90110EF
:1011500010E0002803DC8344A9EB000102E0411CFD
:10116000494500DD8946A0EB0B00401C01904FF083
:1011700000400290200705D40198484502DB4FF05B
:10118000FF30019000208DF84B0002980DF14B07C5
:10119000B0F1004F25D002200C902B200D9002982A
:1011A00000280CDA404202902D200D9007E00A2121
:1011B0000298FFF7B2F83031029007F8011D0C9940
:1011C000481E0C900029F2DC02980028EFD1791E0D
:1011D0000D980870307800F0200040F0450007F8C6
:1011E000020D11A8C01BC01D02901398007800B119
:1011F000012000EB0901019801EBE0710298014424
:101200000398401A401E0390E00306D4534621463B
:10121000179A039800F05CF805441398007818B109
:101220005246179990476D1CE00323D5534621463B
:10123000179A039800F04CF805441BE0BBF1000F2F
:1012400007DB0098584504DD1098179910F80B003B
:1012500001E0179930205246904701980BF1010B9D
:10126000401E05F10105019004D12E205246179928
:1012700090476D1CB9F10001A9F10109DEDC05E020
:1012800017F8010B5246179990476D1C0299481E9A
:1012900002900029F4DC53462146179A03989EE6F3
:1012A0002D0000002B000000200000002DE9F0417F
:1012B000044600251E461746880404D405E0394636
:1012C0002020B0476D1C641EF9D52846BDE8F0818A
:1012D0002DE9F041044600251E469046C80301D57D
:1012E000302700E02027880404D505E04146384631
:1012F000B0476D1C641EF9D52846BDE8F08108B5DD
:101300000021009102E00099491C009100EB80014E
:10131000009AB2EB410FF6D308BD00002DED068B0D
:1013200086B00020059000240025032004909FED46
:10133000220AB0EE408A00F0B7FC054629461FA0FD
:10134000FFF778FB00BF04A905A800F0CFFB044617
:101350009DF8140040B39FED220A9DF8101020461E
:1013600000F09CFBB0EE408A9FED1E0A28EE000ABA
:1013700010EE101A0846FEF7BDFF41EC190B18EEEF
:10138000100AFEF7B7FF41EC1A0B9DF8100000F0B1
:101390003DFB06468DED029B8DED00AB22463146AE
:1013A0001148FFF747FB02E010A0FFF743FB642062
:1013B00008F07EFEC7E70000000000004353313212
:1013C00033372052656769737465722052656164B2
:1013D00020436F64653A203078253032580D0A007A
:1013E0003333534000007A4408A400085B43533170
:1013F0003233375D20414443205265616420546993
:101400006D656F7574202F2044524459204E6F74BF
:101410002052656164790D0A0000000040F6034027
:1014200005F0C0FA802300220121094802F088FF5C
:10143000802302220021064802F0A9FF00BF80217C
:10144000034802F072FF4FF4FA7008F031FEF6E73D
:10145000000C02401CB50024002500BF04F02AF84F
:1014600005F0D6FA001B40F6B83188421CD305F0CF
:10147000CFFA044600F038F805460D484068000EE3
:101480000B494968C1F30741CDE90010084880883D
:10149000C0F30723064802790DB106A000E00AA0B8
:1014A00001461048FFF7C6FA0A2008F001FED5E70A
:1014B000F4D600204C494E4B205550205B436F6EB4
:1014C0006E65637465645D004C494E4B20444F5714
:1014D0004E205B446973636F6E6E65637465645D13
:1014E0000000000058A4000810B50024012109489C
:1014F000008800F0EFF9044601210648008800F05A
:10150000E9F9044604F0040008B1012010BD0020F0
:10151000FCE700000800002020B103490A680260CF
:1015200089888180704700000A000020FEB50024F1
:10153000002501266448FFF77DFA40F6194005F0C2
:1015400031FA40F61A4005F02DFA40F61B4005F03E
:1015500029FA01F035FD03F003FE02F0E1F920B9AC
:101560005AA0FFF767FA601EFEBD02F06BF828B9BB
:1015700064A0FFF75FFA4FF0FF30F5E703F0AEFE2F
:101580006F4908804FF4004200216D48008800F048
:10159000DCF90A2000F0F6FC002400BF00216848B6
:1015A000008800F097F905460A2000F0EBFC641C67
:1015B00005F4004008B1642CF0D3642C05D361A07D
:1015C000FFF738FA4FF0FF30CEE74FF490552A4638
:1015D00000215B48008800F0B8F969A0FFF72AFAFB
:1015E000002400BF01215648008800F073F9054629
:1015F000142000F0C7FC641C05F0200008B9962CEC
:10160000F0D31F214E48008800F064F9054605F02C
:101610001C00042817D0082809D014280DD0182839
:1016200016D14FF4904664A0FFF704FA15E04FF48A
:1016300080466FA0FFF7FEF90FE04FF400667AA036
:10164000FFF7F8F909E0002685A0FFF7F3F904E0B9
:1016500001269148FFF7EEF900BF00BF00221146B6
:10166000012001F011FE28B98CA0FFF7E3F94FF03B
:10167000FF3079E74FF4805200213148008800F0B4
:1016800064F99149002001F0C5FF8F4840798E49E7
:1016900009798D4AD278CDE9002102908A48837871
:1016A000427801788948FFF7C5F94FF4E00001F06E
:1016B0009FFC4FF4602001F09BFC01F0FDFC84488E
:1016C000FFF7B8F900204FE788A500085B4C414EB2
:1016D00038373230204472697665725D2045727207
:1016E0006F723A20454E455420736F66747761726D
:1016F00065207265736574206661696C6564210D8F
:101700000A0000005B4C414E383732302044726989
:101710007665725D204572726F723A20454E45546F
:101720002050485920534D4920636C6F636B2063F0
:101730006F6E666967206661696C6564210D0A00D9
:10174000080000205B4C414E38373230204472692B
:101750007665725D204572726F723A204C414E3848
:101760003732302050485920536F667420526573C9
:1017700065742074696D656F7574210D0A00000031
:101780005B4C414E38373230204472697665725D69
:101790002057616974696E6720666F7220504859DE
:1017A000204175746F2D4E65676F74696174696F40
:1017B0006E2E2E2E0D0A00005B4C414E3837323013
:1017C000204472697665725D204E6574776F726B26
:1017D0002053706565643A203130304D6270732C4F
:1017E000204475706C65783A2046756C6C0D0A0063
:1017F0005B4C414E38373230204472697665725DF9
:10180000204E6574776F726B2053706565643A2063
:101810003130304D6270732C204475706C65783AAD
:101820002048616C660D0A005B4C414E38373230FF
:10183000204472697665725D204E6574776F726BB5
:101840002053706565643A2031304D6270732C20EE
:101850004475706C65783A2046756C6C0D0A000012
:101860005B4C414E38373230204472697665725D88
:10187000204E6574776F726B2053706565643A20F3
:1018800031304D6270732C204475706C65783A204D
:1018900048616C660D0A000080A600085B4C414E52
:1018A00038373230204472697665725D2045727235
:1018B0006F723A20656E65745F696E697420666147
:1018C000696C6564210D0A000A0000203CA600082E
:1018D000E4A4000838B504460D46002000906B468D
:1018E0002A46214601F01AFFBDF8000038BD70B548
:1018F00006460D46002401F0C7FF0446012C01D81E
:10190000002070BDAC4203D901F068FF0020F8E769
:101910002146304601F0D6FB012801D1A0B2F0E704
:101920000020EEE770B504460D4604B115B94FF03E
:10193000FF3070BD2946204601F040FC012801D14E
:101940000020F6E74FF0FF30F3E7F8B504460D4608
:10195000164600966B462A462146022001F0DEFE1E
:10196000F8BD00002DE9F04105460E4617469846A1
:1019700000240E4805700E4806700E4807700E4889
:1019800080F8008008F0010044EA801406F00300AB
:1019900044EA001405F0030044EA800407F0030061
:1019A0000443204600F034FABDE8F0811000002026
:1019B00011000020120000201300002008B5C0EB29
:1019C0000011C900009100E000BF00994A1E00927A
:1019D0000029F9D108BD000010B50423012200211F
:1019E000014802F0ADFC10BD0008024010B5042310
:1019F00001221146044802F0A3FC04230222002124
:101A0000014802F0C4FC10BD00080240014631B19B
:101A1000012906D0022906D0032908D105E00120BA
:101A200070470220FCE74020FAE78020F8E7012019
:101A3000F6E7000010B540F6024004F0B3FF40F6B0
:101A4000024004F0AFFF082300220121124802F0F7
:101A500077FC0823022200210F4802F098FC08219D
:101A60000D4802F05EFCFFF7B7FF08210A4802F0BC
:101A70005AFCC820FFF7A2FF0821074802F051FCDA
:101A80004FF4FA60FFF79AFF00231A461946032025
:101A9000FFF768FF10BD00000008024000B50246D5
:101AA0000B46F0EE400A1846FFF7B0FF01EE100AB1
:101AB0009FED0C0A20EE802AF0EE002A82EE220A28
:101AC000B8EE412AC0EE022AF0EE621A00EE102AA9
:101AD000B8EEC02ADFED042A82EE220A20EE210AA7
:101AE00000BD000000007A44FEFFFF4A2DE9F047E8
:101AF00006460C46304600F0C9F807460025364831
:101B000090F80080A94646B1307830B914B1324817
:101B1000007820700020BDE8F087002F01DA7842BD
:101B200000E0384605462D48854219DD2A480078F0
:101B3000032804D14FF002084FF0010932E0264893
:101B40000078022804D14FF001084FF0010929E084
:101B500021480078012825D14FF00008814621E076
:101B60001D48007838B91E48854204DA4FF0010854
:101B70004FF0010916E018480078012807D11948EC
:101B8000854204DA4FF002084FF001090AE01248DA
:101B90000078022806D11248854203DA4FF0030884
:101BA0004FF00109B9F1000F0FD00F4803780F482B
:101BB00002780F4801784046FFF7D4FE002000F07D
:101BC00065F8304600F062F8074614B10248007824
:101BD000207038469FE7000010000020E07072007F
:101BE000E0673500A08601001300002012000020ED
:101BF000110000202DE9F04104460026214F0CB1D0
:101C00000120207007E07F1E2FB90CB1002020704A
:101C10000020BDE8F08104211B4802F088FB012868
:101C2000F1D0002517E00821174802F07CFB0120C5
:101C3000FFF7C4FE76000421134802F078FB012868
:101C400001D146F0010608210F4802F06AFB01208D
:101C5000FFF7B4FE6D1C182DE5DB00250EE0082112
:101C6000094802F060FB0120FFF7A8FE08210648A2
:101C700002F057FB0120FFF7A1FE6D1C032DEEDBE8
:101C80003046C6E7002D31010008024070B5054618
:101C90002846FFF7AFFF044604F4000008B144F003
:101CA0007F44204670BD00002DE9F0410025564ECE
:101CB000562704E0761E16B90020BDE8F081042105
:101CC000524802F034FB0128F4D000240EE0082131
:101CD0004E4802F028FB0120FFF770FE08214B4818
:101CE00002F01FFB0120FFF769FE641C182CEEDBDD
:101CF00000240EE00821454802F015FB0120FFF703
:101D00005DFE0821414802F00CFB0120FFF756FE62
:101D1000641C032CEEDBFFF769FE04213B4802F054
:101D200000FB00240EE00821384802F0FCFA0120F4
:101D3000FFF744FE0821354802F0F3FA0120FFF7CF
:101D40003DFE641C022CEEDB00241EE008212F481F
:101D500002F0E9FAC4F1060047FA00F000F00100D1
:101D600020B10421294802F0DEFA03E004212748CB
:101D700002F0D7FA0120FFF721FE0821234802F0E4
:101D8000D0FA0120FFF71AFE641C072CDEDB0821C5
:101D90001E4802F0C8FA0120FFF710FE08211B4878
:101DA00002F0BFFAFFF718FE0120FFF707FE00243C
:101DB00018E00821154802F0B6FA0120FFF7FEFDF1
:101DC0006806050E0421114802F0B1FA012801D17C
:101DD00045F0010508210D4802F0A3FA0120FFF7A4
:101DE000EDFD641C082CE4DB0821084802F09BFA96
:101DF0000120FFF7E3FD0821044802F092FA0120D8
:101E0000FFF7DCFD284658E7002D310100080240AD
:101E10002DE9F0410546594E652703E0761E0EB9BF
:101E2000BDE8F0810421564802F081FA0128F5D07E
:101E300000240EE00821524802F075FA0120FFF755
:101E4000BDFD08214E4802F06CFA0120FFF7B6FDF7
:101E5000641C182CEEDB00240EE00821484802F038
:101E600062FA0120FFF7AAFD0821454802F059FA5D
:101E70000120FFF7A3FD641C032CEEDBFFF7B6FD8A
:101E800004213F4802F04DFA00240EE008213C48AE
:101E900002F049FA0120FFF791FD0821384802F0CD
:101EA00040FA0120FFF78AFD641C022CEEDB0024BF
:101EB0001EE00821324802F036FAC4F1060047FA63
:101EC00000F000F0010020B104212D4802F02BFAAF
:101ED00003E004212A4802F024FA0120FFF76EFDF6
:101EE0000821274802F01DFA0120FFF767FD641C56
:101EF000072CDEDB0821224802F015FA0120FFF74B
:101F00005DFD08211E4802F00CFA0120FFF756FD86
:101F100000241EE008211A4802F005FAC4F1070067
:101F200045FA00F000F0010020B10421144802F04D
:101F3000FAF903E00421124802F0F3F90120FFF757
:101F40003DFD08210E4802F0ECF90120FFF736FDB7
:101F5000641C082CDEDB0821094802F0E4F90120AA
:101F6000FFF72CFD0821064802F0DBF90120FFF7FE
:101F700025FDFFF731FD00BF52E70000002D3101C4
:101F8000000802400349086000BF024909680029AF
:101F9000FBD170470000002006480068401C05493E
:101FA00008600548006820B103480068401E0249E7
:101FB00008607047040000200000002070B504464F
:101FC0000D4600BF14B900BF00BF70BD00BF206A3E
:101FD00058B1206A0078082807D12868216A096B5F
:101FE000884202D1204600F06BF900BFEDE7000007
:101FF0002DE9FC41064600BF1EB900BF00BFBDE889
:10200000FC8100BF346A00BF14B900BF00BFF6E70F
:1020100000BF206D401C70B1206D1E303C21B0FB14
:10202000F1F5B5F5803F01D34FF6FF752585208D7D
:1020300008B901202085606D401C70B1606D1E30B4
:102040003C21B0FBF1F5B5F5803F01D34FF6FF75AC
:102050006585608D08B90120608504F1340008B9F8
:10206000002000E0606B01900198C0B9019803F076
:10207000F5FE070E7F2F05DC4FF07F4002F0A8F938
:1020800001900BE0C02F05DB6FF0FF0002F0A0F91C
:10209000019003E0164802F09BF9019000BF04F1A3
:1020A000380008B9002000E0A06B0090009848B903
:1020B000206B019908400090012002F089F90099F5
:1020C0000843009004F13001304603F06FFE01A98F
:1020D000304603F0A7FE6946304603F061FE304605
:1020E00003F0A6FE0A21204600F0D0FD00BF86E7DF
:1020F0000000FFFF2DE9F04105462C6A082120462B
:1021000000F0C4FD002204F13001284601F070FD0A
:1021100007466078401C60704FF4FA7606F2F310C0
:10212000314690FBF1F0E084BDE8F08110B50F4836
:10213000046817E0206AA0B1206A418D481E226A17
:102140005085012903D1204600F046FE09E0206AAF
:10215000018D481E226A1085012902D1204600F017
:102160002BFE2468002CE5D110BD000040000020AB
:1021700070B5064600BF26B900BF00BF6FF009006A
:1021800070BD00BF346A00BF24B900BF00BF6FF04C
:102190000800F5E700BF00BFE06908B100BF00BF5D
:1021A00000BF00BF206A08B100BF00BF00BF00220F
:1021B0004FF49A71104603F069FEE061E06910B9CE
:1021C0004FF0FF30DCE700BFE0694089B0F59A7F4F
:1021D00001D200BF00BF00BF607820B93648006858
:1021E000401C35490860344800686060E069406818
:1021F00020620120216A0870216A48700620216A45
:1022000088700020216AC870606802F0E1F8216AD5
:1022100048600020216A0881216A4881216AC860DB
:1022200020780A2805D02078052802D020780428B4
:1022300002D17068216AC8600020216A0861216AA1
:102240004861216A886100250DE096F82400A842C3
:1022500003DD06F12500405D00E00020216A1C310D
:102260004855681C85B2102DEFD3002505E00021EC
:10227000206A2C304155681C85B2402DF7D30025CB
:1022800005E00021206A6C304155681C85B2802D24
:10229000F7D30A4802F09CF8216AC1F8EC0000204C
:1022A000A084002504E0206AF0304555681C85B202
:1022B000442DF8D3002063E72C0000206353826391
:1022C0002DE9F84305462C6A00260C21204600F033
:1022D000DDFC2846FFF74CFF06466EBB0122352188
:1022E000204600F02DFA0421204600F040FA042296
:1022F0003221204600F024FA206B03F0AFFD804627
:102300004146204600F041FA204600F07CFAA28CBB
:10231000F03291B2E06904F051F843220E49A0680E
:1023200007F02CFA009543230C4AE169A06807F0F6
:1023300087FB284600F014F86078401C607042F279
:10234000107707F2F3104FF4FA7190FBF1F0E0848C
:102350003046BDE8F8830000B0A30008B4A300082D
:1023600070B5054600BF15B900BF00BF70BD00BF06
:102370002C6A00BF14B900BF00BFF7E700BF00BF61
:10238000E06908B900BF00BF00BF00BF206A08B9FC
:1023900000BF00BF00BFE06910B1E06903F07CFF3F
:1023A0000020E061206200BFE0E70000F8B50546CC
:1023B0002C6A0026354808B9002001E0334800683F
:1023C00020630621204600F061FC2846FFF7D0FE7E
:1023D0000646002E3ED101223521204600F0B0F9FC
:1023E0000121204600F0C3F902223921204600F0E5
:1023F000A7F9A98D204600F0EFF9042237212046E5
:1024000000F09EF90121204600F0B1F90321204699
:1024100000F0ADF91C21204600F0A9F90621204664
:1024200000F0A5F9204600F0EEF9A28CF03291B24E
:10243000E06903F0C3FF43221449A06807F09EF946
:1024400000954323124AE169A06807F0F9FA28468B
:10245000FFF786FF6078401C60706078062803DA1A
:1024600061780120884000E03C2000EB4001C1EB96
:10247000C0104FF6FF7101EAC00707F2F3104FF4E6
:10248000FA7190FBF1F0E0843046F8BDB0A300088B
:10249000B4A3000810B50F48046818E0206AA8B17A
:1024A000206AC08C012805DD206AC08C401E216A8C
:1024B000C8840BE0206AC08C012807D1206AC08C38
:1024C000401E216AC884204600F096FC2468002C37
:1024D000E4D110BD4000002010B50446206920B1B1
:1024E000206903F0EBF900202061606928B1606980
:1024F00003F0E4F900206061208310BD01460878F4
:102500007047014611F8013B180611F8013B40EAFB
:10251000034011F8013B40EA032011F8012B10435E
:10252000704770B503460D4600265869002847D00D
:10253000188B002844DD5A69002114E0505C3428CF
:1025400006D1881C81B208464C1CA1B2165C0AE078
:10255000505CA84201D1501870BD481C81B2505C3B
:10256000401C084481B2188B884202DD505CFF2871
:10257000E4D126B3012E04D1186900F16C02802445
:102580000AE0022E04D1186900F12C02402403E075
:10259000186900F12C02C02400210AE0505CA84216
:1025A00001D15018D8E7481C81B2505C401C084447
:1025B00081B2A14202DA505CFF28EFD100BF00BF18
:1025C0000020C9E72DE9F04107463C6A002060631E
:1025D000A063E06333212046FFF7A3FF05461DB14A
:1025E000A81CFFF78EFFE0643A212046FFF799FF11
:1025F000054625B1A81CFFF784FF206502E0E06CCA
:10260000400820653B212046FFF78BFF054625B19A
:10261000A81CFFF776FF606501E0E06C606520694B
:10262000103008B9002001E0206900692063012111
:102630002046FFF776FF054635B1A81CFFF761FF7E
:10264000064601F0C5FE606303212046FFF769FFDF
:10265000054635B1A81CFFF754FF064601F0B8FE49
:10266000A0631C212046FFF75CFF054635B1A81C7E
:10267000FFF747FF064601F0ABFEE0630621204668
:10268000FFF74FFF0546F5B1681CFFF737FF8008DD
:102690002064206C022801D90220206400260EE06C
:1026A000022101EB86014819FFF72BFF804601F05C
:1026B0008FFE04F1440141F82600701CC6B2206C64
:1026C000B042EDD800BFBDE8F081000070B504460F
:1026D000256A204603F058FB0949204603F066FBB3
:1026E0000749204603F05CFB0549204603F09AFBAE
:1026F0000C21284600F0CAFA2046FFF757FE70BDAD
:10270000B0A300082DE9F04105462C6A3621204689
:10271000FFF707FF06468EB1B01CFFF7F2FE074633
:1027200001F056FEE0622069103008B9002001E097
:10273000206900692063284600F020FABDE8F08196
:1027400010B500BF838C9B1C1344442B01D900BFE0
:1027500000BF00BF848C631C8384036AF033195567
:10276000848C631C8384036AF0331A5510BD00BF48
:10277000828C442A01D300BF00BF00BF838C5A1C47
:102780008284026AF032D154704710B500BF828C47
:10279000121D442A01D900BF00BF00BF0B0E848C5C
:1027A000621C8284026AF0321355C1F30743848CA1
:1027B000621C8284026AF0321355C1F30723848CB1
:1027C000621C8284026AF0321355848C621C8284FB
:1027D000026AF032115510BD10B500BF828C921CF8
:1027E000442A01D900BF00BF00BF0B0A848C621CC1
:1027F0008284026AF0321355848C621C8284026ADD
:10280000F032115510BD00BF10B900BF00BF7047B6
:1028100000BF00BF016A09B900BF00BF00BF00BF11
:10282000818C442901D300BF00BF00BFFF22838CED
:10283000591C8184016AF031CA540DE000BF818CBB
:10284000442901D300BF00BF00BF0022838C591C64
:102850008184016AF031CA54818C4429EED390F806
:10286000241001F003010029E8D100BFCFE70000E8
:10287000F8B505462C6A0421204600F007FA2846E0
:10288000FFF776FC06464EBB012235212046FFF7B6
:1028900057FF03212046FFF76AFF02223921204615
:1028A000FFF74EFFA98D2046FFF796FF2046FFF762
:1028B000AAFFA28CF03291B2E06903F07FFD4322BF
:1028C0001249A06806F05AFF00954323104AE169B7
:1028D000A06807F0B5F82846FFF742FD6078401C75
:1028E000607060780A2805DA60784FF47A7110FB1E
:1028F00001F001E042F2107087B207F2F3104FF4DA
:10290000FA7190FBF1F0E0843046F8BDB0A3000806
:10291000B4A300082DE9F05F82461746D046D8F8E8
:102920002040D7F804B0E7609BF80000022800D0F0
:1029300067E000260AE008F12500815D0BF11C002C
:10294000805D814200D05CE0701CC6B298F8240023
:10295000B042F0DCDBF8040003F080FA61688842E2
:1029600000D04EE0204600F08BFA00B149E035215E
:102970002046FFF7D6FD8146B9F1000F00D140E0B7
:1029800009F10200FFF7BAFD0546052D1AD120789E
:10299000012808D14046FFF715FE0020E08440469C
:1029A000FFF7A8FB2CE02078032805D02078042826
:1029B00002D02078052823D10020E0844046FFF78C
:1029C00017FB1DE0062D11D12078032808D02078B0
:1029D000012805D02078042802D02078052805D1C8
:1029E0000020E0844046FFF771FE09E0022D07D188
:1029F0002078062804D10020E0844046FFF782FEBC
:102A000000BF2046FFF768FD384603F045FC002074
:102A1000E060BDE8F09F0000F8B505462C6A0D2186
:102A2000204600F033F90020E06260632063E06339
:102A3000A06360652065E06420642846FFF798FB8A
:102A4000064616BB012235212046FFF779FE0721F5
:102A50002046FFF78CFE2046FFF7D5FEA28CF03211
:102A600091B2E06903F0AAFC432204F12C01A068B2
:102A700006F084FE0095432304F12C02E169A0686E
:102A800006F0DEFF2846FFF76BFC6078401C6070A4
:102A900060780A2805DA60784FF47A7110FB01F04B
:102AA00001E042F2107087B207F2F3104FF4FA71AE
:102AB00090FBF1F0E084284603F066F906492846C9
:102AC00003F074F90449284603F06AF902492846DC
:102AD00003F0A8F93046F8BDB0A30008F8B50546E4
:102AE0002C6A0521204600F0D1F82846FFF740FB6C
:102AF00006465EBB012235212046FFF721FE032159
:102B00002046FFF734FE022239212046FFF718FE47
:102B1000A98D2046FFF760FE2046FFF774FEA28CC9
:102B2000F03291B2E06903F049FC432204F12C0138
:102B3000A06806F023FE0095432304F12C02E1690E
:102B4000A06806F07DFF2846FFF70AFC6078401C6D
:102B5000607060780A2805DA60784FF4FA6110FB3B
:102B600001F001E044F6206087B207F2F3104FF461
:102B7000FA7190FBF1F0E0843046F8BD2DE9F8439E
:102B800005462C6A0121204600F080F82846FFF710
:102B9000EFFA0646002E58D1012235212046FFF7D4
:102BA000CFFD03212046FFF7E2FD02223921204616
:102BB000FFF7C6FDA98D2046FFF70EFE0422322145
:102BC0002046FFF7BDFD206B03F048F980464146E3
:102BD0002046FFF7DAFD042236212046FFF7B0FD3C
:102BE000E06A03F03BF9804641462046FFF7CDFD01
:102BF000042237212046FFF7A3FD01212046FFF7DD
:102C0000B6FD03212046FFF7B2FD1C212046FFF749
:102C1000AEFD06212046FFF7AAFD2046FFF7F3FD93
:102C2000A28CF03291B2E06903F0C8FB0095432317
:102C3000144AE169A06806F003FF43221249A06824
:102C400006F09CFD2846FFF78BFB6078401C607007
:102C50006078062803DA61780120884000E03C2093
:102C600000EB4001C1EBC0104FF6FF7101EAC00755
:102C700007F2F3104FF4FA7190FBF1F0E084304664
:102C8000BDE8F883B4A30008B0A3000802788A4224
:102C900002D00170002242707047000070B50546F6
:102CA000002600BF25B900BF00BF6FF0090070BD4E
:102CB00000BF2C6A95F82E0020F0080085F82E0041
:102CC000A88DB0F5107F02DA4FF0FF30EFE74CB976
:102CD000582002F061FE044614B94FF0FF30E6E7D9
:102CE0002C6209E0A06810B1A06806F089FEE068D7
:102CF00010B1E06803F0D0FA58212046FDF7E3FA5E
:102D000006F06CFEA060A06838B9204602F0D6FD3F
:102D1000002004462862401EC9E744221049A068EA
:102D200006F0F2FC43220E49A06806F027FD2A4671
:102D30000C49A06806F060FE2846FFF737FB064600
:102D40002EB1284600F010F84FF0FF30AFE795F8AD
:102D50002E0040F0080085F82E003046A7E700005E
:102D6000B0A300081529000870B505462C6A00BFFD
:102D700015B900BF00BF70BD00BF95F82E0020F050
:102D8000080085F82E00ACB1A06820B1A06806F05C
:102D900037FE0020A060E06820B1E06803F07CFA14
:102DA0000020E0602046FFF797FB204602F086FDFA
:102DB0000020286200BFDEE770B505462C6A207847
:102DC000012805D020780A2802D02078052802D1D1
:102DD0002846FFF783FE70BD70B505462C6A207843
:102DE000012805D020780A2802D02078052802D1B1
:102DF0002846FFF73DFD70BD70B505462C6A20786A
:102E00000C2802D02078062803D12846FFF7CEFAF6
:102E100035E0207801280DD16078052803DC2846AC
:102E2000FFF7ACFE2BE02846FFF7F6FD2846FFF73C
:102E3000BDFA24E0207808280AD16078012803DC54
:102E40002846FFF757F91AE02846FFF7D1F816E0B1
:102E50002078052803D12846FFF740FE0FE02078B0
:102E600004280CD16078082803DC2846FFF700FD11
:102E700005E02846FFF7D0FD2846FFF797FA70BD1A
:102E800070B5044600BF24B900BF00BF6FF0090051
:102E900070BD00BF00BFE06820B900BF00BF6FF089
:102EA0000800F5E700BF2046FFF716FBE068008941
:102EB000F0280CD9E0680089F0382083208B02F0DC
:102EC0006BFD6061606910B94FF0FF30E0E7F02002
:102ED00002F062FD2061206930B9606902F0EEFC09
:102EE00000206061401ED3E70023F022D4E90301F3
:102EF00003F085F9054600BFF02D01D000BF00BFEB
:102F000000BF606968B1228BF0236169E06803F05B
:102F100076F9054600BF208BA84201D000BF00BF54
:102F200000BF0020B4E7000000201D4908681D49CB
:102F3000084040F480301A4908600021184A516066
:102F40009160D160114688694FF64171084040F0A8
:102F50008000114688610021D1611146C96B41F49E
:102F60000271D16310490968104A11430C4AC2F832
:102F70000C111146D1F8101141F40311C2F81011CF
:102F80000B4988690B49084040F00870084988617E
:102F90000868094908400948054908607047000069
:102FA000008002400F8130FD0C8102406000020071
:102FB00000900240233FDEF87D0000F80060C1026F
:102FC00010B540F2194003F011FD40F2194003F032
:102FD000FBFC00F00BFB10BD08B500210091009038
:102FE00002E00099491E009100990029F9D108BD1D
:102FF0002DE9F043044600210025002600278C46D9
:10300000B4F5E00F0FD12348234B052540F2F456C9
:103010004FF48017DFF88480C8F81000DFF8808054
:10302000C8F800000FE01F481F4B052540F2F4567A
:10303000EF0744F2F45CDFF86480C8F80C00DFF8B6
:103040006C80C8F800004FF00008DFF86490C9F801
:103050000080DFF86090C9F80080002115E000EBE7
:1030600001121760C2F804C001FB0638C2F80880DC
:10307000A5F10108884506D900EB011808F11008F0
:10308000C2F80C8000E0D060491CA942E7D3BDE83B
:10309000F083000060010020741F002000900240B7
:1030A0001400002010010020B001002018000020B2
:1030B000200000201C00002000B500F04FFC00F0B4
:1030C0007BFB00BD30B503460C460021002238488A
:1030D0000068006800F0004008B1002030BD002BFF
:1030E00034D033480068008800F4004060BB3048AA
:1030F0000068008800F4807030B32D4800680088B4
:1031000000F4007000B32A4800680068C0F30D4264
:10311000121F2848006800F0007030B12448006891
:10312000007800F0200000B1121DA24201D9002059
:10313000D4E7002105E01E4800688068405C5854D0
:10314000491C9142F7D301E00020C7E74FF000404F
:10315000174D2D6828601848406900F0800020B1A4
:103160008020154D68610020A860114800688088A3
:1031700000F4804028B10E480068C0680C4D2860FB
:1031800014E00B480068808800F4004020B10A4831
:10319000C068074D286009E007480068C0F384054F
:1031A0000348006810302844014D2860012095E74D
:1031B00018000020008002400090024070B50346D5
:1031C00000222F480068006800F0004008B100208D
:1031D00070BD40F2F450814201D90020F8E74BB1B4
:1031E000002205E0985C264E3668B668B054521C42
:1031F0008A42F7D32248006841602148006800688D
:1032000040F040501E4E366830601D48006800682F
:1032100040F000401A4E366830601A48406900F0AD
:1032200004051848406900F0200405B92CB145EAAE
:103230000400144E7061002070601148006800683E
:1032400000F4801028B10E480068C0680C4E306051
:1032500014E00B480068006800F4001020B1094831
:103260000069074E306009E006480068C0F3840634
:103270000348006810303044014E30600120A7E759
:1032800014000020009002402DE9F74F82B08146E3
:103290008A460024002500260027A0460020019031
:1032A0008346009000F0CEF948B9C548FFF794FE78
:1032B00000F0C8F918B9009805B0BDE8F08FFFF725
:1032C00033FE4F46012F5CD100BF01AB01221146F6
:1032D000002000F023FABDF8040000F00400019083
:1032E00008F10108BDF8040010B9B6488045ECD3D8
:1032F000B448804501D10098DEE74FF000084FF454
:103300008050019001AB00220121022000F006FA5A
:103310008346BBF1000F01D10098CDE700BF01ABA0
:1033200001221146002000F0F9F9BDF8040000F078
:103330002000019008F10108BDF8040010B9A1486F
:103340008045ECD39F48804501D10098B4E74FF009
:10335000000801AB10220121002000F0DFF9BDF8C8
:10336000040000F0040010B14FF4006700E00027F3
:10337000BDF8040000F0020000B11DE047F48047F2
:103380001AE007F40060C008019007F48040BDF81F
:10339000041041EA5000019001AB002201210220FB
:1033A00000F0BCF98346BBF1000F01D1009883E720
:1033B0006FF07F40FFF710FE8348046824F4B044A8
:1033C0003C4304600AF4806070B17F48006840F4B8
:1033D00080607D4908607D48846924F080640AF03B
:1033E00080600443794884617748406804990843C1
:1033F000754948607648007800F00100A8B174482B
:103400004568084604682E4672480440C04306409A
:103410003443084604606D4884692E4624F0C00495
:1034200006F4407644EA960484616948007800F026
:10343000020040B1664886686448046866480440F3
:103440003443624804606248007800F0040040B1F0
:103450005F48C6685D4804686048044034435B4880
:1034600004605B48007800F0080048B158480669DD
:10347000564804684CF202008443344353480460C5
:103480005348007800F0100040B1514846694F4859
:1034900084695348044034434C4884614C48007864
:1034A00000F0200098B14A488569484884692E4652
:1034B0004C480440C0430640344344488461046897
:1034C0002E4624F0800406F0800634430460404811
:1034D000007800F0400038B13D48C5693A48C469F9
:1034E0006FF310042C43C4613948007800F0800069
:1034F000C0B13748056A344884692E464FF641709A
:103500000440864334433048846130488030046846
:103510002E4624F0770406F4EE4644EA16242B489F
:10352000C0F880402A48008800F4807018B128480C
:10353000406A254988602648008800F4007018B168
:103540002348806A2049C8602148008800F48060D0
:1035500048B11F48C56A1C48446840F2DE70844385
:103560002C43194844601A48008800F4006040B1B8
:103570001748056B144804681B4804402C43124844
:1035800004601348008800F4805038B11048456B3F
:103590000D48046824F440042C4304600C4800885F
:1035A00000F4005038B10A48856B0748046824F4D9
:1035B00060242C4304600120009000987CE6000009
:1035C000FFFF8F00FFFF04000080024000900240D8
:1035D000383D00207FFFFFFDFFFFFEF8FFC001FF29
:1035E000E73FDEFDFBFFFFFE8FDDFEFF0020084909
:1035F000086048608860C860086148618861C86187
:10360000086248628862C8620863486388637047DA
:10361000383D00200A794B7942EA0322084B0344E3
:103620001A64CA7812068B7842EA03424B7842EA5F
:1036300003220B781A43024B03445A64704700007C
:1036400000800240F8B500262C48056925F01C05CD
:10365000012003F015F904462948844205D329487E
:10366000844202D245F0080526E02648844205D36C
:103670002548844202D245F00C051DE022488442D0
:1036800003D32248844200D216E02048844205D366
:103690001F48844202D245F004050DE01C488442D4
:1036A00002D31C48844202D31A48844202D145F016
:1036B000100501E03046F8BD104805614FF40040A8
:1036C00000906B4600220121022000F027F808B983
:1036D0003046F0E71048FFF77FFC6B4600220121DF
:1036E000104600F01BF808B93046E4E7BDF80000CA
:1036F00000F4004000B901263046DCE700800240BB
:10370000002D3101C00E16020087930300E1F5057C
:1037100080D1F008001C4E0EFFFF04002DE9F0419F
:1037200004460D4600270020DFF884C0DCF81010A6
:103730004FF6C37C21EA0C014FF4F86C0CEA821CB2
:103740004CEA040C4FF4784808EAC5284CEA080C07
:103750004CF0010C4CEA0101022C05D1B3F800C079
:10376000DFF84C80C8F814C0DFF844C0CCF8101063
:1037700000BFDFF83CC0DCF810C00CF001067F1C75
:103780001EB1DFF830C06745F3D1DFF824C0DCF8A4
:1037900010C00CF0010CBCF1000F00D101202CB9BD
:1037A000DFF80CC0DCF814C0A3F800C0BDE8F0815D
:1037B00000800240FFFF04000648006840F004005B
:1037C000044908600448806940F0020002498861A9
:1037D0007047000000800240009002404FF000401F
:1037E00026490968086025480068808800F4804000
:1037F000E8B123480068A0B121480068C0681F49AB
:1038000008601F480068006828B11D48006800680B
:103810001B49086030E01A480068103018490860F9
:103820002AE016480068C0681449086024E013487C
:103830000068808800F4004060B11248C0680F49F9
:1038400008600F480068B8B10D48006800680C496E
:10385000086011E00B480068C0F384010748006865
:1038600010300844054908600548006820B1044844
:1038700000681030024908607047000018000020FE
:10388000200000200090024000B50023214800687D
:10389000026802F0004008B1002000BD02F40040C0
:1038A00028B902F4807010B102F4007018B9FFF763
:1038B00095FF0120F1E702F0200030B102F0010095
:1038C00018B1FFF78BFF0120E7E702F00040A8B92D
:1038D00002F4004090B902F4807078B102F40070F4
:1038E00060B1C2F30D431B1F0B48006800F000706D
:1038F00068B102F0200050B11B1D08E007480068C5
:10390000401C06490860FFF769FF0120C5E718461B
:10391000C3E70000180000200080024024000020BF
:1039200010B5002100200B4B1B6843F00103094C2C
:10393000236000BF074B1B6803F00102491C12B152
:10394000054B9942F6D1034B1B6803F0010303B901
:10395000012010BD00900240FFFF040000B50748A1
:10396000006840F008000549086000F00BF80448C2
:10397000806940F400500249886100BD0080024027
:103980000090024010B500220020094B9B6943F4CF
:103990008013074CA36100BF054B9B6903F48011A2
:1039A000521C11B1034B9A42F6D301B9012010BD4C
:1039B00000900240FFFF04002DE9FC4706468846C0
:1039C000174600BF1EB900BF00BFBDE8FC8700BF9F
:1039D00078892A2803D2384602F05EFCF5E77C6835
:1039E000012000F002FDE189884214D140F2046018
:1039F00000F0FBFC618A88420DD14FF4006000F0BA
:103A0000F4FC218A884206D140F6060000F0EDFC65
:103A1000A189884203D0384602F03EFCD5E7E06930
:103A20000190D4F826000090706810B94FF000099A
:103A300007E000987168884201D1012000E0002071
:103A40008146B9F1000F07D0012304F1160201A944
:103A5000304606F071F806E0002304F1160201A9D1
:103A6000304606F069F8A08A00F0BFFC012802D0B9
:103A7000022837D131E0B9F1000F2CD0022000F03C
:103A8000B4FCA082E069C4F826007068E06100BF61
:103A900096F82400062801D000BF00BF00BF06250D
:103AA00012E0681EC5B204F11600415D0A304155AE
:103AB0000A38405D605518F8051004F116004155AC
:103AC00018F80510A01D4155002DEADC3946304696
:103AD000B269904700E000BF05E001A93046FEF75B
:103AE0006DFA00E000BF00BF384602F0D5FB00BF12
:103AF0006BE770B504460E4600BF14B900BF00BFA7
:103B000070BD00BF7568D5F81A00A1680840D4E9F7
:103B100001121140884200D0F2E70023AA1D05F1EE
:103B20001A01204606F008F800BFE9E72DE9FC413C
:103B300004460E4615460E21304602F0F9FB18B138
:103B40006FF00100BDE8FC8100272146284600F007
:103B50000AFE08B1254F40E04FF0704002F07EF9B8
:103B6000296800EA01084FF0604002F077F98045CB
:103B70001DD101208DF8000000208DF801005E208D
:103B80008DF80200286802F069F9C0F306408DF84C
:103B90000300286802F062F9000A8DF80400286822
:103BA00002F05CF9C0B28DF805006F4615E0286898
:103BB000A1680840D4E901121140884207D0E068AA
:103BC00010B104F10C0502E06FF00300BAE73246D1
:103BD0002946204600F00CF8B4E73B4604F12502E4
:103BE0003146204600F05CF9ACE70000B8A30008BD
:103BF0002DE9F84F81460F46164609F1250A4FF088
:103C0000FF3000904946384600F0ADFD78B94FF0DE
:103C1000704002F023F9396800EA01054FF0604076
:103C200002F01CF9854202D00FB1386818B96FF064
:103C30000900BDE8F88F0121384600F00FFA04466C
:103C4000002C01DA2046F4E704EB8400554901EB2F
:103C50008000807B30B9012004EB8401514A02EBE3
:103C60008101887300BF04EB84004E4901EB8000A2
:103C7000807B012808D004EB840001EB8000807B6E
:103C8000022801D000BF00BF00BF04EB84004549FB
:103C900001EB8000807B012800D02EB939464846D0
:103CA00000F0E8F8009000BF002E79D004EB84000B
:103CB0003C4901EB8000807B02280CD104EB84009E
:103CC00001EB800000F1080352463146484600F0FF
:103CD000E7F8009064E004EB8400324901EB8000D7
:103CE000807B01285CD14FF0000B354610E000BF0F
:103CF00068892989884203D1286808B100BF00BFBC
:103D000000BF287B012802D04FF0010B02E02D6894
:103D1000002DECD100BFBBF1000F10D0298900228B
:103D2000032002F0B3F805466DB13146284602F093
:103D3000F8F940B1284602F0AFFA002503E0354615
:103D4000284602F093FB55B3062001F0A9FF8046F8
:103D5000B8F1000F1FD00020C8F80000C8F80450C8
:103D600004EB84000F4951F8200060B104EB84019A
:103D70000C4A52F8210000E0006801680029FBD1DC
:103D8000C0F8008004E004EB8400064941F820807C
:103D90000020009002E0284602F07EFA00BF00BF3B
:103DA000009846E72CCA00202DE9F84F07468846C0
:103DB00091469A46DDF828B00020009000222A2182
:103DC000032002F063F806461EB94FF0FF30BDE84D
:103DD000F88F00BF70892A2801D200BF00BF00BF42
:103DE00074680D9800F001FBA08200BF97F82400D2
:103DF000062801D000BF00BF00BF062512E0681EE4
:103E0000C5B21AF8051004F1160041550B98415D32
:103E100004F12000415519F80500605518F8051007
:103E2000A01D4155002DEADCDBF80000E0610C9894
:103E30000068C4F82600012000F0D7FAE0814FF4B2
:103E4000006000F0D2FA208240F2046000F0CDFA67
:103E5000608240F6060000F0C8FAA081314638467C
:103E6000BA6990470090304602F016FA0026009892
:103E7000ADE700007FB504460D460121064A201D2E
:103E800004F125038DE825000391044A19462046D4
:103E9000FFF78AFF04B070BDBEA30008B8A30008F6
:103EA0002DE9F04705460F46904699467E6800BFCB
:103EB00095F82400062801D000BF00BF00BF0624EB
:103EC00008E0601EC4B219F80400305518F8041058
:103ED000B01D0155002CF4DC4FF4006000F085FAB1
:103EE000B08139462846AA699047BDE8F0870000AE
:103EF00010B5002446E004EB8400244901EB800067
:103F0000C07B401C04EB8401204A02EB8101C87392
:103F100004EB8400114601EB8000807B022806D16F
:103F200004EB840001EB8000C07BF0280EDA04EB88
:103F30008400164901EB8000807B012820D104EB2E
:103F4000840001EB8000C07B022819DB04EB8400B5
:103F50000E4951F8200060B104EB84010B4A52F87D
:103F6000210000F08FF9002004EB8401074A42F899
:103F70002100002004EB8401044A02EB81018873D4
:103F8000601CC4B20A2CB6DB10BD00002CCA002095
:103F900070B504460D466668B08900F026FAB0F5A3
:103FA000006F03D0A0F60600F8B917E021462846B6
:103FB000FFF79FFD6FF00D01204602F0B9F940B107
:103FC00000BF00BF00BF00BF204602F065F900241B
:103FD00003E02946204600F093FC0BE0224605F161
:103FE00025012846FFF7E8FC04E0204602F054F9DA
:103FF000002400BF00BF002070BD000010B50446C3
:1040000000BF0CB900BF00BF00BF652084F82F00BF
:1040100030210955044860610448A061204601F040
:1040200083F9002010BD00002D3B00089D530008BF
:1040300070B50446204601F087F9064616B94FF0E0
:10404000FF3070BD214630462269904705461DB1BC
:10405000304602F021F900262846F2E72DE9FC5F00
:1040600005460F464FF00A08C1460A260024A3461B
:1040700000200190B2460090CDB17748007800EB67
:104080008000764901EB8000807B02280FD12868F0
:104090007149097801EB8101704A02EB810149689D
:1040A000884204D16C48007840B2BDE8FC9F0024EF
:1040B00073E00A2E08D104EB8400684901EB80000C
:1040C000807B08B966B266E004EB8400634901EBCB
:1040D0008000807B012836D165B1286804EB84011B
:1040E0005E4A02EB81014968884203D15A48047054
:1040F00060B2DAE704EB8400584951F8200088B137
:1041000004EB840001EB8000C17B0098814242DB1C
:104110004FFA84FA04EB8400504901EB8000C07B25
:10412000009038E004EB84004C4901EB8000C07B38
:10413000584530DB4FFA84F804EB840001EB800033
:1041400090F80FB027E004EB8400444901EB8000B5
:10415000807B02281FD165B1286804EB84013F4AA7
:1041600002EB81014968884203D13B48047060B288
:104170009BE704EB8400394901EB8000C17B019887
:10418000814208DB4FFA84F904EB8400334901EBE8
:104190008000C07B0190601CC4B20A2C89DB0A2E0F
:1041A00002D107F0010010B107F0020010B14FF08A
:1041B000FF307AE70A2E01DAF4B22AE0B9F10A0FE9
:1041C0000BDA09F0FF0400BF04EB8400234951F827
:1041D000200008B100BF00BF1BE0B8F10A0F02DAEF
:1041E00008F0FF0415E0BAF10A0F0FDA0AF0FF0435
:1041F00004EB8401194A52F8210000F043F8002032
:1042000004EB8401154A42F8210002E04FF0FF3030
:104210004BE700BF0A2C01DB00BF00BF00BF00203E
:1042200004EB84010D4A02EB8101887345B105B9A5
:1042300000E0286804EB8401084A02EB8101486031
:10424000002004EB8401054A02EB8101C873024897
:10425000047060B229E70000A60000202CCA0020EC
:1042600070B504460D46E1B2054805F055FD00BFA6
:104270000721034805F00DFE0028F9D0204670BD47
:104280000010014070B5044600BF0CB900BF00BF6C
:1042900000BF00BF606808B900BF00BF00BF0EE0EC
:1042A0002546246800BF686808B900BF00BF00BF8A
:1042B000686801F0F1FF2946062001F0A9FC002CF6
:1042C000EED170BDF0B503461C6A5D6A00200DE0BA
:1042D0000126864016403EB187000F26BE40B443FB
:1042E000860001FA06F63443461CB0B20828EFD324
:1042F000082011E00126864016405EB1A0F10806B4
:10430000B7000F26BE40B543A0F10806B60001FA7B
:1043100006F63543461CB0B21028EBD31C625D6232
:10432000F0BD8162704781617047C162704702468B
:10433000002013690B400BB1012000E00020704702
:10434000F0B504460D4616462168E268002019E0E3
:10435000012787401F409FB14FEA400C032707FA0F
:104360000CF7B943470005FA07F739434FEA400C09
:10437000032707FA0CF7BA43470006FA07F73A4350
:10438000471CB8B21028E3D32160E260F0BDF0B55D
:104390000C461546012C03D146681E43466002E0D8
:1043A00046689E434660826800210DE001268E40EB
:1043B0001E403EB14F000326BE40B2434E0005FAF8
:1043C00006F632434E1CB1B21029EFD38260F0BD25
:1043D0000146080601F47F4240EA022001F47F0210
:1043E00040EA122040EA1160704701460806000CBE
:1043F00040EA1120704770B505460C46224603215D
:10440000284600F0E6F870BD2DE9FF5F05468946B5
:104410006C68208801F028FDC0F303204FEA800873
:10442000C8F10001284601F083FF10B9288904284B
:1044300000D2C5E0686890F800A0BAF1080F6FD10B
:1044400001274FF0704001F009FD216900EA010BDE
:104450004FF0604001F002FD834500D1002749463E
:1044600004F1100000F07FF900B1002727B92846B9
:1044700001F012FFBDE8FF9F2889082800D29FE0C5
:10448000284600F0F4F818B1284601F005FFF1E7DE
:104490002221284601F04CFF88B34146284601F00E
:1044A00047FF20B100BF00BF00BF00BF8CE02989DB
:1044B0000022022001F0EAFC074607B984E000BFB1
:1044C000798908F10800814201D200BF00BF00BF16
:1044D0002946384601F025FE20B100BF00BF00BFCD
:1044E00000BF71E07C68C8F1000001B2384601F0FD
:1044F0001FFF28B100BF00BF00BF00BF64E004E0A1
:10450000284601F0C9FE3D460BE06FF02101284628
:1045100001F00EFF28B100BF00BF00BF00BF53E095
:1045200048E06E68E06803902069E06003982061CD
:10453000002030704FF2FF70FFF757FF71888842FC
:1045400008DC4FF40060FFF750FF401C71880844FE
:10455000708006E04FF40060FFF747FF7188084461
:104560007080208901F080FCC0B240F47F4738465B
:10457000FFF73BFF2081002060811421204600F0DE
:104580006CF860814146284601F0D2FE18B100BFA8
:1045900000BF00BF0DE001200021FF230A46CDE946
:1045A0000109009104F10C01284600F0B1FA074618
:1045B00000BF00E000BF00BF284601F06DFE59E7D4
:1045C000284601F069FE55E7284601F065FE00BF68
:1045D00050E72DE9FC4706460F469046002224216D
:1045E000012001F053FC05460DB9BDE8FC8700BF72
:1045F0006889242801D200BF00BF00BFD6F804900C
:104600006C68277084F801800020A080E0807168C9
:104610006A6802F108001C22FBF73CFE0020608063
:104620006989204600F019F8608001200021FF23ED
:1046300009F10C02CDE90010284600F04FFA284697
:1046400001F02AFE00BFD0E770B505460C462246B1
:104650000B212846FFF7BDFF70BD70B504460D461F
:104660002946204601F04CF8C04380B270BD2DE9C8
:10467000F041064600240027354617E0698968683E
:1046800001F03EF80444A0B200EB1444688900EB4A
:10469000D0714910A0EB410139B1C7F10100C7B297
:1046A000E0B2C4F3072141EA00242D68002DE5D1D2
:1046B00027B1E0B2C4F3072141EA0024E04380B20D
:1046C000BDE8F0812DE9F05F80460E461746994619
:1046D000DDF828B00024A246454618E069896868DC
:1046E00001F00EF80444A0B200EB1444688900EB1A
:1046F000D0714910A0EB410141B1CAF1010000F0B5
:10470000FF0AE0B2C4F3072141EA00242D68002D1E
:10471000E4D1BAF1000F04D0E0B2C4F3072141EABA
:104720000024308880B2044430684FF6FF7101EAFB
:1047300010400444388880B20444386801EA1040CC
:1047400004444846FFF751FE04445846FFF74DFE27
:104750000444A0B200EB1444A0B200EB1444E043C4
:1047600080B2BDE8F09F30B503461A68D04300B16F
:104770000AB9012030BD91F82E0000F0020008B9FE
:104780000020F7E74868904201D10020F2E718685E
:104790008C682040D1E901452C40A04208D18868AE
:1047A00022EA00008D68EC43A04201D10120E1E73C
:1047B0000020DFE72DE9F74F86B08846B8F82C00D7
:1047C00005901420019002220021104601F05EFBAA
:1047D000054625B94FF0FF3009B0BDE8F08F0598C8
:1047E00068812881454820F0030068606C6806985D
:1047F000142241682046FBF74DFDE08801F034FBB0
:104800000746C7F30C00049007F400500390069885
:104810000089143886B20599A1F11400C11700EB84
:104820005171C1F3CF0B61E005981438B04201DB40
:10483000012000E0002002900498C0F30C000399CE
:1048400040EA0107029808B947F40057029808B1F6
:10485000304601E04FEACB001FFA80FA524604F1DD
:104860001401019B069801F0CAFC0199084480B22A
:1048700001903846FFF7B9FDE0800AF1140188B2D3
:10488000FFF7B3FD60800020608114212046FFF710
:10489000E4FE6081029828B106F1140081B2284636
:1048A00001F08CFD00221146022001F0EFFA814652
:1048B000B9F1000F0DD02946484601F01EFCD8F88A
:1048C000143049464046089A9847484601F0E4FCAF
:1048D00005E0284601F0E0FC4FF0FF307CE7A6EB56
:1048E0000A0086B20498584480B20490002E9BD1EE
:1048F000284601F0D1FC00206EE700004FC40020E4
:104900002DE9F05F06460F464FF0010A74682088D3
:1049100001F0AAFA0421B1EB203F05D0304601F0A6
:10492000BBFC0020BDE8F09F208801F09DFAC0F399
:1049300003284FF6FF7000EA8808608801F094FAB7
:1049400081467089404502DB3089484504DA3046AB
:1049500001F0A2FC0020E5E741462046FFF77DFE7E
:1049600020B1304601F098FC0020DBE74946304694
:1049700001F024FD4FF0010B3D4600BF284601F039
:10498000E3F970B1281D60B1686850B120696968A9
:10499000884205D0294604F11000FFF7E4FE00B17B
:1049A0000DE0BBF1000F04D04FF0000B4848056844
:1049B00000E02D68BD4200D12D68002DDED100BF82
:1049C0007DB9208901F050FAC0B2112809D104EB59
:1049D0000801488801F048FA442802D13D464FF0CA
:1049E000000ABAF1000F17D0394604F10C00FFF7A6
:1049F000BAFE60B94FF0704001F030FAE16800EAA9
:104A0000010B4FF0604001F029FA834504D1304694
:104A100001F042FC002085E725B9304601F03CFC5E
:104A200000207FE743F6FF70FFF7DFFCE1880840D6
:104A300038B1304600F0F4F806460EB9002071E7B0
:104A4000746824480760244804603946304601F001
:104A5000E3FEA8BB208901F007FAC0B201280DD0FF
:104A6000062806D011280ED13946304604F0B8FE8B
:104A700025E03946304602F0A5FC20E039463046B4
:104A8000FFF7C2FC1BE0394604F11000FFF76BFE94
:104A900088B94FF0704001F0E1F9216900EA010B9B
:104AA0004FF0604001F0DAF9834504D074600221D0
:104AB0003046FFF7A0FC304601F0EEFB00BF00BF20
:104AC0000020044908600449086000BF2AE700008C
:104AD0004000002094000020980000202DE9FE4FA7
:104AE00005460E4614461F46DDE90C89204600F0B7
:104AF0000FFBB0F1000A02D1001FBDE8FE8F3B465C
:104B00002246314628468DE8000700F001F8F4E718
:104B10002DE9F05F05460F4690469A460C9EB8F187
:104B2000000F65D04FF014091421284601F000FC55
:104B300018B16FF00100BDE8F09F6C6800BF688994
:104B4000142801D200BF00BF00BF208901F08CF9FA
:104B50006AF31F208346FFF748FC2081208901F07B
:104B600083F901120B9840EA012B5846FFF73DFCF0
:104B70002081B8F1000F01D1002001E0D8F8000039
:104B80002061CB464FEAE97109EB917189104FF42E
:104B9000804242EA01210A9A114388B2FFF725FCBC
:104BA00020802889FFF721FC60800020E0801B48DE
:104BB0000088FFF71AFCA08018480088401C17499D
:104BC00008800FB1386830B9301D08B9002000E006
:104BD0007068E06004E00FB9002000E03868E06031
:104BE0000020608149462046FFF737FD608102E0E2
:104BF0006C6804F11008B08D48B12889B18D8842E5
:104C000005DD424631462846FFF7D4FD93E742468C
:104C100029463046736998478DE700009C000020C4
:104C20002DE9FC5F804600200090D8F804502888C9
:104C300001F01AF9C0F303201421B1EB800F00D06A
:104C4000B1E0E88801F010F9C0F30C004FF6FF71F5
:104C500001EAC00A688801F007F98346288801F054
:104C600003F9C0F30320ABEB800080B20190404613
:104C700001F04EFA06464E48018888190A280ADDD6
:104C80003146284600F006FA20B1494800883044F1
:104C90000A2800DD87E04748046812E06069E96897
:104CA000884209D1A0692969884205D1A089A988CB
:104CB000884201D1012000E0002000B103E000940F
:104CC0002468002CEAD100BF34B93146284600F0F0
:104CD00061F9044694B966E0E88801F0C5F8C0F3CC
:104CE0000C0058B9E08901F0BFF8C0F30C0028B1FE
:104CF0001422294604F10800FBF7CCFA2C4800885E
:104D000030442B490880E88801F0AEF800F40050E8
:104D100030B9A07F40F00100A07701985044A083F3
:104D20004146204600F048F8D0B3A08B1430A08351
:104D300060684068076860684568142204F10801EB
:104D40002846FBF7A7FAA08BFFF74FFB68800020EF
:104D5000E880688114212846FFF77FFC6881D4F839
:104D600004800CE0D7F804906FF01301384601F08E
:104D7000DFFA3946404601F098F9D9F80070002F63
:104D8000F0D12046009900F0EBF8404601F0C0F960
:104D900007490988081A064908804046BDE8FC9F73
:104DA000FFE70020FAE7404601F076FA0020F5E739
:104DB000A4000020A00000202DE9FE4F06460F466B
:104DC000002501200090D7F804A0BAF8020001F0F5
:104DD0004BF88346BAF8000001F046F8C0F3032010
:104DE000ABEB800080B20190BAF8060001F03CF80D
:104DF000C0F30C004FF6FF7101EAC000029000BF43
:104E000000BF7C68002020600298A080DDE90110CE
:104E10000844E080D6F804902EE0D9F80480A088F9
:104E2000B8F80410884210DAC4F800905DB1A08888
:104E3000E988884204DBE088B8F80410884200DD85
:104E40007EE02F6000E0776019E0A088B8F80410D9
:104E5000884200D174E0A088B8F80610884200DAD1
:104E60006EE035B1E888B8F80410884201D000201F
:104E70000090D8F800904546B9F1000FCDD100BFA1
:104E8000B9F1000F17D17DB100BFE888A188884231
:104E900001DD00BF00BF00BF2F60E888A188884205
:104EA00009D00020009006E000BF706808B100BF84
:104EB00000BF00BF7760B07F00F00100E8B300984A
:104EC000C0B370684068808810B10020009031E065
:104ED0002546D4F800900BE0D9F80440E888A18872
:104EE000884202D00020009005E02546D4F80090CA
:104EF000B9F1000FF0D100BF0098D8B100BF7068C1
:104F000008B900BF00BF00BF00BF70684068A04282
:104F100001D100BF00BF00BF00BF206808B100BFC3
:104F200000BF00BF00BFE088B18B884201D000BF46
:104F300000BF00BF0098BDE8FE8FFFE70020FAE742
:104F4000384601F0E5F805490988081A0349088040
:104F5000384601F0A1F90020EDE70000A400002090
:104F600070B504460D460A480068A04203D10849BE
:104F70002068086006E000BF0DB900BF00BF00BF99
:104F8000206828602146052000F042FE70BD000028
:104F9000A000002070B505460E46052000F080FEFA
:104FA000044664B93146284600F074F8B04203DB89
:104FB000052000F075FE04460CB9002070BD2021CC
:104FC0002046FBF780F90320E07706480068206060
:104FD000044804601422294604F10800FBF75AF93A
:104FE0002046EBE7A00000202DE9F04704460F46DD
:104FF000002600BFA74201D100BF00BF00BF37B1EC
:1050000000BF3868A04201D000BF00BF00BF606889
:10501000D0F80480B8F80400A0B96568D8F800009A
:105020006060142204F108016868FBF733F901217C
:105030002846FFF709FB284601F06AF8064428468F
:1050400001F02AF965680CE0D5F80480A946D8F883
:105050000050484601F05CF80644484601F01CF94F
:1050600000BF002DF0D139462046FFF779FF00BF81
:1050700007480088B04201DA00BF00BF00BF044803
:105080000088801B024908803046BDE8F087000098
:10509000A40000202DE9F05F05468946002700BFE7
:1050A0000026B346B246194804681DE06069E96805
:1050B000884207D1A0692969884203D1A089A988BB
:1050C000884201D0012000E0002048B10AF1010A25
:1050D0000EB9264604E0E07FF17F884200DC2646D8
:1050E000206800B1A3462468002CDFD12EB15946B8
:1050F0003046FFF779FF804647444F4502DABAF160
:10510000010FCDDC3846BDE8F09F0000A000002074
:1051100070B50546104804680EE0204600F014FE05
:1051200048B12868A1680840D4E9011211408842BA
:1051300001D1204670BD2468002CEED107480068DC
:1051400020B10648006800F0FFFD08B90020F1E733
:1051500002480068EEE70000400000204400002004
:1051600010B54FF4406001F01DFC40F6014001F025
:1051700019FC40F6024001F015FC41F20E1001F05E
:1051800011FC4FF4000001F049FC022300221946F3
:105190004F48FFF7D5F80223032200214C48FFF7C0
:1051A000F6F802220B214A48FFF78CF8042300226C
:1051B00002214748FFF7C4F8042303220021444892
:1051C000FFF7E5F804220B214148FFF77BF8802325
:1051D000002202213E48FFF7B3F88023032200217A
:1051E0003B48FFF7D4F880220B213948FFF76AF8D3
:1051F0000223002219463748FFF7A2F802230322B0
:1052000000213448FFF7C3F802220B213148FFF791
:1052100059F81023002202212E48FFF791F810239D
:10522000032200212B48FFF7B2F810220B21294856
:10523000FFF748F82023002202212648FFF780F8D4
:105240002023032200212348FFF7A1F820220B216D
:105250002048FFF737F84FF40063002202211E4870
:10526000FFF76EF84FF40063032200211A48FFF79E
:105270008EF84FF400620B211748FFF723F84FF424
:105280008053002202211448FFF75AF84FF480534C
:10529000032200211048FFF77AF84FF480520B21C7
:1052A0000D48FFF70FF84FF40053002202210A487F
:1052B000FFF746F84FF40053032200210648FFF79A
:1052C00066F84FF400520B210348FEF7FBFF10BDB8
:1052D00000000240000802400004024070B50024B3
:1052E00015E002212046FCF7F5FA06460321204688
:1052F000FCF7F0FA0546072E07D12B463246214629
:105300000748FBF797FB204670BD601C84B2202C39
:10531000E7DB00210348FBF78DFB0020F4E70000EA
:1053200034A50008DCA5000810B50446062084F862
:10533000240004F12500FCF7EFF840F2DC50A085D2
:10534000322084F82E0010BD2DE9F0418046002562
:10535000002600274FF4C0610F48FCF7C8FA064644
:1053600016B90020BDE8F08103223146104600F056
:105370008DFD05466DB12C4609E06289064BD919B1
:105380006068FAF787FF6089384487B22468002C88
:10539000F3D12846E6E70000F4CA00202DE9F041E9
:1053A00007460E460025344612E060892844B0F5D1
:1053B000C06F03DD4FF0FF30BDE8F08162890A4B1A
:1053C00058196168FAF766FF6089284485B2246835
:1053D000002CEAD129460448FCF7A4FA08B90020B9
:1053E000EAE76FF00B00E7E7F4D0002000B587B0E4
:1053F00016A0FBF71FFB00F07DF90020FEF7E8FF89
:1054000006900020FEF7E4FF05900020FEF7E0FF85
:10541000049018481849002204ABCDE900210290FD
:1054200005AA06A9154800F059FC144800F0A6FC8E
:10543000124800F0FDFC1148FDF730FC10A0FBF70E
:10544000F9FA03F06BFE07B000BD00000D0A3D3D08
:105450003D204C7749502054435020537461636B76
:1054600020496E697469616C697A696E67203D3D97
:105470003D0D0A00913F0008FD3F0008F4D60020D2
:105480005B444843505D2052657175657374696E65
:105490006720495020616464726573732066726F7F
:1054A0006D2044484350207365727665722E2E2E0F
:1054B0000D0A000038B501F0ABFA044600BF4148C0
:1054C000FEF7B6FD0028FAD03F480068201AFA28F7
:1054D00003D33D48046004F089F83C480068201A72
:1054E00041F28831884203D338480460FEF700FD5A
:1054F00037480068201AB0F5FA7F03D334480460B7
:10550000FCF7C8FF33480068201A4EF66021884235
:1055100003D330480460FCF709FE2A48006A0028DB
:1055200045D02848006A00780A2840D12A480078E7
:10553000002846D101202849087028A0FBF77AFAF4
:1055400020484068000E00901E484068C0F30743A2
:105550001C488088C0F307221A4801792CA0FBF769
:1055600069FA18488068000E009016488068C0F3F9
:10557000074314480089C0F307221248017A2FA07C
:10558000FBF758FA0F48C068000E00900D48C0683D
:10559000C0F307430B488089C0F307220948017B09
:1055A00031A0FBF747FA3BA0FBF744FA09E00A48B1
:1055B0000078012805D100200749087043A0FBF7B7
:1055C00039FA38BDF4D60020A8000020AC00002035
:1055D000B0000020B4000020B80000200D0A3D3DBE
:1055E0003D3D3D3D3D3D3D3D3D3D3D3D3D3D3D3DEB
:1055F0003D3D3D3D3D3D3D3D3D3D3D3D3D3D3D3DDB
:105600003D3D3D3D3D3D3D3D3D3D3D3D00000000BE
:105610000D0A5B4448435020537563636573735DA3
:105620002049502041646472657373203A202564D8
:105630002E25642E25642E25640000000D0A5B448F
:1056400048435020537563636573735D20537562DF
:105650006E6574204D61736B203A2025642E25649D
:105660002E25642E256400000D0A5B44484350201B
:10567000537563636573735D204761746577617902
:1056800020202020203A2025642E25642E25642EFB
:10569000256400000D0A3D3D3D3D3D3D3D3D3D3D08
:1056A0003D3D3D3D3D3D3D3D3D3D3D3D3D3D3D3D2A
:1056B0003D3D3D3D3D3D3D3D3D3D3D3D3D3D3D3D1A
:1056C0003D3D3D3D0D0A0D0A000000005B4448438E
:1056D000505D204950206164647265737320726567
:1056E0006C6561736564206F72206C6F7374210D3B
:1056F0000A00000010B500F01DF900F09FFA10BD7F
:105700002DE9F04180460E460024454608E0287801
:1057100007026D1C287807436D1C3C44B01E86B2FE
:10572000012EF4DC002E02DD287807023C44A0B2F2
:1057300000EB1444200C000410B1A0B200EB1444A0
:10574000A0B2FEF752FEBDE8F08100001CB501F0EA
:10575000FDF94FF4E13004F0E3FA1F48FBF76AF972
:10576000FCF768F91D48FBF765F9FBF7DFFE18B990
:105770001BA0FBF75FF902E023A0FBF75BF9FFF743
:1057800035FE2FA0FBF756F90020052103464FF404
:105790008062CDE9001035A1374804F083FD002078
:1057A00002210346CA01CDE9001034A1354804F0B6
:1057B00079FD0020062103464FF40072CDE9001068
:1057C00031A1344804F06EFD33A0FBF733F904F047
:1057D000D7FC00BFFEE70000A0A40008C4A3000897
:1057E0004C414E383730322045746865726E6574AE
:1057F000204D6F64756C6520447269766572205225
:1058000065616479210D0A004C414E3837303220F1
:1058100045746865726E6574204D6F64756C6520A3
:1058200044726976657220496E697469616C697A3F
:105830006174696F6E204661696C6564210D0A00B0
:105840004372656174696E67204672656552544F94
:1058500053204170706C69636174696F6E2054618C
:10586000736B732E2E2E0D0A000000004E657477A8
:105870006F726B5461736B00551400084C454454AF
:1058800061736B001D140008435331323337546188
:10589000736B00001D1300085374617274696E67A6
:1058A000204672656552544F532053636865647592
:1058B0006C65722E2E2E0D0A0000000070B5044695
:1058C00004B970BD00BF04F0030008B100BF00BF01
:1058D00000BF00BF14480068844203D31348006827
:1058E000844201D300BF00BF00BF0F48006884425C
:1058F00003D30E480068844200D3E2E7A4F1080510
:1059000000BF287908B900BF00BF00BF0020287180
:1059100007480068854201D205480560284600F026
:10592000ABFD00BFCDE700003000002034000020B8
:105930003800002000BF00BF124921F00301124AC5
:105940001160114608684FF48041018000214180B8
:1059500001711146096801F580410C4A116001216D
:10596000126811718903094A12681180074A126886
:1059700051800121064A117003490968054A1160E6
:1059800070470000773D00203000002034000020E8
:105990003C0000203800002070B502460AB9002003
:1059A00070BDD01C20F0030082B20C2A00DA0C2259
:1059B000B2F5804F01DD0020F2E740480088404EFC
:1059C0003688801B83B272E03D480068C1180879B0
:1059D000002869D10E8803F10800301A904263D381
:1059E0000E8803F10800361A02F11400864218D31B
:1059F00003F10800104485B23148006844190020C2
:105A000020710888208063800D8001200871208823
:105A1000B0F5804F07D02088294E36683044458045
:105A200001E00120087125480068814220D107E08B
:105A3000224800680088224E366830441F4E30608D
:105A40001E480068007928B11C4800681D4E366861
:105A5000B042EDD100BF194800681A4E3668B04216
:105A600005D016480068007908B100BF00BF00BF2C
:105A700000BF01F108001044124E3668B04201D94F
:105A800000BF00BF00BF00BF01F0030008B100BFAE
:105A900000BF00BF00BF01F0030008B100BF00BF9E
:105AA00000BF01F108007BE705480068C35AC2F552
:105AB0008040984288DC002072E700003800002017
:105AC00030000020340000202DE9F04105460A4650
:105AD000D01C20F0030082B20C2A00DA0C22B2F5AE
