:020000040800F2
:10000000B8E100203D0200088321000887140008A1
:10001000812100083909000841290008000000007A
:100020000000000000000000000000008926000819
:100030003B09000800000000652200088527000831
:10004000530200085302000853020008530200083C
:10005000530200085302000853020008530200082C
:10006000530200085302000853020008530200081C
:10007000530200085302000853020008530200080C
:1000800053020008530200085302000853020008FC
:1000900053020008530200085302000853020008EC
:1000A00053020008530200085302000853020008DC
:1000B00053020008530200085302000853020008CC
:1000C00053020008530200085302000853020008BC
:1000D00053020008530200085302000853020008AC
:1000E000F10F00085302000853020008000000004E
:1000F0000000000000000000000000000000000000
:100100000000000000000000530200085302000835
:10011000530200085302000853020008530200086B
:10012000530200085302000853020008530200085B
:1001300053020008890B000853020008530200080C
:10014000530200085302000853020008530200083B
:1001500000F002F800F063F80AA090E8000C824476
:100160008344AAF10107DA4501D100F058F8AFF253
:10017000090EBAE80F0013F0010F18BFFB1A43F085
:1001800001031847741801009418010010F8013B8E
:100190000A4413F0030408BF10F8014B1D1108BFF7
:1001A00010F8015B641E05D010F8016B641E01F8A5
:1001B000016BF9D1002D15D010F8014B03F00C03A1
:1001C0000C2BA1EB04040ABF10F8013BA4EB831431
:1001D000A4EB032405F1010314F8016B5B1E01F885
:1001E000016BF9D5914238BF10F8013BD1D370476C
:1001F0000023002400250026103A28BF78C1FBD830
:10020000520728BF30C148BF0B607047642900F017
:100210007980002070471FB51FBD10B510BD00F0DC
:10022000B4FA1146FFF7F7FF05F08BFB00F0D2FAA6
:1002300003B4FFF7F2FF03BC00F0DAFA0848004706
:10024000FEE7FEE7FEE7FEE7FEE7FEE7FEE7FEE786
:10025000FEE7FEE703480449044A054B70470000E7
:1002600051010008B8DB0020B8E10020B8DD002013
:10027000B8DD00200FB41CB5074B06AA7B446946C5
:100280000090059800F069FA0020694600F078FABD
:100290001CBC5DF814FB0000010500002DE9F041D5
:1002A0000E460446002020622046E168884730B3AD
:1002B000252805D0D4E901219047206A401CF2E7A7
:1002C000E168204600278847050018D0A5F14100C5
:1002D000192802D820354FF40067324629462046B7
:1002E0002760FFF793FF40B1012804D0F61D26F0E8
:1002F00007060836D8E7361DD6E72846DAE7206A2B
:10030000BDE8F0812DE9F04106460024106875290A
:10031000314616A510D0AFF30080002802DA404223
:1003200013A507E031688A0701D512A502E0490745
:1003300004D511A5012401E0AFF3008000210A22B9
:1003400006F1240709E0B0FBF2FCB0FBF2F302FB7C
:100350001C00303078541846491C0028F3D123463D
:100360002A463046BDE8F04100F099B9000000008F
:100370002D0000002B0000002000000040EA0103D7
:10038000024630B59B0710D14FF0013400E008C29F
:1003900008C91D1B9D4315EAC41FF8D013F0FF01C7
:1003A00002F8011B0DD01B0AF8E711F8013B002BE6
:1003B00002F8013B05D011F8013B002B02F8013B8C
:1003C000F3D130BD10B5431C02E010F8011B71B130
:1003D0008107FAD14FF0013202C88C1A8C4314EA1B
:1003E000C211F9D0C01A0A0603D0C01E10BDC01A2F
:1003F00010BD0A0401D0801E10BD0902FCD0401EB1
:1004000010BD40EA010370B59B072ED14FF00136B5
:10041000042A2AD308C810C99D1B9D43121F15EA40
:10042000C61517D0D8B2E1B2401A50EA056110D112
:1004300098B2A1B2401A50EA05410AD123F07F4098
:1004400024F07F41401A50EA052102D1180EA0EB9A
:10045000146070BDA342DBD018BA21BA884201D91A
:10046000012070BD4FF0FF3070BD0AB9002070BD93
:1004700010F8013B11F8014B63B1A3420AD1521E9F
:1004800008D010F8013B11F8014B1BB1A34201D178
:10049000521EEDD1181B70BD032A40F2308010F0BF
:1004A000030C00F0158011F8013BBCF1020F62440F
:1004B00098BF11F801CB00F8013B38BF11F8013BA0
:1004C000A2F1040298BF00F801CB38BF00F8013B4D
:1004D00011F0030300F02580083AC0F0088051F8BD
:1004E000043B083A51F804CBA0E80810F5E7121DC8
:1004F0005CBF51F8043B40F8043BAFF30080D207E7
:1005000024BF11F8013B11F801CB48BF11F8012BB2
:1005100024BF00F8013B00F801CB48BF00F8012BD5
:10052000704710B5203AC0F00B80B1E81850203A5F
:10053000A0E81850B1E81850A0E81850BFF4F5AF83
:100540005FEA027C24BFB1E81850A0E8185044BF0D
:1005500018C918C0BDE810405FEA827C24BF51F87A
:10056000043B40F8043B08BF7047D20728BF31F86E
:10057000023B48BF11F8012B28BF20F8023B48BFBF
:1005800000F8012B70474FF000020429C0F01280E0
:1005900010F0030C00F01B80CCF1040CBCF1020F36
:1005A00018BF00F8012BA8BF20F8022BA1EB0C010B
:1005B00000F00DB85FEAC17C24BF00F8012B00F801
:1005C000012B48BF00F8012B70474FF0000200B527
:1005D000134694469646203922BFA0E80C50A0E866
:1005E0000C50B1F12001BFF4F7AF090728BFA0E814
:1005F0000C5048BF0CC05DF804EB890028BF40F8E0
:10060000042B08BF704748BF20F8022B11F0804F21
:1006100018BF00F8012B70474FF0013C50F8042B35
:1006200051F8043B9A4221D1A2EB0C03934313EA05
:10063000CC1317D150F8042B51F8043B9A4215D132
:10064000A2EB0C03934313EACC130BD150F8042B09
:1006500051F8043B9A4209D1A2EB0C03934313EAED
:10066000CC13DBD04FF00000704700BFD01A01BAA6
:10067000B1FA81F101F0180122FA01F0CB40C1F189
:100680002001DBB2C0B2C01A2CFA01F3D11A914397
:1006900011EAC311E6D170477047704770472DE9E2
:1006A000F0470D4699469246044600F12408016839
:1006B000880604D5E06921F01001216000E00120E6
:1006C000A84201DD471B00E00027A1697A1902EB6F
:1006D0000900081AA0612078C00602D42046AFF3B2
:1006E0000080002608E0D4E901211AF806009047AE
:1006F000206A401C761C20624E45F4DB2078C00640
:100700000AD52046AFF3008006E0D4E9012130206D
:100710009047206A401C2062381EA7F10107F4DCD4
:1007200007E0D4E9012118F805009047206A401C31
:100730002062281EA5F10105F3DC2046AFF30080FE
:100740002078000602D50220BDE8F0870120FBE7F3
:1007500001694A1C02610878704700B58FB0CDE985
:1007600001310021059105497944CDE90310114675
:100770006846FFF793FD0FB000BD0000E5FFFFFFE7
:100780000A6802F8010B0A607047754600F02CF801
:10079000AE4605006946534620F00700854618B06E
:1007A00020B5FFF757FDBDE820404FF000064FF0A1
:1007B00000074FF000084FF0000B21F00701AC4696
:1007C000ACE8C009ACE8C009ACE8C009ACE8C009B5
:1007D0008D46704710B50446AFF300802046BDE853
:1007E0001040FFF725BD00000048704754DB002093
:1007F00001491820ABBEFEE7260002007047002921
:10080000816802D041F0010101E021F00101816025
:100810007047000010B586B000224FF4602001211F
:10082000CDE902028DF804200C4C8DF805108DF8EE
:10083000101000926946204600F016F802230122AB
:100840000621204600F034F801212046FFF7D7FFAB
:100850000121204600F066F806B010BD00240140DA
:10086000C06C80B27047000010B542680E4B0C7926
:100870001A400B6842EA04221343436082680B4B20
:100880001A40D1E9024323434C7942EA440213431C
:100890008360C26A097C22F47002491EC9B242EA2E
:1008A0000151C16210BD0000FFFEF0FFFDF7F1FF36
:1008B00070B5072609290AD9C568A1F10A0404EB15
:1008C0004404A640B543A3401D43C56007E0056945
:1008D00001EB4104A640B543A3401D4305611F231E
:1008E000072A09D2446B521E02EB820293409C43BA
:1008F00091400C43446370BD0D2A09D2046BD21F92
:1009000002EB820293409C4391400C43046370BD10
:10091000C46A0D3A02EB820293409C4391400C431F
:10092000C46270BD0029816802D041F4A00101E0D9
:1009300021F4A00181607047FEE7704703490A680F
:10094000104448600A689042FCD8704700000020BC
:1009500001B51B4988B00898CA68801AFA282CD3B8
:100960000898C86017488A684068904225D0886017
:10097000010E8DF80810010C8DF80910010A8DF890
:100980000A108DF80B009DF808109DF809009DF8DD
:100990000A30CDE900019DF80B200BA103A8FFF759
:1009A00069FC0EA1C02001F055F903A9D82001F07F
:1009B00051F940F6B830FFF7C1FF09B000BD0000A3
:1009C000181200203413002020202025642E2564D6
:1009D0002E25642E25642020202000002020537422
:1009E0006174696320495020616464726573732087
:1009F000202000000149486170470000009002403B
:100A0000044A0029D16901D0014300E08143D1614A
:100A1000704700000090024005490028886902D014
:100A200040F0020001E020F0020088617047000001
:100A300000900240F0B5104C00234FF0004744F204
:100A4000F05C561E606012E000EB0314C3EB43152C
:100A500005EB831501EB05152760C4E901C5B34219
:100A600003D204F11005E56000E0E0605B1C9342F6
:100A7000EAD30249C860F0BD641200200090024031
:100A8000426811B122F0004101E042F000414160B2
:100A90007047000005490028886902D040F40050E2
:100AA00001E020F40050886170470000009002408F
:100AB000F0B50F4C00234FF48016551E206011E056
:100AC000C3EB431700EB031407EB831701EB071786
:100AD000A7602660AB4203D204F11007E76000E094
:100AE000E0605B1C9342EBD302490861F0BD00005B
:100AF000641200200090024002680A4302607047BE
:100B000010B501218C03204601F0BAFB2046BDE858
:100B10001040002101F0B4BB01B581B001980090F4
:100B2000002801D0401EFAE70CBD00000248816990
:100B300041F48011816170470090024001480068D3
:100B400080687047641200200068C0F30D40704751
:100B5000074900204A68116811F0802F06D1CB05A3
:100B600004D5890502D51046FFF7EEBF7047000097
:100B700064120020034900200968C90700D0012041
:100B8000704700000090024010B501E001F0F2FA59
:100B9000FFF7DEFF0028F9D14020FFF72BFFBDE86B
:100BA00010404FF48030FFF725BF00002DE9F041E1
:100BB00088B00027754E0446009701973069884633
:100BC00020F01C0502A801F097FB71490398714AB7
:100BD0000144914202D245F0080506E06E490844FE
:100BE0006E49884201D245F00C0535614FF4004250
:100BF0000021404600F0D2F900282DD06848FFF7C8
:100C00008BFF2068B0B3674D01980121401C019013
:100C1000404600F0F9F8400702D40198A842F3D307
:100C20000198A84217D04FF4805200214046019706
:100C300000F0B4F900280FD001980121401C019068
:100C4000404600F0E1F8800602D40198A842F3D3B0
:100C50000198A84203D1002008B0BDE8F08110211E
:100C60004046019700F0D0F8410704D54FF40061E9
:100C7000216201E008E02762800701D5676113E087
:100C80004FF4804060610FE0206A6169C00840EA6B
:100C9000510082B20021404600F080F90028DBD0EC
:100CA0006FF07F40FFF738FF30683F490840D4E9D4
:100CB00001121143E26854F8103F1A43114362686D
:100CC0001143A2681143E26811432269114362692A
:100CD0001143A2691143E2691143226A1143626A16
:100CE000114301433160F4E90A010843D4E90212D7
:100CF000114308432169084361690843A169084316
:100D0000E16908437060206AB060606AF060B069B1
:100D10004FF641710840D4E90B121143238D626BE9
:100D200042EA03421143A26B1143E26B11430143B8
:100D3000B161D4E910010843F0611C4881691C4A83
:100D40001140D4E912231A43D4E914352B431A4332
:100D5000A36D1A43E36D1A43236E1A43636E1A435D
:100D6000A36E1A430A438261D4E91B121143626FD6
:100D700054F8783F1A431143626841EA8201A2683D
:100D8000114341F400010160012065E70080024049
:100D900000D3CEFEC0E1E40040F1E9FD40787D01E2
:100DA000FFFF0F00FFFF04000F8120FF00900240B3
:100DB000233FDEF8054B8A88184402640A78D1F88C
:100DC000011042EA012141647047000000800240A6
:100DD00005490028086802D040F0040001E020F036
:100DE00004000860704700000080024005490028A8
:100DF000086802D040F0080001E020F00800086018
:100E0000704700000080024018B500220092124A8C
:100E100013694FF6FF7403F01C0304EAC020184363
:100E20004FF4F86303EA8111014321F0020040F01E
:100E30000100106109490098401C00901069C0072A
:100E400002D000988842F6D30098884201D1002051
:100E500018BD506980B218BD00800240FFFF040039
:100E600070B5114D002422462B68196800290BDA51
:100E70000E4916464B691B0602D580234B618E60D6
:100E800002604260826070BD0E0407D4CE0505D5B5
:100E90008E0503D5C1F30D449A68241FD9682960D3
:100EA0000460C0E9012370BD681200200090024078
:100EB0000248016841F00101016070470090024062
:100EC00000B50120FFF792FFFFF730FE0120FFF78A
:100ED0007FFF0120FFF7DEFD01205DF804EBFFF747
:100EE0009BBD0021016041608160C1600161416181
:100EF0008161C161016241628162C16201634163DA
:100F000040228163C0E90F122022C0E91121C1648F
:100F10000165416581658022C165C0E9181281665D
:100F2000C16601674167D2048167C0E91F12521090
:100F30005310C0E921231311C0E92331C0F89410E4
:100F4000C0F89810C0F89C10C0E928121212C0E92D
:100F50002A125212C0E92C21C0F8B81070470000C4
:100F60000C4B19680A68002A01DA00207047C0F3A8
:100F70000C00486042F03040086007484269520760
:100F800003D50422426100224260C8681860012033
:100F900070470000641200200090024038B5002322
:100FA0000093114B1C694FF6FF7504F01C0405EA11
:100FB000C02020434FF4F86404EA8111014341F05A
:100FC00003005A61186109490098401C0090186993
:100FD000C00702D000988842F6D30098884201D119
:100FE000002038BD012038BD00800240FFFF040012
:100FF00010B54FF48044204600F0A0F8002863D0DC
:101000000721822000F061FD400756D000F08AFDE4
:101010002E490860018800293AD08188DC2937D21E
:10102000B42935D94088A0F10B013B2908D228A169
:10103000902000F00FFE032001F0CCFA032024E002
:10104000A0F15B013B2908D227A1902000F002FE0D
:10105000022001F0BFFA022017E0A0F1AB013B290A
:1010600008D227A1902000F0F5FD012001F0B2FA8E
:1010700001200AE0FB383B2816D227A1902000F07F
:10108000E9FD002001F0A6FA002005F099FF0BE031
:10109000002001F093FA012001F090FA022001F003
:1010A0008DFA032001F08AFA0721822000F006FD64
:1010B0002046BDE8104000F03BB8FF21822000F040
:1010C000FDFCFF218820F1E710BD00004C1200203C
:1010D000204C4434202020202020202020202020AC
:1010E00020202020000000002020202020204C4430
:1010F000332020202020202020202020000000005D
:1011000020202020202020202020204C443220207D
:10111000202020200000000020202020202020204F
:1011200020202020202020204C44312000000000DE
:10113000014908607047000014040140064A014656
:1011400000201268044B0A4014331B680B4202D083
:10115000002A00D0012070470004014030B51A4A2F
:101160008379016853B313688B431360111D0B68B7
:101170000468A3430B60017911440B68046823439E
:101180000B60114B083319680468A14319601C1DDA
:1011900021680568A94321604179102905D01144CF
:1011A0000A68006802430A6030BD1968026811438A
:1011B0001960216800680143216030BD0079104446
:1011C00002688A43026030BD0004014000B5AFB040
:1011D000012000F0C3F84FF4004001F015F90120A0
:1011E00001F00CF93D2001F0EBF80028FAD00B20BB
:1011F00001F0FEF8FFF784FCFFF75AFEFFF7BAFC98
:101200000128FBD06846FFF76CFE0120009000200B
:101210004FF40071CDE90A10090407901190CDE94F
:1012200020010E90149013900A111590259026908D
:1012300023920420CDE9280180032A9080012B907D
:1012400040122C9040002E9001216846FFF7AEFC22
:1012500001210248FFF7D4FB2FB000BD4000010080
:101260002DE9F8430425ADF800500324DFF8DC90A5
:101270008DF8024018268DF803606946484600F054
:1012800087F80620ADF80000314F8DF802408DF848
:1012900003606946384600F07BF843F62010ADF84D
:1012A0000000DFF8B0808DF802408DF803606946D9
:1012B000404600F06DF801214FF0201000F0B6F824
:1012C0000B20ADF800008DF802408DF80350694600
:1012D000484600F05DF82802ADF800008DF80240A5
:1012E0008DF803506946404600F052F80820ADF8EA
:1012F00000008DF802408DF803506946384600F032
:1013000047F84FF4F850ADF800008DF802408DF822
:1013100003506946104800F03BF84020ADF800004B
:101320008DF8024000208DF803006946484600F021
:101330002FF8A801ADF800008DF802408DF8036089
:101340006946484600F024F8BDE8F88300080140EB
:1013500000100140000C0140001401400149C1F897
:10136000DC0070470000204210B58A0721F003041A
:101370000649120F21440F238C6893409C438C60D4
:101380008B68904003438B6010BD0000000001405B
:10139000F0B5CC78002204F00F03E40601D58C7878
:1013A00023430C784FF00F0C14F0FF0F4FF0010E99
:1013B0001BD005680E880EFA02F42640A64210D112
:1013C00096000CFA06F725EA070703FA06F5CE7829
:1013D0003D43282E02D0482E02D002E0446100E0B6
:1013E0000461521C082AE5D305600A88FF2A1CD92B
:1013F0004468002202F108060EFA06F50E882E4017
:10140000AE420ED196000CFA06F7BC4303FA06F77B
:10141000CE783C43282E00D14561CE78482E00D1AD
:101420000561521C082AE5D34460F0BDF0B5104DAB
:101430006B68440D260184B2C0F30157B440C0F379
:101440000342032F05D0C0020AD5032090408343F6
:1014500007E0686823F0706220F07060686002E066
:10146000A34343F0706201B122436A60F0BD000003
:101470000000014041617047016170470AB101619C
:10148000704741617047FEE710B50C4601212420EA
:1014900004F079FA0146204605F078F9074920461C
:1014A00005F0ACFB0649204606F091FC01231B2207
:1014B00004A1204606F09FFE002010BDE1140008A4
:1014C0001115000848656C6C6F2E205768617420F8
:1014D000697320796F7572206E616D653F0D0A002A
:1014E00004F05EBA10B505F031FE04461722064935
:1014F00005F04EF9FF21204605F0E6FDBDE810405D
:10150000024905F0BBB80000FC1801088914000866
:101510002DE9F0475FEA0208894604465FD0B8F833
:101520000810484606F064FC2CB100254146271DF2
:1015300000204E6815E0404604F081FD6FF0090080
:10154000BDE8F087335C0D2B1AD00A2B18D000258C
:101550002268202A04DA02F1010CC4F800C0D35535
:10156000401C4A89824201DD002DEBD00968002928
:10157000DED185B32068A21C815C0D2906D101E073
:101580000125E5E7E11C415C0A2915D0E31CC15C9B
:101590000D2901D00A2904D1411C202901DC216038
:1015A00004E0801C202800DD2020206021680D2020
:1015B000885421680A20C854012306220DA14846F8
:1015C00006F019FE2088012382B2211D484606F04C
:1015D00012FE00202060404604F031FD00E00BB117
:1015E0000020ADE7204604F0DBF94846BDE8F047AF
:1015F00005F02CB948656C6C6F200000002901884B
:1016000002D041F4806101E021F4806101807047E3
:10161000034600209A8A1B8B42EA034222F07F4253
:101620008A4200D1012070470029018802D041F090
:10163000010101E021F001010180704700290188CA
:1016400002D041F4807101E021F480710180704783
:101650000029018802D041F4007101E021F40071F9
:101660000180704770B50446808886B00D4620F032
:101670003F06684600F040FE27490298B0FBF1F1B2
:1016800089B20E43A680228822F001022280234BD9
:101690002A689A421CD85200B0FBF2F080B20428AB
:1016A00000D20420491C2184A083208840F001003E
:1016B000208020884FF6F5310840A9886A891143B7
:1016C00001432180A88929890843208106B070BD83
:1016D000EB88A3F53F46FF3E0BD002EBC20303EBC2
:1016E0000212B0FBF2F080B240F48040020506D056
:1016F00007E002EB4202B0FBF2F080B2F6E740F006
:1017000001004FF4967251434FF47A72B1FBF2F13B
:1017100040F40040C6E7000040420F00A0860100F0
:101720002DE9F84F8246002088464E4F0146009032
:1017300002243846FFF778FF0121384600F041F9CE
:101740000021384600F03DF900F0D0F9012138467B
:10175000FFF774FF444D40F6FF70444E286004E0EC
:101760002868401E2860401C5BD031463846FFF791
:101770004FFF0028F4D000225146384600F017F9F8
:10178000DFF8EC9004E02868401E2860401C48D038
:1017900049463846FFF73CFF0028F4D0012138467F
:1017A000FFF742FF08F0FF01384600F008F9DFF8C4
:1017B000C08008F1020804E02868401E2860401C30
:1017C0002FD041463846FFF723FF0028F4D00121EF
:1017D0003846FFF733FF04E02868401E2860401CAD
:1017E0001FD031463846FFF713FF0028F4D00122FE
:1017F0005146384600F0DBF81C4E761C04E02868A1
:10180000401E2860401C0CD031463846FFF700FFD0
:101810000028F4D0154E6D463F36E4B1012C03D0BC
:101820000AE00220BDE8F88F00213846FFF7E6FE07
:1018300001213846FFF70CFF31463846FFF7E8FE36
:101840000028EAD0384600F0AFF82919641E01F8E4
:10185000010CE4B2E1E701213846FFF7CFFE009822
:10186000E0E7000000540040741200200100030073
:10187000820007002DE9F047474E89468046002147
:101880003046FFF7D1FE0121304600F09AF80021E2
:10189000304600F096F800F029F901213046FFF7B4
:1018A000CDFE3E4D40F6FF773D4C2F6004E02868AA
:1018B000401E2860401C6CD021463046FFF7A8FE31
:1018C0000028F4D000213046FFF798FE0022414660
:1018D000304600F06CF82F60324F04E02868401E5C
:1018E0002860401C55D039463046FFF791FE00284D
:1018F000F4D04946304600F062F82A4FBF1C04E09D
:101900002868401E2860401C43D039463046FFF707
:101910007FFE0028F4D001213046FFF78FFE04E05F
:101920002A68521E2A60521C33D021463046FFF7E7
:101930006FFE0028F4D001224146304600F037F80F
:10194000174C641C04E02A68521E2A60521C20D0E6
:1019500021463046FFF75CFE0028F4D0104C3F349F
:1019600021463046FFF754FE70B101213046FFF7A3
:101970006FFE304600F018F8044601213046FFF7AC
:101980003DFE2046BDE8F0872A68521E2A60521CA0
:10199000E6D10220F6E70000005400407412002057
:1019A0000100030082000700008AC0B2704712B134
:1019B00041F0010101E001F0FE0101827047018266
:1019C00070470029018802D041F4004101E0C1F3D1
:1019D0000E010180704700002DE9F05F334F8B4608
:1019E00081469246002501213846FFF7EAFF002193
:1019F0003846FFF7E6FF2E4C40F6FF7601213846C9
:101A00002660FFF711FE00F071F801213846FFF75C
:101A100015FEDFF8A08004E02068401E2060401C16
:101A200042D041463846FFF7F3FD0028F4D00022AB
:101A300049463846FFF7BBFFDFF87C8004E02068AA
:101A4000401E2060401C2FD041463846FFF7E0FD85
:101A50000028F4D059463846FFF7B1FF2660164EED
:101A6000B61C04E02068401E2060401C1CD031469B
:101A70003846FFF7CDFD0028F4D051463846FFF731
:101A80009EFF04E02068401E2060401C0CD03146C0
:101A90003846FFF7BDFD0028F4D001213846FFF796
:101AA000D7FD2846BDE8F09F0220FBE70054004028
:101AB00074120020010003008200070010B50A46DE
:101AC0000B21FFF789FF002010BD38B500220C461E
:101AD0008DF800200B21FFF7CDFE8DF800009DF85A
:101AE0000000204000D0012038BD00001FB50020BC
:101AF000ADF80400ADF808004FF48060ADF80A00BE
:101B00000001ADF80C004BF6FF710448ADF806106B
:101B1000009069460248FFF7A5FD1FBD801A060028
:101B20000054004070B540218220FFF7A3FE284EEC
:101B300010F08000A6F11005308034D04F218220B3
:101B4000FFF7EEFD00EB800040F3931040011D21F4
:101B500090FBF1F01138002800DC002084B24D2108
:101B60008220FFF7DDFDC0EB001040F31320C0EB37
:101B700000100001D92190FBF1F00C38002800DCA6
:101B80000020696880B28C4201D9621A00E00A1B09
:101B9000A968884201D9411A00E0091A11440529AF
:101BA00001D9C5E90140A88870802889B0805121F9
:101BB0008220FFF7B5FDF08001224B218220FFF744
:101BC0000BFF00224B218220FFF706FF004870BD6B
:101BD0008412002070B50646002440F23F112046D2
:101BE00000F0D0F800F000FA4FF49635304600F0DF
:101BF000E1F9641CAC42F9D3BDE870400122042134
:101C0000014800F019B80000000C014008B501219E
:101C1000082000F059FB0420ADF8000003208DF8E7
:101C2000020010208DF8030069460248FFF7B0FB60
:101C300008BD0000000C0140FFF720BC203AD2B2E2
:101C4000034B02EB420203EB021200F01BB8000050
:101C5000F40601082DE9F0410D460746002440F244
:101C60003F1607E031463846FFF7E8FF103E641C98
:101C7000B6B26D1C2A78002A01D0142CF2D3BDE82C
:101C8000F08100002DE9F05F91468B460646002565
:101C900000F078F84FF00108114FDFF848A000F08D
:101CA000A3F9002439F8151008FA04F0014201D113
:101CB000788800E0388800F07DF9641C102CF1D39E
:101CC000012204215046FFF7B7FF761CF6B25946B1
:101CD000304600F057F86D1C182DE0D3BDE8F09F9A
:101CE000B0120020000C014010B586B00121112077
:101CF00000F0EAFA01211C48FFF798FB0121C80314
:101D000000F0CAFA4FF4E050ADF8140003208DF84B
:101D1000160018208DF8170005A91448FFF738FBA6
:101D2000134C204600F0D6FB0021ADF800104FF414
:101D30008270ADF80200ADF804100220ADF8060084
:101D40000120ADF808004002ADF80C10ADF80A0013
:101D5000ADF80E106946204600F0F1FB0121204647
:101D600000F05CFB06B010BD001020000010014028
:101D7000003C004001B5BDF800000149488008BDA5
:101D8000B012002010B50C460146202000F036F9B4
:101D90002146BDE81040212000F030B901B5BDF862
:101DA00000000149088008BDB012002010B5FFF7FF
:101DB0002DFFFFF799FF052000F0DCFD4FF40041F7
:101DC000E52000F01BF90121002000F017F94FF485
:101DD0008071012000F012F94FF4E061022000F060
:101DE0000DF941F23001032000F008F90021042030
:101DF00000F004F940F20221082000F0FFF8002171
:101E0000092000F0FBF800210A2000F0F7F800217B
:101E10000C2000F0F3F800210D2000F0EFF8002175
:101E20000F2000F0EBF80021102000F0E7F800216F
:101E3000112000F0E3F80021122000F0DFF800216B
:101E4000132000F0DBF8142000F094FD41F2B07193
:101E5000102000F0D3F840F23711112000F0CEF836
:101E6000052000F087FD40F23911122000F0C6F87D
:101E7000052000F07FFD4FF4E851132000F0BEF87C
:101E80001321292000F0BAF8052000F073FD00218D
:101E9000202000F0B3F80021212000F0AFF8062147
:101EA000302000F0ABF840F20111312000F0A6F82C
:101EB0000321322000F0A2F84FF48371352000F0A6
:101EC0009DF840F60231362000F098F840F20231D9
:101ED000372000F093F840F20771382000F08EF8B8
:101EE0000721392000F08AF84FF4C0613C2000F04F
:101EF00085F840F20B213D2000F080F800215020B1
:101F000000F07CF8EF21512000F078F800215220F9
:101F100000F074F840F23F11532000F06FF84FF4D6
:101F20001C51602000F06AF80121612000F066F881
:101F300000216A2000F062F80021802000F05EF8A5
:101F40000021812000F05AF80021822000F056F88C
:101F50000021832000F052F80021842000F04EF888
:101F60000021852000F04AF81021902000F046F86A
:101F70000021922000F042F80321932000F03EF867
:101F80004FF48871952000F039F80021972000F077
:101F900035F80021982000F031F841F218010320B3
:101FA00000F02CF8BDE8104040F27311072000F05B
:101FB00025B8000070B50B4D0446010A284600F014
:101FC000BCFA8021284600F0AFFA0028F9D1E1B22E
:101FD000284600F0B2FA8021284600F0A5FA002831
:101FE000F9D170BD003C004010B5222000F02EF861
:101FF000BDE81040722000F04FB8000070B50C46EC
:1020000000F024F8722000F047F80E4D210A28460F
:1020100000F093FA8021284600F086FA0028F9D1D2
:10202000E1B2284600F089FA8021284600F07CFAC7
:102030000028F9D1BDE87040012204210248FFF7D1
:10204000FBBD0000003C0040000C014070B505469F
:10205000702000F021F80E4C0021204600F06DFAAF
:102060008021204600F060FA0028F9D12946204658
:1020700000F063FA8021204600F056FA0028F9D1DA
:10208000BDE87040012204210248FFF7D5BD0000E1
:10209000003C0040000C014010B504460022042121
:1020A0000748FFF7C9FD2146064C204600F045FAD7
:1020B0008021204600F038FA0028F9D110BD000038
:1020C000000C0140003C004000B517A089B0D0E9E9
:1020D0000010CDE9031003F079FC03F053FD144820
:1020E00002F0A2F905906FF0FF0002F09DF9069052
:1020F0000F48633802F098F9079003A800F02EFB10
:102100000C4A0D4900208DE8070007AB06AA05A977
:102110000A4803F073FD094803F0AAFD074803F0DD
:10212000E9FD09B000BD0000000000000001000052
:102130006400A8C0D1310008253200083413002003
:1021400031B50B4C00992068081AFA2802D3216097
:1021500006F02CF800986168401A41F288318842F4
:1021600005D300986060BDE8384001F007B838BD7D
:1021700018120020014801F075B800003413002047
:10218000FEE7704708B500214FF0006000F060F8EE
:102190004FF4A06000F042F83D208DF800000220CE
:1021A0008DF8010000208DF8020001208DF8030059
:1021B000684600F001F808BD30B50F23C2780178F9
:1021C0000125F2B1144A126801F1E02102F4E06243
:1021D000C2F5E062120AC2F10404D3404278A24080
:1021E00084781C401443220181F80024007800F018
:1021F0001F018D404009800000F1E020C0F800512F
:1022000030BD01F01F0085404809800000F1E0204A
:10221000C0F8805130BD00000CED00E002490843D9
:1022200002490860704700000000FA050CED00E06C
:102230000907090E002806DA00F00F0000F1E0207F
:1022400080F8141D704700F1E02080F800147047FA
:10225000024A1140014302480160704780FFFF1F9E
:1022600008ED00E070470000044A0029516901D0E0
:10227000014300E0814351617047000000100240BB
:10228000044A0029916A01D0014300E08143916230
:102290007047000000100240044A0029D16901D0B3
:1022A000014300E08143D16170470000001002400B
:1022B000044A0029116901D0014300E08143116102
:1022C0007047000000100240044A0029916901D0C3
:1022D000014300E08143916170470000001002401B
:1022E000044A0029D16801D0014300E08143D16054
:1022F0007047000000100240F0B52C4B59682C4A82
:1023000011F00C014FF00F0604D02A4C042903D021
:10231000082903D0026028E0046026E059685A6862
:1023200006EA914102F480320D2901D0891C00E0B7
:102330000621BAB1DA6A12F4803FDA6A02F00F02BB
:1023400002F101020AD0DD6AC5F30317DD6A7F1CC2
:10235000B4FBF7F4C5F30325AD1C6C43B4FBF2F2F8
:102360004A43D7E7144A514301605968134A06EAC1
:102370001111545C0168E14041605C68072505EA81
:102380001424145D21FA04F484605C6805EAD42402
:10239000125DD140C1605A68032303EA9232074BB1
:1023A0001B1F9A5CB1FBF2F10161F0BD001002400D
:1023B00000127A0040787D0100093D00541200208F
:1023C000034600205909094A01290AD002290AD0E6
:1023D000516A03F01F02012393400B4200D00120F9
:1023E00070471168F5E7116AF3E70000001002403A
:1023F0000149C87170470000001002400149086798
:102400007047000000004242034AD16A21F4704143
:102410000143D1627047000000100240002901888A
:1024200002D041F0400101E021F0400101807047FD
:1024300010B586B001211520FFF746FF0121214884
:10244000FEF7F4FF0121C803FFF726FF4FF4E05029
:10245000ADF8140003248DF8164018208DF81700ED
:1024600005A91948FEF794FF1020ADF814008DF867
:1024700016408DF8170005A91448FEF789FF0020C3
:10248000ADF80000ADF808004FF48271ADF804001B
:10249000ADF80C00ADF80210ADF80600ADF80E0076
:1024A0004FF4007107200A4CADF80A10ADF8100087
:1024B0006946204600F043F801212046FFF7AEFFB1
:1024C00006B010BD001020000010014000080140BF
:1024D000003C0040114910B588420AD18414012102
:1024E0002046FFF7FDFE2046BDE810400021FFF723
:1024F000F7BE0B49884202D10121041404E00949C6
:1025000088420AD10121C4132046FFF7D1FE20469C
:10251000BDE810400021FFF7CBBE10BD00300140E8
:1025200000380040003C00400246002012890A4268
:1025300000D001207047808970478181704730B595
:1025400002884C8802F441530A88CD8822438C8843
:102550002C4322430C8922434C8922438C892243F9
:10256000CC8922431A430280828B22F40062828348
:10257000098A018230BDFFF719BC000038B5044656
:102580000C48012150F82400FFF79EFE09486946D7
:102590000A3830F81400ADF8000010208DF8030060
:1025A00003208DF80200044850F82400FEF7F0FEE6
:1025B00038BD0000D8060108941200200349044ADF
:1025C00031F8101052F8200041617047CE06010822
:1025D000941200200349044A31F8101052F82000E8
:1025E00001617047CE060108941200207FB50446B1
:1025F00023480D46012150F8240040F00100FFF768
:1026000063FE1F4803A9383830F81400ADF80C00F9
:1026100004208DF80F001B4850F82400FEF7B8FE88
:10262000012D2CD11648263810F81410801F10F8F0
:102630001400FEF799FE1248323830F8140000906A
:1026400000208DF804000CB10C2000E008208DF86B
:10265000050001258DF806506846FEF77FFD084805
:10266000203810F814008DF808000F208DF80900AC
:102670008DF80A008DF80B5002A8FFF79DFD7FBD75
:10268000E8060108A4120020704700000CB50022E3
:102690002E4800920192016841F4803101604FF4AC
:1026A000A063016801F4003101910099491C009177
:1026B000019911B900999942F3D10168890342D572
:1026C0000121019122490A6842F010020A600A6859
:1026D00022F003020A600A6842F002020A604168BE
:1026E000416041684160416841F480614160C16A74
:1026F000184A1140C162C16A174A1143C162016898
:1027000041F08061016001680901FCD5416821F454
:102710007C114160416841F4E8114160016841F079
:102720008071016001688901FCD5416821F00301D5
:102730004160416841F0020141604168C1F381019B
:102740000229FAD10CBD0192FEE700000010024000
:102750000020024000F0FEFF440601000849027814
:102760000A7042784A7082788A70C278CA70027998
:102770000A7142794A7101460020FEF71BBB000036
:10278000B412002000F0D4B80F48016841F00101F4
:10279000016041680D4A1140416001680C4A1140D6
:1027A0000160016821F480210160416821F4FE018B
:1027B0004160016821F0A05101604FF47F01816008
:1027C0000021C162FFF762BF001002400000FFF06D
:1027D000FFFFF6FE10B5044C2068FEF7B9F820683C
:1027E000BDE81040FFF7ACBC0000002030B585B05C
:1027F000FFF7CAFF01214804FFF74EFD01214FF406
:10280000E030FFF731FD012140F27D20FFF75CFD54
:10281000FFF7B8FCFDF7FEFFFEF722FDFFF7ABFE6A
:102820000020FFF7ABFE0120FFF7A8FE0220FFF714
:10283000A5FE0320FFF7A2FE0020FFF7CBFE01203C
:10284000FFF7C8FE0220FFF7C5FE0320FFF7C2FE18
:102850001F20FFF7BFF91F20FFF78CFA4FF6FF701C
:10286000FFF79CFA1AA10020FFF7F4F91EA1182027
:10287000FFF7F0F922A13020FFF7ECF926A148205C
:10288000FFF7E8F9FEF7A2FC6846FFF735FD009870
:102890006421B0FBF1F14FF0FF35B1F1807F0DD233
:1028A00021F07F404FF0E024401E60610F21284658
:1028B000FFF7BEFC0020A06107202061012128460F
:1028C000FFF7B6FC00210220FFF790FE05B030BDF7
:1028D000202020202053544D3332463130372020E1
:1028E000202020200000000020436F6E6E6563747E
:1028F0006976697479204C696E65202000000000BB
:102900002020202A204C7749502064656D6F732069
:102910002A2020200000000020202020202020202D
:102920002020202020202020202020200000000027
:10293000024801680A310160704700000000002071
:10294000FEE770B50D460446002103F01FFF00218D
:10295000204605F020FB0021204605F038FA2846E5
:1029600003F01EF82046BDE8704003F06FBF03F08F
:1029700017B8000001B581B00449019848430090A0
:10298000002801D0401EFAE70CBD0000A08601001F
:10299000F0B587B00E460A460546694601F059FC77
:1029A00001226946284600F010FD4FF0FF3450B96F
:1029B0006946284601F01BFC074601226946284665
:1029C00000F003FD10B1204607B0F0BD3A46314695
:1029D000284600F0B4FC044603E02846029901F0C2
:1029E000EEFA641C22466946284600F0C5FC002821
:1029F000F3D00020E8E710B510460C460B2202F099
:102A0000B6FF0020E07220736073E0812082608254
:102A1000A082E08220836083E06110BD2DE9F04157
:102A20000F461546064611680068022203F0AAF90F
:102A300004462879202204EB4011384602F097FF23
:102A400021463068BDE8F04103F0CDB9F0B589B05A
:102A500015460F460646002406EB44112022684620
:102A6000FDF75FFD9DF80B00C043000705D00B226A
:102A70003946684603F0A9FD30B1641CE4B2102C5D
:102A8000EAD3002009B0F0BD1DB12C719DF80B00F8
:102A90006871BDF81A00BDF8141010EB0140F1D1B7
:102AA0000120EFE770B588B00D460646002406EB1E
:102AB000441120226846FDF734FD9DF80B00C04309
:102AC000000704D09DF8002042B1E52A06D0641C1E
:102AD000E4B2102CEBD3002008B070BD05B12C710E
:102AE0000120F9E71BB1012B03D000207047FFF74D
:102AF000ADBF1146FFF7D6BF2DE9F05F1E469146E8
:102B00008B4605460024DDF828A025E059462846D6
:102B100001F076FA01190122286803F033F907461B
:102B2000534632464946FFF7DDFF5FEA00080DD005
:102B30002EB15946284601F063FA204430603946E8
:102B4000286803F050F94046BDE8F09F39462868F0
:102B500003F049F9641CE4B2A879A042D6D8002059
:102B6000F2E72DE9F04188B000240E9D98460E460C
:102B70000746049203928DF8044005940294012ABA
:102B800010D82B464246384600F016F808B0BDE88B
:102B9000F08100954346324638460399FFF7ACFF73
:102BA0000028F3D12246641C01A9384600F0E4FB5A
:102BB0000028EED00020E9E72DE9F047044690F820
:102BC0003C00994616468A464FF00008012804D07A
:102BD000022802D00020BDE8F087E56A18E0012253
:102BE000294603F0CFF880464B4632465146FFF760
:102BF00079FF070007D006B135604146206803F031
:102C0000F2F83846E7E74146206803F0ECF86D1C1F
:102C1000A189E06A00EB5110A8422068DFD8414644
:102C200003F0E1F8D6E7FEB50D46064600240B2179
:102C3000684602F093FE0B21284602F08FFE3078A2
:102C40002F2808D1761C06E00B222946684602F0A0
:102C50008EFE641CE4B26946304601F04BF8060073
:102C6000F2D10CB10120FEBD0020FEBD2DE9F041E6
:102C70000F461546064611680068012203F082F8E7
:102C800004462879202204EB40113846FDF749FC20
:102C900021463068BDE8F04103F0A5B870B516468E
:102CA0000C46054609680068022203F06BF80146ED
:102CB000207901EB4010C6612868BDE8704003F040
:102CC00092B870B515460C4606460968006802229F
:102CD00003F058F82279014601EB4212280C908249
:102CE000207901EB401045833068BDE8704003F067
:102CF0007AB82DE9F0410F4615460646116800687E
:102D0000022203F03FF804462879202204EB401108
:102D1000384602F02CFE2146306803F064F80020AB
:102D2000BDE8F081016000210171AFF300802DE961
:102D3000F041054600680522002101F0F5FF074635
:102D400000244FF4DF7605EB041106EB041238463D
:102D5000083100F0C3FA641CE4B2042CF3D3394602
:102D60002868BDE8F04102F0F2B870B5044601F001
:102D70008CFD10B14FF0FF3070BD00222146201DA8
:102D800002F062F804F50970211D0546FFF7CAFF3D
:102D900004F51B702946064603F001F894F9700209
:102DA000401C0CD10B2084F830020020C4F83402FF
:102DB0002068C4F838022946304602F0F0FF314658
:102DC00004F51D7001F053FA0028D5D06FF0010012
:102DD00070BD2DE9F84390460E4605005CD0B8F86A
:102DE0000A002A2855D30120D8F8044001F01EFB20
:102DF000E18988424DD140F2046001F017FB618AFD
:102E0000884246D14FF4006001F010FB218A8842CD
:102E10003FD140F6060001F009FBA189884238D174
:102E2000E0690090D4F82610686818B1814203D197
:102E3000012702E0002703E000270FB1012300E093
:102E4000002304F116026946284605F031FDA08AE8
:102E500001F0ECFA01281CD1DFB1022001F0E6FA02
:102E6000A082E069C4F826006868E0610622521E6C
:102E700012F0FF0204EB0200817D80F82010A154C3
:102E8000B15C8175B15C8171F1D1AA694146284676
:102E90009047404603F0D3F8BDE8F88330B40028EB
:102EA0000ED0496882684468D1F81A301440134043
:102EB000A34205D100238A1D30BC1A3105F0F8BCAD
:102EC00030BC70472DE9FC410E46054614460E21E4
:102ED000304603F0D6F818B16FF00100BDE8FC8170
:102EE0002946204602F0BAF808B1234B28E04FF0FB
:102EF000704002F00DFF216800EA01074FF06040CA
:102F000002F006FF874222D101208DF80000002048
:102F10008DF801005E208DF80200206802F0F8FEB6
:102F2000C0F306408DF80300206802F0F1FE000AAD
:102F30008DF80400206802F0EBFE8DF805006B466A
:102F400005F121023146284600F0FCF8C6E7A868E2
:102F500021686A6801400240914203D0E86838B1B4
:102F600005F10C0432462146284600F007F8B5E783
:102F70006FF00300B2E70000001901082DE9F05FCF
:102F80000E46824600F1210B17464FF0FF3851469E
:102F9000304602F063F808BB4FF0704002F0B8FE14
:102FA000316800EA01044FF0604002F0B1FE844253
:102FB00014D09EB1306888B10121304600F052FF34
:102FC00000280DDBDFF8B49000EB800509EB8504E9
:102FD000A07B38B1012807D037B10BE06FF00900B2
:102FE000BDE8F09F0120A0733146504600F098F8EC
:102FF00080462FB3A07B4E46022802D0012808D07D
:103000003AE004F108035A463946504600F09AF86F
:1030100031E000213C46207B012803D12468002CAC
:10302000F9D171B121890022032002F0E0FE0400F1
:1030300022D0394602F087FF40B1204602F0FFFF60
:103040001AE03C46384603F073F8ACB1062002F0B3
:10305000C5FD0100F1D00020C1E9000456F82500AB
:1030600008B905E010460268002AFBD1016001E0C2
:1030700046F82510002080464046B1E78CDA002053
:103080002DE9F05F1746DDE90B9B884682461E4618
:1030900000222A21032002F0AAFE05003CD06C6821
:1030A0000D9801F0C3F9A0820620401E10F0FF0029
:1030B00004EB0001325C8A7519F8002081F82020A9
:1030C0003A5C225418F800208A71EED10A98006800
:1030D000E061DBF80000C4F82600012001F0A6F949
:1030E000E0814FF4006001F0A1F9208240F2046019
:1030F00001F09CF9608240F6060001F097F9A0818A
:10310000DAF818205046294690470446284602F02F
:1031100096FF2046BDE8F09F4FF0FF30FAE7000031
:103120001FB50123064C021DCDE90213CDE9002491
:1031300000F121031946A21FFFF7A2FF04B010BD42
:10314000061901082DE9F0414D680E460746062490
:10315000641E14F0FF0405EB0401185D2855105D92
:103160008871F5D14FF4006001F060F9A881314613
:103170003846BA69BDE8F041104700002DE9F0413A
:103180000024124FA04604EB840507EB8506F07B74
:10319000401CC0B2F073B17B022902D0012903D0D8
:1031A0000DE0F02802D20AE0022808D357F82500E3
:1031B00018B100F0F5FE47F8258086F80E80641CF3
:1031C000E4B20A2CDFD3BDE8F08100008CDA0020E5
:1031D00070B5044640680D46808901F027F9B0F5C6
:1031E000006F04D0A0F5006006380AD112E0214635
:1031F0002846FFF753FE6FF00D01204602F041FF15
:1032000018B1204602F01BFF0AE02946204601F0D3
:10321000D5FF05E0224605F121012846FFF7D9FD3B
:10322000002070BD10B50446082002F0E9FB90B103
:103230007321E06184F82B10742184F82C10074965
:1032400061610749A16104F121010160204602F09A
:10325000DFFA002010BD4FF0FF3010BDC52E000872
:10326000995800082DE9FE43814600256846FDF780
:10327000F7FDDDE901710098884681B2032210460E
:1032800002F0B5FD06000AD004467919628960682B
:10329000FDF702F9608924680544002CF5D10E4839
:1032A0004FF00041C8F800104169090603D580219C
:1032B00041610021816066B1D9F81020494630464D
:1032C0009047040002D0304602F0B9FE2046BDE827
:1032D000FE834FF0FF30FAE70090024010B50B4636
:1032E000815C19708418082160785870A0789870F3
:1032F000E078D8702079187160795871A079987148
:10330000E079D871204600F00EF8986020460C2134
:1033100000F009F8D86010BD425C0844407802EB28
:10332000002080B27047425C0844C17802EB016122
:1033300082784078120402EB002008447047F0B510
:1033400087B00024CDE902411646074625468DF890
:1033500000400494019403E00298B04200D1019D22
:103360002246641C6946384600F006F808B9002D6C
:10337000F2D007B02846F0BD70B50646486815463D
:103380000C46A84201D8A06820B900206060E1681E
:10339000A16020706068A84215D011E0217839B191
:1033A000491E2170401C6060A068401CA06007E0BE
:1033B0002146304600F03AF910B14FF0FF3070BDB1
:1033C0006068A842EAD1002070BD2DE9F84F04469C
:1033D000C8688846924616464FF00009012802D870
:1033E00010B2BDE8F88F4146204600F000FF0746C6
:1033F0003D46002E6FD0206A6D1C401CA84225D887
:10340000B9F1000F1FD03946204600F05BF90146A4
:103410000222206802F0B6FC0546204600F06AF958
:1034200002462B463946204600F003FAC8F81070D1
:103430002946206802F0D7FC616BAAEB0600091A46
:1034400000B26163CDE702254FF00109294620460D
:1034500000F038F901460122206802F093FC024690
:1034600000902946204600F0A5F8A8B93946204624
:1034700000F028F901460222206802F083FC83460E
:1034800003462A463946204600F0D3F959462068BB
:1034900002F0A9FC2F46761E2068009902F0A3FCDA
:1034A000002EA8D13946204600F00CF90146022230
:1034B000206802F067FC0546204600F01BF9024632
:1034C0002B463946204600F0B4F9C8F8107029465A
:1034D000206802F088FCD8F8140018B100EB0A014B
:1034E000C8F8141000207CE730B50024054687B0EA
:1034F000012920460ED98DF8000004900190CDE9F5
:1035000002012246641C69462846FFF735FF002861
:10351000F7D0601E07B030BD2DE9F0410F460446DC
:10352000002500F0CFF822890646616A801A8142A0
:103530000FD976B101223146206802F023FC014602
:1035400094F83C00012807D0022826D003282CD16B
:1035500027E00020BDE8F08107EB4700C0F34800FA
:10356000A0F580720D5CFF3A07D008444078FA0756
:103570000ED0000100EB151517E0206802F033FCB7
:103580000122711C206802F0FDFB01460078EEE785
:1035900000F00F0005EB002507E0F8B231F81050FD
:1035A00003E007F07F0051F82050206802F01BFC78
:1035B0002846CFE72DE9F04105460C4695F83C102A
:1035C0000020012909D002292CD0032903D104F0BD
:1035D0007F0052F82000BDE8F08104EB4400C0F306
:1035E0004800A0F58071165CFF3907D01044477879
:1035F000E00712D0380100EB1610ECE72146284610
:1036000000F060F8411C0122286802F0BBFB014673
:103610000778286802F0E7FBEAE707F00F0006EBFF
:103620000020D8E7E0B232F81000D4E72DE9F047E7
:103630000C46002689688046771ED9B100F042F812
:10364000814601224946D8F8000002F09BFB8246E1
:1036500002464046A168FFF7ADFF054601464046D9
:1036600000F05CF848B1A06820615146D8F800002D
:1036700002F0B9FB3846BDE8F087A5606068401CE1
:103680006F1E606008E02F46524629464046FFF70D
:1036900091FF761C054636B2681EB84205D1294610
:1036A000404600F00FF84845EDD0012E01D5002628
:1036B00000E0761E26705146D8F8000002F093FB19
:1036C0000020D8E790F83C300289012B04D0022B6F
:1036D00006D0032B0CD109E001EB4101890A00E07F
:1036E000090A406A884203D950187047C909F8E7A7
:1036F0000020704790F83C00012805D0022806D031
:10370000032807D00020704740F6FF7070474FF63F
:10371000FF7070476FF070407047000090F83C00F9
:10372000012804D0022805D003280FD107E040F675
:10373000F87001E04FF6F870814205D306E021F001
:1037400070400349884201D2002070470120704731
:10375000F8FFFF0F2DE9F04716460F460546FFF725
:10376000B1FF01462A89686A8A1A90425FD9002906
:103770005DD00222286802F005FB044695F83C0063
:1037800001280DD002284ED0032850D107F07F0029
:1037900044F8206021462868BDE8F04702F023BBCA
:1037A00007EB4700C0F34800A0F58073F1B2C6F301
:1037B0000329C6F30718FF3B4FEAC7720AD04AB382
:1037C000215C01F00F0101EB06112154204480F827
:1037D0000180DFE722B1215C01F00F0101EB06114E
:1037E000215439462846FFF76DFF411C0222286804
:1037F00002F0C8FA0146F80705D081F80080286871
:1038000002F0F1FAC6E7087800F0F00202EB0900D6
:103810000870F4E721542044417801F0F00202EBF3
:1038200009014170B6E7F8B224F81060B2E7BDE8CC
:10383000F0872DE9F041054690F83C000C46012840
:1038400009D0022849D0032803D101F07F0043F8B2
:103850002020BDE8F08104EB4400C0F34800A0F54F
:10386000807CD1B2C2F30327C2F30716BCF1FF0C70
:103870000AD0E40729D0195C01F00F0101EB021115
:10388000195418444670E4E75FEAC47C04D0195C1C
:1038900001F00F0101EB0211195421462846FFF7F0
:1038A00011FF411C0222286802F06CFA0146E00771
:1038B00005D00E702868BDE8F04102F094BA08788F
:1038C00000F0F00038440870F4E7195418444178C7
:1038D00001F0F00139444170BBE7C8B223F8102071
:1038E000B7E770B5044600F0B2FC04F1200388B1DC
:1038F000002565820121204600F0E0F920B1E06C4E
:10390000E061608A2083E5821A462146A06AFFF7BB
:10391000F0F909E00121204600F0D0F920B1194664
:10392000E26CA06AFFF7BAF95021204602F016F8BF
:1039300000221146204600F056FA002201212046BE
:1039400000F051FA002070BD2DE9F04F8FB08B468A
:103950000446984692460BA91046FFF764F904F115
:10396000200604F12C056FF00209B8F1610F77D041
:10397000B8F1720F05D06FF00307B8F1770F68D177
:103980001DE0002308AA5146584600F088FB012894
:1039900004D04FF0FF300FB0BDE8F08F08AA2146E9
:1039A0005846FFF763F908AA5946204600F08CF9FB
:1039B00001220021204600F016FA00224AE00AAB5C
:1039C00008AA5146584600F06AFB10B16FF001009A
:1039D000E1E70A9800283CD0002308AA514658463F
:1039E00000F0CAFB00287AD00BAA69465846FFF7B8
:1039F00002F808AA69465846FFF710F82022214627
:103A0000684601F0B4FF08AA5946204600F05CF968
:103A1000A06A00F01AFC0146A06A00F004FC0A90BB
:103A2000A36A024631461846FFF74BF920460A9929
:103A300000F0AAFC294658460A9A00F00AFC5846AB
:103A4000FFF758FE024658460A99FFF783FE3EE00C
:103A500006E046E00121204600F0C5F900209AE783
:103A6000002308AA5146584600F019FB0128B3D19B
:103A700008AA21465846FFF7F9F808AA59462046F1
:103A800000F022F9A06BF0B9A06A00F0DEFB01465D
:103A9000A06A00F0C8FB0A90A36A024631461846A5
:103AA000FFF70FF920460A9900F06EFC5846FFF721
:103AB00021FE024658460A99FFF74CFE08AA5946CD
:103AC000204600F001F92046E16C00F097F9012250
:103AD0000021204600F087F90122BBE7FFE74846B6
:103AE00059E7384657E72DE9F05F9B460F464FF000
:103AF0000008054613461446414600F0DFF800284A
:103B000028D0E86CB84200D80024F918814243D983
:103B1000E4B3C41B40E0AB6A98794102B7FBF1F211
:103B2000790AB1FBF0F600FB161AC7F308005FEA4A
:103B3000000903D14FF40076B44204D2C9F50076EF
:103B4000A64200D3264605F12C011846FFF714FCC7
:103B500010B10020BDE8F09F696BA86A00F050FA30
:103B6000B6F5007F1CD000EB0A01A86A01220068AC
:103B700002F008F982460BEB080109EB0A00324615
:103B800001F0F5FEA86A5146006800E006E002F088
:103B90002AF93744B044A41B002CBCD14046D9E7D5
:103BA00000EB0A01A86A0BEB0802006802F0B4F807
:103BB000EFE72DE9FF4F8B460027884681B0154679
:103BC0000446394600F07AF8B8B10121204600F0E9
:103BD00075F890B1E06C584500D283462A465946A4
:103BE000204600F0D6F8020004F12C00009050D0DE
:103BF000A06A0099FFF7E9FBE8B3002005B0BDE833
:103C0000F08FA36A4FEA58219879B1FBF0F642028F
:103C1000B8FBF2F200FB161AC8F308005FEA0009CD
:103C200003D14FF40076B54205D2C9F50070A84221
:103C300000D3284686B218460099FFF79DFB40B195
:103C4000E06C04F12001C219E264A06AFFF726F8D3
:103C500029E0616BA06A00F0D3F9B6F5007F24D0AB
:103C600000EB0A01A06A0222006802F08BF882468B
:103C700009EB0A0100E00CE004983246384401F0F8
:103C800076FEA06A5146006802F0ADF8B0443744B1
:103C9000AD1B002DB5D1E16CA1EB0B00B84202D2F7
:103CA000381A0844E0643846A8E70499CA1900EBBA
:103CB0000A01A06A006802F03CF8E7E790F84400C7
:103CC00001228A40104070478162C1690023C0E927
:103CD000123111680162117980F8241080F82C30BB
:103CE000418B30F8142F01EB0241C0E90913C0E900
:103CF0000731704770B500260D46034634463046FE
:103D000020212954401CC0B20B28FAD31878002275
:103D10002E2823D128705978641C2E2901D05B1CD1
:103D200022E068709B1C1FE02E2808D066B10A2A8A
:103D300013D800F06CF8A854521CD2B20DE0002E3B
:103D4000F5D10126082208E0072A06D800F05FF81E
:103D5000A854521C641CD2B2E4B25B1C187818B18F
:103D6000202801D02F28DFD12CB1187808B1581C99
:103D700070BD184670BD002070BD70B50D4613466D
:103D800004462A46816CFFF7AEFEA16C0144A16493
:103D900070BD2DE9F04104461546C06C4F190E4622
:103DA00087421ED9216C29B9A16BA06AFFF79CFB41
:103DB00001462064A26A908892795043E26C431EC7
:103DC0001344B3FBF0F3CB1AAA1A43433244934291
:103DD00007D201FB10710144491EB1FBF0F0BDE8B0
:103DE000F0810020FBE701238B4090F844100AB1DA
:103DF000194300E0994380F844107047C26C8A422E
:103E000002D38164002070474FF0FF3070472028B4
:103E100013D3A0F121010F2901D22D280DD1A0F13A
:103E20003A01072909D32139062902D25F2804D192
:103E300005E07A2803D97E2801D058207047A0F1E8
:103E400061011929FAD82038C0B2704770B50D4603
:103E5000134604462A46816CFFF7ABFEA16C014471
:103E6000A16470BD2DE9F35F4FF00A0A4FF0000125
:103E7000DFF824B10400D14652468C460F46D046A6
:103E80000E4611D04548057805EB85030BEB830002
:103E9000837B022B08D123684068834204D168B237
:103EA000BDE8FC9F0A2A07D1DFF8ECE001EB8103B3
:103EB0000EEB8300807B48B101EB810B0EEB8B0096
:103EC000837B012B04D0022B18D026E04AB224E0D9
:103ED0001CB123684568AB4215D05EF82B3033B176
:103EE000C57BB54219D34FFA81F82E4615E0C37B46
:103EF000634512D34FFA81FA9C460EE03CB1236829
:103F00004568AB4203D12548017048B2C8E7C07B81
:103F1000B84202D34FFA81F90746491CC9B20A29AF
:103F2000C0D34FF0FF310A2A02D10198C00731D027
:103F3000019880072ED44FF0000B0A2A01DAD5B27F
:103F400019E0B9F10A0F02DA09F0FF0513E0BAF13E
:103F50000A0F02DA0AF0FF050DE0B8F10A0F19DACC
:103F600008F0FF050C4F05EB850657F8260000F01A
:103F700017F847F826B0084805EB850200EB8200E9
:103F8000594680F80EB00CB122684260C1730348F4
:103F9000057084E7084683E78CDA002030130020A0
:103FA00070B5044608E02546D5E9004002F047F820
:103FB0002946062001F0DAFD002CF4D170BD2DE970
:103FC000F0418846054600244FF4007712E0414650
:103FD000284600F015F801190222286801F0D2FEE7
:103FE0000646394601F0BAFC3146286801F0FBFE6E
:103FF000641CA4B2A879A042E9D80020BDE8F081F1
:1040000030B50389827A446A90F83C5004FB02324E
:10401000032D02D0838902EB13128079891E01FBE4
:10402000002030BD10B5828981884FF0FF3303EB4B
:1040300042120A4492FBF1F3018A002211B182611B
:10404000416202E0816941620282C18911B142612B
:10405000816202E041698162C2810189827A446A97
:1040600002FB0411826A1944511A8279B1FBF2F100
:10407000016210BD016A40F6F5730022994201D237
:10408000012104E04FF6F573994204D2022180F831
:104090003C10C2617047032180F83C1070472DE945
:1040A000FF5F8346002608781C4692460A4637463C
:1040B00033462F2804D0DBF8305054B1256008E097
:1040C000584600F08CF80546521C04B12560107863
:1040D00088B3994601A91046FFF70CFE5FEA000875
:1040E0002AD053462A4601A95846CDF80090FEF73B
:1040F00038FD70B1761C9AF80510F6B2C90611D5D4
:104100000546424604B12560002FE3D0C4F8009074
:10411000E0E701A94046FFF7EDFDB8B1B4B1C4F83E
:10412000009013E0012701A94046FFF7E3FD0028B6
:10413000F4D14246CEE70BE046B19AF80500C0063E
:1041400006D42FB1012004B0BDE8F09F0020FAE7AB
:104150000220F8E790F83C300289817A032B04D0E2
:10416000038A01FB0321C1627047836901FB0322BB
:10417000C1698379891EF4E770B586B006460020D0
:10418000049015460C4604AB3046FFF788FF98B9FB
:1041900001A92046FEF747FD00280ED001242B463A
:1041A000009401A93046049AFEF7DBFC80B9304642
:1041B0000499FEF7EDFB10B1002006B070BD2B4650
:1041C000009401A93046049AFEF7CBFC0028F4D0F5
:1041D0000120F2E7826A0068002101F0B7BD90F883
:1041E0003C10032901D001207047C069704770B5A9
:1041F000064688680C46002510B9E068C4E90150FD
:10420000206940B10DE02178606808446060A068D2
:104210000844A060257021463046FFF707FA0028C1
:10422000F1D0206970BD70B50C46054606E000224D
:1042300021462846FFF770F928B1641C286AA0427D
:10424000F5D8002070BD204670BD022070470020C8
:1042500070470020CA60C1E9010208610870486126
:10426000704700B50246FFF7BAFF106300BD70B596
:1042700005460C46084600F01EF8B0B12146284617
:104280002C6000F02FF8284600F084F880B1284612
:10429000FFF7C8FE2846FFF7EDFE2846FFF75AFF56
:1042A0002846FFF7DEFF002070BD4FF0FF3070BDE5
:1042B0006FF0010070BD70B504460522002101F0C9
:1042C00061FD05464FF4FF71FFF726F8A0F52A427D
:1042D000553A01D0002070BD2946204601F083FDEB
:1042E000012070BD70B50E460446052200213046FF
:1042F00001F048FD05460B21FFF70EF8A080687B12
:10430000A0710E212846FFF707F82081287CA072B3
:1043100011212846FFF700F8A08113212846FEF757
:10432000FBFFE08116212846FEF7F6FF20822021C0
:104330002846FEF7F8FF606124212846FEF7F3FFC8
:10434000A0612C212846FEF7EEFFE06129463046A9
:10435000BDE8704001F047BD70B50D460646094CFA
:1043600005E030466168FCF757F920B12468002C5D
:10437000F7D1002070BDA0682860E0686860012067
:1043800070BD0000940601080A0C828241837047C8
:10439000FFF720BF30B5024601209188B1F5007FBC
:1043A00000D000209179012903D00023022919D0DF
:1043B00000E0012300242343042915D000242343D3
:1043C000082913D000242343102911D000242343AB
:1043D00020290FD00024234340290DD000210B4376
:1043E0000CD00CE00124E6E70124E8E70124EAE729
:1043F0000124ECE70124EEE70121F0E70020118918
:1044000001B9002011681425138A0C6891F9041071
:1044100005EB011161581BB1994200D2002030BD5B
:1044200092699142FAD330BD00BA704740BA7047E2
:1044300010B50C46082001F0E3FA010014D000206A
:1044400008604860204602F0A1F90949204603F0BF
:10445000BEFC0849204602F0D1FB0A22064920464C
:1044600003F0D8F8002010BD4FF0FF3010BD000061
:10447000994400086F2900087D44000810B50A46D9
:1044800028B10146104602F08AF8002010BD084607
:1044900002F0DCF9F9E700002DE9F0438DB04FF0B0
:1044A00000045FEA03081746894606460094019413
:1044B00009D147B13989484603F09AFC306830B1D8
:1044C000384601F0BCFD58EA07007DD0B8E07D68B1
:1044D00011225DA12846FBF794FF88B10F225FA14E
:1044E0002846FBF78EFF98B3042260A12846FBF70D
:1044F00088FF00286ED031464846FEF722FAE2E7F0
:10450000384601F09CFD5B48FCF7AAF9C11700EBA7
:104510005170C110642091FBF0F0C0B26FF018022E
:10452000424301EB82020A2192FBF1F14B4203EB81
:10453000830302EB4303504A3030303182F8A30B3F
:1045400082F8A41B303382F8A53B69464BA03EE0BD
:10455000FFE70F240020FEF731F80120FEF72EF8C8
:104560000220FEF72BF80320FEF728F824E0641C55
:10457000285D6C2820D1641C285D65281CD1641C32
:10458000285D642818D1A41C285D312802D10020A0
:10459000FEF720F8285D322802D10120FEF71AF834
:1045A000285D332802D10220FEF714F8285D342854
:1045B00002D10320FEF70EF8285D2028D7D1384617
:1045C00001F03DFD694601E036E003E030A0FFF771
:1045D000C3FE21E02A181179202903D00D2901D02A
:1045E0000A2900D11471401C2828F3DB0020014661
:1045F00002AA6B181B791354401C1318491C13F89A
:10460000013C0BB12828F4DB384601F018FD69465F
:1046100002A8FFF7A1FE60B10098306001987060B9
:104620003146484601F0BBFF1E49484603F0B3FC43
:1046300049E769461CA0CAE731464846FEF781F9BA
:104640000DB00020BDE8F083474554202F53544D52
:10465000333246313037414443000000474554204F
:104660002F6D6574686F643D67657400474554201D
:104670000000000000240140080000202F53544D8A
:104680003332463130374144432E68746D6C00003C
:104690002F53544D3332463130374C45442E6874D5
:1046A0006D6C0000B94600082F53544D333246312B
:1046B00030372E68746D6C0010B50A4601464068AC
:1046C0000028104602D001F06AFF01E0FEF739F938
:1046D000002010BD10B502F039FD044650220649F5
:1046E00002F056F8FF21204602F0EEFCBDE8104033
:1046F000024901F0C3BF0000FC1801083144000862
:104700000A46032100F08AB82DE9FE4F44680546A9
:104710008A46208801F0FEFAC0F303204FEA8009A0
:10472000C9F100018846284601F0ABFC002870D191
:10473000288904286DD368680078082869D1012683
:104740004FF0704001F0E4FA216900EA01074FF0F0
:10475000604001F0DDFA874200D10026514604F1A5
:10476000100000F07BFC002853D1002E51D0288986
:1047700008284ED3284600F0F7F8E8BB2221284647
:1047800001F07FFCD0B14946284601F07AFC98BB85
:1047900029890022022001F02AFB060039D029468F
:1047A00001F0D1FB40BB41463046746801F069FC22
:1047B00010BB284601F043FC354605E06FF02101AF
:1047C000284601F05EFCB8B96868E1682269E260D9
:1047D0002161002606704680208901F09BFAC0B254
:1047E00040F47F40FFF722FE20816681494628463B
:1047F00001F047FC00B900E00BE00121CDE90061C8
:10480000FF230022CDF808A004F10C01284600F097
:10481000A1FD2846BDE8FE4F01F011BC2DE9FC4783
:1048200091460E46804600222421012001F0DFFA45
:10483000050024D06C68D8F804701C22267084F817
:1048400001900026A680E6806868D8F80410083039
:10485000FBF722FE66806989204600F07FF86080C1
:104860000120CDE90060FF2307F10C02002128465A
:1048700000F056FD2846BDE8FC4701F0E0BBBDE86E
:10488000FC870A460B21FFF7C9BF38B5044600F084
:1048900023F8204601F070FD002802DA4FF0FF30C7
:1048A00038BD204601F0B2FD002802DA6FF00100A9
:1048B00038BD6946204601F0BDFD0098410A2160DF
:1048C0000098C00501D0491E2160002038BD4FF47A
:1048D000007301F0FABD000070B5FDF7A9FD1021CD
:1048E0000B48FCF7C9FD0B4D0024FF212846FDF7BE
:1048F00024FE02212846FDF717FE0028F9D028469D
:10490000FDF719FE641CE4B2152CEED370BD000057
:1049100000080140003C004070B50D4D0C461021D0
:104920002846FCF7A7FD21460A4C2046FDF705FE68
:1049300002212046FDF7F8FD0028F9D02046FDF7BA
:10494000FAFDC4B210212846FCF796FD204670BD42
:1049500000080140003C004001F0EFBD10B500F040
:10496000D2FFC04380B210BD70B500240546264674
:1049700013E06989686800F0C6FF204481B201EB4A
:104980001044A87AC00707D0C6F10100C6B2E0B251
:10499000C4F3072141EA00242D68002DE9D126B196
:1049A000E0B2C4F3072141EA0024E04380B270BDC5
:1049B00002898A4202D80521017370470144487F69
:1049C0000028FAD0401E487770472DE9F047164678
:1049D0008846814600F0BDF800B2411C4FF40075D6
:1049E00001D081B20EE0484600F067F804B2601CC6
:1049F0004FF0FF3710D0A2B24146484600F076FA99
:104A000088B9A1B2484600F07AF92A46314600F04A
:104A1000AEFF0020BDE8F08732464146484600F030
:104A200088FA0028F6D03846F4E72DE9F0419046A0
:104A30000E46074600F08DF804B2601C4FF4007576
:104A40000CD0A1B2384600F05AF901462A46404639
:104A500000F08DFF0123A1B202221EE0384600F0D3
:104A60002CF804B2601C1ED0A1B2384600F047F901
:104A700001462A46404600F07AFFA1B2384600F0CF
:104A8000BDFA07EB8400A1B28661012302223846F9
:104A900000F0C3FA0123A1B20022384600F0BDFAAB
:104AA0000020BDE8F08142463146384600F0C6FAA3
:104AB0000028F6D04FF0FF30F3E730B5054600246C
:104AC00007E000222146284600F0F8F838B1641CBF
:104AD000A4B22889A042F4D84FF0FF3030BD204660
:104AE00030BD2DE9F043FF2705464FF0FF39002484
:104AF00029E005EB0408698998F81F00884220D254
:104B0000002602222146284600F0D8F800B17F2670
:104B100098F81F004D2148436989B0FBF1F08319D3
:104B20002146284600F0F6F800EB001000EB4000AC
:104B3000FF21B0FBF1F01844C6B2BE4201D23746A5
:104B4000A146641CA4B22889A042D2D84846BDE838
:104B5000F08370B50E46054600240EE00022214683
:104B6000284600F0ABF830B105EB84008069B04214
:104B700001D1204670BD641CA4B22889A042EDD8A2
:104B80004FF0FF3070BD2DE9F04300254FF0FF38A6
:104B900081464746FF262C462CE02146484600F039
:104BA0002FF928BB02222146484600F087F818B9A1
:104BB00015B90125FF26474602222146484600F046
:104BC0007DF868B16DB92146484600F0A3F8B042BF
:104BD0000ED827463946484600F09CF8064607E0BE
:104BE00035B102222146484600F068F80028EAD094
:104BF000641CA4B2B9F80800A042CED83846BDE87B
:104C0000F0832DE9F041164605460F46B14201D921
:104C100017460E4600241FE005EB84008069B84269
:104C200019D3B04217D8A1B20222284600F046F8A4
:104C300088B1A1B2284600F014F818B14FF0FF3047
:104C4000BDE8F0812819407F28B9A1B200230222D3
:104C5000284600F0E2F9641C2889A042DCD8002034
:104C6000EEE72DE9F0410E46044600F048F8070053
:104C70004FF0FF3511D002223146204600F01EF8D9
:104C800068B104EB86003A468169204600F0D6F907
:104C900038B114F11D0F09D00EE0082002E0092000
:104CA00000E0042020732846BDE8F08100230222A2
:104CB0003146204600F0B1F90020F5E703898B4228
:104CC00003D802210173FF20704708440121007FAF
:104CD00091400840704742688A4204D8038902EB39
:104CE00043238B4204D8082101734FF0FF307047F3
:104CF000881AC11700EBD150401200B270470289E8
:104D00008A4203D80521017300207047406800EBF8
:104D10004120704702898A4203D80521017300208F
:104D200070470844807F70472DE9F04115460F46D3
:104D30000646FFF70EFF0446401C55D10FE0A1B216
:104D4000304600F074F8680703D4A1B2304600F092
:104D500061F8A1B23046BDE8F041FFF7D0BF304660
:104D6000FFF7ABFE0446401C0FD13046FFF70BFFA8
:104D70000446401C16D0A1B202223046FFF79EFF27
:104D800018B1A1B23046FFF76CFFA1B2304600F077
:104D900035F9A2B23946304600F0A8F808BB022D1A
:104DA00024D0CCE73046FFF79CFE0446401C24D0BC
:104DB000A1B202223046FFF781FF18B1A1B23046FE
:104DC000FFF74FFFA1B2304600F06DF848B9A1B22D
:104DD000304600F013F9A2B23946304600F086F8AA
:104DE00010B10020BDE8F081A807A8D5A1B2012329
:104DF0000222304600F011F9A1E70A203073F0E7F3
:104E000002898A4203D805210173002070470844B3
:104E1000407F704702898A4202D80521017370479A
:104E20000144887FFF28FAD0401C887770470289A8
:104E30008A4202D80521017370470144487FFF2848
:104E4000FAD0401C4877704710B5016000F120018E
:104E5000416001210181418100F0A1F8002010BDD5
:104E600010B502894FF0FF348A4202D8072101733E
:104E700004E04218D37F0BB1012B01D9204610BDAD
:104E800000EBC10404EBC30300EB81001B698361E9
:104E9000D07F04EBC001401E0B7D1377497D517715
:104EA000D077002010BD10B502894FF0FF338A4241
:104EB00001D8052103E04218D47F1CB106210173FB
:104EC000184610BD0123D37700EB810300EBC1002E
:104ED0009B698361D37F117F00EBC3031975517FF9
:104EE000D27F00EBC2004175002010BD2DE9F041DA
:104EF0000F46164604461146FFF701FF4FF0FF35F7
:104F000050B102463946204600F013F830B1032074
:104F100020732846BDE8F0810820F9E7012300222C
:104F20003146204600F079F804EB860087610020C6
:104F3000F0E770B504464FF0FF3532B12068FFF757
:104F4000C6FC002802D003202073284670BD70B52F
:104F50000546FFF7C0FE84B221462846FFF728FD2C
:104F600021462846FFF74CFFB8B92819C07FA0B1E9
:104F7000022221462846FFF7A1FE18B12146284605
:104F8000FFF76FFE21462846FFF76AFF05EB840016
:104F9000224681692846FFF7A9FF002070BD70B541
:104FA00004460089810004F1180000F0D7FC218933
:104FB00004F11C0000F0D2FC218904F11D0000F076
:104FC000CDFC218904F11F0000F0C8FC00232373ED
:104FD00019460FE0002004EBC10506E005EBC00216
:104FE000401C13611375537580B262898242F5D8F3
:104FF000491C89B220898842ECD870BD02898A4256
:1050000002D805210173704700EB81030022084498
:105010009A61027742778277704730B5058901241B
:105020008D4201D8047330BD08440124017F9440AF
:105030000BB1214300E0A143017730BD70B50446B8
:105040004FF0FF3532B12068FFF786FC002803DC03
:1050500004202073284670BD002070BD0068421CEB
:1050600012D088B191F82A2092070BD54A68824263
:1050700008D0896800EA01030A40934202D1014343
:10508000491C01D000207047012070472DE9F74FDF
:1050900084B0022205984FF0140B0021068D1046B3
:1050A00000F0A5FE5FEA000A23D04348AAF80A6090
:1050B000AAF8086020F00305CAF8045004981422E6
:1050C00041682846FBF7E8F9E88800F023FEC0F3C2
:1050D0000C0700F40050029004980089143884B240
:1050E000143EF01706EB5070C0F3CF00CDE9000678
:1050F00051E04FF0FF3007B0BDE8F08F01988442D7
:1051000001DC012000E000205FEA00090298C7F3FB
:105110000C0646EA000645D0204680B2804602468C
:105120005B4605F11401049800F055FF58441FFA3E
:1051300080FB3046FFF77AF9E88008F1140080B26E
:10514000FFF774F968800020688114212846FFF772
:1051500005FC6881B9F1000F05D004F1140081B29B
:10516000504600F0BEFF00221146022000F03FFE34
:1051700006001CD0514600F0D4FE05983146069A30
:1051800043699847304600F05AFFA4EB080084B208
:105190000098384487B2002CB0D1504600F04FFF41
:1051A0000020A8E7009846F40056C000B5E7504636
:1051B00000F045FF9DE70000AED400202DE9F04748
:1051C000456806468846288800F0A4FD0421B1EB16
:1051D000103F12D1288800F09DFDC0F303204FF648
:1051E000FF7101EA8004688800F094FD014670892F
:1051F000A04202D33089884203D2304600F01FFF1C
:1052000051E0304600F06DFFDFF80C910127444675
:1052100005F1100A204600F015FD58B1201D09D0F7
:10522000606838B1296981420FD021465046FFF7A6
:1052300015FF50B91FB10027D9F8004000E02468DD
:10524000444500D12468002CE4D1414605F10C000E
:10525000FFF704FF0028D0D14FF07049484600F016
:1052600057FDE9684FF0604A00EA0107504600F038
:105270004FFD8742C1D0002CBFD043F6FF70FFF72F
:10528000D5F8E988084205D0304600F0C9F8060094
:1052900009D07568214C41463046C4E9018500F0CB
:1052A000D9FF18B134E00020BDE8F087288900F06C
:1052B00031FDC0B2012813D006280CD01128414678
:1052C00005D005F11000FFF7C9FE70B11DE03046B2
:1052D00003F0BEF91CE04146304601F0BFFC17E088
:1052E00041463046FFF710FA12E0484600F010FD44
:1052F000296900EA0107504600F00AFD874204D000
:10530000022130467560FFF7FBF9304600F097FE4A
:1053100000206060A060C6E7101300201C1300206E
:105320002DE9FE438146DDE90A541F4616468846AC
:10533000104600F049FA50B10095CDE901403B46D6
:1053400032464146484600F005F8BDE8FE836FF05E
:105350000300FAE72DE9F05F1F46DDE90BA5DDF854
:1053600028B05FEA02088946064641D0142130463B
:1053700000F087FE18B16FF00100BDE8F09F74687F
:10538000208900F0C7FC67F31F20FFF74FF820814A
:1053900000F0C0FC20F0FF0040EA0A00FFF746F8EA
:1053A0002081D8F8000020611FFA8BF040F48A4079
:1053B000FFF73CF820803089FFF738F8174F6080FE
:1053C0004FF0000AA4F806A03888FFF72FF8A08055
:1053D0003888401C3880B9F1000F02D0D9F800009D
:1053E00010B9281D00D06868E060A4F80AA002E0A7
:1053F000706800F11008288D48B13189814206D9C2
:10540000424629463046BDE8F05FFFF73FBE4246C0
:10541000314628466B69BDE8F05F18471C13002031
:105420002DE9F14F002700984468208800F072FCB5
:10543000C0F3032005287DD1E08800F06BFCC00498
:105440004FEA104A608800F065FC0546208800F0AD
:1054500061FCC0F30320404205EB80001FFA80F995
:10546000009800F067FD594D0646288830440A2808
:1054700009D93146204600F06DF900285AD0288815
:1054800030440A2856D8A8466D684FF0000B0DE04E
:105490006869E168884207D1A8692169884203D117
:1054A000A889A188884204D02F462D68002DEFD10D
:1054B00006E02DB1E08800F02DFCC00424D02EE0E1
:1054C000052000F08BFB05000AD13146204600F094
:1054D00041F9B04216DB052000F080FB050011D039
:1054E0002021FBF772F80320E877D8F80410296030
:1054F0001422214605F10800C8F80450FAF7CCFF41
:10550000C5B10CE05D46FBE7E88900F003FCC00490
:1055100005D01422214605F10800FAF7BDFFB8F8BE
:1055200000103144A8F80010E08800F0F3FB80047C
:1055300008D400E045E0A87F40F00100A8770AEB1E
:105540000900A8832846009900F042F8002836D0C8
:10555000A88B14221430A883686805F108014668F6
:1055600030463468FAF798FFA88BFEF75FFF70802B
:10557000A6F806B0A6F80AB014213046FFF7EEF9F7
:1055800070816FF0130AD5F8049009E05146204667
:10559000666800F076FD2146484600F0AEFC3468AF
:1055A000002CF3D13946284600F08AF8484600F02E
:1055B000C1FCB8F80020101AA8F800004846BDE861
:1055C000F88F009800F03BFD0020F8E7281300203A
:1055D0002DE9F047D1F8049080460E4600240125BD
:1055E000B9F8020000F096FB0746B9F8000000F099
:1055F00091FBC0F30320404207EB8007B9F8060097
:1056000000F088FBC0047268030C00201060D819F9
:1056100093801FFA80FCA2F806C0D8F804101CE0A2
:1056200048688788BB420DD211603CB1E788BB4215
:1056300036D38088844533D8266001E0C8F80460FA
:1056400069B116E02CD0C1888B4229D31CB1E18806
:10565000B94200D00025016804460029E0D134B1E8
:105660002660E0889188884203D0002501E0C8F8D0
:10567000046098F81E00C0070ED065B1D8F8040089
:105680004068808830B9116829B14868D18882881B
:10569000914203D000252846BDE8F0870246F2E794
:1056A000304600F047FC014604480288511A018048
:1056B000304600F0C4FC0020EEE700002813002074
:1056C000074A30B40B4654680168844201D15160E6
:1056D00000E01960014630BC052000F047BA000028
:1056E000281300202DE9F04144680646884660688A
:1056F0000025818891B900687060142206F10801C4
:105700006068FAF7C9FE01212046FFF7BAF8204683
:1057100000F010FC0546204600F091FC746809E09A
:10572000606827460468384600F004FC05443846A3
:1057300000F085FC002CF3D141463046FFF7C0FF56
:1057400003490888401B08802846BDE8F081000016
:10575000281300202DE9F041DFF868800F46054648
:105760000026002213461446D8F804001AE04169C6
:10577000D5F80CC0614509D18169D5F810C06145E3
:1057800004D18189B5F804C0614507D0641C22B1F9
:10579000C17F92F81FC0614500D80246016801B17F
:1057A000034608460028E2D122B119461046FFF709
:1057B00099FF0644BE4201DA012CD2DC3046BDE836
:1057C000F08100002813002070B505460E480468DB
:1057D0000DE0204600F036FA40B1A0682968626802
:1057E00001400240914201D1204670BD2468002C46
:1057F000EFD1064C206820B100F024FA08B12068EF
:1058000070BD002070BD0000101300201413002094
:1058100070B5062100F8201F1C490A7842704A78AA
:1058200082708A78C270CA7802710A7942714979A5
:10583000817140F2DC5101813221817214490222CE
:10584000A1F5BF50FBF734F912490422A1F1600021
:10585000FBF7F0F80F4D0024603D05EB041001212B
:10586000FBF70EF9641C042CF7DB0A4D0024203DE5
:105870004FF4400605EB04103146FBF73DF9641C7C
:10588000022CF7DBBDE87040FBF71ABBB412002016
:10589000F4310020341A002070B50C460025FBF7C7
:1058A0004DF9064607E0628970196168FAF7F4FD60
:1058B000608924680544002CF5D1A8B2FBF750FBA1
:1058C000002070BD3EB515460446016008466B4693
:1058D00001AA2946FEF7E3FB022802D04FF0FF3071
:1058E0003EBD206804F11C01009AFEF7B2FC1421B1
:1058F00004F1080000F032F80020E0804FF6FF705D
:10590000A08000203EBD30B4002208E010F8013B2A
:105910001C0210F8013B2343891E1A4489B2012955
:10592000F4D811B1007802EB002290B200EB1240E3
:10593000010C02D081B201EB104030BC80B2FEF706
:1059400075BDFCF753FFFCF7BFFBFBF7CBFDFEF784
:10595000C1FE02F027FEFCF73DFFFCE7002203E05A
:105960004318491E03F8012C0029F9D1704710B5DE
:1059700006E083188C1813F8013C04F8013C521E11
:10598000002AF6D110BD70B500FB01F5A8B200F0F9
:1059900037F8040002D02946FAF7F5FD204670BD1D
:1059A000002810D008494A6890420CD38A68904277
:1059B00009D2002200F8042CCA680838904200D2AC
:1059C000C86000F0BBBB7047FC1200200A4810B54D
:1059D0000A4A20F003014FF4A04351600B800024D9
:1059E0004C800C7101F5A04001249060047103808B
:1059F00043801470D16010BDEB3D0020FC120020EC
:105A0000F0B5002847D04FF6FC71C01C00EA010336
:105A10004FF4A04C0C2B01D20C2301E063453ED87F
:105A2000DFF880E0C3F5A044DEF80C50DEF8042077
:105A3000A81A81B231E0501806796EBB0688761A32
:105A4000083E9E4228D3048803F11406641A0127F5
:105A5000083CB44210D30B4408339CB213190026FF
:105A60001E7106881E80598004800771198861455F
:105A700003D0931CCC5200E00771A8420AD1DEE9A2
:105A800002310C7934B1994204D009881144CEF81E
:105A90000C10F6E70830F0BD515A8C42CBDC0020E8
:105AA000F0BD0000FC1200202DE9F04F4FF6FC7213
:105AB000C91C11404FF4A0490C2901D20C2101E06E
:105AC000494510D8284E7468A0420ED3B26890425F
:105AD0000BD2A0F10802131B15889BB2EF1A083FE6
